:020000040800F2
:10000000F0050020A1010008C3240008E920000831
:10001000C1240008410B0008292E00080000000040
:10002000000000000000000000000000C7240008DD
:10003000430B000800000000C5240008F925000853
:10004000BB010008BB010008BB010008BB010008A0
:10005000BB010008BB010008BB010008BB01000890
:10006000BB010008BB010008BB010008BB01000880
:10007000BB010008BB010008BB010008BB01000870
:10008000BB010008BB010008BB010008BB01000860
:10009000BB010008BB010008BB010008BB01000850
:1000A000BB010008BB010008BB010008BB01000840
:1000B000BB010008BB010008BB010008BB01000830
:1000C000BB010008BB010008BB010008BB01000820
:1000D000BB010008BB010008BB010008112E00088D
:1000E000BB010008BB010008BB010008BB01000800
:1000F000BB010008BB010008BB010008BB010008F0
:10010000BB010008BB010008BB010008BB010008DF
:10011000BB010008BB010008BB010008BB010008CF
:10012000BB010008BB010008BB010008BB010008BF
:10013000BB010008BB010008BB010008BB010008AF
:10014000BB010008BB010008BB010008BB0100089F
:10015000BB010008BB010008BB0100081D2E000800
:10016000BB010008BB010008BB010008BB0100087F
:10017000BB010008BB010008BB0100080000000033
:10018000BB010008BB010008DFF810D000F018F92F
:1001900000480047B12E0008AFF30080F0050020B2
:1001A0000648804706480047FEE7FEE7FEE7FEE711
:1001B000FEE7FEE7FEE7FEE7FEE7FEE78D26000826
:1001C000890100082DE9F05F0546002092469B4614
:1001D00088460646814640241BE02846414647465D
:1001E000224600F08FF853465A46C01A914110D368
:1001F00011461846224600F076F82D1A67EB0108E2
:100200004F4622460120002100F06DF817EB00094F
:100210004E41201EA4F10104DFDC484631462A4647
:100220004346BDE8F09F40EA01039B0703D009E085
:1002300008C9121F08C0042AFAD203E011F8013BD2
:1002400000F8013B521EF9D27047D2B201E000F82B
:10025000012B491EFBD270470022F6E710B513466A
:100260000A4604461946FFF7F0FF204610BD00007D
:1002700070B50F4D00B92868002412E00A4602E06C
:100280009E4203D0521C1378002BF9D1DAB22243DC
:1002900005D02BB124B1002100F8011B04E0044675
:1002A000401C0678002EE9D12860204670BD000071
:1002B00018000020C1F30A5210B5C1F3130140F237
:1002C000FF3341F480119A4201DA002010BD40F260
:1002D00033439A42A2F2334203DC524200F012F856
:1002E00010BD904010BD202A04DB203A00FA02F134
:1002F000002070479140C2F1200320FA03F3194314
:1003000090407047202A04DB203A21FA02F00021B5
:10031000704721FA02F3D040C2F120029140084315
:10032000194670470FB4002300B589B00CA900919D
:100330000B996FF00042CB601E4B06931E4B079348
:100340000423CDE901321D4A089202466B46002083
:1003500000F0E2F809B05DF814FB70B586B006460F
:100360004FF0FF300091CDE90101002015460C4609
:1003700004903246694604A8FFF7D4FF0246049869
:10038000211825B108B1084600E0204628600498ED
:1003900000280DD0002A02DD0098884208D0081BF2
:1003A0000094CDE901043246694604A8FFF7BAFF7C
:1003B00006B070BD510700086F070008E50300088C
:1003C000064C074D06E0E06840F0010394E80700A2
:1003D00098471034AC42F6D3FFF7DAFE0C31000830
:1003E0002C310008C0B24FF4F05100F0D1B9000038
:1003F0002DE9FF4F087883B09946FF2805D0491CA6
:100400002D2804D00024002008E000200BE0012467
:10041000F9E700EB800003EB4000491C0B78FF2B51
:10042000F7D104B1404200230293147819461D46C7
:100430002D2C01D02B2C04D1521C2D2C13D0002498
:100440000294AA461478FF2C0FD00A25A3FB057846
:1004500001FB05814FF0000C03FB0C11521CE3194A
:100460004AEB0101EEE70124EAE7814453EA010087
:1004700002D019F5C87F06DA03980021C0E90011FF
:1004800007B0BDE8F08F0025AE4E2F46DFF8B882EA
:10049000184600F072FACDE90001B9F1000002DA65
:1004A000C9F1000400E004460023A74A1AEB030B3D
:1004B00042EB045A12E0E00707D02A46334638469A
:1004C000414600F079F9074688462A4633461046E9
:1004D000194600F071F905460E466410002CEAD169
:1004E000DDE90001B9F1000F5A46534606DA00F083
:1004F000D5F93A46434600F0D1F905E000F05CF941
:100500003A46434600F058F9029A0AB181F0004198
:10051000039AC2E90001B3E72DE9FF4F1F468DB0F2
:10052000D7E901464FF0FF382E2045464FF000092D
:100530000B90B9696D1C0E988847396A82468847C6
:100540000028F6D1BAF1FF3F0AD024F4D064002E7F
:1005500011DDBAF12B0F08D0BAF12D0F0BD102E04B
:10056000404611B08DE744F48064B9696D1C0E9863
:1005700088478246761E6946600501D52D2000E039
:100580002B208DF8000001F1010B0DF1200809E08E
:10059000B9696D1C0E98884782460F9844F4007420
:1005A000761E0560002E02DDBAF1300FF0D00B99F7
:1005B0008A453ED144F0800406E00F99681CA9F1F9
:1005C000010944F400740860B9696D1C761E0E9828
:1005D000884782463028F0D02BE00B998A4505D118
:1005E000200603D444F08004761E18E0504602F042
:1005F00057FC08B30DF11301761E44F400748B45CB
:1006000008D2AAF130000BF8010B200607D5A9F19A
:10061000010003E0200602D409F101008146A00593
:1006200002D50F99681C0860B9696D1C0E9888473F
:100630008246002ED1DC53E0002E51DDBAF1650F69
:1006400002D0BAF1450F4BD1A00549D5B9696D1C4F
:1006500024F44074761E0E9888478246002E0CDDE6
:100660002B2804D0BAF12D0F07D144F48074B96956
:100670006D1C0E9888478246761EE00501D52D2117
:1006800000E02B2108F8011BCDF82C8021E00DF1B2
:100690002901761E44F4007488450CD2AAF130007A
:1006A00010F0FF0088F8000002D10B99884509D9A5
:1006B00008F1010806E0E00501D5244801E042F216
:1006C0000F708146B9696D1C0E98884782460F9855
:1006D0000560002E04DD504602F0E2FB0028D6D172
:1006E000F9690E988847FF208BF8000088F8000011
:1006F0000020069007904B466A4608A906A8FFF717
:1007000077FEA00502D46FF001002AE714F0240F51
:100710000AD0E00714D1DDE906123868031D3B60FA
:100720000068C0E900120BE0DDE9060100F031F9D4
:100730000146E00704D13868021D3A600068016094
:1007400028460EE7000014400000F03FF1D8FFFFFC
:10075000426842B1016811F8013B23B1521EC0E961
:100760000012184670470121C160881E7047426818
:100770005AB1C368016843B983688B4205D0491EEA
:10078000521CC0E90012002070474FF0FF30704744
:100790007F2801D9002208E0064A02EB5002C00778
:1007A000127800D1120902F00F0201209040084097
:1007B00070470000CC3000082DE9FE4F81EA0304A9
:1007C00004F0004421F0004100944FF0000B23F0AE
:1007D000004350EA01045ED052EA03045BD0C3F345
:1007E0000A54C1F30A552C44A4F2F3340194A0FB3B
:1007F0000254C1F3130141F48011C3F3130343F412
:10080000801301FB024400FB034E840A970A44EA6A
:10081000815447EA8357A4FB076802958D0A05FBBC
:1008200007854FEA932C04FB0C542705029D4FEAE1
:10083000065847EA1637B5EB08056EEB070C870E2E
:10084000920E47EA811742EA8312A7FB0201B6EB38
:100850000B0164EB00042B0D43EA0C335E1844EBF0
:100860001C50DA465146E7FB0201C5F313044FEA78
:100870000B3343EA14534FEA0432019C43EA060364
:10088000A4F10C040294009CCDE900B400F0E3F85C
:1008900003B0BDE8F08F00200146F9E72DE9F04DE7
:1008A00081EA030404F0004B21F0004514464FF0A8
:1008B000000A23F0004150EA050220D054EA010268
:1008C0001DD0C5F30A570246C5F31303C1F3130045
:1008D000C1F30A5640F4801543F48013A7EB0608D1
:1008E000101BD64608F2FD3873EB050002D308F161
:1008F000010801E092185B41B8F1000F03DA002013
:100900000146BDE8F08D00204FF480110646844674
:100910000EE0171B73EB050705D3121B63EB0503F2
:1009200006434CEA010C49084FEA300092185B413B
:1009300050EA0107EDD152EA030012D082EA040026
:1009400083EA0501084305D0101BAB4106D2012202
:10095000002306E000224FF0004302E06FF00102A6
:1009600053101AEB06004CEB085110EB0A0041EB58
:100970000B01BDE8F04D00F05FB80EB540F2334218
:1009800002920022CDE90022134600F064F803B081
:1009900000BD01F0004330B421F0004150EA0102F3
:1009A00006D00A0DA2F56072C1F31301002A02DC21
:1009B00030BC00207047440F44EAC104C100E01875
:1009C00030BC00EBC250AFF300800029A8BF7047D5
:1009D000401C490008BF20F00100704710B4B0FA75
:1009E00080FC00FA0CF050EA010404BF10BC704710
:1009F00049B1CCF1200421FA04F411FA0CF118BF2A
:100A0000012121430843A3EB0C01CB1D4FEA0061F8
:100A10004FEA102042BF002010BC704700EBC350CB
:100A200010440029A4BF10BC7047401C490008BFF7
:100A300020F0010010BC704710B5141E73F10004C3
:100A400008DA401C41F1000192185B411A4301D1C0
:100A500020F0010010BD2DE9F04D92469B4611B1EA
:100A6000B1FA81F202E0B0FA80F220329046FFF74C
:100A70003AFC04460F4640EA0A0041EA0B0153469D
:100A80005A46084313D0114653EA010019D0C8F161
:100A900040025046FFF736FC05460E465046594682
:100AA0004246FFF720FC084305D0012004E0204621
:100AB0003946BDE8F08D0020054346EAE0762C4338
:100AC00037430A986305E40AA0EB08000022FD0AF8
:100AD00044EA47540A3002D500200146E9E70105FF
:100AE00010196941DDE9084500196941BDE8F04D7B
:100AF000A2E7000030B585B014220E496846FFF722
:100B000092FB0D4D4FF4004400222146284600F090
:100B100023FA032000F0F4F86423142269460748FE
:100B200001F07CFA01222146284600F015FA05B0B2
:100B300030BD000014300008000402403C010020D9
:100B4000FEE7704730B585B014220E496846FFF7BE
:100B50006AFB0D4D4FF4004400222146284600F068
:100B6000FBF9012000F0CCF8642314226946074801
:100B700001F054FA01222146284600F0EDF905B0B3
:100B800030BD000078300008000402403C01002025
:100B900030B585B014220E496846FFF744FB0D4D71
:100BA0004FF4004400222146284600F0D5F90120E8
:100BB00000F0A6F8642314226946074801F02EFAD3
:100BC00001222146284600F0C7F905B030BD0000DB
:100BD00028300008000402403C01002070B5134B8F
:100BE0000021084603F114041A5C12B16254491C36
:100BF000C9B2401CC0B21428F6D30C4800240CA182
:100C00001430FFF735FB0B4D0DE000BF02F010F97B
:100C100051EC100BFFF74EFB285505A10020FFF704
:100C200027FB641CE4B20028F0D170BDC401002091
:100C30002F000000040000202DE9F0410446A66DBD
:100C400000F092F9054694F835000027022806D0F6
:100C50008020606584F834700120BDE8F081206850
:100C6000016821F0160101602068416921F08001CE
:100C70004161206C08B9A06C20B12068016821F0A6
:100C8000080101602068016821F00101016020680D
:100C9000006810F0010F12D000F066F9401B052823
:100CA00008D920206065032084F8350084F834706A
:100CB000BDE8F0812068006810F0010FECD194F8D5
:100CC0005C003F2101FA00F0B060012084F835009B
:100CD00084F834700020BDE8F08190F835100229C6
:100CE00003D08021416501207047052180F835102F
:100CF0000068016821F001010160002070470000D8
:100D000070B5044600F030F90546B4F1FF3F02D05B
:100D100004480078044400F027F9401BA042FAD3AD
:100D200070BD00000C0000202DE9F84F0022DFF814
:100D30001492DFF814A2DFF814B24FF0010E03276B
:100D40004FF00F080EFA02FC0B6803EA0C03634530
:100D50007DD10C7904F00304012C01D0022C14D1B4
:100D60008568540007FA04F6B543CE6806FA04F421
:100D70002C438460446824EA0C0C0C79C4F30014FE
:100D8000944044EA0C0CC0F804C0D1F804C037EA1F
:100D90000C0C0CD0C4684FEA420C07FA0CF5AC43BB
:100DA0008D6805FA0CFC4CEA040CC0F80CC091F8F4
:100DB00004C00CF0030CBCF1020F12D14FEAD20CAC
:100DC00000EB8C04256A4FEA427C4FEADC6C08FA9F
:100DD0000CF6B5430E6906FA0CFC4CEA050CC4F897
:100DE00020C004684FEA420C07FA0CF5AC430D79B9
:100DF00005F0030505FA0CFC4CEA040CC0F800C031
:100E0000D1F804C01CF4403F7DD0D9F800C04CF4A8
:100E1000804CC9F800C0D9F800C00CF4804CCDF863
:100E200000C022F0030C0CF1804505F59835D5F88B
:100E300008C89407240F08FA04F62CEA0606A0F165
:100E4000804CBCF5003C64D0A0F1804C00E05AE03E
:100E5000BCF5013C60D0A0F1804CBCF5023C5ED0FA
:100E6000A0F1804CBCF5033C5CD0A0F1804CBCF5FB
:100E7000043C5AD0A0F1804CBCF5053C58D0A0F100
:100E8000804CBCF5063C56D0A0F1804CBCF5073C2C
:100E900054D04FF0080C0CFA04FC4CEA060CC5F8D0
:100EA00008C8DAF800C02CEA030C4C6814F4803F40
:100EB00001D04CEA030CCAF800C0254CD4F800C09D
:100EC0002CEA030C4D6815F4003F01D04CEA030CEA
:100ED000C4F800C0DBF800C02CEA030C4C6814F422
:100EE000801F01D04CEA030CCBF800C0194CD4F899
:100EF00000C02CEA030C4D6815F4001F01D04CEA29
:100F0000030CC4F800C0521C102AFFF41BAFBDE84C
:100F1000F88F4FF0000CBEE74FF0010CBBE74FF02D
:100F2000020CB8E74FF0030CB5E74FF0040CB2E742
:100F30004FF0050CAFE74FF0060CACE74FF0070C95
:100F4000A9E7000044380240003C0140083C014051
:100F5000043C01400C3C0140002A01D081617047F3
:100F600009048161704700000148806870470000F3
:100F70000C000020024881680278114481607047AB
:100F80000C00002010B50B48016841F400710160AD
:100F9000016841F480610160016841F48071016081
:100FA000032000F085F8002000F006F800F026F895
:100FB000002010BD003C024070B504460D4D4FF4BA
:100FC0007A712878B1FBF0F00B490968B1FBF0F0B9
:100FD00000F0DEFB08B1012070BD102C07D200220A
:100FE0002146501E00F030F86C60002070BD0120DA
:100FF00070BD00000C000020080000200A4808B561
:10100000016841F480410160006800F48040009074
:101010000548001F016841F080510160006800F040
:101020008050009008BD00004438024000280ADBD0
:1010300000F01F01012202FA01F14009800000F1D5
:10104000E020C0F80011704710B4184B1B68C3F3C0
:101050000223C3F1070CBCF1040F01D94FF0040CBB
:101060001C1D072C01D2002300E0DB1E012404FA22
:101070000CFCACF1010C0CEA0101994004FA03F3F9
:101080005B1E1A401143002806DB00F1E020090135
:1010900080F8001410BC704700F00F0000F1E02051
:1010A000090180F8141D10BC704700000CED00E031
:1010B00000F00700064A11684FF6FF03194041EAA5
:1010C000002040F0FD7040F080601060704700002C
:1010D0000CED00E02DE9F04704460D46002C13D03E
:1010E000DFF85491D9F80000EFB200F00700A842F1
:1010F0000DD289F80070D9F8000000F00700A8426E
:1011000005D00120BDE8F0870120BDE8F087206808
:101110004A4E10F0020F14D010F0040F03D03068C4
:1011200040F4E0503060207810F0080F03D03068B1
:1011300040F4604030603068A16820F0F00008435F
:101140003060207810F0010F3ED060683C490128E3
:1011500008D002280DD003280BD0096811F0020F27
:1011600028D00AE0096811F4003F06D10120BDE84B
:10117000F087096811F0007F19D0316821F0030170
:1011800008433060FFF7F0FE80463068616800F089
:101190000C00B0EB810F17D041F2883AFFF7E4FE64
:1011A000A0EB0800504508D90320BDE8F0870120D6
:1011B000BDE8F0870120BDE8F0873068616800F085
:1011C0000C00B0EB810FE9D1D9F8000000F0070066
:1011D000A8420AD989F80070D9F8000000F0070089
:1011E000A84202D00120BDE8F087207810F0040F5B
:1011F00005D03068E16820F4E05008433060207882
:1012000010F0080F06D03068216920F4604040EAF1
:10121000C100306000F042F831680A4AC1F303119E
:10122000515CC8400849086008480068FFF7C4FEE0
:101230000020BDE8F0870000003C02400838024072
:1012400000380240B43000080800002010000020E0
:1012500001480068704700000800002000B5FFF753
:10126000F7FF04490968044AC1F38221515CC84070
:1012700000BD000008380240C430000800B5FFF788
:10128000E7FF04490968044AC1F34231515CC84090
:1012900000BD000008380240C430000810B51748EF
:1012A000006810F00C01164816D0164B042912D015
:1012B000082911D1144C216801F03F02216811F472
:1012C000800F0AD02068C0F38810A0FB0301002320
:1012D000FEF778FF09E0184610BD21680023C1F32E
:1012E0008811A1FB0001FEF76DFF2168C1F30141E8
:1012F000491C4900B0FBF1F010BD00000838024065
:101300000024F400001BB700043802402DE9F84F18
:101310000446002C12D02078FB4E10F0010FA6F1ED
:10132000040563D0301D016801F00C0104290CD0C4
:10133000006800F00C00082803D010E00120BDE890
:10134000F88F306810F4800F09D0286810F4003F3F
:101350004CD06068002849D10120BDE8F88F606852
:10136000B0F5803F14D0B0F5A02F16D0286820F437
:1013700080302860286820F480202860606810B3DE
:10138000FFF7F2FD0746286810F4003F0ED02DE06D
:10139000286840F480302860F0E7286840F4802016
:1013A0002860286840F480302860E7E7FFF7DCFD1C
:1013B000C01B642802D90320BDE8F88F286810F408
:1013C000003FF3D012E0FFF7CFFD0746286810F486
:1013D000003F0BD0FFF7C8FDC01B642802D90320D3
:1013E000BDE8F88F286810F4003FF3D12078C74F8C
:1013F00010F0020F4FF0000957D0C548016811F0F6
:101400000C0F14D0006800F00C00082803D13068DD
:1014100010F4800F0BD0E06880B301203860FFF734
:10142000A3FD8046286810F0020F12D01EE0286845
:1014300010F0020F05D0E068012802D00120BDE8BD
:10144000F88F2868216920F0F80040EAC100286080
:101450002BE0FFF789FDA0EB0800022802D903204A
:10146000BDE8F88F286810F0020FF2D028682169D3
:1014700020F0F80040EAC100286016E0FFE7C7F856
:101480000090FFF771FD8046286810F0020F0CD025
:10149000FFF76AFDA0EB0800022802D90320BDE88F
:1014A000F88F286810F0020FF2D1207810F0080FA2
:1014B00035D09848DFF860A26169C1B101210160AF
:1014C000FFF752FD8046DAF8000010F0020F26D137
:1014D000FFF74AFDA0EB0800022802D90320BDE86F
:1014E000F88FDAF8000010F0020FF1D017E0C0F822
:1014F0000090FFF739FD8046DAF8000010F0020F87
:101500000DD0FFF731FDA0EB0800022802D903201F
:10151000BDE8F88FDAF8000010F0020FF1D1207862
:1015200010F0040F71D04FF000087C48006810F0F4
:10153000805F0AD17948016841F0805101600068FC
:1015400000F0805000904FF00108DFF8D4B1DBF8D4
:10155000000010F4807F1BD1DBF8000040F48070A5
:10156000CBF80000FFF700FD8246DBF8000010F426
:10157000807F0DD1FFF7F8FCA0EB0A00022802D90A
:101580000320BDE8F88FDBF8000010F4807FF1D075
:10159000A068DFF890B1012818D005281DD0DBF82D
:1015A000000020F00100CBF80000DBF8000020F084
:1015B0000400CBF80000A06840B3FFF7D5FC8246DA
:1015C000DBF8000010F0020F14D03EE0DBF8000062
:1015D00040F00100CBF80000EDE7DBF8000040F040
:1015E0000400CBF80000DBF8000040F00100CBF86D
:1015F0000000E0E7FFF7B8FCA0EB0A0141F28830F9
:10160000814204D90320BDE8F88F26E005E0DBF82D
:10161000000010F0020FEDD017E0FFF7A5FC8246A6
:10162000DBF8000010F0020F0FD0FFF79DFCA0EBDD
:101630000A0141F28830814202D90320BDE8F88FC7
:10164000DBF8000010F0020FEFD1B8F1010F04D168
:101650003248016821F080510160A069F0B32C4943
:1016600009684FF0FF3801F00C01082966D0022804
:1016700010D0C7F86090FFF777FC0446286810F098
:10168000007F2BD0FFF770FC001B022851D90320EC
:10169000BDE8F88FC7F86090FFF766FC81462868C0
:1016A00010F0007F0CD0FFF75FFCA0EB09000228D0
:1016B00002D90320BDE8F88F286810F0007FF2D12E
:1016C000216AE069A26A0843616A08EB5202890153
:1016D00041EA0241084394F82C1000E055E040EA4A
:1016E0000160306001203866FFF73EFC0446286840
:1016F00010F0007F49D1FFF737FC001B022813D9F7
:101700000320BDE8F88F0000043802400000474283
:1017100008380240800E4742743802404038024088
:101720000070004070380240286810F0007FE2D05E
:101730002BE0286810F0007FA4D126E0012822D0F9
:101740003068E26900F4800191421AD1226A00F007
:101750003F01914215D147F6C071626A0140B1EB79
:10176000821F0ED1A26A00F4403108EB5202B1EBA5
:10177000024F06D194F82C1000F07060B0EB016FAE
:1017800003D00120BDE70120BBE70020B9E700003E
:10179000401EB0F1807F01D3012070474FF0E0215F
:1017A0004861044AF0201070002088610720086119
:1017B0000020704723ED00E090F83C20012A2CD057
:1017C000012280F83C20CA680023D1F808C022F426
:1017D000407242EA0C02D1F804C022F4806242EA6C
:1017E0000C02D1F800C022F4006242EA0C02D1F8E7
:1017F00010C022F4805242EA0C02D1F814C022F444
:10180000005242EA0C02C96922F480421143026884
:10181000516480F83C30002070470220704730B49B
:1018200090F83C20012A44D0012480F83C40022258
:1018300080F83D200268D2F804C093682CF0700C48
:101840000D6845EA0C0CC2F804C00268A2F1804C95
:10185000BCF5803C20D0B2F1804F1DD0A2F1804C6D
:10186000BCF5806C18D0A2F1804CBCF5006C13D094
:10187000A2F1804CBCF5406C0ED0A2F1804CBCF5BE
:10188000823C09D0A2F1804CBCF5A03C04D0A2F16E
:10189000804CBCF5C05C04D123F080034968194337
:1018A000916080F83D40002180F83C1030BC002061
:1018B000704730BC0220704770B505460C460026C4
:1018C00095F83C0001280FD0012085F83C006AB152
:1018D000042A1CD0082A2CD00C2A3BD00126002038
:1018E00085F83C00304670BD022070BDE368626838
:1018F0002168286801F038F82868816921F00C0116
:10190000816128688169A26811438161E7E7E36822
:1019100062682168286801F06EF82868816921F4FE
:101920004061816128688169A26841EA0221816180
:10193000D5E7E36862682168286801F07CF82868C8
:10194000C16921F00C01C1612868C169A268114315
:10195000C161C4E7E36862682168286801F089F81A
:101960002868C16921F44061C1612868C169A26821
:1019700041EA0221C161B2E710B50446002C03D050
:1019800094F83D0010B107E0012010BD002084F85C
:101990003C00204600F01EF8022084F83D00211D86
:1019A000206800F09FFE012084F8460084F83E0085
:1019B00084F83F0084F8400084F8410084F8420035
:1019C00084F8430084F8440084F8450084F83D001E
:1019D000002010BD70B586B0044614216846FEF79D
:1019E0003BFC214A256800231F49103A02241F4866
:1019F000B5F1804F1ED01E4EB54219D10D6845F08D
:101A000002050D60096801F002010591116841F0BD
:101A100001011160116801F001010591402100915F
:101A2000CDE90143CDE90334694600BFFFF77CF9F6
:101A300006B070BD0D6845F001050D60096801F044
:101A400001010591116841F001011160116801F077
:101A50000101059122210091CDE901430121CDE948
:101A600003316946E2E700004038024000000240CE
:101A70000004004010B586B0044614216846FEF705
:101A8000EBFB0E492068884216D10D480021026800
:101A900042F004020260006800F0040005904FF478
:101AA000807000900220CDE901010320CDE90310F0
:101AB00069460448FFF738F906B010BD000401403C
:101AC000303802400008024070B50446002594F802
:101AD0003C0001280FD0012084F83C006AB1042AA0
:101AE0000FD0082A11D00C2A13D00125002084F829
:101AF0003C00284670BD022070BD206800F058FEF2
:101B0000F4E7206800F08CFEF0E7206800F0C4FEE7
:101B1000ECE7206800F0FCFEE8E710B50446002C76
:101B200003D094F83D0010B107E0012010BD002063
:101B300084F83C00204600F01FF8022084F83D00A5
:101B4000211D206800F0CEFD012084F8460084F8B5
:101B50003E0084F83F0084F8400084F8410084F897
:101B6000420084F8430084F8440084F8450084F877
:101B70003D00002010BD000008B5006806498842FD
:101B800008D10648016841F002010160006800F0D8
:101B90000200009008BD00000004014044380240EB
:101BA00070477047F8B5044622681068D1685369D9
:101BB00000F00F0CBCF1000F0AD110F0200F07D07D
:101BC00011F0200F04D02046BDE8F84000F0ADBF72
:101BD0000025BCF1000F75D003F0010C01F49076E4
:101BE0005CEA06066ED010F0010F06D011F4807F7B
:101BF00003D0226C42F00102226410F0040F06D0E0
:101C000013F0010F03D0226C42F00202226410F0A4
:101C1000020F06D013F0010F03D0226C42F0040231
:101C2000226410F0080F08D001F0200252EA0C02E2
:101C300003D0226C42F008022264226C002A35D0C4
:101C400010F0200F05D011F0200F02D0204600F038
:101C50006CFF20684069C0F38010216C11F0080F00
:101C600000D148B3204600F02CFF2068406910F0F6
:101C7000400F1CD02068143050E8001F21F04001B4
:101C800040E80012002AF5D1A06B60B15C49016503
:101C9000A06BFFF722F8002808D0A06B016D01B0FF
:101CA000BDE8F04008472046FFF77BFFF8BD20461F
:101CB000FFF777FFF8BD05E0FFE72046FFF771FF6C
:101CC0002564F8BD236B012B7ED110F0100F7BD063
:101CD00011F0100F7ED010685068009050694FF0DE
:101CE000200310F0400F43D0A16B0868406880B219
:101CF0000028E6D0A28D8242E3D9E085C869B0F51C
:101D0000807F2DD020680C3050E8001F21F48071B6
:101D100040E80012002AF5D12068143050E8001F76
:101D200021F0010140E80012002AF5D120681430AA
:101D300050E8001F21F0400140E80012002AF5D1D0
:101D400084F83E30256320680C3050E8001F21F0F5
:101D5000100140E80012002AF5D1A06BFEF76CFFDD
:101D6000A08DE18D401A81B22046FFF719FFF8BD22
:101D7000A08DE18D401A81B2E08D0028F7D00029B6
:101D8000F5D020680C3050E8002F22F4907240E823
:101D9000002CBCF1000FF4D12068143050E8002F63
:101DA00022F0010240E8002CBCF1000FF4D184F8CD
:101DB0003E30256320680C3050E8002F22F01002DE
:101DC00040E80023002B00E004E0F3D12046FFF7B9
:101DD000E7FEF8BD10F0800F07D011F0800F04D09F
:101DE0002046BDE8F84000F09EBF10F0400FF0D054
:101DF00011F0400FEDD02046BDE8F84000F088BE5D
:101E0000B32A000870B50446002C04D094F83D00B5
:101E1000002510B106E0012070BD84F83C5020463A
:101E200000F022F8242084F83D002068C16821F4E5
:101E30000051C160204600F0DDFE2068016921F4F8
:101E4000904101612068416921F02A0141612068C7
:101E5000C16841F40051C1602564202084F83D0030
:101E600084F83E00002070BD2DE9F04186B00446A4
:101E700014216846FEF7F0F94649DFF814C12368DB
:101E80000024444A10390225032608274248DFF877
:101E90000C8163452DD1136843F4801313601268DD
:101EA00002F4801205920A6842F004020A600A688D
:101EB00002F0040205920A6842F008020A6009680A
:101EC00002AB01F0080105918114CDE9001583E80A
:101ED000D0006946FEF728FF0420CDE9000502ABDB
:101EE000694683E8D0004046FEF71EFF06B0BDE815
:101EF000F081DFF8ACC0634522D1106840F4802047
:101F00001060106800F480200590086840F0080018
:101F100008600868029400F0080005904FF44070D3
:101F2000CDE900050720CDE9036069464046FEF78C
:101F3000FBFE002211462720FFF786F8272023E02A
:101F4000184A9342D2D1134A121D136843F020035A
:101F50001360126802F0200205920A6842F004023F
:101F60000A60096802AA01F004010591C021CDE9C7
:101F7000001582E8D0006946FEF7D6FE0022114621
:101F80004720FFF761F84720FFF750F8AEE7000061
:101F9000005000404038024000080240000C02405F
:101FA000004800400014014090F83E30202B01D042
:101FB0000220704759B152B190F83C30012B08D043
:101FC000012380F83C300023036300F091BE012020
:101FD000704702207047000000680D49884216D102
:101FE0000C48827841788A4206D04AB10A4BC178BF
:101FF0005A54491CC17003E00021C17001210170D5
:10200000044905480122891C8838FFF7CDBF704775
:102010000048004000000020C40100202DE9F843E2
:1020200004460E4615461F4694F83D00202802D06F
:102030000220BDE8F883C6B1BDB194F83C00012888
:1020400016D0012084F83C004FF00009C4F84090FD
:10205000212084F83D00FEF787FF8046A584E584B3
:10206000A068B0F5805F06D007E00120BDE8F883E6
:102070000220BDE8F883206980B13546002684F847
:102080003C90E08CB8B14346002280212046009766
:1020900000F078FE20B10320BDE8F8830025EEE7CC
:1020A000A5B12168287848606D1CE08C401EE08452
:1020B000E08C0028E7D143460022402120460097CB
:1020C00000F060FE48B10320BDE8F8833088216845
:1020D000C0F308004860B61CE7E7202084F83D0004
:1020E0000020BDE8F8837047FEE7000030B585B0FA
:1020F00014220E496846FEF796F80D4D4FF4004441
:10210000002221462846FEF727FF0120FEF7F8FDB2
:102110006423142269460748FFF780FF0122214605
:102120002846FEF719FF05B030BD0000503000080A
:10213000000402403C01002030B585B014220E4955
:102140006846FEF770F80D4D4FF40044002221461A
:102150002846FEF701FF0120FEF7D2FD642314227A
:1021600069460748FFF75AFF012221462846FEF735
:10217000F3FE05B030BD00003C3000080004024012
:102180003C0100202DE9F04F87B014216846FEF78E
:1021900063F86B480024016841F010010160016898
:1021A00001F010010591016841F00401016001682E
:1021B00001F004010591016841F0800101600168AE
:1021C00001F080010591016841F0010101600168A1
:1021D00001F001010591016841F00201016001680F
:1021E00001F002010591016841F0080101600068F9
:1021F000DFF850A100F008004FF65365059000226B
:1022000029465046FEF7A8FEDFF83CB14FF4C766FA
:10221000002231465846FEF79FFE49F60857002235
:1022200039464A48FEF798FE4EF2670800224146BA
:102230004748FEF791FE4FF42C4900224946454895
:10224000FEF78AFE4FF4D670CDE900046946504689
:102250000294FEF769FD00950125CDE90154694618
:1022600050460394FEF760FD42F20700CDE90004FA
:10227000694658460294FEF757FD0096CDE9015491
:10228000694658460394FEF74FFD01A90220032634
:10229000009581E851000820049069462B48FEF71C
:1022A00043FD4FF42570CDE90004694627480294A8
:1022B000FEF73AFD0097CDE901546946234803949F
:1022C000FEF732FDCDF80080CDE901546946204883
:1022D0000394FEF729FDB0021227CDE9000702AAF8
:1022E0004FF0040882E8600169461948FEF71CFDBA
:1022F00041F21820CDE90004694615480294FEF722
:1023000013FDCDF80090CDE90154694611480394BE
:10231000FEF70AFD45F28300CDE9000469460D4849
:102320000294FEF701FDF001CDE9000702AA69461B
:1023300082E860010648FEF7F7FC07B0BDE8F08FC1
:102340003038024000100240000802400000024005
:1023500000040240000C024010B586B00024194869
:10236000059404940094019402944FF080410394E6
:10237000C0E90014611EC0E9024104618461FFF7F5
:10238000FBFA00B1FEE7049404A90E480594FFF798
:1023900046FA00B1FEE70120CDE900400294002298
:1023A000694608480394FFF787FA00B1FEE7042264
:1023B00069460448FFF780FA002800D0FEE706B01F
:1023C00010BD00002000002010B586B00024164883
:1023D0000594049400940194029412490394C0E972
:1023E00000144FF6FF71C0E9024104618461FFF7F8
:1023F000C3FA00B1FEE7049404A90B480594FFF763
:102400000EFA00B1FEE70120CDE90040029400225F
:10241000694605480394FFF74FFA002800D0FEE70D
:1024200006B010BD000400406800002010B592B056
:1024300000240F941C2108A81094FDF70DFF202103
:102440006846FDF709FF1D481B49C0E900144FF617
:10245000FF71C0E90241046144618461FFF75DFBE3
:1024600000B1FEE70F940FA914481094FFF7D7F9B5
:1024700000B1FEE7089409940A940B940C940D940F
:10248000082208A90D480E94FFF71EFB00B1FEE7D5
:1024900000944FF40050CDE9044002940194039459
:1024A000694606480794FFF787F900B1FEE703483D
:1024B000FFF7E0FA12B010BD00040140B0000020A8
:1024C000FEE770477047704730B585B014220E495B
:1024D0006846FDF7A8FE0D4D4FF40044002221464A
:1024E0002846FEF739FD0120FEF70AFC642314227A
:1024F00069460748FFF792FD012221462846FEF76C
:102500002BFD05B030BD00008C30000800040240F7
:102510003C01002030B585B014220E496846FDF715
:1025200082FE0D4D4FF40044002221462846FEF75E
:1025300013FD0120FEF7E4FB6423142269460748DB
:10254000FFF76CFD012221462846FEF705FD05B088
:1025500030BD0000A0300008000402403C01002013
:1025600030B585B014220E496846FDF75CFE0D4D6E
:102570004FF40044002221462846FEF7EDFC0120DE
:10258000FEF7BEFB6423142269460748FFF746FDA9
:10259000012221462846FEF7DFFC05B030BD0000D1
:1025A00064300008000402403C01002030B585B0D2
:1025B00014220E496846FDF736FE0D4D4FF40044D7
:1025C000002221462846FEF7C7FC0320FEF798FBB1
:1025D0006423142269460748FFF720FD01222146A3
:1025E0002846FEF7B9FC05B030BD000000300008F9
:1025F000000402403C010020FEF7BCBC30B593B0A3
:1026000030216846FDF728FE14210CA8FDF724FEB2
:102610001C480025016841F080510160006800F00D
:10262000805011901848016841F4804101600068B1
:10263000022400F4804011900120009000040190D9
:102640008001CDE906400C2008904FF4A870CDE938
:10265000090404200B906846FEF758FE00B1FEE71F
:102660000CA90F2081E831004FF4A0500F9010907A
:1026700005210CA8FEF72EFD002800D0FEE713B0C0
:1026800030BD000040380240007000400F48016833
:1026900041F4700101600E48016841F001010160E0
:1026A0000C4A00211160026822F4102222F080728C
:1026B0000260031D084A1A60026822F48022026048
:1026C00006480160064958060860704788ED00E03A
:1026D0000038024008380240103000240C38024014
:1026E00008ED00E0F0B402682C4B2D4C2D4D2E4E21
:1026F000DFF8B8C098420AD0B0F1804F07D0A042AE
:1027000005D0A84203D0B04201D0604503D122F0E9
:1027100070024F683A43984228D0B0F1804F25D0DC
:10272000A04223D0A84221D0B0421FD060451DD086
:10273000A0F18044B4F5A03418D0A0F18044B4F5E1
:10274000A23413D0A0F18044B4F5A4340ED0A0F18B
:102750008044B4F5C05409D0A0F18044B4F5E054ED
:1027600004D0A0F18044B4F5005403D122F44072A7
:10277000CC6822434C6922F08002224302608A68BE
:10278000C2620A688262984201D0604501D109693B
:10279000016301214161F0BC70470000000001406D
:1027A0000004004000080040000C0040000401400C
:1027B00070B4026A22F001020262036A4268D0F831
:1027C00018C02CF0700C2CF0030C0C6844EA0C0CB4
:1027D00023F002038C6823430F4C104DA04201D01C
:1027E000A84205D123F00803CE68334323F0040345
:1027F000A04201D0A84207D122F4807222F40072D4
:102800004C6922438C6922434260C0F818C0496871
:102810004163036270BC7047000001400004014046
:1028200070B4026A22F010020262036A4268D0F8B1
:1028300018C02CF4E04C2CF4407C0C684CEA042CBE
:1028400023F020038C6843EA0413114C114DA0427D
:1028500001D0A84206D123F08003CE6843EA0613D4
:1028600023F04003A04201D0A84209D122F48062A3
:1028700022F400624C6942EA84028C6942EA8402D2
:102880004260C0F818C049688163036270BC704739
:10289000000001400004014070B4026A22F480721A
:1028A0000262036A4268D0F81CC02CF0700C2CF055
:1028B000030C0C6844EA0C0C23F400738C6843EAA4
:1028C0000423114C114DA04201D0A84206D123F49B
:1028D0000063CE6843EA062323F48063A04201D05C
:1028E000A84209D122F4805222F400524C6942EAF3
:1028F00004128C6942EA04124260C0F81CC04968A4
:10290000C163036270BC70470000014000040140D5
:1029100010B4026A22F480520262D0F820C04268E9
:10292000C36923F4E04323F440730C6843EA0423AF
:102930002CF4005C8C684CEA043CA0F18044B4F5B3
:10294000803404D0A0F18044B4F5823404D122F460
:1029500080424C6942EA84124260C3614968016462
:10296000C0F820C010BC704730B4D0F820C02CF0A4
:10297000010CC0F820C0D0F818C0046AA0F180454E
:10298000B5F5803532D0B0F1804F2FD0A0F1804521
:10299000B5F580652AD0A0F18045B5F5006525D054
:1029A000A0F18045B5F5406520D0A0F18045B5F592
:1029B00082351BD0A0F18045B5F5A03516D0A0F129
:1029C0008045B5F5C05511D04CF0010222F0F0025F
:1029D0004FF0F00C0CEA03131A4324F00A0301F041
:1029E0000A0119438261016230BC70472CF0030C6C
:1029F0004CEA0202EAE710B4D0F820C02CF0100C28
:102A0000C0F820C08469D0F820C024F4407444EA9F
:102A1000022222F470424FF4704404EA03331A4352
:102A20002CF0A0034FF0A00C0CEA011119438261B5
:102A3000016210BC704710B4D0F820C02CF4807C28
:102A4000C0F820C0C469D0F820C024F00304224399
:102A500022F0F002F02404EA03131A432CF420635A
:102A60004FF4206C0CEA01211943C261016210BCD1
:102A7000704710B4D0F820C02CF4805CC0F820C09F
:102A8000C469D0F820C024F4407444EA022222F43D
:102A900070424FF4704404EA03331A432CF4204389
:102AA0004FF4204C0CEA01311943C261016210BCA1
:102AB000704710B5806B0021C185C184FFF771F8A4
:102AC00010BD01680C3151E8002F22F4907241E8EA
:102AD0000023002BF5D10168143151E8002F22F0BA
:102AE000010241E80023002BF5D1016B012909D136
:102AF00001680C3151E8002F22F0100241E8002358
:102B0000002BF5D1202180F83E1000210163704791
:102B100010B50168CA6822F04002CA60202180F81E
:102B20003D10FFF7E0FA002010BD08B590F83E1008
:102B3000222901D0022008BD8268B2F5805F01D150
:102B4000016929B1816AB2F5805F1DD052B10BE0F5
:102B5000816A02685268C2F308020A80816A891C8D
:102B6000816209E002697AB10268526802F07F026C
:102B70000A70816A491C8162C18D491E0904090CD1
:102B8000C18505D0002008BD026852680A70F0E7D0
:102B90000168CA6822F02002CA600168CA6822F48B
:102BA0008072CA6001684A6922F001024A612021EC
:102BB00080F83E10016B012903D0FFF70DFA0020C9
:102BC00008BD0021016301680C3151E8002F22F09B
:102BD000100241E80023002BF5D101680A6812F0C9
:102BE000100F02D00A6849680091818DFEF7D8FF66
:102BF000E5E700002DE9F041044620680169E2683C
:102C000021F44051114301612169A068E269084340
:102C10006169114301432068C26822F4037222F4FF
:102C200014421143C16020684169A26921F44071D6
:102C3000114341612068A0F18041B1F588312ED067
:102C4000A0F18041B1F58A3129D0FEF707FB844617
:102C5000E16900201927254D3226B1F5004F22D019
:102C60006068830F8200ACFB0701FDF7ABFA0146F9
:102C7000A5FB002040097A42424301EB820106EBAA
:102C80000111A5FB0121490901F0F00202EB00103E
:102C900001F00F01084421688860BDE8F081FEF76B
:102CA000EDFA8446D4E761684A1840EB0003ACFBB8
:102CB0000701FDF787FA0346A5FB001041091846F6
:102CC0000A016FF01803594300EB810006EBC000C6
:102CD000A5FB0010400900F0F80102EB410100F0F3
:102CE0000700084421688860BDE8F0811F85EB512A
:102CF00081628285C28500210164222280F83E2003
:102D000080F83C100168CA6842F48072CA600168A9
:102D10004A6942F001024A610068C16841F020013D
:102D2000C1600020704790F83D10212901D0022099
:102D300070478168B1F5805F01D1016961B1016AB5
:102D40004A1C0262026809785160C18C491E09045C
:102D5000090CC1840AD013E0016A02680988C1F332
:102D600008015160016A891C0162EEE70168CA68C6
:102D700022F08002CA600068C16841F04001C16071
:102D8000002070472DE9F0410446069D884616460E
:102D90001F462068006838EA00002AD00020B042B0
:102DA00031D1B5F1FF3F26D025B1FEF7DDF8C01BCC
:102DB000A84220D920680C3050E8001F21F4D071BF
:102DC00040E80012002AF5D12068143050E8001FB6
:102DD00021F0010140E80012002AF5D1202084F8FA
:102DE0003D0084F83E00002084F83C000320BDE84C
:102DF000F0810120D3E72068006838EA000005D0A0
:102E00000020B042CDD00020BDE8F0810120F8E7DD
:102E10000148FEF7C7BE00003C0100200148FEF754
:102E2000C1BE000080010020FEE70000000000009D
:102E300030B583B0044600F017F89FED090B054646
:102E40008DED000B002221466846FDF786FA2846E4
:102E500000F020F89DED000B03B030BD0000000035
:102E600000000000000000000148006870470000FA
:102E70001C00002002E008C8121F08C1002AFAD175
:102E800070477047002001E001C1121F002AFBD1EA
:102E90007047000001490860704700001C000020D6
:102EA00030380A2801D20120704700207047000006
:102EB000FEF768F8FFF7A2FBFFF764F9FFF74CFA9B
:102EC000FFF782FAFFF7B2FA474846494FF4165621
:102ED00000240160C0E901640C25C460C0E9044518
:102EE0008461C461FEF78EFF00B1FEE73E483F49B2
:102EF00044300160C0E90164C460C0E904458461F4
:102F0000C461FEF77FFF00B1FEE7374838498830DB
:102F10000160C0E90164C460C0E904458461C46122
:102F2000FEF770FF00B1FEE70122D50329463148C4
:102F3000FEF712F841F28830FDF7E2FE2E4E002235
:102F400029463046FEF708F80320FDF7D9FE012296
:102F500029463046FEF700F823480122274944302D
:102F6000FFF722F8254DAD1C2E1F30780028FCD02D
:102F7000FDF734FE2878052826D2DFE800F0030BA1
:102F800011192200687810B1FDF7B4FD1EE0FDF7BD
:102F9000FFFD1BE06878012818D1FFF707FB15E05B
:102FA000687810B1FFF7B6FA10E0FFF78DFA0DE080
:102FB0006878012802D0FFF799F807E0FFF7BCF81E
:102FC00004E0FFF7CDFA01E0FDF7BCFD064814214F
:102FD000CC30FDF741F904481421E030FDF73CF90D
:102FE0003470C2E700500040F80000200048004064
:102FF00000140140001002400004024002000020C2
:103000003C2053746F70204D6F746F72000000008D
:10301000000000003C20526573657420416C6172B1
:103020006D000000000000003C20456D6572676582
:103030006E63792053746F70000000003C204A6F6B
:1030400067204D6F7665207570000000000000005D
:103050003C204A6F67204D6F766520646F776E0065
:10306000000000003C2053746172742052756E6E33
:10307000696E6700000000003C2044656661756C65
:103080007400000000000000000000003C20506FB1
:10309000736974696F6E204D6F64650000000000F5
:1030A0003C205370656564204D6F6465000000002E
:1030B0000000000000000000000000000102030406
:1030C000060708090000000001020304DDDDDDDD64
:1030D000DCBBBBDDDDDDDDDDDDDDDDDD98888888A9
:1030E0008888888877777777778888888555555650
:1030F00066666666666666666668888883333332A7
:1031000022222222222222222228888D2C310008EB
:103110000000002020000000742E00084C31000840
:1031200020000020D0050000842E000800240000AC
:10313000000000000024F400010000001000000066
:0C31400000000000000000000000000083
:040000050800018965
:00000001FF
