:020000040800F2
:1000000090090020550200085B4900088943000858
:1000100059490008F9210008E95C000800000000C7
:10002000000000000000000000000000695500080A
:10003000AD260008000000005D490008FD560008DC
:100040006F0200086F0200086F0200086F020008CC
:100050006F0200086F0200086F0200086F020008BC
:100060006F0200086F0200086F0200086F020008AC
:100070006F0200086F0200086F0200086F0200089C
:100080006F0200086F0200086F0200086F0200088C
:100090006F0200086F0200086F0200086F0200087C
:1000A0006F0200086F0200086F0200086F0200086C
:1000B000E5570008F15700086F0200086F020008BA
:1000C0006F0200086F0200086F0200086F0200084C
:1000D0006F0200086F0200086F020008D15C000880
:1000E0006F0200086F0200086F0200086F0200082C
:1000F0006F0200086F0200086F0200086F0200081C
:100100006F0200086F0200086F0200086F0200080B
:100110006F020008E95900086F0200086F0200082A
:100120006F0200086F0200086F0200086F020008EB
:100130006F0200086F0200086F0200086F020008DB
:100140006F0200086F0200086F0200086F020008CB
:100150006F0200086F0200086F020008DD5C0008F3
:100160006F0200086F0200086F0200086F020008AB
:100170006F0200086F0200086F0200080000000014
:100180006F0200086F02000800F002F800F052F859
:100190000AA090E8000C82448344AAF10107DA45E2
:1001A00001D100F047F8AFF2090EBAE80F0013F0E2
:1001B000010F18BFFB1A43F0010318470476000033
:1001C00024760000103A24BF78C878C1FAD85207C4
:1001D00024BF30C830C144BF04680C6070470000C1
:1001E0000023002400250026103A28BF78C1FBD840
:1001F000520728BF30C148BF0B607047662907F01F
:100200000882642900F0D480002070471FB507F0F1
:10021000C2F900F007FD04000020002106F01CFBDD
:10022000401C60600020002106F000FBE0601FBD64
:1002300010B510BD00F040FE1146FFF7E7FF06F0D5
:1002400041F801F0E3F803B4FFF7F2FF03BC01F05B
:1002500027F900000948804709480047FEE7FEE704
:10026000FEE7FEE7FEE7FEE7FEE7FEE7FEE7FEE766
:1002700004480549054A064B70470000915700089D
:1002800089010008900300209009002090050020BB
:100290009005002053EA020C00F069802DE9F04B34
:1002A0004FF00006002B1FBFB3FA83F503FA05F4E5
:1002B00024FA05F65E4012BF1643B2FA82F502FA3E
:1002C00005F4C5F120051EBF22FA05FC44EA0C0422
:1002D000203556EA044C4FEA144418BF641C4FF012
:1002E00000084FF00009904271EB030C39D300294C
:1002F00019BFB1FA81F701FA07F6B0FA80F700FAF0
:1003000007F6C7F120071EBF20FA07FC46EA0C06D5
:100310002037B6FBF4FCA7EB0507103F07F01F0BD7
:10032000CBF120060CFA0BFB2CFA06F644BFB346C1
:100330000026202FA4BF5E464FF0000B5BEA060CA0
:1003400008BF4FF0010B19EB0B09ABFB027C48EB2C
:100350000608C01B06FB02CC0BFB03CC71EB0C01A7
:10036000C1E70B46024641464846BDE8F08B13B54F
:100370004FF000004FF00001AFF30080BDE81C40DB
:10038000704700000FB41CB5084B06AA7B446946B1
:100390000090059800F0B9FB04460020694600F083
:1003A000C7FB20461CBC5DF814FB0000A107000041
:1003B0002DE9F0410646002410687529314616A53E
:1003C00010D0AFF30080002802DA404213A507E006
:1003D00031688A0701D512A502E0490704D511A5A5
:1003E000012401E0AFF3008000210A2206F1240776
:1003F00009E0B0FBF2FCB0FBF2F302FB1C00303072
:1004000078541846491C0028F3D123462A46304622
:10041000BDE8F04100F00CB9000000002D00000024
:100420002B000000200000002DE9F0474FF0000AEB
:1004300089460446C0F820A02046E1688847002885
:1004400076D0252806D0D4E901219047206A401CA7
:100450002062F1E7E168204600258847C4F81CA027
:1004600006460027C4F818A02A2E09D0304605F009
:10047000DAFE38B304EB8708303EC8F8186019E09C
:1004800059F8041B204604EB87029161E168884714
:10049000012F064618D1E069002820DA25F0200552
:1004A0001DE0D8F8180000EB800006EB4000303863
:1004B000C8F818002046E1688847064605F0B3FEF4
:1004C0000028EED1012F0AD02E2E08D12046E16857
:1004D00088477F1C0646022F45F02005C4DBA06933
:1004E000002803DA404245F00105A061E80701D089
:1004F00025F01005B6B1A6F14100192802D8203622
:1005000045F400654A463146204625604D46FFF7D2
:1005100075FE58B1012806D0ED1D25F0070000F149
:10052000080989E704E005F1040985E730468AE710
:10053000206ABDE8F0870000014A00F051BB0000CE
:10054000B000002010B5431C02E010F8011B71B18F
:100550008107FAD14FF0013202C88C1A8C4314EA99
:10056000C211F9D0C01A0A0603D0C01E10BDC01AAD
:1005700010BD0A0401D0801E10BD0902FCD0401E2F
:1005800010BD4FF000020429C0F0128010F0030CDF
:1005900000F01B80CCF1040CBCF1020F18BF00F876
:1005A000012BA8BF20F8022BA1EB0C0100F00DB825
:1005B0005FEAC17C24BF00F8012B00F8012B48BF83
:1005C00000F8012B70474FF0000200B51346944627
:1005D0009646203922BFA0E80C50A0E80C50B1F19B
:1005E0002001BFF4F7AF090728BFA0E80C5048BFAF
:1005F0000CC05DF804EB890028BF40F8042B08BF4D
:10060000704748BF20F8022B11F0804F18BF00F848
:10061000012B704770477047704710B500F006FB1C
:10062000006810BD10B5044600F000FB046010BD6A
:100630002DE9F0470D4699469246044600F12408FC
:100640000168880604D5E06921F01001216000E00E
:100650000120A84201DD471B00E00027A1697A19AB
:1006600002EB0900081AA0612078C00602D42046D7
:10067000AFF30080002608E0D4E901211AF8060053
:100680009047206A401C761C20624E45F4DB20789F
:10069000C0060AD52046AFF3008006E0D4E9012168
:1006A00030209047206A401C2062381EA7F10107C5
:1006B000F4DC07E0D4E9012118F805009047206A2E
:1006C000401C2062281EA5F10105F3DC2046AFF393
:1006D00000802078000602D50220BDE8F0870120C6
:1006E000FBE770472DE9FF4F0C461E464FF0FF37E2
:1006F0008BB0D2E90001DDF860800A908A46C1F330
:100700000A5505B93D46002108464FF00000BAF1F0
:10071000000F00F4400005DA00EB80004FF44001C8
:1007200001EA50004FEA9059B9F1010F00DDB946D6
:100730000A9850EA4A000ED044F61050A5F2FF3550
:1007400045432F14B8F1000F1ED07542291E1EDD3F
:10075000C9F100021CE0B8F1010F4FF0000001D018
:10076000302103E0F24305E02154401CB042FBDBA2
:1007700030460022002121540B99C1F80880C1E9BC
:1007800000200FB0BDE8F08FBD1B6D1CDEE74A46B0
:1007900000DA694206A800F0FBFA06AB93E807000E
:1007A00003AB83E8070050460A9901F0CBF88DE8C7
:1007B0000700A0F500501F3800900398002D0ADDB7
:1007C00042F21F014A460844002303A903906846E9
:1007D00001F076FB09E0A0F500504A461F380023DF
:1007E00003A90390684601F095FB8DE8070000041B
:1007F000000C03D04FF0FF30410800E01046B8F184
:10080000000F03D00022009215461EE0751E05D48D
:1008100000F010FA303262556D1EF9D5B346012250
:10082000084302D000227F1C04E02078302801D148
:1008300000227F1E002A099784D01DE0112D07DABF
:1008400000F0F8F9303262556D1C50EA0102F5D122
:10085000084302D00098C8B10EE00021681E05E0F0
:10086000235C625C63542254401E491C8142F7DBC6
:10087000AB46A81B401E0990002004F80B000B9803
:10088000099AC0F80880C0E9002B7AE711264FF0DA
:10089000000857E72DE9F04F88460446D21D22F0A4
:1008A000070191B0D1E90001CDE90A0105F0C6FACE
:1008B00002460B98C00F01D02D2007E02068810769
:1008C00001D52B2002E0202101EAC000032A099073
:1008D00001D0072A05DB03464146204600F0F8F91F
:1008E0000BE12078800601D5E06900E00620B8F130
:1008F000650F814606D0B8F1660F18D0B8F1670FC2
:1009000070D131E00020B9F1110F009001DB11230B
:1009100001E009F101030AAA01A90CA8FFF7E2FE10
:10092000DDE90C70002609F10105834647E001204E
:100930004B4600904FF000470AAA01A90CA8FFF708
:10094000D1FEDDE90DB00C995D46002610B909F124
:1009500001000D18B9EB050003D4C0F1FF3609F111
:100960000105A5EB09002BE0B9F1010F01DA4FF009
:1009700001090020B9F1110F0090484601DD112353
:1009800000E003460AAA01A90CA8FFF7ABFEDDE9C7
:100990000C704D4600268346207800070AD4AB45EC
:1009A00000DA5D4601A8012D04DD411911F8011C92
:1009B000302907D04F4502DA17F1040F04DA01207D
:1009C00082460FE06D1EEEE7002F02DCED1B3E4479
:1009D00003E0781CA84200DD7D1CB81B00F1010A71
:1009E0004FF000472078000703D4AA4501DB4FF001
:1009F000FF3A0021B7F1004F0DF143088DF8431085
:100A000024D002202B23002F01DA7F422D230A213C
:100A1000021EA0F1010000DC5FB197FBF1FC97FB27
:100A2000F1F201FB1C7C17460CF1300C08F801CDEB
:100A3000EEE7A8F1010003702188090501D54521E1
:100A400000E06521A0F1010800F8011C09980FA938
:100A5000A1EB0807FF1D00B10120411901EBEA706D
:100A6000A1693844081A401EA0612078C00602D44B
:100A70002046AFF30080099828B1D4E901219047BE
:100A8000206A401C20622078C00622D52046AFF3A1
:100A900000801EE0002E04DBB34502DD01A8805D6E
:100AA00000E03020D4E901219047206A401C2062F8
:100AB000761CAAF101005FEA000A0AD100F0B2F840
:100AC000C0680168405CD4E901219047206A401C5D
:100AD0002062281EA5F10105DCDC07E0D4E9012134
:100AE00018F8010B9047206A401C2062381EA7F1BD
:100AF0000107F3DC2046AFF30080032011B041E68C
:100B000001694A1C02610878704700B58FB0CDE9D1
:100B100001310021059105497944CDE903101146C1
:100B20006846FFF781FC0FB000BD0000E5FFFFFF46
:100B30000A6802F8010B0A60704700000FB4002336
:100B400000B589B00CA900910B99CB60214B7B4477
:100B50000693214B7B44079304236FF00042CDE9B9
:100B600001321E4A7A446B4608920246002006F083
:100B7000B2FD09B05DF814FB70B506464FF0FF30CA
:100B800015460C46324686B00091CDE90101694612
:100B90000020049004A8FFF7D1FF02460498211812
:100BA00025B108B1084600E02046286004980028D6
:100BB0000DD0002A02DD0098884208D03246081B7A
:100BC00069460094CDE9010404A8FFF7B7FF06B019
:100BD00070BD0000FF010000170200005701000077
:100BE0002DE9F04115460E46040002D12C6804B9E7
:100BF0000BA4204600F04EF90444207870B127463B
:100C00003146384600F036F90444207810B100200F
:100C100004F8010B38462C60BDE8F0810027F9E7A5
:100C200000000000004870474C0300200048704757
:100C30002C03002030B5B0F10A024FEA900E71F19A
:100C400000034EEA817EB0EB0E0061EB91014FEAAA
:100C5000101E4EEA017E10EB0E0041EB11114FEA1F
:100C6000102E4EEA016E10EB0E0041EB11214FEAFF
:100C7000104E4EEA014E10EB0E0041EB11414018B0
:100C800041F100014FEAD00040EA41704FEAD10142
:100C900010EB80054FEA810444EA907444EB0104B0
:100CA0006D1944EB0404521BA3414FF0000348BFED
:100CB0000A3200D530BD401C41F1000130BD10B5F5
:100CC000044600F01FF90068005D00F0010010BD4F
:100CD0002DE9F0411F46044603260168072A01F466
:100CE000006004DB08B116A505E016A503E008B115
:100CF00015A500E015A521F010002060A069C01E18
:100D0000A0610FB1401EA0612046AFF300804FB13B
:100D1000D4E9012138469047206A401C2062C01C5B
:100D2000206206E0206AFAE7D4E9012115F8010BF8
:100D30009047761EF8D22046AFF30080BDE8F081E0
:100D40004E414E006E616E00494E4600696E66006F
:100D5000426842B1016811F8013B23B1521EC0E95B
:100D60000012184670470121C160881E7047426812
:100D70005AB1C368016843B983688B4205D0491EE4
:100D8000521CC0E90012002070474FF0FF3070473E
:100D90002DE9F047814616468AB0354878440DC89B
:100DA0008DE80D0032487844801C03AC0DC884E8FF
:100DB0000D0041F69B300844372190FBF1F290FB87
:100DC000F1F5A5F1800501FB12041B3C02D564423C
:100DD000012000E00020DFF898A080460027FA44B8
:100DE000AAF1BE0A0EE0E0070AD03246684607EBD9
:100DF000470101230AEB810101F08CF88DE807001F
:100E000064107F1C002CEED1194F7F44AE3F19E0D7
:100E1000E80715D007EB04100DF1180A90E80E0052
:100E20008AE80E00C068F04201D198190890324655
:100E3000012306A903A801F06DF803AB83E80700BE
:100E40006D10641C002DE3D14FF00103324669465A
:100E5000B8F1000F03A802D001F032F801E001F070
:100E600059F8C9E90001C9F808200AB0BDE8F087BF
:100E7000086A000030B503461D781DB10A4603E03C
:100E8000AC4201D1181A30BD12F8014B002CF7D139
:100E90005B1CF1E730B503461D783DB10A4612F8F8
:100EA000014B1CB1AC42FAD15B1CF5E7181A30BDFE
:100EB000004870472C0300207546FFF7F9FFAE4647
:100EC00005006946534620F00700854618B020B556
:100ED000FFF7CEF9BDE820404FF000064FF00007C5
:100EE0004FF000084FF0000B21F00701AC46ACE8D2
:100EF000C009ACE8C009ACE8C009ACE8C0098D463F
:100F00007047000010B5FFF78DFE001D10BD00BF3B
:100F1000495900002DE9FF4F06468BB00878FF289D
:100F200006D0491C2D2805D000244FF0000908E008
:100F300000200CE00124F8E709EB8903491C00EBD1
:100F400043090878FF28F7D114B1C9F100008146A0
:100F5000107800252C46AA4629462D2801D02B289A
:100F600004D1521C2D2813D0002082468B461078C5
:100F7000FF280FD04FF0000C0A21521CA5FB01786E
:100F800004FB018105FB0C11C5194BEB0104EEE7D5
:100F90000120EAE7002108464FF00000BAF1000FF7
:100FA00002D000EB80004008C0F38157012F01DD23
:100FB0004FF0FF370E9955EA040009EB01080BD0FA
:100FC0004FF0020918F5FA7F16DA4FEACA70002FBF
:100FD000706008DD012007E04FEACA70C6E900B082
:100FE0000FB0BDE8F08F00203060FFF71FFEC0F8A3
:100FF00000901821084616E0B8F5FA7F18DD002F9A
:1010000002DAF748784401E0F6487844D0E9001065
:10101000C6E9001040EACA707060FFF707FEC0F82A
:101020000090142108460FB0BDE8F04F06F0EEBA6C
:10103000002108464FF00000B8F10001099002DAE3
:10104000C7F1000200E03A4601DAC8F1000106A843
:10105000FFF79EFE06AB93E8070003AB83E80700AB
:1010600044F23E005BEA04010090584604D144F289
:101070001E012C465D460091210C0904014306D156
:101080000099240444EA15442D041039009104F019
:101090007F41014306D10099240244EA15642D02E0
:1010A0000839009104F07041014306D100992401F0
:1010B00044EA15742D01091F009104F040410143D9
:1010C00006D10099A40044EA9574AD00891E0091F0
:1010D00004F00041084304D100986D196441401E9A
:1010E00000904FF001033A466846B8F1000FCDE991
:1010F000014503A902DD00F022FF01E000F0F5FE4A
:10110000BAF1000F04460D4601D084F000440021DE
:1011100008464FF00000099940F2FF77484010F070
:101120000C0F07D124F00040284303D0C4F30A5029
:10113000B84212D1FFF77AFDC0F80090C4F30A500C
:10114000B8420AD1A8487844D0E90010C6E9001096
:1011500004F000410843706042E7C6E900543FE7ED
:101160002DE9FF4F1F464FF0000A4FF0FF3845466C
:1011700091B0D7E90146CDF83CA0FFF753FDC06818
:101180000168405C1090B96912986D1C8847396AF3
:10119000814688470028F6D1B9F1FF3F0AD0002EDA
:1011A00024F4D06411DDB9F12B0F08D0B9F12D0F63
:1011B0000BD102E0404615B013E744F48064B969EE
:1011C00012986D1C8847761E8146600504A901D5DA
:1011D0002D2000E02B20002E01F1010B0DF1300835
:1011E0008DF810003FDDB9F1690F08D0B9F1490F52
:1011F00005D0B9F16E0F02D0B9F14E0F1CD13B46AC
:1012000001A8009580E85002DDE912126FF002009B
:1012100006F065FAC11CCED10EE0B96912986D1CBA
:10122000884781461398761E44F4007405600F9831
:10123000401C002E0F9016DDB9F1300FEDD0B9F142
:10124000780F02D0B9F1580F0DD10F9801280AD1AB
:101250003B46CDE90054DDE91212001F029606F06C
:101260003CFAC11CA7D1109989453ED144F08004B5
:1012700006E01399681CAAF1010A44F4007408609E
:10128000B9696D1C1298761E884730288146F0D0C7
:101290002BE01099894505D1200603D4761E44F031
:1012A000800418E0484604F0BEFF08B3761E0DF136
:1012B00023018B4544F4007408D2A9F130000BF8E7
:1012C000010B200607D5AAF1010003E0200602D495
:1012D0000AF101008246A00502D51399681C086036
:1012E000B96912986D1C88478146002ED1DC53E005
:1012F000002E51DDB9F1650F02D0B9F1450F4BD188
:10130000A00549D5B9696D1C1298761E24F4407465
:101310008847002E81460CDD2B2804D0B9F12D0F13
:1013200007D144F48074B96912986D1C8847761E01
:101330008146E00501D52D2100E02B2108F8011B95
:10134000CDF8008021E0761E0DF13901884544F486
:1013500000740CD2A9F1300010F0FF0088F80000F2
:1013600002D10099884509D908F1010806E0E00595
:1013700001D51E4801E042F20F708246B969129809
:101380006D1C8847814613980560002E04DD484691
:1013900004F049FF0028D6D1F96912988847FF2048
:1013A00053468BF8000088F8000000200A900B904C
:1013B00004AA0CA90AA8FFF7ADFDA00502D46FF09E
:1013C0000100F8E614F0240F12D0E0071CD13868B1
:1013D000DDE90A12031D3B600068C0E9001213E05A
:1013E000E0670000D267000096660000F1D8FFFFBA
:1013F0000AA9684604F004FFE00705D13868009A9E
:10140000011D3960006802602846D4E610B5044624
:10141000AFF300802046BDE81040FEF714BF000087
:101420004FF0013C50F8042B51F8043B9A4221D173
:10143000A2EB0C03934313EACC1317D150F8042BFF
:1014400051F8043B9A4215D1A2EB0C03934313EAE3
:10145000CC130BD150F8042B51F8043B9A4209D11C
:10146000A2EB0C03934313EACC13DBD04FF0000044
:10147000704700BFD01A01BAB1FA81F101F018012A
:1014800022FA01F0CB40C1F12001DBB2C0B2C01A98
:101490002CFA01F3D11A914311EAC311E6D1704736
:1014A00001491820ABBEFEE7260002002DE9FF4FE0
:1014B0001F464FF03C0987B04FF00042DDE91410A1
:1014C00001F10108DDF858A002EA40500390002025
:1014D00005908346054604460490B969461E08985F
:1014E0008847AAF1010A0290BAF1000F3BDD029889
:1014F0002E2815D0102100F017FA00282EDB4FF00F
:10150000010B0599014317D0B9F1000F0BDB4A46D7
:10151000C11700F0F6F905430C43A9F1040905E0F1
:10152000012004900BE008B145F001050120059071
:10153000049820B9361D02E0049800B1361FB9693D
:10154000089808F101088847BBF1000FAAF1010AC9
:101550000290C9D00999C1F80080C5E702987028A7
:1015600008D0502806D0F96908988847BBF1000FC9
:1015700014D04FE0002002900120BBF1000F049036
:1015800009D0B969089808F101088847AAF101094A
:10159000B9F1000F07DCF969089888476FF001007E
:1015A0000BB0BDE8F08F2B2804D02D280CD14FF0C4
:1015B000FF300490B969089808F101088847A9F13B
:1015C0000109B9F1000FE6DD411CE4D00A2100F069
:1015D000ABF90028DFDB029908F1010801EB81017A
:1015E00000EB41000290B969089888470A2100F091
:1015F0009BF9099AA9F10109B9F1000FC2F800801D
:1016000001DD0028E7DAF96908988847049902980B
:1016100000FB016655EA040004D004F040410900D3
:1016200002D006E0039898E0A40044EA9574AD0067
:10163000B61E04F00041080002D16D196441761E07
:10164000159810F0240F03D04FF00B095C4803E00D
:101650004FF028096FF07D008246564507DAAAEB65
:1016600006018944B9F1410F01DD4FF04109012024
:101670000021A9F1010200F044F9024628400B467E
:101680002140084301D0012100E00021501E0291B9
:1016900043F1FF3128402140084301D0012000E000
:1016A00000200299834651EA0B014FD000210846E1
:1016B0004FF00000039900F4400039B100EB8000C6
:1016C0004FF4400100EBD07001EA60008015012862
:1016D00002DD4FF0FF3000E013D0401C36D00298FE
:1016E00060B3BBF1000F0CD14A460120002100F08D
:1016F00008F928402140084301D0012000E00020E3
:10170000E0B101204A46002100F0FBF803464019F1
:101710000A4661412D1A8C4111D3B9F1400F09DD00
:10172000159810F0240F02D0AAF1340603E0AAF1B4
:10173000170600E0761C00254FF0004406E05B1E13
:1017400042F1FF3220EA030521EA0204CAF1010056
:10175000B04206DA1B49039808430190002000902C
:101760000EE0039AC4F3D321E80A0A43164940EA7B
:1017700044500A433146CDE90002684604F049FD71
:10178000159810F0240F0BD01598C00715D13868A4
:10179000DDE90012031D3B600068C0E900120CE0A7
:1017A00002A8694604F02CFD1598C00705D13868D9
:1017B000029A011D3960006802604046F0E60000B0
:1017C00002FCFFFF0000F07F0000F03F2DE9FF4F1B
:1017D00092461D4685B04FF00041DDE9124BDDE930
:1017E00014727F1E01EA4B50414940F0FF4940EA24
:1017F0000108002122F020004928049102D04E283F
:1018000028D04CE03BA0012607C88DE80700A96955
:101810000698641C88477F1E014606D41DF8060002
:1018200018B121F0200181420BD0E9690698884760
:10183000032E34D0082E32D06FF0010009B0BDE87D
:10184000F08F761C032E01D0082EE0D1601CCAF860
:101850000000DCE7A9690698641C88477F1E2AD42B
:1018600020F02000412826D1A9690698641C8847E9
:101870007F1E20D420F020004E281CD1A969069894
:10188000641C88477F1E48F4002849F48009CAF880
:10189000004001D4282806D0E969069888475FEA05
:1018A000CB7012D022E0A9690698641C88477F1E7D
:1018B00001D4002803DAE96906988847BCE729289B
:1018C000F1D1641CCAF80040E9E71BF0240F07D0EF
:1018D00028680499031D2B600068C0E9001805E022
:1018E0002868021D2A600068C0F800902046A5E71D
:1018F0000000F07F494E46494E495459000000000F
:101900007047B2F120030AD5C2F1200301FA02F1B7
:1019100020FA03F300FA02F041EA0301704700FAEB
:1019200003F14FF0000070473A2800D2303820F021
:101930002002412A01D3A2F13700884201D34FF09F
:10194000FF3070475FEA400C08BF91F0000F4FEA8C
:101950008C234FEAC12243EA51514FEA1C5018BF71
:1019600000F5F0404FEA300018BF41F000415FEA57
:101970006C5C00F02980BCF1FF3F08BF40F0804064
:101980007047130C06BF12044FF0100C4FF0000C00
:10199000130E04BF12020CF1080C130F04BF120146
:1019A0000CF1040C930F04BF92000CF1020CD30F46
:1019B00004BF52000CF1010C11464FF00002A0F1DF
:1019C0001F00A0EB0C00704711F0004F08BF7047DC
:1019D00031F000413FF4D5AF0B0C06BF09044FF0C6
:1019E000100C4FF0000C0B0E04BF09020CF1080C98
:1019F0000B0F04BF09010CF1040C8B0F04BF89000D
:101A00000CF1020CCB0F04BF49000CF1010CCCF11E
:101A10002003A0EB0C0022FA03F302FA0CF241EAD5
:101A2000030100F10100704720F07F4C80EA0300C1
:101A300023F07F47ACEB070303F57C5300F0004035
:101A400003F1FF032DE980494FEA154B09B44FEA32
:101A5000144325EA0B4E24EA03480FF2042606EB52
:101A6000132749083E785FEA320203FB0667C7F591
:101A7000000707FB06F64FEA54374FEAD64606F151
:101A8000020607FB066CCCF1005C4FEA1C472CEA0F
:101A9000074C07FB06F40CFB06F504EB15464FEA72
:101AA000961634BF00204FF000404FEAD13706FBB6
:101AB00007FC4FEA1C4C0CFB0BF7D21B03FB0CF78B
:101AC00061EB07010CFB0EF7B0EB074072EB17421E
:101AD0000CFB08F734BFA2EB0742B2EB074261EB05
:101AE00017414FEA0C444FEA910706FB07FC4FEA07
:101AF0001C4C0CFB0BF7B0EBC74072EB573203FBEF
:101B00000CF734BFA2EBC742B2EBC74261EB5731CF
:101B10000CFB0EF7B0EBC70072EB57720CFB08F72B
:101B200034BFA2EBC702B2EBC70261EB5771039F50
:101B30004FEA816141EA921104EBCC044FEAD137BC
:101B40004FEA826206FB07FC42EA90124FEA80608D
:101B50004FEA1C4C0CFB0BF7D21B03FB0CF761EBA1
:101B600007010CFB0EF7B0EB074072EB17420CFBC2
:101B700008F734BFA2EB0742B2EB074261EB174113
:101B80004FEA8C554FEA910704EB9C2406FB07FCB7
:101B90004FEA1C4C0CFB0BF7B0EBC74072EB573213
:101BA00003FB0CF734BFA2EBC742B2EBC74261EBB9
:101BB00057310CFB0EF7B0EBC70072EB57720CFB02
:101BC00008F734BFA2EBC702B2EBC70261EB577153
:101BD00015EB4C254FEA816141EA92114FEA82628E
:101BE0004FEAD13742EA901206FB07FC44F10004A9
:101BF0004FEA80604FEA1C4C0CFB0BF7D21B03FB37
:101C00000CF761EB07010CFB0EF7B0EB074072EB32
:101C100017420CFB08F734BFA2EB0742B2EB0742B6
:101C200061EB174115EB1C154FEA813141EA9241F6
:101C30004FEA823242EA90424FEA80304FEA0C7615
:101C400044F1000448EA03434EEA0B484FF0000E0B
:101C5000B2EB080C71EB030724BF624639464EEB2A
:101C60000E0E4FF0000B0018524149414BEB0B0B8D
:101C7000B2EB080C71EB03077BF1000B24BF62464B
:101C800039464EEB0E0E4FF0000B00185241494101
:101C90004BEB0B0BB2EB080C71EB03077BF1000B6A
:101CA00024BF624639464EEB0E0E51EA020718BFBA
:101CB00046F0010616EB0E7655F1000254F10001D4
:101CC00003D5BDE88901BDE80088BDE88901BDE80C
:101CD0000048B619524141EB0101A3F101037047DD
:101CE00080807F7E7D7C7B7A797877767675747359
:101CF000727171706F6E6E6D6C6C6B6A6A69686818
:101D0000676666656464636362616160605F5F5EAD
:101D10005E5D5D5C5C5B5B5A5A5959585857575623
:101D20005655555554545353525252515150505088
:101D30004F4F4F4E4E4D4D4D4C4C4C4B4B4B4A4ADA
:101D40004A4949494848484747474746464645451E
:101D50004544444444434343434242424241414157
:101D600046EA0646A3F570534FEA164646EA42563F
:101D70004FEAD22242EA415210B54FEAD121A3F1F3
:101D8000010300F02FF820F0004000F1020C00F0F9
:101D9000004701EB00501146BCF5006F40EA070018
:101DA00000D210BDBAF1000F0AD01CB503B44FF039
:101DB00004004FF004014FF000000FBCBDE81040DC
:101DC0004FF00001BBF1010FB9BF04484FF0FF31E4
:101DD0000348002140EA070010BD00BFFFFFEF7F6E
:101DE0000000F07F002B9C4630D477002BD01CB530
:101DF0004FEA370703B44FF010004FF01001BAF16B
:101E0000000F06D0BCF1000FDCBF40F0080040F02E
:101E100008014FF000000FBCBDE810400BF1010BB2
:101E2000BBF1010F08BF5FEA170722BF12F10102E1
:101E300011F101014FF0004143F1000300F00040B7
:101E400043EA00007047F9D35708D0E746EA064650
:101E500013F1400F4FEA16461FDD13F1200FDFBFCD
:101E600016430A46002120335B42BED0C3F120074F
:101E700046EA064602FA07F74FEA164646EA07061A
:101E8000C3F1200722FA03F201FA07F721FA03F15E
:101E90004FF0000342EA0702A7E746EA020646EAD5
:101EA00006464FEA164646EA0106BCBF46EA064623
:101EB000360C4FF000034FF000024FF0000194E7A2
:101EC0002DE9804C9A46934670B491E8380007C8D3
:101ED00031EA400C48BF34EA430C03D5FFF7A4FDB8
:101EE000FFF780FFF0BCBDE8008C2DE9804C9A46DE
:101EF000934670B491E8380007C831EA400C48BFF7
:101F000034EA430C03D5FFF78FFDFFF729FFF0BC40
:101F1000BDE8008C2DE9804C9A46934670B491E858
:101F2000380007C810F0804F08BF13F0804F03D16E
:101F300000F01AF8FFF756FFF0BCBDE8008C2DE961
:101F4000804C9A46934670B491E8380007C810F068
:101F5000804F08BF13F0804F03D100F005F8FFF762
:101F6000FFFEF0BCBDE8008C20F07F4780EA030054
:101F700023F07F4C07EB0C03A3F57C5300F00040EB
:101F8000A3F1FE0392F0000F00F0B38095F0000F74
:101F900000F077802DE901494FEA11404FEA1446DD
:101FA00021EA004800FB06FC24EA064708FB06F687
:101FB00007FB08F800FB07F718EB06484CEB164C3C
:101FC0004FEA124B18EB07484FEA15464CEB174007
:101FD00022EA0B4E0BFB06FC25EA06470EFB06F633
:101FE00007FB0EFE0BFB07F71EEB064E4CEB164CE9
:101FF0004FF000061EEB074E4CEB174B18EB0B088F
:1020000040F1000018EB0E0B58EB000840F1000007
:102010008F1A4FF000013CBFC943661B14BFB5EBDC
:10202000040C00213CBFC943F61B4FEA17444EEA9B
:102030008E0E27EA04454FEA1C4704FB07622CEA90
:10204000074C05FB07F70CFB05F604FB0CFC16EB35
:10205000074642EB174216EB0C4642EB1C421BEBC9
:10206000060658EB0202414146EA9E0601D5BDE84C
:102070000189B619524141EB0101A3F10103BDE809
:1020800001894FEA14454FEA114724EA054621EA3F
:10209000074C05FB07F406FB07F70CFB06F105FBF5
:1020A0000CFC11EB074144EB17444FEA124711EBCC
:1020B0000C4144EB1C4422EA074C05FB07F206FBEB
:1020C00007F70CFB06F605FB0CFC16EB074642EB8C
:1020D000174216EB0C4642EB1C456A1854F10001FE
:1020E00048BF7047B619524141EB0101A3F101030A
:1020F000704795F0000F37D04FEA11424FEA14476E
:1021000021EA024624EA074C02FB07F106FB07F727
:102110000CFB06F402FB0CFC14EB074441EB1741EB
:102120004FEA154714EB0C4441EB1C4125EA074CE0
:1021300002FB07F506FB07F70CFB06F602FB0CFC9F
:1021400016EB074645EB174516EB0C4645EB1C42D4
:10215000121951F1000148BF7047B619524141EBC5
:102160000101A3F1010370474FEA14454FEA1147FB
:1021700024EA054621EA074C05FB07F106FB07F7B1
:102180000CFB06F24FF0000605FB0CFC12EB0742BD
:1021900041EB174112EB0C4251EB1C4148BF704719
:1021A000921841EB0101A3F10103704710B5104CE7
:1021B00001221146204600F044FF00220221204661
:1021C00000F03FFF4FF4FA7000F074FD012202218D
:1021D000204600F036FF074C01222021204600F067
:1021E00030FF20460022BDE81040102100F029BF3A
:1021F0000004024000080240FEE7000070B5854C74
:102200002DED088B94F82A00283404F01AFE9FED77
:10221000821B53EC112B04F063FE9FED811B53ECEA
:10222000112B04F01DFC04F02DFBE062606A05F048
:1022300041F994ED0C0A41EC180BB0EE00AAE078DD
:1022400060EE0A0A00EE100AB8EE400A20EE800A9C
:1022500010EE100A05F02EF941EC100B03F071FF9F
:102260009FED719B51EC100B53EC192B04F038FED1
:1022700053EC182B04F0F4FB04F0B6FDA083D4ED6E
:102280000C0A94ED090A10EE100A80EE801A84ED13
:102290000E1AD4ED0D0A80EE801A84ED0F1A05F0A7
:1022A00009F994ED100A41EC180B607960EE0A0A06
:1022B00000EE100AB8EE400A20EE800A10EE100A76
:1022C00005F0F8F841EC100B03F03BFF53EC192B31
:1022D00051EC100B04F004FE53EC182B04F0C0FB7F
:1022E00004F082FD85B2E58394ED100A94ED098A2D
:1022F000C0EE080AC4ED120A94ED110A10EE100A9D
:10230000C0EE080AC4ED130A05F0D4F841EC190B2D
:1023100018EE100A05F0CEF841EC1A0B284604F02E
:1023200090FD0E4646EC100B05469FED41BB51EC6F
:10233000100B53EC1B2B04F0D3FD53EC1A2B04F0C1
:10234000CFFD53EC192B04F08BFB04F09BFA2065B6
:1023500005F0B0F841EC190B18EE100A05F0AAF8D8
:1023600046EC105B9FED341B41EC1A0B53EC112B28
:1023700051EC100B04F0B4FD53EC1B2B04F0B0FD3A
:1023800053EC1A2B04F0ACFD53EC192B04F0A8FD10
:1023900004F02AFDC0B22071617900EE101AF8EE47
:1023A000400A00EE100AB8EE400A30EE800ABCEE99
:1023B000C00A10EE100A80B204F043FD9FED201B0E
:1023C00053EC112B04F08CFD04F00EFDC5B2A57189
:1023D00018EE100A05F06EF89FED1B1B53EC112B45
:1023E00004F07EFD04F04EFA00EE900A208A00EE22
:1023F000100AB8EE401A00EE105AB8EE400A21EE6C
:10240000000A80EE201ABDEEC10A84ED150ABDEC6B
:10241000088B70BD000000209A9999999999B93F4D
:102420000000000000000840000000000000244000
:10243000FF8D50466FCBBA3F000000000000E03F28
:10244000333333333333F33F1F85EB51B81E194019
:1024500010B504462DED068BB0EEC08A1A489FEDEC
:102460001BAB008F04F0EDFC41EC190B18EE100AC9
:1024700064B105F01FF853EC192B04F031FD41EC69
:10248000100B53EC102B9FED130B0BE005F012F823
:1024900053EC192B04F024FD41EC100B53EC102BE2
:1024A0009FED0E0B51EC100B04F0DAFA04F0EAF990
:1024B00005F000F853EC1A2B04F016FABDEC068B6D
:1024C000BDE8104004F060BC0000002000000000E7
:1024D0000000E03F00000000389C9C41000000002C
:1024E000389C6C412DE9F05FDFF8B8C10E462DED48
:1024F000028B4FF0000B9CF810806FF0130E9FEDD5
:102500006A8A644694F82950618E278E29441FFAFE
:1025100081F9D4ED150A216D94F82A30248F3D44B9
:102520005C43AFB25A4204EB4405B1EE600A0CF1D1
:102530008004B8F1000F5AD0E2469CF815C0D4F8D8
:1025400008800CFB186C4FF07808B5FBF8F5BCF16F
:10255000000F01DACCF1000C654513DB57464D4600
:10256000AAF8329008B1142202E07346B0EE600A75
:10257000284602F003F884ED050A387CFFF768FF6F
:10258000B8871EE05546AAF8307020B100221146E7
:10259000B0EE600A01E000231946384601F0EEFF74
:1025A000B5EEC00A84ED050AF1EE10FA03D0287CDE
:1025B000FFF74EFFA88794ED050ABDEEC00A85ED32
:1025C000140A9AF81510A26850465143891B00D589
:1025D0004942B1F57A7F63DCA0F830B0A0F832B0A0
:1025E000A0F83CB084ED058ACAF850B051E0D4F8A8
:1025F0000480E2464FF05A0CB5FBFCF5B6EB080838
:1026000001D5C8F10008454513DB57464D46AAF8E9
:10261000329008B1142202E07346B0EE600A2846F8
:1026200001F0ACFF84ED050A387CFFF711FFB88795
:102630001EE05546AAF8307020B100221146B0EED7
:10264000600A01E000231946384601F097FFB5EE15
:10265000C00A84ED050AF1EE10FA03D0287CFFF7DA
:10266000F7FEA88794ED050ABDEEC00A85ED140AB1
:102670006068801B00D54042B0F5167F10DCAAF8D8
:1026800030B0AAF832B0AAF83CB084ED058ACAF896
:1026900050B003F015F80120BDEC028BBDE8F09FAF
:1026A0000020F9E700000020000000007047000053
:1026B00000222021014800F0C4BC000000080240B4
:1026C00070B5194C00224FF48061204600F0B9FC2F
:1026D00000228021204600F0B4FCA51400222946E7
:1026E000204600F0AEFC0122D102204600F0A9FCF9
:1026F00001229103204600F0A4FC002201210B4896
:1027000000F09FFC00221021094800F09AFC0022F2
:102710002946084800F095FC0022A115204600F04B
:1027200090FC012070BD0000001002400004024037
:1027300000080240000002402DE9F041434C804671
:1027400094F8230010B10120BDE8F081E079E17A2E
:102750004FF0000688434FF0010756D03B49227BDB
:1027600001F180050B8E91F82900B1F8441018444E
:1027700080B2002A20860B46324611D094ED190A09
:10278000B1EE400A01F0FAFEB5EEC00A85ED050A89
:10279000F1EE10FA27D0207CFFF75AFEA08724E044
:1027A000002194ED180A01F0E9FEB5EEC00A85EDAE
:1027B000050AF1EE10FA04D0207CFFF749FEA0874D
:1027C00001E002F07DFFB4F84400D5ED050A00EE0B
:1027D000100AB8EE400AF4EEC00AF1EE10FA14DB6B
:1027E0002686277311E002F06BFF95ED050AB5EE22
:1027F000C00AF1EE10FA08D826869FED150A85ED7D
:10280000050AE671267302F05BFFE079E17A08437E
:102810000AD1404603F06AFA30B1E77284F82670B4
:1028200084F8206002F00AFFE07AE17988430AD058
:1028300000210846FFF756FE28B1E67284F823709F
:1028400002F03EFF7FE700207EE70000000000204E
:102850000000000000220121014800F0F2BB00004E
:102860000004024070B520211B48FDF7ACFE1A4859
:1028700028214638FDF785FE0021174B0846463BC8
:10288000A3F15A02145C1CB1145C5C54491CC9B21B
:10289000401CC0B22828F5D30F4800240FA14638A9
:1028A000FDF74AFE0C4D0DE003F06EFB51EC100BF2
:1028B00003F0E8FF45F8240008A10020FDF73CFEE6
:1028C000641CE4B20028EFD1BDE870400248282122
:1028D000A038FDF778BE0000EC0200202F000000B9
:1028E000002229B101291AD002291BD04FF44072CD
:1028F0000E490B6823F440730B600B6813430B60A5
:102900000A6822F0F8020A600A68022303EBC0009A
:1029100002430A60086840F48030086070474FF452
:102920008072E5E74FF40072E2E70000103C0240DD
:102930001348016889050FD5016821F40071016011
:10294000016841F400610160016821F400610160E7
:10295000016841F400710160016849050FD5016803
:1029600021F480610160016841F4805101600168D7
:1029700021F480510160016841F480610160704779
:10298000003C024008490A6822F440720A600A6862
:1029900042F004020A600A684FF4803343EA0020E0
:1029A00002430A6070470000103C0240064A136868
:1029B00023F44073136013681360136843F001033A
:1029C0001360017070470000103C0240094910B5C7
:1029D0000C6824F440740C600C6844F440740C607F
:1029E0000C6844F001040C600260BFF36F8F436019
:1029F00010BD0000103C0240074A136823F44073E6
:102A00001360136843F480731360136843F0010389
:102A10001360018070470000103C0240074A1368B1
:102A200023F440731360136843F400731360136856
:102A300043F001031360016070470000103C024046
:102A400017490868C206174805D5C26942F0100246
:102A5000C26110220A600A68920605D5C26942F076
:102A60000802C26120220A600A68520605D5C269BE
:102A700042F00402C26140220A600A68120605D5CB
:102A8000C26942F00202C26180220A600A689207AB
:102A900005D5C26942F02002C26102200860704779
:102AA0000C3C02400C03002070B511490446002084
:102AB000C86100F0CBFA06460E4D09E0601C07D055
:102AC00024B100F0C3FA801BA04201D9032070BDDD
:102AD0002868C003F2D42868C00701D0012028600C
:102AE000286810F0F200F2D0FFF7AAFF012070BDB5
:102AF0000C0300200C3C024008C8521E08C192B2D0
:102B0000FAD270472DE9F843174688460546002457
:102B100000F07CF9284600F02BF8064605EB87000C
:102B200000F026F8014611480022891B02600222AB
:102B3000491C8660C0E90312694600F0CDF848B927
:102B40000EE000BF58F8242000232946022000F0A0
:102B50001FF918B100F00CF9BDE8F883641C2D1DB5
:102B6000BC42EFDB00F00AF90020F5E7B4000020DA
:102B70000021A0F1006343F6FF7293422BD3174B61
:102B80000344934201D2012125E0154B03449342B3
:102B900001D202211FE0134B0344934201D20321CF
:102BA00019E0114A4FF6FF7302449A4201D2042100
:102BB00011E00E4A83180E4A934201D205210AE021
:102BC0000C4B0344934201D2062104E00A4B184403
:102BD000904200D2072108467047000000C0FFF76E
:102BE0000080FFF70040FFF70000FFF70000FEF74E
:102BF000FFFF01000000FCF70000FAF72DE9F041AB
:102C00000446876D00F022FA064694F83500002548
:102C1000022806D08020606584F834500120BDE889
:102C2000F0812068016821F0160101602068416987
:102C300021F080014161206C08B9A06C20B12068AE
:102C4000016821F0080101602068016821F001019C
:102C500001600CE000F0FAF9801B052807D920205C
:102C60006065032084F8350084F83450D7E7206885
:102C70000068C007EED194F85C103F208840B8602F
:102C8000012084F8350084F834500020C7E790F81C
:102C90003510022903D080214165012070470521AC
:102CA00080F835100068016821F001010160002002
:102CB0007047000070B5044600F0C8F90546601C76
:102CC00002D004480078044400F0C0F9401BA04240
:102CD000FAD370BDA00000202DE9F0470446224839
:102CE0000F46017E01290AD00121804601764CF26F
:102CF00050394846FFF7D8FE020003D02FE00220EB
:102D0000BDE8F0874FF0FF3038602068174D01288C
:102D100001D0A6681CE0207C6168FFF733FE4846BE
:102D2000FFF7C2FE0246286820F00400286014E085
:102D3000217C3046FFF7D4FD4846FFF7B5FE020080
:102D4000286820F0FA00286001D03E6005E0761C7B
:102D5000D4E902100844B042EAD8FFF7E9FD0021A7
:102D600088F818101046CBE70C030020103C0240F6
:102D70000148C069704700000C0300200348016847
:102D800041F000410160002070470000103C02400B
:102D90002DE9F0471B4E05461446307E1F468946F6
:102DA000012808D0012030764CF250384046FFF719
:102DB0007BFE18B114E00220BDE8F0879DB1012D23
:102DC00016D0022D19D022463B464846FFF7FEFD9D
:102DD0004046FFF769FE0C490A6822F001020A60CA
:102DE00000213176E8E7E1B24846FFF7DFFDEFE783
:102DF000A1B24846FFF700FEEAE721464846FFF742
:102E00000DFEE5E70C030020103C024007490020BE
:102E10000A68002A09DA054A054B0C3A1360054B8B
:102E200013600968002900DA01207047103C024055
:102E300023016745AB89EFCD2DE9F84FDFF8BCA141
:102E4000002201250AF1040B03264FF00F090BF1B4
:102E5000040E00BF0B6805FA02F42340A34270D1B0
:102E60000F7907F00307012F01D0022F16D18768D1
:102E70004FEA420806FA08FC27EA0C07D1F80CC012
:102E80000CFA08FC4CEA070CC0F808C04768A743D6
:102E90000C79C4F3001494403C4344600C79E4433F
:102EA000A4070AD0C4684FEA420C06FA0CF7BC43E8
:102EB0008F6807FA0CF72743C7600C7904F0030406
:102EC000022C12D1D40800EB840CDCF82040570708
:102ED000FF0E09FA07F824EA0804D1F8108008FA6E
:102EE00007F848EA0408CCF8208004684FEA420C4E
:102EF00006FA0CF7BC430F7907F0030707FA0CF743
:102F0000274307604C6814F4403F70D03C4C27685E
:102F100047F480472760246822F0030704F48044C4
:102F20000094384C07EB040CDCF8084897074FEA8C
:102F3000177809FA08F7BC43334FB84202D100278B
:102F400024E054E0314FB84201D101271EE0304F58
:102F5000B84201D1022719E02E4FB84201D1032710
:102F600014E02D4FB84201D104270FE02B4FB84297
:102F700001D105270AE02A4FB84201D1062705E012
:102F8000284FB84201D1072700E0082707FA08F7C1
:102F90002743CCF80878DAF800405746D1F804C047
:102FA0009C435FEACC3C00D51C433C60DBF800400E
:102FB0005F46D1F804C09C435FEA8C3C00D51C43BB
:102FC0003C60DEF800407746D1F804C09C435FEADD
:102FD000CC2C00D51C433C60084F0C373C68D1F822
:102FE00004C09C435FEA8C2C00D51C433C60521CFF
:102FF000102AFFF42FAFBDE8F88F0000003C01401D
:103000004438024000300140000002400004024009
:1030100000080240000C0240001002400014024070
:1030200000180240001C02400069084000D0012046
:103030007047426921EA02030A4043EA0241816182
:1030400070470AB1816170470904FBE70148806855
:1030500070470000A00000200248816802781144F7
:1030600081607047A00000200B4810B5016841F452
:1030700000710160016841F480610160016841F400
:1030800080710160032000F06FF8002000F006F866
:1030900000F024F8002010BD003C024070B50D4D3A
:1030A00004464FF47A712878B1FBF0F00A490968B8
:1030B000B1FBF0F000F01EFB48B9102C07D2002243
:1030C0002146501E00F030F800206C6070BD0120D9
:1030D00070BD0000A0000020AC0000200A4808B528
:1030E000016841F480410160006800F48040009074
:1030F0000548001F016841F080510160006800F040
:103100008050009008BD000044380240002809DBD0
:1031100000F01F02012191404009800000F1E020F1
:10312000C0F8001170470000F0B40E4B1B680C464D
:10313000C3F30223C3F10705042D00D90425191D8B
:10314000072901D2002300E0DB1E012606FA05F163
:10315000491E214099409E40761E16403143F0BCE6
:1031600002F084BE0CED00E0064900F0070208689A
:103170004FF6FF03184040EA0220034A104308605C
:10318000704700000CED00E00000FA05BFF34F8F20
:1031900005480168054A01F4E06111430160BFF38D
:1031A0004F8F00BFFDE700000CED00E00400FA05C2
:1031B0002DE9F0470E46050065D0DFF81481D8F8F8
:1031C0000000F7B200F00700B04207D288F80070A4
:1031D000D8F8000000F00700B04254D128683D4CF8
:1031E000810712D5400703D5206840F4E0502060E5
:1031F0002878000703D5206840F4604020602068EC
:10320000A96820F0F000084320602878C0072DD07E
:10321000304968680839012812D0022813D00328E1
:1032200011D00968890700292DDA216821F00301EE
:1032300001432160FFF70AFF814641F2883A0EE020
:1032400009688903EFE709688901ECE7FFF7FEFEEB
:10325000A0EB0901514502D90320BDE8F0872068A1
:10326000696800F00C00B0EB810FEFD1D8F80010C6
:10327000404601F00701B14207D90770006800F02D
:103280000700B04201D00120E7E72878400705D5C4
:103290002068E96820F4E05008432060287800079F
:1032A00006D52068296920F4604040EAC10020600A
:1032B00000F038F82168084AC1F30311515CC84096
:1032C0000649086006480068FFF7E8FE0020C4E7EA
:1032D000003C02400838024012770008AC00002091
:1032E000A40000200448054900680968044AC1F3A5
:1032F0008221515CC8407047AC0000200838024071
:10330000227700080448054900680968044AC1F3A7
:103310004231515CC8407047AC0000200838024080
:1033200022770008154810B5006810F00C02144808
:1033300013D01449042A0FD0082A0ED10F4C241F91
:103340002268236802F03F025B0207D52068C0F3C1
:103350008810A0FB010106E0084610BD2168C1F3FA
:103360008811A1FB00010023FCF794FF2168C1F341
:103370000141491C4900B0FBF1F010BD0838024082
:103380000024F400001BB7002DE9F84F04006ED0B4
:103390002078DFF84C93C007A9F104054AD009F161
:1033A00004000168C1F38101012908D00068C0F35D
:1033B000810002280AD1D9F80000400206D5286809
:1033C000800337D560680028E1D033E06068B0F54D
:1033D000803F10D0B0F5A02F286810D020F48030A6
:1033E0002860286820F4802028606068A8B1FFF772
:1033F0002DFE06460DE0286840F48030F4E740F4E6
:1034000080202860F7E700BFFFF720FE801B6428BC
:1034100073D828688003F7D50CE0FFF717FE06463F
:1034200005E000BFFFF712FE801B6428F0D8286873
:103430008003F7D42078DFF8AC8280074FF0000AD1
:103440003ED5A748001D016811F00C0F08D0006898
:10345000C0F3810002280BD1D9F80000400207D444
:103460002868800716D5E068012800D112E033E112
:10347000E068B8B10120C8F80000FFF7E7FD064694
:1034800005E000BFFFF7E2FD801B0228C0D82868D6
:103490008007F7D52868216920F0F80040EAC100CC
:1034A00028600DE0C8F800A0FFF7D0FD064604E054
:1034B000FFF7CCFD801B02281FD828688007F7D4AF
:1034C0002078000722D5864F87486169703771B12F
:1034D00001210160FFF7BAFD064604E0FFF7B6FDE3
:1034E000801B022809D838688007F7D50EE0C0F89D
:1034F00000A0FFF7ABFD064605E082E0FFF7A6FD62
:10350000801B02287DD838688007F7D420784007D0
:1035100068D5DFF8CCB100270BF13C0BDBF80000DD
:10352000C0000BD4DBF8001041F08051CBF8001044
:10353000DBF80000012700F0805000906B4E3068EF
:10354000C00510D4306840F480703060FFF77EFD15
:10355000009005E0FFF77AFD0099401A022850D844
:103560003068C005F6D55E4EA0686C3601280FD0D5
:103570000528306810D020F001003060306820F05D
:1035800004003060A068B8B1FFF760FD00900FE064
:10359000306840F00100F4E740F004003060F7E7E5
:1035A000FFF754FD0099411A41F28830814266D8F4
:1035B00030688007F4D50EE0FFF748FD009007E083
:1035C000FFF744FD0099411A41F28830814256D8F4
:1035D00030688007F4D42FB1DBF8001021F080515F
:1035E000CBF80010A069C8B33D49091D0968C1F3B3
:1035F000810102294AD00228504607D0C8F860004D
:1036000000E03CE0FFF722FD04463BE04746C8F8F7
:103610006000FFF71BFD064605E000BFFFF716FD43
:10362000801B02282BD828688001F7D4D4E9070131
:103630000843A16A2E4A490802EB0141626A41EA45
:103640008211084394F82C1040EA0161C9F8001077
:1036500001203866FFF7FAFC044606E03EE000BFB2
:10366000FFF7F4FC001B022809D828688001F7D571
:1036700034E000BFFFF7EAFC001B022802D9032058
:10368000BDE8F88F28688001F4D427E00128F7D03E
:10369000D9F80000E26900F4800191421CD1226A4D
:1036A00000F03F01914217D147F6C071626A0140B4
:1036B000B1EB821F10D1A26A4FF0FF3300F440310A
:1036C00003EB5202B1EB024F06D194F82C1000F03C
:1036D0007060B0EB016F01D00120D1E70020CFE78F
:1036E0000438024000004742800E4742007000400C
:1036F0000000FFFF10B5401EB0F1807F01D3012014
:1037000010BD4FF0E02460610F21601702F0AEFBA6
:103710000020A06107202061002010BD7047704785
:1037200070B590F83C20012A32D0012480F83C404A
:10373000022280F83D2003685A689D6822F07006D6
:103740000A6832435A60134B02689A4214D0B2F1AD
:10375000804F11D0104B9A420ED0104B9A420BD092
:103760000F4B9A4208D00F4B9A4205D00E4B9A420B
:1037700002D00E4B9A4204D1496825F080031943C8
:10378000916080F83D40002180F83C10084670BDF3
:10379000022070BD0000014000040040000800400D
:1037A000000C0040000401400040014000180040AF
:1037B00010B5040003D094F83D0010B107E00120DB
:1037C00010BD002084F83C00204600F01FF80220C5
:1037D00084F83D00211D206802F010F8012084F8D3
:1037E000460084F83E0084F83F0084F8400084F8E6
:1037F000410084F8420084F8430084F8440084F8CF
:10380000450084F83D00002010BD000070B586B072
:10381000044614216846FCF7D6FE214A2568002399
:103820001F49103A02241F48B5F1804F1ED01E4E8A
:10383000B54219D10D6845F002050D60096801F027
:1038400002010591116841F001011160116801F058
:103850000101059140210091CDE90143CDE90334F7
:10386000694600BFFFF7E8FA06B070BD0D6845F085
:1038700001050D60096801F001010591116841F031
:1038800001011160116801F00101059122210091EF
:10389000CDE901430121CDE903316946E2E70000AA
:1038A00040380240000002400004004090F83D1003
:1038B000012901D001207047022180F83D100168E4
:1038C000CA6842F00102CA6000681149884214D0F7
:1038D000B0F1804F11D00F4988420ED00E49884276
:1038E0000BD00E49884208D00D49884205D00D49B9
:1038F000884202D00C49884204D1816801F0070156
:10390000062903D0016841F00101016000207047E1
:10391000000001400004004000080040000C00408E
:103920000004014000400140001800400168CA68DE
:1039300022F00102CA6001680A6A41F211131A42B8
:1039400007D10A6A9B101A4203D10A6822F00102C9
:103950000A60012180F83D100020704770B50446D0
:1039600090F83C000025012817D0012684F83C601F
:10397000022084F83D002068826822F0770222F459
:103980007F4282600868502838D00DDC20284FD054
:1039900005DC90B3102811D14AE0022070BD302818
:1039A00046D040280AD13BE060282FD070280DD0A7
:1039B000B0F5805F03D0B0F5005F12D0012584F828
:1039C0003D60002084F83C00284670BDCB68D1E9FA
:1039D0000121206801F076FF2068816841F07701BD
:1039E00009E0CB68D1E90121206801F06BFF206874
:1039F000816841F480418160E1E719E0CA68496863
:103A0000206801F071FF5021206806E0CA6849680B
:103A1000206801F0BBFF6021206801F05DFFCEE768
:103A2000CA684968206801F05FFF40212068F4E718
:103A3000226801461046F0E770472DE9F04105463F
:103A400090F83C0000260C46012810D0012085F893
:103A50003C0072B1042A1CD0082A2CD00C2A50D069
:103A60000126002085F83C003046BDE8F0810220A8
:103A7000FBE7D4E90012E368286801F047FF2868F3
:103A8000816921F00C01816128688169A268114374
:103A90000FE0D4E90012E368286801F089FF286884
:103AA000816921F44061816128688169A26841EAE5
:103AB00002218161D5E72868D4E9002C277B016ABF
:103AC00021F480710162C169036A21F0030141EAB6
:103AD0000C0121F0F00C39074FF420674CEA11611A
:103AE00023F4206307EA02221A43C16102622868B4
:103AF000C16921F00C01C1612868C169A268114344
:103B000028E02868D4E90027E168036A23F4805399
:103B10000362D0F81CC0036A2CF4407C4CEA0727EF
:103B20004FF6FF7C27F470470CEA013139434FF41C
:103B3000204723F4204307EA02321A43C16102629C
:103B40002868C16921F44061C1612868C169A2681F
:103B500041EA0221C16184E710B5040003D094F862
:103B60003D0010B107E0012010BD002084F83C00AA
:103B7000204600F01EF8022084F83D00211D206838
:103B800001F03CFE012084F8460084F83E0084F8F1
:103B90003F0084F8400084F8410084F8420084F833
:103BA000430084F8440084F8450084F83D00002078
:103BB00010BD704770B50446006801694FF00005FC
:103BC000C943890715D4C168C943890711D4E91EBF
:103BD000016101202077206880698007204602D09B
:103BE000FFF72AFF04E000F098F8204600F096F86E
:103BF000257720680169C943490717D4C168C943BB
:103C0000490713D46FF00401016102202077206876
:103C1000806910F4407F204602D0FFF70DFF04E0DA
:103C200000F07BF8204600F079F8257720680169DC
:103C3000C943090716D4C168C943090712D46FF0F4
:103C400008010161042020772068C06980072046B0
:103C500002D0FFF7F1FE04E000F05FF8204600F02C
:103C60005DF8257720680169C943C90617D4C16882
:103C7000C943C90613D46FF01001016108202077F1
:103C80002068C06910F4407F204602D0FFF7D4FEC0
:103C900004E000F042F8204600F040F82577206864
:103CA0000169C943C90708D1C168C943C90704D11B
:103CB000891E0161204600F033F820680169C9437C
:103CC000090609D4C168C943090605D46FF080010B
:103CD00001612046FFF722FD20680169C9434906BA
:103CE00009D4C168C943490605D46FF04001016198
:103CF000204600F07DF820680169C94389060BD48D
:103D0000C168C943890607D46FF0200101612046CC
:103D1000BDE87040FFF703BD70BD704770470000FD
:103D20002DE9F04100682E49012700262D4C8842DC
:103D300045D1617BA1B3A18F91B3E28F521C92B2A6
:103D4000E2878A423BD3E68794F8260004F1800597
:103D500038B379022448FFF76CF984F8266028E02C
:103D6000401CA8600AE0401EA860207C30B1607C46
:103D700020B9A868002801DC01F0A2FCA07B002883
:103D80000CD02969491C2961E868002800DA404202
:103D9000884203DC01F094FCA6732E61BDE8F0813B
:103DA0000DE0FFE74FF480711048FFF742F984F807
:103DB000267094F820000028A868D4D0D0E7B0F18D
:103DC000804FEBD194F82700401CC0B284F8270044
:103DD00094F829108842E1D304F8217FA671DDE729
:103DE00000040040000000200010024000080240D3
:103DF0007047704770470000F8B5016804460868CE
:103E0000CA684B6910F00F0F4FF0000559D003F04E
:103E1000010602F49077374365D0C10705D0D1057C
:103E200003D5216C41F001012164410705D5D90773
:103E300003D0216C41F002012164810705D5D90727
:103E400003D0216C41F004012164010707D502F081
:103E50002001314303D0216C41F008012164216C21
:103E600000293AD0800604D5900602D5204601F0FC
:103E7000F0FD20684069216CC0F38010090700D470
:103E800060B3204601F0BEFD20684069400621D5A0
:103E90002068143050E8001F21F0400140E8001273
:103EA000002AF5D1A06BA8B16C490165A06BFEF7A3
:103EB000EEFE002811D0A06B016D01B0BDE8F0400E
:103EC000084783060FD593060DD52046BDE8F84078
:103ED00001F0BFBD2046FFF78DFFF8BD2046FFF77C
:103EE00089FF2564F8BD266B2023012E79D1C606F3
:103EF00077D5D60675D508684868009048694006A9
:103F000040D5A16B086840680004000CEAD0A28D7F
:103F10008242E7D9E085C869B0F5807F2DD020685E
:103F20000C3050E8001F21F4807140E80012002A94
:103F3000F5D12068143050E8001F21F0010140E85D
:103F40000012002AF5D12068143050E8001F21F03B
:103F5000400140E80012002AF5D184F83E30256384
:103F600020680C3050E8001F21F0100140E80012DA
:103F7000002AF5D1A06BFEF741FEA08DE18D401A1D
:103F800081B229E0A08DE18D401A81B2E08D002838
:103F9000A8D00029A6D020680C3050E8002F22F4C9
:103FA000907240E80026002EF5D12068143050E8C9
:103FB000002F22F0010240E80026002EF5D184F8FF
:103FC0003E30256320680C3050E8002F22F01002AC
:103FD00040E80023002BF5D12046FFF70AFFF8BD8B
:103FE000FFE705062BD5150629D594F83D002128B5
:103FF000F5D1A068B0F5805F01D12069B0B1206A29
:10400000411C2162216800784860E08C401E000459
:10401000000CE084E3D12068C16821F08001C16018
:104020002068C16841F04001C160D8E7206A00887B
:10403000C0F308004860206A801C2062E5E7400663
:10404000CDD55006CBD5CA68204622F04002CA60C2
:1040500084F83D3000F097F9C1E70000F5590008F9
:1040600070B5040004D094F83D00002510B106E0BE
:10407000012070BD84F83C50204600F023F8242035
:1040800084F83D002068C16821F40051C1602046D9
:1040900001F040FD2068016921F490410161206830
:1040A000416921F02A0141612068C16841F4005151
:1040B000C1602564202084F83D0084F83E00002083
:1040C00070BD00002DE9F04186B004461421684619
:1040D000FCF779FA3D49DFF8F0C0236800243B4A39
:1040E00010390225032608273948DFF8E8806345A0
:1040F00029D1136843F480131360126802F480120C
:1041000005920A6842F004020A600A6802F004029A
:1041100005920A6842F008020A60096802AB01F0E1
:10412000080105918114CDE9001583E8D0006946A6
:10413000FEF782FE0420CDE9000502AB694683E864
:10414000D00040461DE0DFF890C063451ED11068E6
:1041500040F480201060106800F48020059008680A
:1041600040F0080008600868029400F0080005901C
:104170004FF44070CDE900050720CDE903606946A2
:104180004046FEF759FE06B0BDE8F081134A93425F
:10419000F9D10E4A121D136843F020031360126810
:1041A00002F0200205920A6842F004020A600968DF
:1041B00002AA01F004010591C021CDE9001582E8B1
:1041C000D0006946DDE70000005000404038024062
:1041D00000080240000C024000480040001401406A
:1041E00090F83E30202B0ED159B152B190F83C30AE
:1041F000012B08D0012380F83C300023036301F039
:104200000FBD012070470220704700002DE9F041EA
:10421000064600682A49002501272A4C884212D107
:10422000E17D24290DD071B1274A207F1154401C13
:1042300020772548012204F117014438FFF7D0FF09
:1042400001E0257767702149306888421CD1607F82
:104250002178884203D3A7702571657700E018B9EB
:10426000207E012800D12771207968B1164A607F2D
:104270002832217E1154401C6077124912480122D5
:104280001831CC38FFF7ACFF11493068884215D19E
:10429000617E242907D041B10B4AA07F46321154D8
:1042A000401CA07701E0A577E770BDE8F041054923
:1042B0000548012219318838FFF792BFBDE8F08127
:1042C00000140140000000204C020020005000407B
:1042D000004800402DE9F843044690F83D001F4691
:1042E00016460D4620284CD1C5B1BEB194F83C000D
:1042F000012846D0012084F83C004FF00008C4F8A3
:104300004080212084F83D00FEF7A0FEA68481466F
:10431000E684A068B0F5805F03D004E00120BDE82A
:10432000F883206928B12E465FF0000584F83C80B0
:104330000EE00026FAE78021204601F08CFCA0B9AF
:10434000AEB116F8010B21684860E08C401EE08495
:10435000E08C4B464FF0000200970028EBD14FF065
:104360004001204601F077FC30B10320D7E735F853
:10437000020BC0F30800E6E7202084F83D0000208F
:10438000CDE70220CBE77047FEE700002DE9F041C2
:104390002C4C00252046217CC06F04F180070126AB
:1043A00011B3B968627D5143814209DA84F8225021
:1043B00084F8206084F82650FEF77AF901F03EF97F
:1043C000B868617D4843E16F884209DD84F8225076
:1043D00084F8205084F82660FEF76AF901F02EF97F
:1043E000B868617D48431BE07968814209DA84F846
:1043F000225084F8206084F82650FEF759F901F025
:104400001DF97868E16F884209DD84F8225084F84C
:10441000205084F82660FEF74BF901F00FF9786818
:10442000E16F88420BD184F8226004F80C5F257597
:10443000A676FEF73DF9BDE8F04101F0FFB8BDE812
:10444000F08100000000002010B52349234800F04F
:10445000D3F82148224990ED000A81ED130A90ED2E
:10446000010ABCEEC00A10EE102A81F82A2090ED55
:10447000020ABCEEC00A10EE102AA1F8422090ED0C
:10448000030ABCEEC00A10EE102A81F8292090ED34
:10449000040ABCEEC00A10EE102A81F82B2090ED21
:1044A000050A81ED160A90ED060A81ED170A90EDD6
:1044B000070ABCEEC00A10EE102A81F82D2090EDFC
:1044C000080A81ED1A0A90ED090A81ED1B0ABDE880
:1044D0001040FDF793BE0000C800002000C1000896
:1044E0000000002010B500230121114A01280CD042
:1044F000022818D003281AD1D17782F82330D1723C
:10450000D371BDE81040FFF741BFD17702F8071F14
:104510005371517613711377D377FEF7C9F8BDE85D
:10452000104001F08BB8D17782F82330E9E710BD55
:104530000000002010B500224FF480610448FEF70F
:1045400080FD0022BDE8104020210248FEF779BD21
:10455000001002400008024010B5012291020548F7
:10456000FEF76FFD0022BDE8104020210248FEF753
:1045700068BD0000001002400008024000EE900AF2
:1045800070B5F8EEE00A1C4615460E4620EE200AED
:1045900010EE100A02F08EFF9FED151B53EC112B4D
:1045A00002F09EFC02F06EF900EE106A00EE900A36
:1045B000B8EEC00A30EE800A00EE904AF8EEE00A4B
:1045C000B4EEE00AF1EE10FA03DB00EE104AB8EEAA
:1045D000C00A00EE905AF8EEE00AB4EEE00AF1EEFE
:1045E00010FA03D800EE105AB8EEC00A70BD0000F1
:1045F0007B14AE47E17A843F30B50D460E498DB04D
:104600008A7D6946FEF778FA00240CA16846FBF71C
:1046100093FF0DE001F0B8FC51EC100B02F032F901
:1046200045F8240005A10020FBF786FF641CE4B2D6
:104630000028EFD10DB030BD000000202F00000099
:104640002DE9F04F87B014216846FBF7BCFF7D4889
:104650000024016841F010010160016801F01001BF
:104660000591016841F004010160016801F0040155
:104670000591016841F080010160016801F080014D
:104680000591016841F001010160016801F001013B
:104690000591016841F002010160016801F0020129
:1046A0000591016841F0080101600068664E00F064
:1046B0000800059000224AF213313046FEF7C1FC93
:1046C000DFF8888100224FF4E1614046FEF7B9FC33
:1046D000DFF87CB149F60857002239465846FEF704
:1046E000B0FC012230214046FEF7ABFC002246F22E
:1046F00065015848FEF7A5FC012248F20201554821
:10470000FEF79FFC01224FF4B9413046FEF799FCB9
:104710004FF48069012249464F48FEF792FC4FF45E
:10472000284A002251464C48FEF78BFC6C20CDE90C
:104730000004694630460294FEF77EFB4FF6937004
:1047400000900125CDE90154694630460394FEF7F7
:1047500073FB42F20700CDE900046946404602942B
:10476000FEF76AFB4FF4E7600090CDE9015469461B
:1047700040460394FEF760FB01A902200326009542
:1047800081E851000820049069465846FEF754FB22
:104790004FF42570CDE90004694658460294FEF7AF
:1047A0004BFB0097CDE90154694658460394FEF748
:1047B00043FB4EF267000090CDE90154694625485D
:1047C0000394FEF739FBB0021227CDE9000702AAD5
:1047D0004FF0040882E8600169461E48FEF72CFB92
:1047E00041F21820CDE9000469461A480294FEF708
:1047F00023FB1120CDF80090CDE90104694616484D
:104800000394FEF719FBCDF800A0CDE901546946E9
:1048100011480394FEF710FB45F28300CDE9000434
:1048200069460D480294FEF707FBF001CDE9000749
:1048300002AA694682E860010648FEF7FDFA07B061
:10484000BDE8F08F303802400010024000080240FE
:104850000000024000040240000C024010B58AB083
:104860000024244804940594069407940894099419
:104870000094019402944FF08041039401600A2156
:10488000C0E9011442F2D001C0E903148021816122
:10489000FEF78EFF00B1FEE74FF48050049004A9AC
:1048A0001448FFF75BF800B1FEE71248FFF754F930
:1048B00000B1FEE72020CDE9080408A90D48FEF765
:1048C0002FFF00B1FEE70120CDE900400294002255
:1048D000694608480394FFF7B0F800B1FEE70422E8
:1048E00069460448FFF7A9F8002800D0FEE70AB09F
:1048F00010BD0000F000002010B586B0002415485F
:104900000094019402940394049411490594016065
:104910000121C0E90114A821C0E903148461FEF754
:1049200047FF00B1FEE74FF4805000906946094808
:10493000FFF714F800B1FEE7049404A905480594B4
:10494000FEF7EEFE002800D0FEE706B010BD000026
:104950000004004038010020FEE770477047000067
:104960002DE9F04F2DED028B0126DFF860B5DFF861
:1049700060A5DC469BED000AAAF18004DCED010A8B
:10498000BDEEC00A9CED022ABDEEE01A10EE108AC0
:10499000BCEEC28AFCEEE01A94F80A90E28EE37C48
:1049A000E17F207C00259CED030AA1B04FF07E57EB
:1049B000B8F12E0F6FD2DFE808F06E28374175810D
:1049C000B3C1EF6E6EEDECEBEAE9E8E7E6E5E4E3B0
:1049D000E2E1E0DFDEDDDC6EDBDAD9D8D7D61CD54C
:1049E000D4D36E1C6E6E17F711EE100A30B1FDF7BE
:1049F000DDFB21B0BDEC028BBDE8F08FFDF72AFF97
:104A00006573E571E5726674F3E711EE101A01291A
:104A1000EFD110B100F02EFE48E000F051FE00F0A2
:104A200039FEA574A57319E211EE100A012801D010
:104A3000A572DEE7A672FDF743FEDAE711EE101A63
:104A4000012912D05FEA090129D000EE102AB8EE40
:104A5000400AFDF7FDFCA08784F8265084F820600A
:104A600000F0ECFDFDF724FEC3E784F825605FEA63
:104A7000090111D018B994F824100029B9D100EE19
:104A8000102AB8EE400AFDF7E3FCA08784F8266000
:104A900084F82050E4E7E1E2FFF75EFDA9E7FFF7C5
:104AA00049FDA6E711EE100A012802D000F0F2FD40
:104AB0009FE71846FFF716FD65749AE75FEA09015C
:104AC0000DD011EE101A89B200EE101AE186B8EE80
:104AD000400AFDF7BDFCA087E28EFEA1B9E211EE0F
:104AE000100AB8B1F2EE048A20EE280A01F0DCFACE
:104AF000C0EE280A0121BCEEE00A10EE100AC2B294
:104B000018EE100A00EE102A84F82B2080B2B8EEBE
:104B1000400AB0E1BCEEC00A10EE100A81B2B1E169
:104B200011EE100A012803D0257284F8285060E79E
:104B3000267205210C2000F0D1FC5AE700F016FD8A
:104B40004FF47A70FEF7B6F800F010FDE3A11DA84F
:104B5000FBF718FCC2B2A27664231DA90DE223E084
:104B600062E256E23EE22BE21CE20AE29BE190E1C5
:104B700077E16FE162E15AE154E14EE148E13DE164
:104B800023E103E1F8E0E9E0E5E0D1E0BEE0F2E0B6
:104B9000A0E08DE07DE0FFE711EE100A012801D0D2
:104BA000657226E7667224E7CE49CF48FFF724FDF9
:104BB000CC490868E064079091ED010ABCEEC00A98
:104BC00010EE100AC5B284F82A50039591ED020A3E
:104BD000BCEEC00A10EE100A83B2A4F84230029371
:104BE00091ED030ABCEEC00A10EE100AC2B284F8BE
:104BF0002920019291ED040ABCEEC00A10EE100AC1
:104C0000C0B284F82B0000904869A0658E69E66503
:104C100091ED070A8346BCEEC00A10EE100AC0B23E
:104C200084F82D0006900D6AA566486AE0661C347B
:104C300002F040FC81468A46284602F03BFC0746CB
:104C40008846304602F036FC05460E46584602F0CD
:104C500031FCCDE90401079802F02CFC41EC100B6B
:104C60000AA8A2A180E8800706980695CDE907600A
:104C70009DE82D00CDE90220CDE9005353EC102B27
:104C80000EA8FBF77FFBC2B204F8022CC8230EA9C2
:104C900073E100296FD1C4ED130AFDF7AFFAE06CA0
:104CA00002F008FC41EC100B9BA153EC102B3BE0F5
:104CB0000029EFD111EE900A84F82B001A34FDF789
:104CC0009DFA627C97A16846FBF75CFBC2B222703A
:104CD000C823F8E00029DDD111EE900AC5B284F8AE
:104CE0002A50284602F0ADF89FED901B53EC112B93
:104CF00002F0F6F89FED8F1B53EC112B01F0B0FE84
:104D000001F0C0FD2A468DA16065A2E10029C1D154
:104D1000C4ED160AFDF772FAA06D02F0CBFB41EC70
:104D2000100B88A153EC102B6846FBF72BFB6DE1B1
:104D30000029AFD111EE900AC0B284F829001428DE
:104D400001D8142002E0642802D3642084F82900EA
:104D5000C2B27FA17DE1FEF719FA4AE610EE901A81
:104D60007D48B94201D1012200E000225FF010012C
:104D7000FEF767F93DE6A7E010EE900A4FF40071E8
:104D8000B84201D1012241E000223FE0002990D148
:104D9000BDEEC20A10EE901A8AED030ACAF810504E
:104DA000B94204D184F8206084F8265003E084F8E6
:104DB000205084F8266000EE102A04F80E6FB8EE3A
:104DC000400AFDF745FBE0854AE610EE900A5E4694
:104DD000B84209D100224FF480616048FEF731F9F2
:104DE000207C08B9CAF8085096ED010AB5EEC00A51
:104DF000F1EE10FAB1D10122910207E010EE900A13
:104E0000B84201D1002200E0012280215348AFE7DF
:104E100010EE900A4FF480510DE010EE900A4FF41E
:104E2000006108E010EE900A4FF4804103E010EEBC
:104E3000900A4FF48071B842A6D0A3E7002943D16D
:104E400010EE900AB84201D1267500E02575227D4A
:104E500043A1FEE0002937D100F032FC84F8255050
:104E6000C7E5002930D110EE900AB84206D118EEFD
:104E7000100A012180B200F04FFFBAE5BDEEC00A72
:104E800010EE101A18EE100A012280B200F08EFF08
:104E9000AFE5C9B911EE900A33A1C2B2E274684617
:104EA000FBF770FA7BE079B911EE900A84F82D00D7
:104EB0001A34FDF7A3F9E27C2DA16846FBF762FAEC
:104EC000C2B22270642357E08BE00000EC020020A5
:104ED000800000206A252E646500000072372F31A3
:104EE00065000000C800002000C1000870252E32B7
:104EF000662F25642F25642F25642F25642F252EEA
:104F000032662F252E32662F25642F252E32662FEE
:104F1000252E3266650000007231312F252E326653
:104F2000650000007231322F256465009A999999C5
:104F30009999B93F00000000000008407231332FFA
:104F4000256465007231352F252E3366650000001B
:104F50007231362F256465000008024000100240BF
:104F60006732372F256465006D25646500000000F9
:104F70007233322F2564650069463B48FFF7AAF972
:104F800037E571BBC4ED1A0AFDF738F9A06E02F0DF
:104F900091FA41EC100B35A153EC102B1DE0C2B27D
:104FA000A2768FE7E9B9C4ED170AFDF727F9E06D9E
:104FB00002F080FA41EC100B2FA153EC102B0CE007
:104FC00079B9C4ED1B0AFDF719F9E06E02F072FA27
:104FD00041EC100B2BA153EC102B6846FBF7D2F9D8
:104FE000DDE73AE0C9BB11EE900A4FF4FA6180B2F6
:104FF000A4F84200884203D942F21071884201D3DA
:10500000A4F84210B4F8422021A122E0C2B2A27654
:105010005EE611BB04F8126FA5732675E674FDF702
:1050200047FB00F00BFBE4E4B9B910EE900AB8427C
:1050300005D126741D2020704FF4005004E0257423
:10504000112020704FF480602087FFF7FDF9227C4B
:1050500011A16846FBF796F9D8E701E000298FD047
:105060001846FFF73FFAC4E4080200207233332FDA
:10507000252E3266650000007233342F252E3266ED
:10508000650000007233352F252E32666500000062
:105090007233372F256465006733392F2564650027
:1050A0002DE9F041744C2DED048B94F8230020B1D0
:1050B0000120BDEC048BBDE8F081E07AE1794FF08E
:1050C000010788434FF000069FED6C9A6A4D05F189
:1050D000800574D094F82200F0B16749227B91F8E2
:1050E00029000B8EB1F846101844494280B2002ABC
:1050F000208633460A4628D094ED1D0AFFF73EFA73
:10510000B5EEC00A85ED050AF1EE10FA48D0207C14
:10511000FDF79EF9A08745E094F82000E16FFDF7C8
:10512000E1F90028C5D0B4F8420000F0DFFD002806
:10513000BFD084F8227084F82060267384F826702B
:10514000FDF7B6FA00F07AFA39E094ED1C0A002176
:10515000B1EE400AFFF712FAB5EEC00A85ED050A76
:10516000F1EE10FA04D0207CFDF772F9A08701E07F
:1051700000F0A6FAB4F8460001F063FE95ED050ACA
:1051800041EC180BB0EEC00A10EE100A02F092F9D2
:1051900053EC182B01F0A2FF11D8268627730EE0DE
:1051A00000F08EFA95ED050AB5EEC00AF1EE10FAA0
:1051B00005DB268685ED059A0120FFF793F9E07956
:1051C000E17A884355D0207B94F829100028208E5E
:1051D000084480B22086B4F8443013D094ED190A04
:1051E00019460022B1EE400AFFF7C8F9B5EEC00A31
:1051F00085ED050AF1EE10FA28D0207CFDF728F99C
:10520000A08725E00022114694ED180AFFF7B6F9B1
:10521000B5EEC00A85ED050AF1EE10FA04D0207C47
:10522000FDF716F9A08701E000F04AFAB4F844004F
:10523000D5ED050A00EE100AB8EE400AF4EEC00AF9
:10524000F1EE10FA15DB2686277312E000F038FA2B
:1052500095ED050AB5EEC00AF1EE10FA09D82686DA
:1052600085ED059AE671267300F02AFA84F823701A
:105270001EE700201DE700000000002000000000E5
:105280002DE9F041454C2DED028B94F8230020B11F
:105290000120BDEC028BBDE8F08194F822000026CD
:1052A000012700B33D49237B01F180050A8E91F867
:1052B0002900B1F846101044494280B2002B2086E4
:1052C00033460A4628D094ED1D0AFFF757F9B5EE8C
:1052D000C00A85ED050AF1EE10FA48D0207CFDF7F2
:1052E000B7F8A08745E00120E16FFDF7FBF8002843
:1052F000CFD0B4F8420000F0F9FC0028C9D084F8FF
:10530000227084F8206004F80C6FA776FDF7D0F9BE
:1053100000F094F9A6843FE094ED1C0A0021B1EE60
:10532000400AFFF72BF9B5EEC00A85ED050AF1EE4C
:1053300010FA04D0207CFDF78BF8A08701E000F084
:10534000BFF9B4F8460001F07CFD95ED050A41EC8B
:10535000180BB0EEC00A10EE100A02F0ABF853ECD6
:10536000182B01F0BBFE17D82686277314E000F037
:10537000A7F995ED050AB5EEC00AF1EE10FA0BDBC0
:1053800026869FED070A85ED050A04F80C6FA675C1
:1053900000F096F9E7757BE700207AE7000000202F
:1053A000000000007CB501218DF8001003228DF86B
:1053B0000120020A8DF802208DF8030000208DF8EC
:1053C00004008DF805104FF6FF7000216C464AF27C
:1053D0000103625C50400822C5074FEA500000D02C
:1053E0005840521EF8D1491C0629F2DB8DF8060000
:1053F000000A0C4C8DF8070001212046FDF721FE24
:10540000C823082269460848FEF764FF01221146B6
:105410002046FDF716FE012204490348FEF7E0FE90
:105420007CBD000000100240800100201800002018
:105430002DE9F041244F002480213846FDF7F4FD8A
:1054400000B10124214E40213046FDF7EDFD08B1A9
:1054500044F0020404213046FDF7E6FD08B144F0B3
:1054600004041B4D02212846FDF7DEFD00B101209A
:105470001849087008B144F0080408213046FDF7C7
:10548000D3FD08B144F0100401212846FDF7CCFDFE
:1054900008B144F0200410213846FDF7C5FD08B1DD
:1054A00044F0400404212846FDF7BEFD08B144F055
:1054B000800408210848FDF7B7FD08B144F4807462
:1054C0002046BDE8F08100000000024000100240CC
:1054D000000802400F000020000402407CB50122B9
:1054E0008DF8002003228DF80120020A8DF8022099
:1054F0008DF8030000208DF804008DF805104FF69C
:10550000FF7000216C464AF20103625C50400822A1
:10551000C5074FEA500000D05840521EF8D1491C30
:105520000629F2DB8DF80600000A0C4C8DF8070006
:1055300001212046FDF785FDC82308226946084859
:10554000FEF7C8FE012211462046FDF77AFD012232
:1055500004490348FEF744FE7CBD000000100240F1
:105560008001002018000020704700002DE9F0475E
:10557000264C9EB0E06E1C3401F09CFF05460E46A2
:10558000E06C01F097FFCDE90001206C01F092FF83
:1055900081468A46E06B01F08DFF07468846206B06
:1055A00001F088FF41EC100BDDE90001CDE90C565C
:1055B000CDE90A01607CCDE907A004A880E880035A
:1055C000A07BE37B627BE18C8DE80F0053EC102B1A
:1055D0000FA10EA8FAF7D6FE04F8020C0EA81C3C88
:1055E000FAF7B0FF800701D0012500E000250EA8E2
:1055F000FAF7A8FF05EB9000C2B2A2750EA90E48FB
:10560000FDF780FA1EB0BDE8F08700000000002022
:10561000252E32662F25642F25642F25642F2564BF
:105620002F252E32662F252E32662F25642F252E0C
:1056300032662F252E32660000C1000810B5012207
:1056400011020848FDF7FDFC012251020648FDF752
:10565000F8FC064901204873BDE810400448FEF7F5
:1056600025B90000000802400010024000000020A0
:105670003801002010B5064C012220212046FDF7FC
:10568000E0FC20460122BDE810401021FDF7D9BC06
:105690000008024070B5084C0025E577E571E57219
:1056A00000F00EF825869FED050A04F18000A5871D
:1056B00080ED050A70BD0000000000200000000021
:1056C0000A4910B5002048730948FEF72FF9002257
:1056D0004FF400710748FDF7B4FCBDE8104000220C
:1056E0004FF480710448FDF7ACBC000000000020BE
:1056F000380100200010024000080240FDF7ACBC59
:1057000030B593B030216846FAF75DFF14210CA83C
:10571000FAF759FF1C480025016841F080510160EB
:10572000006800F0805011901848016841F48041F1
:1057300001600068022400F4804011900120009074
:10574000000401908001CDE906400C2008904FF440
:10575000A870CDE9090404200B906846FDF714FEFB
:1057600000B1FEE70CA90F2081E831004FF4A050F2
:105770000F90109005210CA8FDF71AFD002800D00D
:10578000FEE713B030BD000040380240007000401A
:105790001048016841F4700101600F48016841F050
:1057A000010101600C4A00210832116002680B4BB4
:1057B0001A400260031D0A4A1A60026822F480221D
:1057C000026005480C3001600249580680390860C3
:1057D0007047000088ED00E000380240FFFFF6FE51
:1057E000103000240148FEF7E5B90000F000002069
:1057F0000148FEF7DFB9000038010020F0B502686B
:10580000254C264D264E274F274B4FF0804CA0426B
:1058100009D0604507D0A84205D0B04203D0B842B5
:1058200001D0984204D122F0700E4A6842EA0E027A
:10583000A0421BD0604519D0A84217D0B04215D065
:10584000B84213D0984211D0184DA8420ED0184D2E
:10585000A8420BD0174DA84208D0174DA84205D03A
:10586000164DA84202D0164DA84203D122F440752D
:10587000CA682A434D6922F080022A4302608A687E
:10588000C2620A688262A04201D0984201D10969CD
:10589000016301214161F0BD0000014000040040AE
:1058A00000080040000C004000040140004001409E
:1058B000004401400048014000180040001C004026
:1058C0000020004010B5846842EA032224F47F449B
:1058D0000A432243826010BD826822F070020A43AC
:1058E00042F007018160704710B5036A046A24F032
:1058F00001040462846924F0F00444EA021423F0F1
:105900000A020A438461026210BD000070B5046A95
:1059100024F0010404628469056A154EB04214D073
:10592000B0F1804F11D0134EB0420ED0124EB042A3
:105930000BD0124EB04208D0114EB04205D0114EDD
:10594000B04202D0104EB04203D124F003041443FD
:1059500001E044F001041A0724F0F00444EA126262
:1059600025F00A0301F00A0119438261016270BD4A
:10597000000001400004004000080040000C00400E
:1059800000040140004001400018004010B5036AC7
:1059900023F0100303628369046A23F4704343EA2B
:1059A000023224F0A00343EA01118261016210BDBA
:1059B00030B5046A24F0100404628469056A24F492
:1059C000407444EA022222F470444FF6FF7202EA65
:1059D00003322243A02425F0A00304EA0111194355
:1059E0008261016230BD00000148FEF705BA000087
:1059F0008001002010B5806B0021C185C184FEF7B5
:105A0000F9F910BD01680C3151E8002F22F49072B1
:105A100041E80023002BF5D10168143151E8002F33
:105A200022F0010241E80023002BF5D1016B01298E
:105A300009D101680C3151E8002F22F0100241E831
:105A40000023002BF5D1202180F83E1000210163B6
:105A5000704708B590F83E10222901D0022008BDF9
:105A600082684FF480539A4201D1016921B1816A61
:105A70009A421BD04AB10AE00268816A5268C2F3B6
:105A800008020A80816A891C08E0026972B1026812
:105A9000526802F07F020A70816A491C8162C18DDE
:105AA000491E0904090CC18503D019E00268526837
:105AB000F1E70168CA6822F02002CA600168CA687A
:105AC00022F48072CA6001684A6922F001024A61C8
:105AD000202180F83E10016B012903D0FEF796FBD0
