:020000040800F2
:100000002809002055020008A7440008613F0008A5
:10001000A5440008F92100083D5D0008000000002B
:10002000000000000000000000000000C1550008B2
:100030003122000800000000A94400085D570008B4
:100040006F0200086F0200086F0200086F020008CC
:100050006F0200086F0200086F0200086F020008BC
:100060006F0200086F0200086F0200086F020008AC
:100070006F0200086F0200086F0200086F0200089C
:100080006F0200086F0200086F0200086F0200088C
:100090006F0200086F0200086F0200086F0200087C
:1000A0006F0200086F0200086F0200086F0200086C
:1000B00045580008515800086F0200086F020008F8
:1000C0006F0200086F0200086F0200086F0200084C
:1000D0006F0200086F0200086F0200086F0200083C
:1000E0006F0200086F0200086F0200086F0200082C
:1000F0006F0200086F0200086F0200086F0200081C
:100100006F0200086F0200086F0200086F0200080B
:100110006F020008495A00086F0200086F020008C9
:100120006F0200086F0200086F0200086F020008EB
:100130006F0200086F0200086F0200086F020008DB
:100140006F0200086F0200086F0200086F020008CB
:100150006F0200086F0200086F020008315D00089E
:100160006F0200086F0200086F0200086F020008AB
:100170006F0200086F0200086F0200080000000014
:100180006F0200086F02000800F002F800F052F859
:100190000AA090E8000C82448344AAF10107DA45E2
:1001A00001D100F047F8AFF2090EBAE80F0013F0E2
:1001B000010F18BFFB1A43F0010318475C770000DA
:1001C0007C770000103A24BF78C878C1FAD852076B
:1001D00024BF30C830C144BF04680C6070470000C1
:1001E0000023002400250026103A28BF78C1FBD840
:1001F000520728BF30C148BF0B607047662907F01F
:10020000B482642900F0D480002070471FB507F045
:100210006EFA00F007FD04000020002106F0C8FB84
:10022000401C60600020002106F0ACFBE0601FBDB8
:1002300010B510BD00F040FE1146FFF7E7FF06F0D5
:1002400059F801F0E3F803B4FFF7F2FF03BC01F043
:1002500027F900000948804709480047FEE7FEE704
:10026000FEE7FEE7FEE7FEE7FEE7FEE7FEE7FEE766
:1002700004480549054A064B70470000F15700083D
:1002800089010008280300202809002028050020F3
:100290002805002053EA020C00F069802DE9F04B9C
:1002A0004FF00006002B1FBFB3FA83F503FA05F4E5
:1002B00024FA05F65E4012BF1643B2FA82F502FA3E
:1002C00005F4C5F120051EBF22FA05FC44EA0C0422
:1002D000203556EA044C4FEA144418BF641C4FF012
:1002E00000084FF00009904271EB030C39D300294C
:1002F00019BFB1FA81F701FA07F6B0FA80F700FAF0
:1003000007F6C7F120071EBF20FA07FC46EA0C06D5
:100310002037B6FBF4FCA7EB0507103F07F01F0BD7
:10032000CBF120060CFA0BFB2CFA06F644BFB346C1
:100330000026202FA4BF5E464FF0000B5BEA060CA0
:1003400008BF4FF0010B19EB0B09ABFB027C48EB2C
:100350000608C01B06FB02CC0BFB03CC71EB0C01A7
:10036000C1E70B46024641464846BDE8F08B13B54F
:100370004FF000004FF00001AFF30080BDE81C40DB
:10038000704700000FB41CB5084B06AA7B446946B1
:100390000090059800F0B9FB04460020694600F083
:1003A000C7FB20461CBC5DF814FB0000A107000041
:1003B0002DE9F0410646002410687529314616A53E
:1003C00010D0AFF30080002802DA404213A507E006
:1003D00031688A0701D512A502E0490704D511A5A5
:1003E000012401E0AFF3008000210A2206F1240776
:1003F00009E0B0FBF2FCB0FBF2F302FB1C00303072
:1004000078541846491C0028F3D123462A46304622
:10041000BDE8F04100F00CB9000000002D00000024
:100420002B000000200000002DE9F0474FF0000AEB
:1004300089460446C0F820A02046E1688847002885
:1004400076D0252806D0D4E901219047206A401CA7
:100450002062F1E7E168204600258847C4F81CA027
:1004600006460027C4F818A02A2E09D0304605F009
:10047000F2FE38B304EB8708303EC8F8186019E084
:1004800059F8041B204604EB87029161E168884714
:10049000012F064618D1E069002820DA25F0200552
:1004A0001DE0D8F8180000EB800006EB4000303863
:1004B000C8F818002046E1688847064605F0CBFEDC
:1004C0000028EED1012F0AD02E2E08D12046E16857
:1004D00088477F1C0646022F45F02005C4DBA06933
:1004E000002803DA404245F00105A061E80701D089
:1004F00025F01005B6B1A6F14100192802D8203622
:1005000045F400654A463146204625604D46FFF7D2
:1005100075FE58B1012806D0ED1D25F0070000F149
:10052000080989E704E005F1040985E730468AE710
:10053000206ABDE8F0870000014A00F051BB0000CE
:10054000A000002010B5431C02E010F8011B71B19F
:100550008107FAD14FF0013202C88C1A8C4314EA99
:10056000C211F9D0C01A0A0603D0C01E10BDC01AAD
:1005700010BD0A0401D0801E10BD0902FCD0401E2F
:1005800010BD4FF000020429C0F0128010F0030CDF
:1005900000F01B80CCF1040CBCF1020F18BF00F876
:1005A000012BA8BF20F8022BA1EB0C0100F00DB825
:1005B0005FEAC17C24BF00F8012B00F8012B48BF83
:1005C00000F8012B70474FF0000200B51346944627
:1005D0009646203922BFA0E80C50A0E80C50B1F19B
:1005E0002001BFF4F7AF090728BFA0E80C5048BFAF
:1005F0000CC05DF804EB890028BF40F8042B08BF4D
:10060000704748BF20F8022B11F0804F18BF00F848
:10061000012B704770477047704710B500F006FB1C
:10062000006810BD10B5044600F000FB046010BD6A
:100630002DE9F0470D4699469246044600F12408FC
:100640000168880604D5E06921F01001216000E00E
:100650000120A84201DD471B00E00027A1697A19AB
:1006600002EB0900081AA0612078C00602D42046D7
:10067000AFF30080002608E0D4E901211AF8060053
:100680009047206A401C761C20624E45F4DB20789F
:10069000C0060AD52046AFF3008006E0D4E9012168
:1006A00030209047206A401C2062381EA7F10107C5
:1006B000F4DC07E0D4E9012118F805009047206A2E
:1006C000401C2062281EA5F10105F3DC2046AFF393
:1006D00000802078000602D50220BDE8F0870120C6
:1006E000FBE770472DE9FF4F0C461E464FF0FF37E2
:1006F0008BB0D2E90001DDF860800A908A46C1F330
:100700000A5505B93D46002108464FF00000BAF1F0
:10071000000F00F4400005DA00EB80004FF44001C8
:1007200001EA50004FEA9059B9F1010F00DDB946D6
:100730000A9850EA4A000ED044F61050A5F2FF3550
:1007400045432F14B8F1000F1ED07542291E1EDD3F
:10075000C9F100021CE0B8F1010F4FF0000001D018
:10076000302103E0F24305E02154401CB042FBDBA2
:1007700030460022002121540B99C1F80880C1E9BC
:1007800000200FB0BDE8F08FBD1B6D1CDEE74A46B0
:1007900000DA694206A800F0FBFA06AB93E807000E
:1007A00003AB83E8070050460A9901F0CBF88DE8C7
:1007B0000700A0F500501F3800900398002D0ADDB7
:1007C00042F21F014A460844002303A903906846E9
:1007D00001F076FB09E0A0F500504A461F380023DF
:1007E00003A90390684601F095FB8DE8070000041B
:1007F000000C03D04FF0FF30410800E01046B8F184
:10080000000F03D00022009215461EE0751E05D48D
:1008100000F010FA303262556D1EF9D5B346012250
:10082000084302D000227F1C04E02078302801D148
:1008300000227F1E002A099784D01DE0112D07DABF
:1008400000F0F8F9303262556D1C50EA0102F5D122
:10085000084302D00098C8B10EE00021681E05E0F0
:10086000235C625C63542254401E491C8142F7DBC6
:10087000AB46A81B401E0990002004F80B000B9803
:10088000099AC0F80880C0E9002B7AE711264FF0DA
:10089000000857E72DE9F04F88460446D21D22F0A4
:1008A000070191B0D1E90001CDE90A0105F0ECFAA8
:1008B00002460B98C00F01D02D2007E02068810769
:1008C00001D52B2002E0202101EAC000032A099073
:1008D00001D0072A05DB03464146204600F0F8F91F
:1008E0000BE12078800601D5E06900E00620B8F130
:1008F000650F814606D0B8F1660F18D0B8F1670FC2
:1009000070D131E00020B9F1110F009001DB11230B
:1009100001E009F101030AAA01A90CA8FFF7E2FE10
:10092000DDE90C70002609F10105834647E001204E
:100930004B4600904FF000470AAA01A90CA8FFF708
:10094000D1FEDDE90DB00C995D46002610B909F124
:1009500001000D18B9EB050003D4C0F1FF3609F111
:100960000105A5EB09002BE0B9F1010F01DA4FF009
:1009700001090020B9F1110F0090484601DD112353
:1009800000E003460AAA01A90CA8FFF7ABFEDDE9C7
:100990000C704D4600268346207800070AD4AB45EC
:1009A00000DA5D4601A8012D04DD411911F8011C92
:1009B000302907D04F4502DA17F1040F04DA01207D
:1009C00082460FE06D1EEEE7002F02DCED1B3E4479
:1009D00003E0781CA84200DD7D1CB81B00F1010A71
:1009E0004FF000472078000703D4AA4501DB4FF001
:1009F000FF3A0021B7F1004F0DF143088DF8431085
:100A000024D002202B23002F01DA7F422D230A213C
:100A1000021EA0F1010000DC5FB197FBF1FC97FB27
:100A2000F1F201FB1C7C17460CF1300C08F801CDEB
:100A3000EEE7A8F1010003702188090501D54521E1
:100A400000E06521A0F1010800F8011C09980FA938
:100A5000A1EB0807FF1D00B10120411901EBEA706D
:100A6000A1693844081A401EA0612078C00602D44B
:100A70002046AFF30080099828B1D4E901219047BE
:100A8000206A401C20622078C00622D52046AFF3A1
:100A900000801EE0002E04DBB34502DD01A8805D6E
:100AA00000E03020D4E901219047206A401C2062F8
:100AB000761CAAF101005FEA000A0AD100F0B2F840
:100AC000C0680168405CD4E901219047206A401C5D
:100AD0002062281EA5F10105DCDC07E0D4E9012134
:100AE00018F8010B9047206A401C2062381EA7F1BD
:100AF0000107F3DC2046AFF30080032011B041E68C
:100B000001694A1C02610878704700B58FB0CDE9D1
:100B100001310021059105497944CDE903101146C1
:100B20006846FFF781FC0FB000BD0000E5FFFFFF46
:100B30000A6802F8010B0A60704700000FB4002336
:100B400000B589B00CA900910B99CB60214B7B4477
:100B50000693214B7B44079304236FF00042CDE9B9
:100B600001321E4A7A446B4608920246002006F083
:100B70005EFE09B05DF814FB70B506464FF0FF301D
:100B800015460C46324686B00091CDE90101694612
:100B90000020049004A8FFF7D1FF02460498211812
:100BA00025B108B1084600E02046286004980028D6
:100BB0000DD0002A02DD0098884208D03246081B7A
:100BC00069460094CDE9010404A8FFF7B7FF06B019
:100BD00070BD0000FF010000170200005701000077
:100BE0002DE9F04115460E46040002D12C6804B9E7
:100BF0000BA4204600F04EF90444207870B127463B
:100C00003146384600F036F90444207810B100200F
:100C100004F8010B38462C60BDE8F0810027F9E7A5
:100C20000000000000487047E802002000487047BC
:100C3000C802002030B5B0F10A024FEA900E71F1FF
:100C400000034EEA817EB0EB0E0061EB91014FEAAA
:100C5000101E4EEA017E10EB0E0041EB11114FEA1F
:100C6000102E4EEA016E10EB0E0041EB11214FEAFF
:100C7000104E4EEA014E10EB0E0041EB11414018B0
:100C800041F100014FEAD00040EA41704FEAD10142
:100C900010EB80054FEA810444EA907444EB0104B0
:100CA0006D1944EB0404521BA3414FF0000348BFED
:100CB0000A3200D530BD401C41F1000130BD10B5F5
:100CC000044600F01FF90068005D00F0010010BD4F
:100CD0002DE9F0411F46044603260168072A01F466
:100CE000006004DB08B116A505E016A503E008B115
:100CF00015A500E015A521F010002060A069C01E18
:100D0000A0610FB1401EA0612046AFF300804FB13B
:100D1000D4E9012138469047206A401C2062C01C5B
:100D2000206206E0206AFAE7D4E9012115F8010BF8
:100D30009047761EF8D22046AFF30080BDE8F081E0
:100D40004E414E006E616E00494E4600696E66006F
:100D5000426842B1016811F8013B23B1521EC0E95B
:100D60000012184670470121C160881E7047426812
:100D70005AB1C368016843B983688B4205D0491EE4
:100D8000521CC0E90012002070474FF0FF3070473E
:100D90002DE9F047814616468AB0354878440DC89B
:100DA0008DE80D0032487844801C03AC0DC884E8FF
:100DB0000D0041F69B300844372190FBF1F290FB87
:100DC000F1F5A5F1800501FB12041B3C02D564423C
:100DD000012000E00020DFF898A080460027FA44B8
:100DE000AAF1BE0A0EE0E0070AD03246684607EBD9
:100DF000470101230AEB810101F08CF88DE807001F
:100E000064107F1C002CEED1194F7F44AE3F19E0D7
:100E1000E80715D007EB04100DF1180A90E80E0052
:100E20008AE80E00C068F04201D198190890324655
:100E3000012306A903A801F06DF803AB83E80700BE
:100E40006D10641C002DE3D14FF00103324669465A
:100E5000B8F1000F03A802D001F032F801E001F070
:100E600059F8C9E90001C9F808200AB0BDE8F087BF
:100E7000606B000030B503461D781DB10A4603E0E3
:100E8000AC4201D1181A30BD12F8014B002CF7D139
:100E90005B1CF1E730B503461D783DB10A4612F8F8
:100EA000014B1CB1AC42FAD15B1CF5E7181A30BDFE
:100EB00000487047C80200207546FFF7F9FFAE46AC
:100EC00005006946534620F00700854618B020B556
:100ED000FFF7CEF9BDE820404FF000064FF00007C5
:100EE0004FF000084FF0000B21F00701AC46ACE8D2
:100EF000C009ACE8C009ACE8C009ACE8C0098D463F
:100F00007047000010B5FFF78DFE001D10BD00BF3B
:100F1000A15A00002DE9FF4F06468BB00878FF2844
:100F200006D0491C2D2805D000244FF0000908E008
:100F300000200CE00124F8E709EB8903491C00EBD1
:100F400043090878FF28F7D114B1C9F100008146A0
:100F5000107800252C46AA4629462D2801D02B289A
:100F600004D1521C2D2813D0002082468B461078C5
:100F7000FF280FD04FF0000C0A21521CA5FB01786E
:100F800004FB018105FB0C11C5194BEB0104EEE7D5
:100F90000120EAE7002108464FF00000BAF1000FF7
:100FA00002D000EB80004008C0F38157012F01DD23
:100FB0004FF0FF370E9955EA040009EB01080BD0FA
:100FC0004FF0020918F5FA7F16DA4FEACA70002FBF
:100FD000706008DD012007E04FEACA70C6E900B082
:100FE0000FB0BDE8F08F00203060FFF71FFEC0F8A3
:100FF00000901821084616E0B8F5FA7F18DD002F9A
:1010000002DAF748784401E0F6487844D0E9001065
:10101000C6E9001040EACA707060FFF707FEC0F82A
:101020000090142108460FB0BDE8F04F06F09ABBBF
:10103000002108464FF00000B8F10001099002DAE3
:10104000C7F1000200E03A4601DAC8F1000106A843
:10105000FFF79EFE06AB93E8070003AB83E80700AB
:1010600044F23E005BEA04010090584604D144F289
:101070001E012C465D460091210C0904014306D156
:101080000099240444EA15442D041039009104F019
:101090007F41014306D10099240244EA15642D02E0
:1010A0000839009104F07041014306D100992401F0
:1010B00044EA15742D01091F009104F040410143D9
:1010C00006D10099A40044EA9574AD00891E0091F0
:1010D00004F00041084304D100986D196441401E9A
:1010E00000904FF001033A466846B8F1000FCDE991
:1010F000014503A902DD00F022FF01E000F0F5FE4A
:10110000BAF1000F04460D4601D084F000440021DE
:1011100008464FF00000099940F2FF77484010F070
:101120000C0F07D124F00040284303D0C4F30A5029
:10113000B84212D1FFF77AFDC0F80090C4F30A500C
:10114000B8420AD1A8487844D0E90010C6E9001096
:1011500004F000410843706042E7C6E900543FE7ED
:101160002DE9FF4F1F464FF0000A4FF0FF3845466C
:1011700091B0D7E90146CDF83CA0FFF753FDC06818
:101180000168405C1090B96912986D1C8847396AF3
:10119000814688470028F6D1B9F1FF3F0AD0002EDA
:1011A00024F4D06411DDB9F12B0F08D0B9F12D0F63
:1011B0000BD102E0404615B013E744F48064B969EE
:1011C00012986D1C8847761E8146600504A901D5DA
:1011D0002D2000E02B20002E01F1010B0DF1300835
:1011E0008DF810003FDDB9F1690F08D0B9F1490F52
:1011F00005D0B9F16E0F02D0B9F14E0F1CD13B46AC
:1012000001A8009580E85002DDE912126FF002009B
:1012100006F011FBC11CCED10EE0B96912986D1C0D
:10122000884781461398761E44F4007405600F9831
:10123000401C002E0F9016DDB9F1300FEDD0B9F142
:10124000780F02D0B9F1580F0DD10F9801280AD1AB
:101250003B46CDE90054DDE91212001F029606F06C
:10126000E8FAC11CA7D1109989453ED144F0800409
:1012700006E01399681CAAF1010A44F4007408609E
:10128000B9696D1C1298761E884730288146F0D0C7
:101290002BE01099894505D1200603D4761E44F031
:1012A000800418E0484604F0D6FF08B3761E0DF11E
:1012B00023018B4544F4007408D2A9F130000BF8E7
:1012C000010B200607D5AAF1010003E0200602D495
:1012D0000AF101008246A00502D51399681C086036
:1012E000B96912986D1C88478146002ED1DC53E005
:1012F000002E51DDB9F1650F02D0B9F1450F4BD188
:10130000A00549D5B9696D1C1298761E24F4407465
:101310008847002E81460CDD2B2804D0B9F12D0F13
:1013200007D144F48074B96912986D1C8847761E01
:101330008146E00501D52D2100E02B2108F8011B95
:10134000CDF8008021E0761E0DF13901884544F486
:1013500000740CD2A9F1300010F0FF0088F80000F2
:1013600002D10099884509D908F1010806E0E00595
:1013700001D51E4801E042F20F708246B969129809
:101380006D1C8847814613980560002E04DD484691
:1013900004F061FF0028D6D1F96912988847FF2030
:1013A00053468BF8000088F8000000200A900B904C
:1013B00004AA0CA90AA8FFF7ADFDA00502D46FF09E
:1013C0000100F8E614F0240F12D0E0071CD13868B1
:1013D000DDE90A12031D3B600068C0E9001213E05A
:1013E000386900002A690000EE670000F1D8FFFFAD
:1013F0000AA9684604F01CFFE00705D13868009A86
:10140000011D3960006802602846D4E610B5044624
:10141000AFF300802046BDE81040FEF714BF000087
:101420004FF0013C50F8042B51F8043B9A4221D173
:10143000A2EB0C03934313EACC1317D150F8042BFF
:1014400051F8043B9A4215D1A2EB0C03934313EAE3
:10145000CC130BD150F8042B51F8043B9A4209D11C
:10146000A2EB0C03934313EACC13DBD04FF0000044
:10147000704700BFD01A01BAB1FA81F101F018012A
:1014800022FA01F0CB40C1F12001DBB2C0B2C01A98
:101490002CFA01F3D11A914311EAC311E6D1704736
:1014A00001491820ABBEFEE7260002002DE9FF4FE0
:1014B0001F464FF03C0987B04FF00042DDE91410A1
:1014C00001F10108DDF858A002EA40500390002025
:1014D00005908346054604460490B969461E08985F
:1014E0008847AAF1010A0290BAF1000F3BDD029889
:1014F0002E2815D0102100F017FA00282EDB4FF00F
:10150000010B0599014317D0B9F1000F0BDB4A46D7
:10151000C11700F0F6F905430C43A9F1040905E0F1
:10152000012004900BE008B145F001050120059071
:10153000049820B9361D02E0049800B1361FB9693D
:10154000089808F101088847BBF1000FAAF1010AC9
:101550000290C9D00999C1F80080C5E702987028A7
:1015600008D0502806D0F96908988847BBF1000FC9
:1015700014D04FE0002002900120BBF1000F049036
:1015800009D0B969089808F101088847AAF101094A
:10159000B9F1000F07DCF969089888476FF001007E
:1015A0000BB0BDE8F08F2B2804D02D280CD14FF0C4
:1015B000FF300490B969089808F101088847A9F13B
:1015C0000109B9F1000FE6DD411CE4D00A2100F069
:1015D000ABF90028DFDB029908F1010801EB81017A
:1015E00000EB41000290B969089888470A2100F091
:1015F0009BF9099AA9F10109B9F1000FC2F800801D
:1016000001DD0028E7DAF96908988847049902980B
:1016100000FB016655EA040004D004F040410900D3
:1016200002D006E0039898E0A40044EA9574AD0067
:10163000B61E04F00041080002D16D196441761E07
:10164000159810F0240F03D04FF00B095C4803E00D
:101650004FF028096FF07D008246564507DAAAEB65
:1016600006018944B9F1410F01DD4FF04109012024
:101670000021A9F1010200F044F9024628400B467E
:101680002140084301D0012100E00021501E0291B9
:1016900043F1FF3128402140084301D0012000E000
:1016A00000200299834651EA0B014FD000210846E1
:1016B0004FF00000039900F4400039B100EB8000C6
:1016C0004FF4400100EBD07001EA60008015012862
:1016D00002DD4FF0FF3000E013D0401C36D00298FE
:1016E00060B3BBF1000F0CD14A460120002100F08D
:1016F00008F928402140084301D0012000E00020E3
:10170000E0B101204A46002100F0FBF803464019F1
:101710000A4661412D1A8C4111D3B9F1400F09DD00
:10172000159810F0240F02D0AAF1340603E0AAF1B4
:10173000170600E0761C00254FF0004406E05B1E13
:1017400042F1FF3220EA030521EA0204CAF1010056
:10175000B04206DA1B49039808430190002000902C
:101760000EE0039AC4F3D321E80A0A43164940EA7B
:1017700044500A433146CDE90002684604F061FD59
:10178000159810F0240F0BD01598C00715D13868A4
:10179000DDE90012031D3B600068C0E900120CE0A7
:1017A00002A8694604F044FD1598C00705D13868C1
:1017B000029A011D3960006802604046F0E60000B0
:1017C00002FCFFFF0000F07F0000F03F2DE9FF4F1B
:1017D00092461D4685B04FF00041DDE9124BDDE930
:1017E00014727F1E01EA4B50414940F0FF4940EA24
:1017F0000108002122F020004928049102D04E283F
:1018000028D04CE03BA0012607C88DE80700A96955
:101810000698641C88477F1E014606D41DF8060002
:1018200018B121F0200181420BD0E9690698884760
:10183000032E34D0082E32D06FF0010009B0BDE87D
:10184000F08F761C032E01D0082EE0D1601CCAF860
:101850000000DCE7A9690698641C88477F1E2AD42B
:1018600020F02000412826D1A9690698641C8847E9
:101870007F1E20D420F020004E281CD1A969069894
:10188000641C88477F1E48F4002849F48009CAF880
:10189000004001D4282806D0E969069888475FEA05
:1018A000CB7012D022E0A9690698641C88477F1E7D
:1018B00001D4002803DAE96906988847BCE729289B
:1018C000F1D1641CCAF80040E9E71BF0240F07D0EF
:1018D00028680499031D2B600068C0E9001805E022
:1018E0002868021D2A600068C0F800902046A5E71D
:1018F0000000F07F494E46494E495459000000000F
:101900007047B2F120030AD5C2F1200301FA02F1B7
:1019100020FA03F300FA02F041EA0301704700FAEB
:1019200003F14FF0000070473A2800D2303820F021
:101930002002412A01D3A2F13700884201D34FF09F
:10194000FF3070475FEA400C08BF91F0000F4FEA8C
:101950008C234FEAC12243EA51514FEA1C5018BF71
:1019600000F5F0404FEA300018BF41F000415FEA57
:101970006C5C00F02980BCF1FF3F08BF40F0804064
:101980007047130C06BF12044FF0100C4FF0000C00
:10199000130E04BF12020CF1080C130F04BF120146
:1019A0000CF1040C930F04BF92000CF1020CD30F46
:1019B00004BF52000CF1010C11464FF00002A0F1DF
:1019C0001F00A0EB0C00704711F0004F08BF7047DC
:1019D00031F000413FF4D5AF0B0C06BF09044FF0C6
:1019E000100C4FF0000C0B0E04BF09020CF1080C98
:1019F0000B0F04BF09010CF1040C8B0F04BF89000D
:101A00000CF1020CCB0F04BF49000CF1010CCCF11E
:101A10002003A0EB0C0022FA03F302FA0CF241EAD5
:101A2000030100F10100704720F07F4C80EA0300C1
:101A300023F07F47ACEB070303F57C5300F0004035
:101A400003F1FF032DE980494FEA154B09B44FEA32
:101A5000144325EA0B4E24EA03480FF2042606EB52
:101A6000132749083E785FEA320203FB0667C7F591
:101A7000000707FB06F64FEA54374FEAD64606F151
:101A8000020607FB066CCCF1005C4FEA1C472CEA0F
:101A9000074C07FB06F40CFB06F504EB15464FEA72
:101AA000961634BF00204FF000404FEAD13706FBB6
:101AB00007FC4FEA1C4C0CFB0BF7D21B03FB0CF78B
:101AC00061EB07010CFB0EF7B0EB074072EB17421E
:101AD0000CFB08F734BFA2EB0742B2EB074261EB05
:101AE00017414FEA0C444FEA910706FB07FC4FEA07
:101AF0001C4C0CFB0BF7B0EBC74072EB573203FBEF
:101B00000CF734BFA2EBC742B2EBC74261EB5731CF
:101B10000CFB0EF7B0EBC70072EB57720CFB08F72B
:101B200034BFA2EBC702B2EBC70261EB5771039F50
:101B30004FEA816141EA921104EBCC044FEAD137BC
:101B40004FEA826206FB07FC42EA90124FEA80608D
:101B50004FEA1C4C0CFB0BF7D21B03FB0CF761EBA1
:101B600007010CFB0EF7B0EB074072EB17420CFBC2
:101B700008F734BFA2EB0742B2EB074261EB174113
:101B80004FEA8C554FEA910704EB9C2406FB07FCB7
:101B90004FEA1C4C0CFB0BF7B0EBC74072EB573213
:101BA00003FB0CF734BFA2EBC742B2EBC74261EBB9
:101BB00057310CFB0EF7B0EBC70072EB57720CFB02
:101BC00008F734BFA2EBC702B2EBC70261EB577153
:101BD00015EB4C254FEA816141EA92114FEA82628E
:101BE0004FEAD13742EA901206FB07FC44F10004A9
:101BF0004FEA80604FEA1C4C0CFB0BF7D21B03FB37
:101C00000CF761EB07010CFB0EF7B0EB074072EB32
:101C100017420CFB08F734BFA2EB0742B2EB0742B6
:101C200061EB174115EB1C154FEA813141EA9241F6
:101C30004FEA823242EA90424FEA80304FEA0C7615
:101C400044F1000448EA03434EEA0B484FF0000E0B
:101C5000B2EB080C71EB030724BF624639464EEB2A
:101C60000E0E4FF0000B0018524149414BEB0B0B8D
:101C7000B2EB080C71EB03077BF1000B24BF62464B
:101C800039464EEB0E0E4FF0000B00185241494101
:101C90004BEB0B0BB2EB080C71EB03077BF1000B6A
:101CA00024BF624639464EEB0E0E51EA020718BFBA
:101CB00046F0010616EB0E7655F1000254F10001D4
:101CC00003D5BDE88901BDE80088BDE88901BDE80C
:101CD0000048B619524141EB0101A3F101037047DD
:101CE00080807F7E7D7C7B7A797877767675747359
:101CF000727171706F6E6E6D6C6C6B6A6A69686818
:101D0000676666656464636362616160605F5F5EAD
:101D10005E5D5D5C5C5B5B5A5A5959585857575623
:101D20005655555554545353525252515150505088
:101D30004F4F4F4E4E4D4D4D4C4C4C4B4B4B4A4ADA
:101D40004A4949494848484747474746464645451E
:101D50004544444444434343434242424241414157
:101D600046EA0646A3F570534FEA164646EA42563F
:101D70004FEAD22242EA415210B54FEAD121A3F1F3
:101D8000010300F02FF820F0004000F1020C00F0F9
:101D9000004701EB00501146BCF5006F40EA070018
:101DA00000D210BDBAF1000F0AD01CB503B44FF039
:101DB00004004FF004014FF000000FBCBDE81040DC
:101DC0004FF00001BBF1010FB9BF04484FF0FF31E4
:101DD0000348002140EA070010BD00BFFFFFEF7F6E
:101DE0000000F07F002B9C4630D477002BD01CB530
:101DF0004FEA370703B44FF010004FF01001BAF16B
:101E0000000F06D0BCF1000FDCBF40F0080040F02E
:101E100008014FF000000FBCBDE810400BF1010BB2
:101E2000BBF1010F08BF5FEA170722BF12F10102E1
:101E300011F101014FF0004143F1000300F00040B7
:101E400043EA00007047F9D35708D0E746EA064650
:101E500013F1400F4FEA16461FDD13F1200FDFBFCD
:101E600016430A46002120335B42BED0C3F120074F
:101E700046EA064602FA07F74FEA164646EA07061A
:101E8000C3F1200722FA03F201FA07F721FA03F15E
:101E90004FF0000342EA0702A7E746EA020646EAD5
:101EA00006464FEA164646EA0106BCBF46EA064623
:101EB000360C4FF000034FF000024FF0000194E7A2
:101EC0002DE9804C9A46934670B491E8380007C8D3
:101ED00031EA400C48BF34EA430C03D5FFF7A4FDB8
:101EE000FFF780FFF0BCBDE8008C2DE9804C9A46DE
:101EF000934670B491E8380007C831EA400C48BFF7
:101F000034EA430C03D5FFF78FFDFFF729FFF0BC40
:101F1000BDE8008C2DE9804C9A46934670B491E858
:101F2000380007C810F0804F08BF13F0804F03D16E
:101F300000F01AF8FFF756FFF0BCBDE8008C2DE961
:101F4000804C9A46934670B491E8380007C810F068
:101F5000804F08BF13F0804F03D100F005F8FFF762
:101F6000FFFEF0BCBDE8008C20F07F4780EA030054
:101F700023F07F4C07EB0C03A3F57C5300F00040EB
:101F8000A3F1FE0392F0000F00F0B38095F0000F74
:101F900000F077802DE901494FEA11404FEA1446DD
:101FA00021EA004800FB06FC24EA064708FB06F687
:101FB00007FB08F800FB07F718EB06484CEB164C3C
:101FC0004FEA124B18EB07484FEA15464CEB174007
:101FD00022EA0B4E0BFB06FC25EA06470EFB06F633
:101FE00007FB0EFE0BFB07F71EEB064E4CEB164CE9
:101FF0004FF000061EEB074E4CEB174B18EB0B088F
:1020000040F1000018EB0E0B58EB000840F1000007
:102010008F1A4FF000013CBFC943661B14BFB5EBDC
:10202000040C00213CBFC943F61B4FEA17444EEA9B
:102030008E0E27EA04454FEA1C4704FB07622CEA90
:10204000074C05FB07F70CFB05F604FB0CFC16EB35
:10205000074642EB174216EB0C4642EB1C421BEBC9
:10206000060658EB0202414146EA9E0601D5BDE84C
:102070000189B619524141EB0101A3F10103BDE809
:1020800001894FEA14454FEA114724EA054621EA3F
:10209000074C05FB07F406FB07F70CFB06F105FBF5
:1020A0000CFC11EB074144EB17444FEA124711EBCC
:1020B0000C4144EB1C4422EA074C05FB07F206FBEB
:1020C00007F70CFB06F605FB0CFC16EB074642EB8C
:1020D000174216EB0C4642EB1C456A1854F10001FE
:1020E00048BF7047B619524141EB0101A3F101030A
:1020F000704795F0000F37D04FEA11424FEA14476E
:1021000021EA024624EA074C02FB07F106FB07F727
:102110000CFB06F402FB0CFC14EB074441EB1741EB
:102120004FEA154714EB0C4441EB1C4125EA074CE0
:1021300002FB07F506FB07F70CFB06F602FB0CFC9F
:1021400016EB074645EB174516EB0C4645EB1C42D4
:10215000121951F1000148BF7047B619524141EBC5
:102160000101A3F1010370474FEA14454FEA1147FB
:1021700024EA054621EA074C05FB07F106FB07F7B1
:102180000CFB06F24FF0000605FB0CFC12EB0742BD
:1021900041EB174112EB0C4251EB1C4148BF704719
:1021A000921841EB0101A3F10103704710B5104CE7
:1021B00001221146204600F06EFD00220221204639
:1021C00000F069FD4FF4FA7000F09EFB012202213D
:1021D000204600F060FD074C01222021204600F03F
:1021E0005AFD20460022BDE81040102100F053BDEA
:1021F0000004024000080240FEE700000B4A10B550
:102200001046D37BC06D02F180012BB1D27C89686E
:102210004A43824203DA06E04968814203DB03F065
:102220007FFA012010BD002010BD0000000000203A
:102230007047000000222021014800F02CBD000062
:102240000008024070B5194C00224FF4806120460E
:1022500000F021FD00228021204600F01CFDA51485
:1022600000222946204600F016FD0122D102204618
:1022700000F011FD01229103204600F00CFD002228
:1022800001210B4800F007FD00221021094800F051
:1022900002FD00222946084800F0FDFC0022A1159D
:1022A000204600F0F8FC012070BD00000010024044
:1022B0000004024000080240000002402DE9F04105
:1022C0006F4C07462DED068BA07F20B10120BDECA1
:1022D000068BBDE8F0816079A17A88439FED698B18
:1022E0004FF000054FF001067BD0E27A9FED679B2F
:1022F0009FED68AB6249CB8C91F8240091ED160AF2
:10230000184480B2098FE08482B3A27C0B4652420B
:1023100000EE902A0022F8EEE00A20EE800A01F09A
:10232000C9FEB5EEC00A84ED1F0AF1EE10FA59D0CD
:10233000B0EEC00A10EE100A05F068F953EC192B44
:1023400004F07AFE41EC100B51EC1A0B53EC102BFD
:1023500004F032FC04F042FB05F058F953EC182B62
:1023600004F06EFB04F0BCFDE0853DE0FFE70B46AA
:102370000022114601F09EFEB5EEC00A84ED1F0A50
:10238000F1EE10FA1DD0B0EEC00A10EE100A05F002
:102390003DF953EC192B04F04FFE41EC100B51ECBE
:1023A0001A0B53EC102B04F007FC04F017FB05F09C
:1023B0002DF953EC182B04F043FB04F091FDE0855C
:1023C00001E003F0ADF9208FD4ED1F0A00EE100AF2
:1023D000B8EE400AF4EEC00AF1EE10FA14DBE58420
:1023E000E67211E003F09CF994ED1F0AB5EEC00A05
:1023F000F1EE10FA08D8E5849FED280A84ED1F0A53
:102400006571E57203F08CF96079A17A084322D1F5
:10241000384603F095FCF0B1A67294F82500DFED84
:10242000200A00EE100A9FED1F1AB8EE400A60EE77
:10243000200A81EE200A10EE100A05F0E7F853ECAE
:10244000182B04F0FDFA04F04BFDE08584F82160C0
:10245000E57603F025F9A07A617988430ED0E07B18
:1024600028B1074880308068002802DD06E0E07F60
:1024700020B1A572A67703F053F927E7002026E7DD
:1024800000000020000000000000E03F000000000D
:102490000000C04000000000389C9C41000000008B
:1024A00000000046C0E1E44C00220121014800F098
:1024B000F2BB00000004024070B520211B48FEF76B
:1024C00082F81A4828214638FEF75BF80021174B9E
:1024D0000846463BA3F14602145C1CB1145C5C54F4
:1024E000491CC9B2401CC0B22828F5D30F480024AB
:1024F0000FA14638FEF720F80C4D0DE003F068FD03
:1025000051EC100B04F06AFA45F8240008A10020F1
:10251000FEF712F8641CE4B20028EFD1BDE8704069
:10252000024828218C38FEF74EB8000088020020AF
:102530002F000000002229B101291AD002291BD046
:102540004FF440720E490B6823F440730B600B6824
:1025500013430B600A6822F0F8020A600A6802233B
:1025600003EBC00002430A60086840F48030086052
:1025700070474FF48072E5E74FF40072E2E7000025
:10258000103C02401348016889050FD5016821F409
:1025900000710160016841F400610160016821F48B
:1025A00000610160016841F4007101600168490542
:1025B0000FD5016821F480610160016841F4805108
:1025C0000160016821F480510160016841F480617B
:1025D00001607047003C024008490A6822F44072DA
:1025E0000A600A6842F004020A600A684FF4803305
:1025F00043EA002002430A6070470000103C02409A
:10260000064A136823F44073136013681360136859
:1026100043F001031360017070470000103C02405A
:10262000094910B50C6824F440740C600C6844F43B
:1026300040740C600C6844F001040C600260BFF34D
:102640006F8F436010BD0000103C0240074A1368C2
:1026500023F440731360136843F4807313601368AA
:1026600043F001031360018070470000103C0240FA
:10267000074A136823F440731360136843F400732C
:102680001360136843F0010313600160704700009A
:10269000103C024017490868C206174805D5C269B0
:1026A00042F01002C26110220A600A68920605D543
:1026B000C26942F00802C26120220A600A6852061A
:1026C00005D5C26942F00402C26140220A600A686C
:1026D000120605D5C26942F00202C26180220A6078
:1026E0000A68920705D5C26942F02002C261022041
:1026F000086070470C3C0240A802002070B51149E8
:1027000004460020C86100F0CBFA06460E4D09E0F1
:10271000601C07D024B100F0C3FA801BA04201D98D
:10272000032070BD2868C003F2D42868C00701D018
:1027300001202860286810F0F200F2D0FFF7AAFF0D
:10274000012070BDA80200200C3C024008C8521EA7
:1027500008C192B2FAD270472DE9F843174688466D
:102760000546002400F07CF9284600F02BF80646C8
:1027700005EB870000F026F8014611480022891B6E
:1027800002600222491C8660C0E90312694600F01B
:10279000CDF848B90EE000BF58F8242000232946A0
:1027A000022000F01FF918B100F00CF9BDE8F88321
:1027B000641C2D1DBC42EFDB00F00AF90020F5E798
:1027C000A40000200021A0F1006343F6FF729342B1
:1027D0002BD3174B0344934201D2012125E0154B23
:1027E0000344934201D202211FE0134B034493425E
:1027F00001D2032119E0114A4FF6FF7302449A42B5
:1028000001D2042111E00E4A83180E4A934201D2EC
:1028100005210AE00C4B0344934201D2062104E057
:102820000A4B1844904200D2072108467047000026
:1028300000C0FFF70080FFF70040FFF70000FFF740
:102840000000FEF7FFFF01000000FCF70000FAF7B0
:102850002DE9F0410446876D00F022FA064694F80F
:1028600035000025022806D08020606584F83450A9
:102870000120BDE8F0812068016821F016010160A7
:102880002068416921F080014161206C08B9A06C89
:1028900020B12068016821F008010160206801680A
:1028A00021F0010101600CE000F0FAF9801B05281D
:1028B00007D920206065032084F8350084F834505F
:1028C000D7E720680068C007EED194F85C103F207D
:1028D0008840B860012084F8350084F83450002026
:1028E000C7E790F83510022903D080214165012007
:1028F0007047052180F835100068016821F001015A
:10290000016000207047000070B5044600F0C8F96F
:102910000546601C02D004480078044400F0C0F969
:10292000401BA042FAD370BD900000202DE9F04773
:10293000044622480F46017E01290AD00121804623
:1029400001764CF250394846FFF7D8FE020003D01A
:102950002FE00220BDE8F0874FF0FF30386020689C
:10296000174D012801D0A6681CE0207C6168FFF7A4
:1029700033FE4846FFF7C2FE0246286820F00400F6
:10298000286014E0217C3046FFF7D4FD4846FFF76D
:10299000B5FE0200286820F0FA00286001D03E60F1
:1029A00005E0761CD4E902100844B042EAD8FFF7EB
:1029B000E9FD002188F818101046CBE7A802002096
:1029C000103C02400148C06970470000A802002086
:1029D0000348016841F00041016000207047000099
:1029E000103C02402DE9F0471B4E05461446307E50
:1029F0001F468946012808D0012030764CF2503815
:102A00004046FFF77BFE18B114E00220BDE8F087D6
:102A10009DB1012D16D0022D19D022463B464846C5
:102A2000FFF7FEFD4046FFF769FE0C490A6822F0F9
:102A300001020A6000213176E8E7E1B24846FFF77B
:102A4000DFFDEFE7A1B24846FFF700FEEAE72146C7
:102A50004846FFF70DFEE5E7A8020020103C0240C3
:102A6000074900200A68002A09DA054A054B0C3A92
:102A70001360054B13600968002900DA01207047D4
:102A8000103C024023016745AB89EFCD2DE9F84F9B
:102A9000DFF8BCA1002201250AF1040B03264FF048
:102AA0000F090BF1040E00BF0B6805FA02F4234076
:102AB000A34270D10F7907F00307012F01D0022F35
:102AC00016D187684FEA420806FA08FC27EA0C0785
:102AD000D1F80CC00CFA08FC4CEA070CC0F808C08E
:102AE0004768A7430C79C4F3001494403C43446006
:102AF0000C79E443A4070AD0C4684FEA420C06FAF2
:102B00000CF7BC438F6807FA0CF72743C7600C79B2
:102B100004F00304022C12D1D40800EB840CDCF87E
:102B200020405707FF0E09FA07F824EA0804D1F8F5
:102B3000108008FA07F848EA0408CCF820800468F6
:102B40004FEA420C06FA0CF7BC430F7907F0030773
:102B500007FA0CF7274307604C6814F4403F70D025
:102B60003C4C276847F480472760246822F003071D
:102B700004F480440094384C07EB040CDCF808485B
:102B800097074FEA177809FA08F7BC43334FB84262
:102B900002D1002724E054E0314FB84201D101278F
:102BA0001EE0304FB84201D1022719E02E4FB84243
:102BB00001D1032714E02D4FB84201D104270FE0C3
:102BC0002B4FB84201D105270AE02A4FB84201D164
:102BD000062705E0284FB84201D1072700E0082763
:102BE00007FA08F72743CCF80878DAF80040574688
:102BF000D1F804C09C435FEACC3C00D51C433C6048
:102C0000DBF800405F46D1F804C09C435FEA8C3C8F
:102C100000D51C433C60DEF800407746D1F804C084
:102C20009C435FEACC2C00D51C433C60084F0C371A
:102C30003C68D1F804C09C435FEA8C2C00D51C434F
:102C40003C60521C102AFFF42FAFBDE8F88F000043
:102C5000003C014044380240003001400000024086
:102C60000004024000080240000C02400010024034
:102C70000014024000180240001C02400069084095
:102C800000D001207047426921EA02030A4043EA6A
:102C90000241816170470AB1816170470904FBE715
:102CA0000148806870470000900000200248816859
:102CB0000278114481607047900000200B4810B5E5
:102CC000016841F400710160016841F480610160B4
:102CD000016841F480710160032000F06FF800206A
:102CE00000F006F800F024F8002010BD003C02407F
:102CF00070B50D4D04464FF47A712878B1FBF0F0B1
:102D00000A490968B1FBF0F000F01EFB48B9102C2D
:102D100007D200222146501E00F030F800206C60DF
:102D200070BD012070BD0000900000209C000020BC
:102D30000A4808B5016841F480410160006800F468
:102D4000804000900548001F016841F080510160FB
:102D5000006800F08050009008BD00004438024038
:102D6000002809DB00F01F0201219140400980008A
:102D700000F1E020C0F8001170470000F0B40E4BE5
:102D80001B680C46C3F30223C3F10705042D00D9C9
:102D90000425191D072901D2002300E0DB1E0126AE
:102DA00006FA05F1491E214099409E40761E1640C4
:102DB0003143F0BC03F080B80CED00E0064900F0B0
:102DC000070208684FF6FF03184040EA0220034A52
:102DD00010430860704700000CED00E00000FA05A9
:102DE000BFF34F8F05480168054A01F4E0611143C4
:102DF0000160BFF34F8F00BFFDE700000CED00E066
:102E00000400FA052DE9F0470E46050065D0DFF80D
:102E10001481D8F80000F7B200F00700B04207D2E2
:102E200088F80070D8F8000000F00700B04254D1D4
:102E300028683D4C810712D5400703D5206840F42F
:102E4000E05020602878000703D5206840F46040F7
:102E500020602068A96820F0F000084320602878EE
:102E6000C0072DD0304968680839012812D00228DF
:102E700013D0032811D00968890700292DDA2168A9
:102E800021F0030101432160FFF70AFF814641F26F
:102E9000883A0EE009688903EFE709688901ECE7E1
:102EA000FFF7FEFEA0EB0901514502D90320BDE862
:102EB000F0872068696800F00C00B0EB810FEFD15B
:102EC000D8F80010404601F00701B14207D9077059
:102ED000006800F00700B04201D00120E7E7287841
:102EE000400705D52068E96820F4E05008432060D9
:102EF0002878000706D52068296920F4604040EA58
:102F0000C100206000F038F82168084AC1F30311BD
:102F1000515CC8400649086006480068FFF7E8FEB3
:102F20000020C4E7003C0240083802406A780008EC
:102F30009C000020940000200448054900680968AE
:102F4000044AC1F38221515CC84070479C000020B4
:102F5000083802407A780008044805490068096882
:102F6000044AC1F34231515CC84070479C000020C4
:102F7000083802407A780008154810B5006810F04B
:102F80000C02144813D01449042A0FD0082A0ED179
:102F90000F4C241F2268236802F03F025B0207D512
:102FA0002068C0F38810A0FB010106E0084610BDB0
:102FB0002168C1F38811A1FB00010023FDF76AF924
:102FC0002168C1F30141491C4900B0FBF1F010BD7B
:102FD000083802400024F400001BB7002DE9F84F28
:102FE00004006ED02078DFF84C93C007A9F10405E7
:102FF0004AD009F104000168C1F38101012908D018
:103000000068C0F3810002280AD1D9F8000040020C
:1030100006D52868800337D560680028E1D033E002
:103020006068B0F5803F10D0B0F5A02F286810D0B0
:1030300020F480302860286820F4802028606068B0
:10304000A8B1FFF72DFE06460DE0286840F4803059
:10305000F4E740F480202860F7E700BFFFF720FE88
:10306000801B642873D828688003F7D50CE0FFF72D
:1030700017FE064605E000BFFFF712FE801B64281E
:10308000F0D828688003F7D42078DFF8AC82800776
:103090004FF0000A3ED5A748001D016811F00C0F43
:1030A00008D00068C0F3810002280BD1D9F80000D5
:1030B000400207D42868800716D5E068012800D1AF
:1030C00012E033E1E068B8B10120C8F80000FFF772
:1030D000E7FD064605E000BFFFF7E2FD801B022882
:1030E000C0D828688007F7D52868216920F0F80043
:1030F00040EAC10028600DE0C8F800A0FFF7D0FD4D
:10310000064604E0FFF7CCFD801B02281FD8286884
:103110008007F7D42078000722D5864F8748616959
:10312000703771B101210160FFF7BAFD064604E076
:10313000FFF7B6FD801B022809D838688007F7D54D
:103140000EE0C0F800A0FFF7ABFD064605E082E008
:10315000FFF7A6FD801B02287DD838688007F7D4CA
:103160002078400768D5DFF8CCB100270BF13C0B85
:10317000DBF80000C0000BD4DBF8001041F08051F8
:10318000CBF80010DBF80000012700F08050009021
:103190006B4E3068C00510D4306840F480703060E9
:1031A000FFF77EFD009005E0FFF77AFD0099401AD9
:1031B000022850D83068C005F6D55E4EA0686C363F
:1031C00001280FD00528306810D020F001003060B1
:1031D000306820F004003060A068B8B1FFF760FDEF
:1031E00000900FE0306840F00100F4E740F0040088
:1031F0003060F7E7FFF754FD0099411A41F288303B
:10320000814266D830688007F4D50EE0FFF748FDAC
:10321000009007E0FFF744FD0099411A41F2883021
:10322000814256D830688007F4D42FB1DBF8001003
:1032300021F08051CBF80010A069C8B33D49091DA9
:103240000968C1F3810102294AD00228504607D0FB
:10325000C8F8600000E03CE0FFF722FD04463BE0D8
:103260004746C8F86000FFF71BFD064605E000BFB3
:10327000FFF716FD801B02282BD828688001F7D4A1
:10328000D4E907010843A16A2E4A490802EB01412B
:10329000626A41EA8211084394F82C1040EA016105
:1032A000C9F8001001203866FFF7FAFC044606E072
:1032B0003EE000BFFFF7F4FC001B022809D8286895
:1032C0008001F7D534E000BFFFF7EAFC001B0228BD
:1032D00002D90320BDE8F88F28688001F4D427E0E4
:1032E0000128F7D0D9F80000E26900F4800191428A
:1032F0001CD1226A00F03F01914217D147F6C071FC
:10330000626A0140B1EB821F10D1A26A4FF0FF3315
:1033100000F4403103EB5202B1EB024F06D194F8B6
:103320002C1000F07060B0EB016F01D00120D1E7EC
:103330000020CFE70438024000004742800E474299
:10334000007000400000FFFF10B5401EB0F1807F0C
:1033500001D3012010BD4FF0E02460610F21601700
:1033600002F0AAFD0020A06107202061002010BD0E
:103370007047704770B590F83C20012A32D0012484
:1033800080F83C40022280F83D2003685A689D681E
:1033900022F070060A6832435A60134B02689A4260
:1033A00014D0B2F1804F11D0104B9A420ED0104B76
:1033B0009A420BD00F4B9A4208D00F4B9A4205D03D
:1033C0000E4B9A4202D00E4B9A4204D1496825F026
:1033D00080031943916080F83D40002180F83C1043
:1033E000084670BD022070BD00000140000400408E
:1033F00000080040000C0040000401400040014073
:103400000018004010B5040003D094F83D0010B13E
:1034100007E0012010BD002084F83C00204600F0A9
:103420001FF8022084F83D00211D206802F016FAE2
:10343000012084F8460084F83E0084F83F0084F8B8
:10344000400084F8410084F8420084F8430084F886
:10345000440084F8450084F83D00002010BD0000C1
:1034600070B586B0044614216846FDF7ACF8254ACD
:10347000256800232349103A02242348B5F1804FE0
:1034800025D0224EB54220D10D6845F002050D60D1
:10349000096801F002010591116841F00101116014
:1034A000116801F00101059140210091CDE901432E
:1034B000CDE903346946FFF7E9FA002211461D20E1
:1034C000FFF75CFC1D20FFF74BFC06B070BD0D68DC
:1034D00045F001050D60096801F0010105911168D1
:1034E00041F001011160116801F0010105912221F3
:1034F0000091CDE901430121CDE903316946FFF790
:10350000C5FAE2E7403802400000024000040040F3
:1035100090F83D10012901D001207047022180F868
:103520003D100168CA6842F00102CA600068114992
:10353000884214D0B0F1804F11D00F4988420ED08C
:103540000E4988420BD00E49884208D00D49884266
:1035500005D00D49884202D00C49884204D18168C7
:1035600001F00701062903D0016841F00101016063
:1035700000207047000001400004004000080040A7
:10358000000C0040000401400040014000180040D1
:103590000168CA6822F00102CA6001680A6A41F241
:1035A00011131A4207D10A6A9B101A4203D10A6802
:1035B00022F001020A60012180F83D1000207047CE
:1035C00070B5044690F83C000025012817D001266C
:1035D00084F83C60022084F83D002068826822F074
:1035E000770222F47F4282600868502838D00DDCD0
:1035F00020284FD005DC90B3102811D14AE00220DA
:1036000070BD302846D040280AD13BE060282FD03A
:1036100070280DD0B0F5805F03D0B0F5005F12D0F8
:10362000012584F83D60002084F83C00284670BDE8
:10363000CB68D1E90121206802F074F92068816823
:1036400041F0770109E0CB68D1E90121206802F05F
:1036500069F92068816841F480418160E1E719E0FF
:10366000CA684968206802F06FF95021206806E0B6
:10367000CA684968206802F0B9F96021206802F040
:103680005BF9CEE7CA684968206802F05DF940211D
:103690002068F4E7226801461046F0E770472DE9FC
:1036A000F041054690F83C0000260C46012810D059
:1036B000012085F83C0072B1042A1CD0082A2CD0C5
:1036C0000C2A50D00126002085F83C003046BDE889
:1036D000F0810220FBE7D4E90012E368286802F0D9
:1036E00045F92868816921F00C01816128688169A8
:1036F000A26811430FE0D4E90012E368286802F0E1
:1037000087F92868816921F44061816128688169AD
:10371000A26841EA02218161D5E72868D4E9002C3A
:10372000277B016A21F480710162C169036A21F07B
:10373000030141EA0C0121F0F00C39074FF4206736
:103740004CEA116123F4206307EA02221A43C161A3
:1037500002622868C16921F00C01C1612868C16951
:10376000A268114328E02868D4E90027E168036AC9
:1037700023F480530362D0F81CC0036A2CF4407C0D
:103780004CEA07274FF6FF7C27F470470CEA01311B
:1037900039434FF4204723F4204307EA02321A4307
:1037A000C16102622868C16921F44061C161286871
:1037B000C169A26841EA0221C16184E710B5040031
:1037C00003D094F83D0010B107E0012010BD0020A7
:1037D00084F83C00204600F01EF8022084F83D00EA
:1037E000211D206802F03AF8012084F8460084F890
:1037F0003E0084F83F0084F8400084F8410084F8DB
:10380000420084F8430084F8440084F8450084F8BA
:103810003D00002010BD704770B504460068016986
:103820004FF00005C943890715D4C168C94389070A
:1038300011D4E91E0161012020772068806980078A
:10384000204602D0FFF72AFF04E000F098F8204657
:1038500000F096F8257720680169C943490717D415
:10386000C168C943490713D46FF004010161022004
:1038700020772068806910F4407F204602D0FFF74F
:103880000DFF04E000F07BF8204600F079F8257782
:1038900020680169C943090716D4C168C9430907EB
:1038A00012D46FF008010161042020772068C069FC
:1038B0008007204602D0FFF7F1FE04E000F05FF839
:1038C000204600F05DF8257720680169C943C906E4
:1038D00017D4C168C943C90613D46FF01001016140
:1038E000082020772068C06910F4407F204602D06D
:1038F000FFF7D4FE04E000F042F8204600F040F864
:10390000257720680169C943C90708D1C168C9433F
:10391000C90704D1891E0161204600F033F82068F0
:103920000169C943090609D4C168C943090605D418
:103930006FF0800101612046FFF71AFD20680169E0
:10394000C943490609D4C168C943490605D46FF083
:1039500040010161204600F079F820680169C943FF
:1039600089060BD4C168C943890607D46FF02001CA
:1039700001612046BDE87040FFF7FBBC70BD704799
:10398000704700002DE9F04100682C49012700260E
:103990002B4C884240D1217B89B3E18D79B3228EB3
:1039A000521C92B222868A4236D3268694F821008F
:1039B00004F1800520B379022248FFF764F984F806
:1039C000216024E0401CA86008E0401EA860E07B65
:1039D00020B1A868002801DC01F0A2FE607B00286D
:1039E0000BD0A16F491CA167E868002800DA4042AB
:1039F000884202DC01F094FE6673BDE8F0810BE0C2
:103A00004FF480711048FFF73EF984F82170E07E92
:103A10000028A868D9D0D5E7B0F1804FEDD194F84F
:103A20002200401CC0B284F8220094F8241088427E
:103A3000E3D3277784F82260DFE70000000400402A
:103A4000000000200010024000080240704770474C
:103A500070470000F8B5016804460868CA684B69F9
:103A600010F00F0F4FF0000559D003F0010602F4DB
:103A70009077374365D0C10705D0D10503D5216CB8
:103A800041F001012164410705D5D90703D0216C1C
:103A900041F002012164810705D5D90703D0216CCB
:103AA00041F004012164010707D502F020013143F0
:103AB00003D0216C41F008012164216C00293AD027
:103AC000800604D5900602D5204601F0F2FF20685A
:103AD0004069216CC0F38010090700D460B3204610
:103AE00001F0C0FF20684069400621D520681430ED
:103AF00050E8001F21F0400140E80012002AF5D1F3
:103B0000A06BA8B16C490165A06BFEF7EAFE002826
:103B100011D0A06B016D01B0BDE8F04008478306ED
:103B20000FD593060DD52046BDE8F84001F0C1BF82
:103B30002046FFF78DFFF8BD2046FFF789FF25647B
:103B4000F8BD266B2023012E79D1C60677D5D6067F
:103B500075D50868486800904869400640D5A16B53
:103B6000086840680004000CEAD0A28D8242E7D9C0
:103B7000E085C869B0F5807F2DD020680C3050E812
:103B8000001F21F4807140E80012002AF5D120685E
:103B9000143050E8001F21F0010140E80012002A13
:103BA000F5D12068143050E8001F21F0400140E8B2
:103BB0000012002AF5D184F83E30256320680C30CD
:103BC00050E8001F21F0100140E80012002AF5D152
:103BD000A06BFEF73DFEA08DE18D401A81B229E079
:103BE000A08DE18D401A81B2E08D0028A8D0002977
:103BF000A6D020680C3050E8002F22F4907240E8E4
:103C00000026002EF5D12068143050E8002F22F055
:103C1000010240E80026002EF5D184F83E302563ED
:103C200020680C3050E8002F22F0100240E80023FA
:103C3000002BF5D12046FFF70AFFF8BDFFE7050688
:103C40002BD5150629D594F83D002128F5D1A0687B
:103C5000B0F5805F01D12069B0B1206A411C2162BA
:103C6000216800784860E08C401E0004000CE0846D
:103C7000E3D12068C16821F08001C1602068C1687B
:103C800041F04001C160D8E7206A0088C0F3080015
:103C90004860206A801C2062E5E74006CDD55006CA
:103CA000CBD5CA68204622F04002CA6084F83D3075
:103CB00000F055F9C1E70000555A000870B504003E
:103CC00004D094F83D00002510B106E0012070BD3D
:103CD00084F83C50204600F023F8242084F83D006E
:103CE0002068C16821F40051C160204601F042FF04
:103CF0002068016921F4904101612068416921F047
:103D00002A0141612068C16841F40051C160256405
:103D1000202084F83D0084F83E00002070BD0000A3
:103D2000F0B587B0044614216846FCF74CFC294BDB
:103D300022680024284902250326082727489A429A
:103D400028D1254A1032136843F480131360126897
:103D500002F4801205920A6842F004020A600A68BE
:103D600002F0040205920A6842F008020A6009683B
:103D700002AA01F0080105918114CDE9001582E83D
:103D8000D0006946FEF782FE0420CDE900056946B1
:103D9000134818E0134B9A421AD10F4A1432136891
:103DA00043F020031360126802F0200205920A68B3
:103DB00042F004020A60096801F004010591C02183
:103DC000CDE90015694602AA82E8D000FEF75EFE42
:103DD00007B0F0BD005000403038024000080240FB
:103DE000000C02400014014090F83E30202B0ED110
:103DF00059B152B190F83C30012B08D0012380F822
:103E00003C300023036301F03BBF012070470220D8
:103E1000704700002DE9F041074600681F49002562
:103E200001261F4C884212D1617D242906D039B168
:103E30001C4A607E1154401C607601E06576667015
:103E400017491848012215314438FFF7CDFF1649AC
:103E5000386888421FD1607E2178884203D3A670DB
:103E6000A571657600E018B9A07D012800D1A67182
:103E7000A07900280FD00B4A607E2832A17D115412
:103E8000401C6076BDE8F041054906480122163124
:103E90008838FFF7A9BFBDE8F08100000014014099
:103EA00000000020FC010020005000402DE9F843F4
:103EB000044690F83D001F4616460D4620284CD17A
:103EC000C5B1BEB194F83C00012846D0012084F869
:103ED0003C004FF00008C4F84080212084F83D00E9
:103EE000FEF7DEFEA6848146E684A068B0F5805F1A
:103EF00003D004E00120BDE8F883206928B12E46F4
:103F00005FF0000584F83C800EE00026FAE780218F
:103F1000204601F0D0FEA0B9AEB116F8010B216821
:103F20004860E08C401EE084E08C4B464FF000027D
:103F300000970028EBD14FF04001204601F0BBFE76
:103F400030B10320D7E735F8020BC0F30800E6E7ED
:103F5000202084F83D000020CDE70220CBE7704709
:103F6000FEE700002DE9F04100252DED048B012630
:103F70000128374C14D004F18007DFED368A9FED1D
:103F8000369B9FED378A022813D003285CD1A67692
:103F9000A577A6726571B868E16D88422ADB4DE0AD
:103FA000A6766671E572E676A572A57784F821504B
:103FB0003CE0A676A577206D03F028FB9FED291B3A
:103FC00053EC112B03F038F802F008FD00EE100A54
:103FD000B4F8480000EE900AF8EE600A60EE880A35
:103FE00080EE801ABDEEC10A10EE100AE065B968D5
:103FF000814223DA6577E67684F82150FEF71AF9D4
:1040000094F8250000EE100AB8EE400A60EE080AA7
:1040100088EEA00A10EE100A03F0F8FA53EC192B00
:1040200002F00EFD02F05CFFE08501E0FEF702F910
:10403000BDEC048BBDE8F04101F032BB6677E57260
:10404000E57684F82160F1E7BDEC048BBDE8F081F2
:1040500000000020C0E1E44C000000000000E03F50
:10406000000000461F85EB51B81E194010B5002214
:104070004FF480610448FEF70EFE0022BDE81040B8
:1040800020210248FEF707BE00100240000802404F
:1040900010B5012291020548FEF7FDFD0022BDE8A2
:1040A000104020210248FEF7F6BD0000001002403B
:1040B0000008024000EE900A70B5F8EEE00A1C46D7
:1040C00015460E4620EE200A10EE100A03F09EFA66
:1040D0009FED151B53EC112B02F0AEFF02F07EFC9E
:1040E00000EE106A00EE900AB8EEC00A30EE800AC8
:1040F00000EE904AF8EEE00AB4EEE00AF1EE10FAB3
:1041000003DB00EE104AB8EEC00A00EE905AF8EE5B
:10411000E00AB4EEE00AF1EE10FA03D800EE105A0D
:10412000B8EEC00A70BD00007B14AE47E17A843F50
:1041300030B50D460E498DB00A7D6946FEF706FB87
:1041400000240CA16846FCF7F7F90DE001F040FFF0
:1041500051EC100B02F042FC45F8240005A10020B0
:10416000FCF7EAF9641CE4B20028EFD10DB030BDD1
:10417000000000202F0000002DE9F04F87B014212F
:104180006846FCF720FA82480024016841F01001DB
:104190000160016801F010010591016841F004011E
:1041A0000160016801F004010591016841F080019E
:1041B0000160016801F080010591016841F0010191
:1041C0000160016801F001010591016841F00201FF
:1041D0000160016801F002010591016841F00801E8
:1041E000016000686B4E00F00800059000224AF262
:1041F00013313046FEF74FFDDFF89C8100224FF46B
:10420000E1614046FEF747FD49F60857002239466E
:104210006248FEF740FD012230214046FEF73BFD9B
:10422000002246F265015E48FEF735FD012248F2A4
:1042300002015B48FEF72FFD01224FF4B9413046E1
:10424000FEF729FD4FF4806A012251465548FEF7DA
:1042500022FD4FF4284B002259465248FEF71BFD21
:104260006C20CDE90004694630460294FEF70EFC4E
:104270004FF6937000900125CDE901546946304610
:104280000394FEF703FC42F20700CDE900046946FF
:1042900040460294FEF7FAFB4FF4E7600090CDE948
:1042A0000154694640460394FEF7F0FB03260820BC
:1042B0000095CDE903604FF00209CDE9019469460C
:1042C0003648FEF7E3FB4FF42570CDE9000469465C
:1042D00032480294FEF7DAFB0097CDE901546946B3
:1042E0002E480394FEF7D2FB4EF267000090CDE912
:1042F000015469462A480394FEF7C8FBB00212270E
:10430000CDE9000702AA4FF0040882E8600169467F
:104310002348FEF7BBFB41F21820CDE900046946B3
:104320001F480294FEF7B2FB3002CDE90009029467
:104330000720CDE9036069461A48FEF7A7FB112064
:10434000CDF800A0CDE90104694616480394FEF7B4
:104350009DFBCDF800B0CDE90154694611480394A6
:10436000FEF794FB45F28300CDE9000469460D4851
:104370000294FEF78BFBF001CDE9000702AA694623
:1043800082E860010648FEF781FB07B0BDE8F08FC8
:104390003038024000100240000802400000024095
:1043A00000040240000C024010B58AB000242448EA
:1043B0000494059406940794089409940094019435
:1043C00002944FF08041039401600A21C0E9011476
:1043D00042F2D001C0E9031480218161FFF712F895
:1043E00000B1FEE74FF48050049004A91448FFF791
:1043F000E7F800B1FEE71248FFF7E0F900B1FEE789
:104400002020CDE9080408A90D48FEF7B3FF00B14C
:10441000FEE70120CDE900400294002269460848E9
:104420000394FFF73CF900B1FEE704226946044813
:10443000FFF735F9002800D0FEE70AB010BD0000F4
:10444000E400002010B586B00024154800940194C3
:104450000294039404941149059401600121C0E978
:104460000114A821C0E903148461FEF7CBFF00B159
:10447000FEE74FF48050009069460948FFF7A0F826
:1044800000B1FEE7049404A905480594FEF772FF05
:10449000002800D0FEE706B010BD00000004004078
:1044A0002C010020FEE77047704700002DE9F04F17
:1044B0002DED0C8BA3B0FB4890ED000ABDEEC00AB9
:1044C00010EE10CA9FEDF8AA9FEDF82A9FEDF8BBF9
:1044D000F0EE00AA9FEDF89BF94C86460126DEED32
:1044E000010AD4ED151ADEED022A94ED180A21EE28
:1044F000AACABDEEE01AFCEEE28AFCEEE01A20EE5B
:10450000AADA60EE2ACA637A628D207CB4F836A0FB
:10451000B4F84090A17E002594F80FB09EED030AF8
:1045200094ED148A4FF07E57BCF1280F7ED2DFE85D
:104530000CF01424343E878EC7F4FF7DF1F0EFEECB
:10454000EDECEBEAE9E8E7E6E5E4E3E2E1E0DF7D74
:10455000DEDDDCDBDAD9D8D7D6D511EE100A30B1E2
:10456000FDF724FE23B0BDEC0C8BBDE8F08FFDF70A
:104570009BFF25736571A572F4E711EE100A0128FF
:10458000F0D15FEA0B0002D001F0A6F8EAE701F0F3
:10459000C7F801F0B1F86573CBE211EE100A0128FB
:1045A00001D06572DEE76672FDF74CFEDAE711EEC8
:1045B000100A01281BD0D3B300EE102AB8EE400A2F
:1045C00060EE0A0A82EE200A10EE100A03F01EF8CE
:1045D00053EC1B2B02F034FA02F082FCE08584F8E5
:1045E0002150E67601F05CF8FDF724FEBAE784F886
:1045F0002060FBB15FEA0B0002D1E07F0028B1D15F
:1046000000EE102AB8EE400A60EE0A0A82EE200A96
:1046100010EE100A02F0FAFF53EC1B2B02F010FA16
:1046200002F05EFCE08584F8216001E0FEE304E036
:10463000E576D7E7FFF72CFD94E7FFF717FD91E745
:1046400011EE101A012961D001F056F88AE711EE37
:10465000100ABBB185B200EE105A6585B8EE400A6B
:1046600060EE0A0A82EE200A10EE100A02F0CEFF77
:1046700053EC1B2B02F0E4F902F032FCE0852A46F1
:1046800090A151E2B0B1B2EE048A20EE080A01F026
:1046900023FDC0EE080A0121BCEEE00A10EE100A6C
:1046A00082B218EE900A00EE102AE28680B2B8EECE
:1046B000400A4BE2BCEEC00A10EE100A81B24CE296
:1046C00011EE100A012803D0E57184F8235049E760
:1046D000E67105210C2000F02DFF43E7F0E3F0E345
:1046E000F0E3B2E377E3E9E2B5E245E23CE223E25C
:1046F0001BE20EE206E200E2FAE1F4E1E9E1CEE1DA
:10470000A5E19AE18CE188E174E13EE11BE133E14E
:1047100002E199E014E00BE0FFE700F053FF6BA12A
:104720001FA8FBF72FFEC2B2E27564231FA98DE21A
:1047300011EE100A012801D0257213E7267211E745
:1047400064496548FFF7F4FC62480168216590ED13
:10475000010A8B46BCEEC00A10EE101A8AB2E2863D
:10476000029290ED020ABCEEC00A10EE101AC9B215
:1047700084F82510019190ED030ABCEEC00A10EEFA
:10478000101A8BB2A38600930169616590ED050A4A
:104790008A46BCEEC00A10EE101AC9B284F8241082
:1047A000049190ED060ABCEEC00A10EE101A8AB20F
:1047B00062870392C169216690ED080A8946BCEEC2
:1047C000C00A10EE101A89B2A4F840100591476A89
:1047D000A766806AE066183402F018FF05460E46A8
:1047E000384602F013FF07468846484602F00EFF9F
:1047F000CDE90601504602F009FF81468A46584637
:1048000002F004FFCDE90E5641EC100BCDE90C7817
:1048100005990A91DDE90601CDE90801DDE90312F8
:10482000CDE90621CDE9049A009B029A02930092F9
:1048300053EC102B29A110A8FBF7A4FDC2B204F879
:10484000012CC82310A901E200297CD1C4ED140A6F
:1048500010EE900A02F0DAFE00EE10AA41EC180BFE
:10486000B8EE400A2CEE000A10EE100A02F0CEFE5E
:1048700041EC100B01F07DFC53EC192B51EC100BAB
:1048800002F0DAFB53EC182B02F096F902F058FB19
:104890002087206D02F0BAFE41EC100B1BA153ECF7
:1048A000102BA3E08802002000000046C0E1E44C89
:1048B000000000000000E03F000000000000244075
:1048C000000000206A252E646500000072372F3139
:1048D00065000000B800002000C1000870252E32DD
:1048E000662F25642F25642F25642F252E32662FF1
:1048F00025642F25642F252E32662F25642F252E23
:1049000032662F252E326665000000007231312F8D
:10491000252E326665000000002996D111EE900A1E
:1049200085B2E58618EE100A02F070FE00EE105A0D
:1049300041EC180BB8EE400A2CEE000A10EE100AFB
:1049400002F064FE00E0BAE241EC100B01F011FC51
:1049500053EC192B51EC100B02F06EFB53EC182B9F
:1049600002F02AF902F0ECFA2087E28EFDA1E9E2DA
:10497000C2B2E275C82368E10029CED111EE900AD7
:10498000FAA1C2B284F82520DCE20029C5D180EE6C
:10499000880AC4ED150A18EE100A84ED160A02F012
:1049A00035FE00EE10AA41EC180BB8EE400A2DEED1
:1049B000000A10EE100A02F029FE41EC100B01F083
:1049C000D8FB53EC192B51EC100B02F035FB53ECD8
:1049D000182B02F0F1F802F0B3FA2087606D02F0B4
:1049E00015FE41EC100BE3A153EC102B6846FBF7CE
:1049F000C9FCBDE7002990D111EE900AC0B284F83D
:104A00002400142801D8142002E0642802D3642072
:104A100084F82400C2B2DAA194E2FEF7E1F9A1E53C
:104A200010EE901AD848B94201D1012200E00022CC
:104A30005FF01001FEF72FF994E510EE900A4FF4A5
:104A40000071B84201D101224BE0002249E0002967
:104A500093D1BDEEE20ACD4880ED030A10EE900A34
:104A6000A567B84203D1E67684F8215002E0E576E6
:104A700084F8216000EE102A6673B8EE400A60EEFA
:104A80000A0A82EE200A10EE100A02F0BFFD53EC73
:104A90001B2B01F0D5FF02F023FAE085A2E510EE12
:104AA000900ABB4E4FF48068B84208D100224146BC
:104AB000B848FEF7F0F8E07B08B9B448856096ED99
:104AC000010AB5EEC00AF1EE10FAA8D10122414662
:104AD00007E010EE900AB84201D1002200E0012266
:104AE0008021AC48A6E710EE900A4FF480510DE00B
:104AF00010EE900A4FF4006108E010EE900A4FF4B7
:104B0000804103E010EE900A4FF48071B8429CD0CF
:104B100099E700299CD110EE900AB84201D1667441
:104B200000E06574627C9CA10CE2002990D100F049
:104B3000F7FD84F8205015E5002989D110EE900A80
:104B4000B84206D118EE900A012180B201F00AF9AC
:104B500008E5BDEEC00A10EE101A18EE900A012208
:104B600080B201F049F9FDE40029D3D111EE900A99
:104B70008BA1C2B2227462E00029CBD111EE900A5F
:104B800085B26587A07CB5FBF0F000EE100AF8EE68
:104B9000400A00EE105AB8EE400A30EE800ABCEE31
:104BA000C00A10EE100A80B200EE100AB8EE400AF9
:104BB000DFED7D0A20EE200ABCEEC00A10EE100ADE
:104BC00086B2A68718EE100A02F020FD9FED771B33
:104BD00053EC112B02F030FA01F000FF00EE106AE6
:104BE00000EE900A18EE100AB8EE400A20EE0A0A0B
:104BF00080EE201ABDEEC10A84ED170A02F006FD10
:104C000000EE105A41EC180BB8EE400A2CEE800A68
:104C100010EE100A02F0FAFC41EC100B01F0A9FAB8
:104C200053EC192B51EC100B02F006FA53EC182B35
:104C300001F0C2FF02F084F9E087628F5DA168464F
:104C4000FBF7A0FBC2B2E275642369465048D03836
:104C5000FFF72CF986E4002987D180EE880AC4ED9D
:104C6000180A18EE100A84ED190A02F0CFFC41EC84
:104C7000180B608F00EE100AB8EE400A2DEE000A05
:104C800010EE100A02F0C2FC41EC100B01F071FAB8
:104C900053EC192B51EC100B02F0CEF953EC182BFE
:104CA00001F08AFF02F04CF9E087206E02F0AEFCC2
:104CB00041EC100B41A153EC102BFCE00029CBD1AF
:104CC00011EE900A85B2A4F8405018EE100A143480
:104CD00002F09CFC94ED160A41EC180B60EE2A0AD7
:104CE00000EE105AB8EE400A20EE800A10EE100ACC
:104CF00002F08CFC41EC100B01F03BFA53EC192B49
:104D000051EC100B02F098F953EC182B01F054FF02
:104D100002F016F9E085E06B02F078FC94ED150ADC
:104D200041EC180BA08D60EE2A0A00EE100AB8EED6
:104D3000400A20EE800A10EE100A02F067FC41ECF7
:104D4000100B01F016FA53EC192B51EC100B02F07A
:104D500073F953EC182B01F02FFF02F0F1F82086C5
:104D6000A28D31E07231322F256465007231332F0C
:104D7000256465007231352F252E336665000000ED
:104D80007231362F25646500000802408000002043
:104D900088020020001002407232372F256465001F
:104DA0006D25646500000000CDCCCC3F1F85EB5124
:104DB000B81E19407233322F256465007233332FC9
:104DC000252E33666500000063A16846FBF7DAFA1A
:104DD000C2B2E27038E7002971D1C4ED1A0A18EEA8
:104DE000100A02F013FC00EE109A41EC180BB8EE1A
:104DF000400A2CEE800A10EE100A02F007FC41EC8B
:104E0000100B01F0B6F953EC192B51EC100B02F01A
:104E100013F953EC182B01F0CFFE02F091F8A4F82F
:104E2000440094ED1A0AD4ED140A00E08EE080EEFE
:104E3000201A10EE100A84ED1D1A02F0E7FB41EC77
:104E4000100B47A153EC102B35E0C1BBC4ED1B0A7E
:104E500018EE100A02F0DAFB00EE109A41EC180B83
:104E6000B8EE400A2CEE000A10EE100A02F0CEFB5B
:104E700041EC100B01F07DF953EC192B51EC100BA8
:104E800002F0DAF853EC182B01F096FE02F058F815
:104E9000A4F8420094ED1B0AD4ED140A10EE100A97
:104EA00080EE201A84ED1C1A02F0B0FB41EC100BCE
:104EB0002EA153EC102B6846FBF764FAC2E633E0F0
:104EC00033E011E0FFE779BB11EE900A4FF4FA618D
:104ED00080B2A086884203D942F21071884200D382
:104EE000A186A28E24A12DE0F1B994F825001B34EF
:104EF00000EE100AB8EE400A60EE0A0A82EE200ABE
:104F000010EE100A02F082FB53EC1B2B01F098FD0F
:104F100001F0E6FFA4F813002570A6716671FDF795
:104F200089F900F0BDFB08E412E089B910EE900A9F
:104F3000B84202D1E673192001E0E5730D2020701C
:104F4000E27B0FA16846FBF71DFA11E50029EAD0C4
:104F5000FFF708F863E500007233342F256465001D
:104F60007233352F252E3366650000007233362FDD
:104F7000252E3366650000007233372F25646500E7
:104F80007233392F2564650070B5AB4C2DED0A8B5B
:104F9000A07F18B10120BDEC0A8B70BDA07A6179A9
:104FA0004FF0010688439FEDA5AB9FEDA69B9FEDBB
:104FB000A78B4FF000059FEDA7BA52D0607FE0B3FA
:104FC0009D49E27A11F8240F4B8891ED140A184498
:104FD000498C80B24942E08482B3A27C002300EE77
:104FE000902A0A46F8EE600A20EE800AFFF762F87F
:104FF000B5EEC00A84ED1F0AF1EE10FA77D0B0EEDC
:10500000C00A10EE100A02F001FB53EC1A2B02F05A
:1050100013F841EC100B51EC190B53EC102B01F071
:10502000CBFD01F0DBFC02F0F1FA53EC182B01F0A0
:1050300007FD01F055FFE0855BE000E012E0FDF7C1
:10504000DDF80028A7D0A08E00F07AFE0028A2D0BC
:105050006677E576E57284F82160FDF7EBF800F0FD
:105060001FFB53E000230A461946B1EE400AFFF742
:1050700021F8B5EEC00A84ED1F0AF1EE10FA1DD03A
:10508000B0EEC00A10EE100A02F0C0FA53EC1A2B70
:1050900001F0D2FF41EC100B51EC190B53EC102B2B
:1050A00001F08AFD01F09AFC02F0B0FA53EC182BE3
:1050B00001F0C6FC01F014FFE08501E000F030FBD8
:1050C000B4F8460001F069FF94ED1F0A41EC1C0B97
:1050D000B0EEC00A10EE100A02F098FA53EC1C2B46
:1050E00002F0A8F812D8E584E6720FE0FFE700F0BE
:1050F00017FB94ED1F0AB5EEC00AF1EE10FA05DBBE
:10510000E58484ED1FBA0120FEF72CFF6079A17AB7
:1051100088437BD0E07A94F824100028E08C08447F
:1051200080B2E08434D0A17CD4ED1D0A494200EE67
:10513000101AB4F846300022B8EEC00A194620EE24
:10514000200AFEF7B7FFB5EEC00A84ED1F0AF1EEA4
:1051500010FA5CD0B0EEC00A10EE100A02F056FA57
:1051600053EC1A2B01F068FF41EC100B51EC190BBA
:1051700053EC102B01F020FD01F030FC02F046FA58
:1051800053EC182B01F05CFC01F0AAFEE08540E036
:105190000022B4F84630114694ED1D0AFEF78AFF4E
:1051A000B5EEC00A84ED1F0AF1EE10FA1DD0B0EE84
:1051B000C00A10EE100A02F029FA53EC1A2B01F083
:1051C0003BFF41EC100B51EC190B53EC102B01F091
:1051D000F3FC01F003FC02F019FA53EC182B01F078
:1051E0002FFC01F07DFEE08501E000F099FAB4F8B3
:1051F0004600D4ED1F0A00EE100AB8EE400AF4EEA5
:10520000C00AF1EE10FA14DBE584E67211E000F05A
:1052100087FA94ED1F0AB5EEC00AF1EE10FA08D82D
:10522000E58484ED1FBA6571E57200F079FAA6771E
:10523000B0E60020AFE60000000000200000000003
:105240000000C04000000000389C9C4100000000AD
:105250000000E03F0000000070B5604C2DED068BB3
:10526000A07F18B10120BDEC068B70BD607F0025CA
:105270000126E8B3E37A9FED5A8B9FED5B9B9FED90
:105280005CAB5649CA8C91F8240091ED190A104480
:10529000C98F80B24942E0845BB3A27C002300EE58
:1052A000902A0A46F8EE600A20EE800AFEF702FF16
:1052B000B5EEC00A84ED1F0AF1EE10FA77D0B0EE19
:1052C000C00A10EE100A02F0A1F953EC182B01F0FD
:1052D000B3FE41EC100B51EC190B53EC102B01F009
:1052E0006BFC01F07BFB02F091F953EC1A2B01E00F
:1052F00006E018E001F0A4FB01F0F2FDE08558E0C3
:10530000FCF77CFF0028AED0A08E00F019FD00282D
:10531000A9D06677E576E57284F82160FCF78AFF0C
:1053200000F0BEF957E000230A461946B1EE400AE4
:10533000FEF7C0FEB5EEC00A84ED1F0AF1EE10FACA
:105340001DD0B0EEC00A10EE100A02F05FF953EC67
:10535000182B01F071FE41EC100B51EC190B53ECC2
:10536000102B01F029FC01F039FB02F04FF953EC4E
:105370001A2B01F065FB01F0B3FDE08501E000F0C0
:10538000CFF9E08F01F009FE94ED1F0A41EC180BF4
:10539000B0EEC00A10EE100A02F038F953EC182BE8
:1053A00001F048FF17D8E584E67214E0FFE700F04B
:1053B000B7F994ED1F0AB5EEC00AF1EE10FA0ADB58
:1053C000E5849FED0D0A84ED1F0AE572657700F014
:1053D000A7F9A67746E7002045E700000000002077
:1053E000000000000000C04000000000389C9C410C
:1053F000000000000000E03F000000007CB501213B
:105400008DF8001003228DF80120020A8DF8022089
:105410008DF8030000208DF804008DF805104FF67C
:10542000FF7000216C464AF20103625C5040082282
:10543000C5074FEA500000D05840521EF8D1491C11
:105440000629F2DB8DF80600000A0C4C8DF80700E7
:1054500001212046FDF71FFCC823082269460848A1
:10546000FEF724FD012211462046FDF714FC01221F
:1054700004490348FEF7B8FC7CBD00000010024060
:1054800074010020160000202DE9F041244F002473
:1054900080213846FDF7F2FB00B10124214E402166
:1054A0003046FDF7EBFB08B144F00204042130461E
:1054B000FDF7E4FB08B144F004041B4D022128462B
:1054C000FDF7DCFB00B101201849087008B144F079
:1054D000080408213046FDF7D1FB08B144F0100460
:1054E00001212846FDF7CAFB08B144F02004102131
:1054F0003846FDF7C3FB08B144F0400404212846B8
:10550000FDF7BCFB08B144F0800408210848FDF712
:10551000B5FB08B144F480742046BDE8F08100007A
:105520000000024000100240000802400E0000206F
:10553000000402407CB501228DF8002003228DF882
:105540000120020A8DF802208DF8030000208DF85A
:1055500004008DF805104FF6FF7000216C464AF2EA
:105560000103625C50400822C5074FEA500000D09A
:105570005840521EF8D1491C0629F2DB8DF806006E
:10558000000A0C4C8DF8070001212046FDF783FB33
:10559000C823082269460848FEF788FC0122114604
:1055A0002046FDF778FB012204490348FEF71CFC66
:1055B0007CBD000000100240740100201600002095
:1055C000704700002DE9F047284CA0B0E06E02F0D3
:1055D0001DF805460E46A06E02F018F8CDE9000150
:1055E000206E02F013F881468A46606D02F00EF8D4
:1055F00007468846206D02F009F8CDE90E5641ECC9
:10560000100BDDE90001CDE90C01B4F84000CDF844
:105610002090CDE909A0608F94F82410CDE9061000
:10562000CDE90478E08EA28E94F825108DE807006D
:1056300053EC102B0EA110A8FAF7A4FEE07510A8E9
:10564000FAF780FF800701D0012500E0002510A8AF
:10565000FAF778FF05EB9000C2B2227510A90F4847
:10566000FDF77AF820B0BDE8F087000000000020C8
:10567000252E32662F25642F25642F25642F252E95
:1056800032662F25642F25642F252E32662F256440
:105690002F252E32662F252E3266000000C100080D
:1056A00010B5012211020848FDF7F5FA0122510256
:1056B0000648FDF7F0FA064901200873BDE81040DE
:1056C0000448FDF725BF000000080240001002401A
:1056D000000000202C01002010B5064C01222021E2
:1056E0002046FDF7D8FA20460122BDE810401021DF
:1056F000FDF7D1BA0008024070B5074C0025A57629
:105700006571A57200F00CF8E5849FED040AE5854B
:1057100084ED1F0A70BD00000000002000000000A2
:105720000A4910B5002008730948FDF731FF00222F
:105730004FF400710748FDF7AEFABDE810400022B3
:105740004FF480710448FDF7A6BA00000000002065
:105750002C0100200010024000080240FDF7A6BA0C
:1057600030B593B030216846FAF72DFF14210CA80C
:10577000FAF729FF1C480025016841F080510160BB
:10578000006800F0805011901848016841F4804191
:1057900001600068022400F4804011900120009014
:1057A000000401908001CDE906400C2008904FF4E0
:1057B000A870CDE9090404200B906846FDF70EFCA3
:1057C00000B1FEE70CA90F2081E831004FF4A05092
:1057D0000F90109005210CA8FDF714FB002800D0B5
:1057E000FEE713B030BD00004038024000700040BA
:1057F0001048016841F4700101600F48016841F0F0
:10580000010101600C4A00210832116002680B4B53
:105810001A400260031D0A4A1A60026822F48022BC
:10582000026005480C300160024958068039086062
:105830007047000088ED00E000380240FFFFF6FEF0
:10584000103000240148FDF7E7BF0000E40000200D
:105850000148FDF7E1BF00002C010020F0B502680F
:10586000254C264D264E274F274B4FF0804CA0420B
:1058700009D0604507D0A84205D0B04203D0B84255
:1058800001D0984204D122F0700E4A6842EA0E021A
:10589000A0421BD0604519D0A84217D0B04215D005
:1058A000B84213D0984211D0184DA8420ED0184DCE
:1058B000A8420BD0174DA84208D0174DA84205D0DA
:1058C000164DA84202D0164DA84203D122F44075CD
:1058D000CA682A434D6922F080022A4302608A681E
:1058E000C2620A688262A04201D0984201D109696D
:1058F000016301214161F0BD00000140000400404E
:1059000000080040000C004000040140004001403D
:10591000004401400048014000180040001C0040C5
:105920000020004010B5846842EA032224F47F443A
:105930000A432243826010BD826822F070020A434B
:1059400042F007018160704710B5036A046A24F0D1
:1059500001040462846924F0F00444EA021423F090
:105960000A020A438461026210BD000070B5046A35
:1059700024F0010404628469056A154EB04214D013
:10598000B0F1804F11D0134EB0420ED0124EB04243
:105990000BD0124EB04208D0114EB04205D0114E7D
:1059A000B04202D0104EB04203D124F0030414439D
:1059B00001E044F001041A0724F0F00444EA126202
:1059C00025F00A0301F00A0119438261016270BDEA
:1059D000000001400004004000080040000C0040AE
:1059E00000040140004001400018004010B5036A67
:1059F00023F0100303628369046A23F4704343EACB
:105A0000023224F0A00343EA01118261016210BD59
:105A100030B5046A24F0100404628469056A24F431
:105A2000407444EA022222F470444FF6FF7202EA04
:105A300003322243A02425F0A00304EA01111943F4
:105A40008261016230BD00000148FEF703B800002A
:105A50007401002010B5806B0021C185C184FDF761
:105A6000F7FF10BD01680C3151E8002F22F490724D
:105A700041E80023002BF5D10168143151E8002FD3
:105A800022F0010241E80023002BF5D1016B01292E
:105A900009D101680C3151E8002F22F0100241E8D1
:105AA0000023002BF5D1202180F83E100021016356
:105AB000704708B590F83E10222901D0022008BD99
:105AC00082684FF480539A4201D1016921B1816A01
:105AD0009A421BD04AB10AE00268816A5268C2F356
