:020000040800F2
:10000000D009002055020008E74900085D440008B7
:10001000E5490008F92100085D62000800000000C1
:10002000000000000000000000000000695A000805
:10003000C126000800000000CD4A0008715C0008DD
:100040006F0200086F0200086F0200086F020008CC
:100050006F0200086F0200086F0200086F020008BC
:100060006F0200086F0200086F0200086F020008AC
:100070006F0200086F0200086F0200086F0200089C
:100080006F0200086F0200086F0200086F0200088C
:100090006F0200086F0200086F0200086F0200087C
:1000A0006F0200086F0200086F0200086F0200086C
:1000B000595D0008655D00086F0200086F020008C6
:1000C0006F0200086F0200086F0200086F0200084C
:1000D0006F0200086F0200086F0200084562000806
:1000E0006F0200086F0200086F0200086F0200082C
:1000F0006F0200086F0200086F0200086F0200081C
:100100006F0200086F0200086F0200086F0200080B
:100110006F0200085D5F00086F0200086F020008B0
:100120006F0200086F0200086F0200086F020008EB
:100130006F0200086F0200086F0200086F020008DB
:100140006F0200086F0200086F0200086F020008CB
:100150006F0200086F0200086F0200085162000879
:100160006F0200086F0200086F0200086F020008AB
:100170006F0200086F0200086F0200080000000014
:100180006F0200086F02000800F002F800F052F859
:100190000AA090E8000C82448344AAF10107DA45E2
:1001A00001D100F047F8AFF2090EBAE80F0013F0E2
:1001B000010F18BFFB1A43F001031847F47B00003E
:1001C000147C0000103A24BF78C878C1FAD85207CE
:1001D00024BF30C830C144BF04680C6070470000C1
:1001E0000023002400250026103A28BF78C1FBD840
:1001F000520728BF30C148BF0B607047662907F01F
:100200000085642900F0D480002070471FB507F0F6
:10021000BAFC00F007FD04000020002106F0F0FD0C
:10022000401C60600020002106F0D4FDE0601FBD8E
:1002300010B510BD00F040FE1146FFF7E7FF06F0D5
:10024000F5FA01F0E3F803B4FFF7F2FF03BC01F0A5
:1002500027F900000948804709480047FEE7FEE704
:10026000FEE7FEE7FEE7FEE7FEE7FEE7FEE7FEE766
:1002700004480549054A064B70470000055D000823
:1002800089010008D0030020D0090020D0050020FB
:10029000D005002053EA020C00F069802DE9F04BF4
:1002A0004FF00006002B1FBFB3FA83F503FA05F4E5
:1002B00024FA05F65E4012BF1643B2FA82F502FA3E
:1002C00005F4C5F120051EBF22FA05FC44EA0C0422
:1002D000203556EA044C4FEA144418BF641C4FF012
:1002E00000084FF00009904271EB030C39D300294C
:1002F00019BFB1FA81F701FA07F6B0FA80F700FAF0
:1003000007F6C7F120071EBF20FA07FC46EA0C06D5
:100310002037B6FBF4FCA7EB0507103F07F01F0BD7
:10032000CBF120060CFA0BFB2CFA06F644BFB346C1
:100330000026202FA4BF5E464FF0000B5BEA060CA0
:1003400008BF4FF0010B19EB0B09ABFB027C48EB2C
:100350000608C01B06FB02CC0BFB03CC71EB0C01A7
:10036000C1E70B46024641464846BDE8F08B13B54F
:100370004FF000004FF00001AFF30080BDE81C40DB
:10038000704700000FB41CB5084B06AA7B446946B1
:100390000090059800F0B9FB04460020694600F083
:1003A000C7FB20461CBC5DF814FB0000A107000041
:1003B0002DE9F0410646002410687529314616A53E
:1003C00010D0AFF30080002802DA404213A507E006
:1003D00031688A0701D512A502E0490704D511A5A5
:1003E000012401E0AFF3008000210A2206F1240776
:1003F00009E0B0FBF2FCB0FBF2F302FB1C00303072
:1004000078541846491C0028F3D123462A46304622
:10041000BDE8F04100F00CB9000000002D00000024
:100420002B000000200000002DE9F0474FF0000AEB
:1004300089460446C0F820A02046E1688847002885
:1004400076D0252806D0D4E901219047206A401CA7
:100450002062F1E7E168204600258847C4F81CA027
:1004600006460027C4F818A02A2E09D0304606F008
:100470008EF938B304EB8708303EC8F8186019E0ED
:1004800059F8041B204604EB87029161E168884714
:10049000012F064618D1E069002820DA25F0200552
:1004A0001DE0D8F8180000EB800006EB4000303863
:1004B000C8F818002046E1688847064606F067F944
:1004C0000028EED1012F0AD02E2E08D12046E16857
:1004D00088477F1C0646022F45F02005C4DBA06933
:1004E000002803DA404245F00105A061E80701D089
:1004F00025F01005B6B1A6F14100192802D8203622
:1005000045F400654A463146204625604D46FFF7D2
:1005100075FE58B1012806D0ED1D25F0070000F149
:10052000080989E704E005F1040985E730468AE710
:10053000206ABDE8F0870000014A00F051BB0000CE
:10054000E800002010B5431C02E010F8011B71B157
:100550008107FAD14FF0013202C88C1A8C4314EA99
:10056000C211F9D0C01A0A0603D0C01E10BDC01AAD
:1005700010BD0A0401D0801E10BD0902FCD0401E2F
:1005800010BD4FF000020429C0F0128010F0030CDF
:1005900000F01B80CCF1040CBCF1020F18BF00F876
:1005A000012BA8BF20F8022BA1EB0C0100F00DB825
:1005B0005FEAC17C24BF00F8012B00F8012B48BF83
:1005C00000F8012B70474FF0000200B51346944627
:1005D0009646203922BFA0E80C50A0E80C50B1F19B
:1005E0002001BFF4F7AF090728BFA0E80C5048BFAF
:1005F0000CC05DF804EB890028BF40F8042B08BF4D
:10060000704748BF20F8022B11F0804F18BF00F848
:10061000012B704770477047704710B500F006FB1C
:10062000006810BD10B5044600F000FB046010BD6A
:100630002DE9F0470D4699469246044600F12408FC
:100640000168880604D5E06921F01001216000E00E
:100650000120A84201DD471B00E00027A1697A19AB
:1006600002EB0900081AA0612078C00602D42046D7
:10067000AFF30080002608E0D4E901211AF8060053
:100680009047206A401C761C20624E45F4DB20789F
:10069000C0060AD52046AFF3008006E0D4E9012168
:1006A00030209047206A401C2062381EA7F10107C5
:1006B000F4DC07E0D4E9012118F805009047206A2E
:1006C000401C2062281EA5F10105F3DC2046AFF393
:1006D00000802078000602D50220BDE8F0870120C6
:1006E000FBE770472DE9FF4F0C461E464FF0FF37E2
:1006F0008BB0D2E90001DDF860800A908A46C1F330
:100700000A5505B93D46002108464FF00000BAF1F0
:10071000000F00F4400005DA00EB80004FF44001C8
:1007200001EA50004FEA9059B9F1010F00DDB946D6
:100730000A9850EA4A000ED044F61050A5F2FF3550
:1007400045432F14B8F1000F1ED07542291E1EDD3F
:10075000C9F100021CE0B8F1010F4FF0000001D018
:10076000302103E0F24305E02154401CB042FBDBA2
:1007700030460022002121540B99C1F80880C1E9BC
:1007800000200FB0BDE8F08FBD1B6D1CDEE74A46B0
:1007900000DA694206A800F0FBFA06AB93E807000E
:1007A00003AB83E8070050460A9901F0CBF88DE8C7
:1007B0000700A0F500501F3800900398002D0ADDB7
:1007C00042F21F014A460844002303A903906846E9
:1007D00001F076FB09E0A0F500504A461F380023DF
:1007E00003A90390684601F095FB8DE8070000041B
:1007F000000C03D04FF0FF30410800E01046B8F184
:10080000000F03D00022009215461EE0751E05D48D
:1008100000F010FA303262556D1EF9D5B346012250
:10082000084302D000227F1C04E02078302801D148
:1008300000227F1E002A099784D01DE0112D07DABF
:1008400000F0F8F9303262556D1C50EA0102F5D122
:10085000084302D00098C8B10EE00021681E05E0F0
:10086000235C625C63542254401E491C8142F7DBC6
:10087000AB46A81B401E0990002004F80B000B9803
:10088000099AC0F80880C0E9002B7AE711264FF0DA
:10089000000857E72DE9F04F88460446D21D22F0A4
:1008A000070191B0D1E90001CDE90A0105F07CFD15
:1008B00002460B98C00F01D02D2007E02068810769
:1008C00001D52B2002E0202101EAC000032A099073
:1008D00001D0072A05DB03464146204600F0F8F91F
:1008E0000BE12078800601D5E06900E00620B8F130
:1008F000650F814606D0B8F1660F18D0B8F1670FC2
:1009000070D131E00020B9F1110F009001DB11230B
:1009100001E009F101030AAA01A90CA8FFF7E2FE10
:10092000DDE90C70002609F10105834647E001204E
:100930004B4600904FF000470AAA01A90CA8FFF708
:10094000D1FEDDE90DB00C995D46002610B909F124
:1009500001000D18B9EB050003D4C0F1FF3609F111
:100960000105A5EB09002BE0B9F1010F01DA4FF009
:1009700001090020B9F1110F0090484601DD112353
:1009800000E003460AAA01A90CA8FFF7ABFEDDE9C7
:100990000C704D4600268346207800070AD4AB45EC
:1009A00000DA5D4601A8012D04DD411911F8011C92
:1009B000302907D04F4502DA17F1040F04DA01207D
:1009C00082460FE06D1EEEE7002F02DCED1B3E4479
:1009D00003E0781CA84200DD7D1CB81B00F1010A71
:1009E0004FF000472078000703D4AA4501DB4FF001
:1009F000FF3A0021B7F1004F0DF143088DF8431085
:100A000024D002202B23002F01DA7F422D230A213C
:100A1000021EA0F1010000DC5FB197FBF1FC97FB27
:100A2000F1F201FB1C7C17460CF1300C08F801CDEB
:100A3000EEE7A8F1010003702188090501D54521E1
:100A400000E06521A0F1010800F8011C09980FA938
:100A5000A1EB0807FF1D00B10120411901EBEA706D
:100A6000A1693844081A401EA0612078C00602D44B
:100A70002046AFF30080099828B1D4E901219047BE
:100A8000206A401C20622078C00622D52046AFF3A1
:100A900000801EE0002E04DBB34502DD01A8805D6E
:100AA00000E03020D4E901219047206A401C2062F8
:100AB000761CAAF101005FEA000A0AD100F0B2F840
:100AC000C0680168405CD4E901219047206A401C5D
:100AD0002062281EA5F10105DCDC07E0D4E9012134
:100AE00018F8010B9047206A401C2062381EA7F1BD
:100AF0000107F3DC2046AFF30080032011B041E68C
:100B000001694A1C02610878704700B58FB0CDE9D1
:100B100001310021059105497944CDE903101146C1
:100B20006846FFF781FC0FB000BD0000E5FFFFFF46
:100B30000A6802F8010B0A60704700000FB4002336
:100B400000B589B00CA900910B99CB60214B7B4477
:100B50000693214B7B44079304236FF00042CDE9B9
:100B600001321E4A7A446B4608920246002007F082
:100B7000AAF809B05DF814FB70B506464FF0FF30D7
:100B800015460C46324686B00091CDE90101694612
:100B90000020049004A8FFF7D1FF02460498211812
:100BA00025B108B1084600E02046286004980028D6
:100BB0000DD0002A02DD0098884208D03246081B7A
:100BC00069460094CDE9010404A8FFF7B7FF06B019
:100BD00070BD0000FF010000170200005701000077
:100BE0002DE9F04115460E46040002D12C6804B9E7
:100BF0000BA4204600F04EF90444207870B127463B
:100C00003146384600F036F90444207810B100200F
:100C100004F8010B38462C60BDE8F0810027F9E7A5
:100C20000000000000487047900300200048704713
:100C30007003002030B5B0F10A024FEA900E71F156
:100C400000034EEA817EB0EB0E0061EB91014FEAAA
:100C5000101E4EEA017E10EB0E0041EB11114FEA1F
:100C6000102E4EEA016E10EB0E0041EB11214FEAFF
:100C7000104E4EEA014E10EB0E0041EB11414018B0
:100C800041F100014FEAD00040EA41704FEAD10142
:100C900010EB80054FEA810444EA907444EB0104B0
:100CA0006D1944EB0404521BA3414FF0000348BFED
:100CB0000A3200D530BD401C41F1000130BD10B5F5
:100CC000044600F01FF90068005D00F0010010BD4F
:100CD0002DE9F0411F46044603260168072A01F466
:100CE000006004DB08B116A505E016A503E008B115
:100CF00015A500E015A521F010002060A069C01E18
:100D0000A0610FB1401EA0612046AFF300804FB13B
:100D1000D4E9012138469047206A401C2062C01C5B
:100D2000206206E0206AFAE7D4E9012115F8010BF8
:100D30009047761EF8D22046AFF30080BDE8F081E0
:100D40004E414E006E616E00494E4600696E66006F
:100D5000426842B1016811F8013B23B1521EC0E95B
:100D60000012184670470121C160881E7047426812
:100D70005AB1C368016843B983688B4205D0491EE4
:100D8000521CC0E90012002070474FF0FF3070473E
:100D90002DE9F047814616468AB0354878440DC89B
:100DA0008DE80D0032487844801C03AC0DC884E8FF
:100DB0000D0041F69B300844372190FBF1F290FB87
:100DC000F1F5A5F1800501FB12041B3C02D564423C
:100DD000012000E00020DFF898A080460027FA44B8
:100DE000AAF1BE0A0EE0E0070AD03246684607EBD9
:100DF000470101230AEB810101F08CF88DE807001F
:100E000064107F1C002CEED1194F7F44AE3F19E0D7
:100E1000E80715D007EB04100DF1180A90E80E0052
:100E20008AE80E00C068F04201D198190890324655
:100E3000012306A903A801F06DF803AB83E80700BE
:100E40006D10641C002DE3D14FF00103324669465A
:100E5000B8F1000F03A802D001F032F801E001F070
:100E600059F8C9E90001C9F808200AB0BDE8F087BF
:100E7000F86F000030B503461D781DB10A4603E047
:100E8000AC4201D1181A30BD12F8014B002CF7D139
:100E90005B1CF1E730B503461D783DB10A4612F8F8
:100EA000014B1CB1AC42FAD15B1CF5E7181A30BDFE
:100EB00000487047700300207546FFF7F9FFAE4603
:100EC00005006946534620F00700854618B020B556
:100ED000FFF7CEF9BDE820404FF000064FF00007C5
:100EE0004FF000084FF0000B21F00701AC46ACE8D2
:100EF000C009ACE8C009ACE8C009ACE8C0098D463F
:100F00007047000010B5FFF78DFE001D10BD00BF3B
:100F1000F15E00002DE9FF4F06468BB00878FF28F0
:100F200006D0491C2D2805D000244FF0000908E008
:100F300000200CE00124F8E709EB8903491C00EBD1
:100F400043090878FF28F7D114B1C9F100008146A0
:100F5000107800252C46AA4629462D2801D02B289A
:100F600004D1521C2D2813D0002082468B461078C5
:100F7000FF280FD04FF0000C0A21521CA5FB01786E
:100F800004FB018105FB0C11C5194BEB0104EEE7D5
:100F90000120EAE7002108464FF00000BAF1000FF7
:100FA00002D000EB80004008C0F38157012F01DD23
:100FB0004FF0FF370E9955EA040009EB01080BD0FA
:100FC0004FF0020918F5FA7F16DA4FEACA70002FBF
:100FD000706008DD012007E04FEACA70C6E900B082
:100FE0000FB0BDE8F08F00203060FFF71FFEC0F8A3
:100FF00000901821084616E0B8F5FA7F18DD002F9A
:1010000002DAF748784401E0F6487844D0E9001065
:10101000C6E9001040EACA707060FFF707FEC0F82A
:101020000090142108460FB0BDE8F04F06F0E6BD71
:10103000002108464FF00000B8F10001099002DAE3
:10104000C7F1000200E03A4601DAC8F1000106A843
:10105000FFF79EFE06AB93E8070003AB83E80700AB
:1010600044F23E005BEA04010090584604D144F289
:101070001E012C465D460091210C0904014306D156
:101080000099240444EA15442D041039009104F019
:101090007F41014306D10099240244EA15642D02E0
:1010A0000839009104F07041014306D100992401F0
:1010B00044EA15742D01091F009104F040410143D9
:1010C00006D10099A40044EA9574AD00891E0091F0
:1010D00004F00041084304D100986D196441401E9A
:1010E00000904FF001033A466846B8F1000FCDE991
:1010F000014503A902DD00F022FF01E000F0F5FE4A
:10110000BAF1000F04460D4601D084F000440021DE
:1011100008464FF00000099940F2FF77484010F070
:101120000C0F07D124F00040284303D0C4F30A5029
:10113000B84212D1FFF77AFDC0F80090C4F30A500C
:10114000B8420AD1A8487844D0E90010C6E9001096
:1011500004F000410843706042E7C6E900543FE7ED
:101160002DE9FF4F1F464FF0000A4FF0FF3845466C
:1011700091B0D7E90146CDF83CA0FFF753FDC06818
:101180000168405C1090B96912986D1C8847396AF3
:10119000814688470028F6D1B9F1FF3F0AD0002EDA
:1011A00024F4D06411DDB9F12B0F08D0B9F12D0F63
:1011B0000BD102E0404615B013E744F48064B969EE
:1011C00012986D1C8847761E8146600504A901D5DA
:1011D0002D2000E02B20002E01F1010B0DF1300835
:1011E0008DF810003FDDB9F1690F08D0B9F1490F52
:1011F00005D0B9F16E0F02D0B9F14E0F1CD13B46AC
:1012000001A8009580E85002DDE912126FF002009B
:1012100006F05DFDC11CCED10EE0B96912986D1CBF
:10122000884781461398761E44F4007405600F9831
:10123000401C002E0F9016DDB9F1300FEDD0B9F142
:10124000780F02D0B9F1580F0DD10F9801280AD1AB
:101250003B46CDE90054DDE91212001F029606F06C
:1012600034FDC11CA7D1109989453ED144F08004BA
:1012700006E01399681CAAF1010A44F4007408609E
:10128000B9696D1C1298761E884730288146F0D0C7
:101290002BE01099894505D1200603D4761E44F031
:1012A000800418E0484605F072FA08B3761E0DF186
:1012B00023018B4544F4007408D2A9F130000BF8E7
:1012C000010B200607D5AAF1010003E0200602D495
:1012D0000AF101008246A00502D51399681C086036
:1012E000B96912986D1C88478146002ED1DC53E005
:1012F000002E51DDB9F1650F02D0B9F1450F4BD188
:10130000A00549D5B9696D1C1298761E24F4407465
:101310008847002E81460CDD2B2804D0B9F12D0F13
:1013200007D144F48074B96912986D1C8847761E01
:101330008146E00501D52D2100E02B2108F8011B95
:10134000CDF8008021E0761E0DF13901884544F486
:1013500000740CD2A9F1300010F0FF0088F80000F2
:1013600002D10099884509D908F1010806E0E00595
:1013700001D51E4801E042F20F708246B969129809
:101380006D1C8847814613980560002E04DD484691
:1013900005F0FDF90028D6D1F96912988847FF2099
:1013A00053468BF8000088F8000000200A900B904C
:1013B00004AA0CA90AA8FFF7ADFDA00502D46FF09E
:1013C0000100F8E614F0240F12D0E0071CD13868B1
:1013D000DDE90A12031D3B600068C0E9001213E05A
:1013E000D06D0000C26D0000866C0000F1D8FFFFD8
:1013F0000AA9684605F0B8F9E00705D13868009AEF
:10140000011D3960006802602846D4E610B5044624
:10141000AFF300802046BDE81040FEF714BF000087
:101420004FF0013C50F8042B51F8043B9A4221D173
:10143000A2EB0C03934313EACC1317D150F8042BFF
:1014400051F8043B9A4215D1A2EB0C03934313EAE3
:10145000CC130BD150F8042B51F8043B9A4209D11C
:10146000A2EB0C03934313EACC13DBD04FF0000044
:10147000704700BFD01A01BAB1FA81F101F018012A
:1014800022FA01F0CB40C1F12001DBB2C0B2C01A98
:101490002CFA01F3D11A914311EAC311E6D1704736
:1014A00001491820ABBEFEE7260002002DE9FF4FE0
:1014B0001F464FF03C0987B04FF00042DDE91410A1
:1014C00001F10108DDF858A002EA40500390002025
:1014D00005908346054604460490B969461E08985F
:1014E0008847AAF1010A0290BAF1000F3BDD029889
:1014F0002E2815D0102100F017FA00282EDB4FF00F
:10150000010B0599014317D0B9F1000F0BDB4A46D7
:10151000C11700F0F6F905430C43A9F1040905E0F1
:10152000012004900BE008B145F001050120059071
:10153000049820B9361D02E0049800B1361FB9693D
:10154000089808F101088847BBF1000FAAF1010AC9
:101550000290C9D00999C1F80080C5E702987028A7
:1015600008D0502806D0F96908988847BBF1000FC9
:1015700014D04FE0002002900120BBF1000F049036
:1015800009D0B969089808F101088847AAF101094A
:10159000B9F1000F07DCF969089888476FF001007E
:1015A0000BB0BDE8F08F2B2804D02D280CD14FF0C4
:1015B000FF300490B969089808F101088847A9F13B
:1015C0000109B9F1000FE6DD411CE4D00A2100F069
:1015D000ABF90028DFDB029908F1010801EB81017A
:1015E00000EB41000290B969089888470A2100F091
:1015F0009BF9099AA9F10109B9F1000FC2F800801D
:1016000001DD0028E7DAF96908988847049902980B
:1016100000FB016655EA040004D004F040410900D3
:1016200002D006E0039898E0A40044EA9574AD0067
:10163000B61E04F00041080002D16D196441761E07
:10164000159810F0240F03D04FF00B095C4803E00D
:101650004FF028096FF07D008246564507DAAAEB65
:1016600006018944B9F1410F01DD4FF04109012024
:101670000021A9F1010200F044F9024628400B467E
:101680002140084301D0012100E00021501E0291B9
:1016900043F1FF3128402140084301D0012000E000
:1016A00000200299834651EA0B014FD000210846E1
:1016B0004FF00000039900F4400039B100EB8000C6
:1016C0004FF4400100EBD07001EA60008015012862
:1016D00002DD4FF0FF3000E013D0401C36D00298FE
:1016E00060B3BBF1000F0CD14A460120002100F08D
:1016F00008F928402140084301D0012000E00020E3
:10170000E0B101204A46002100F0FBF803464019F1
:101710000A4661412D1A8C4111D3B9F1400F09DD00
:10172000159810F0240F02D0AAF1340603E0AAF1B4
:10173000170600E0761C00254FF0004406E05B1E13
:1017400042F1FF3220EA030521EA0204CAF1010056
:10175000B04206DA1B49039808430190002000902C
:101760000EE0039AC4F3D321E80A0A43164940EA7B
:1017700044500A433146CDE90002684604F0FDFFBB
:10178000159810F0240F0BD01598C00715D13868A4
:10179000DDE90012031D3B600068C0E900120CE0A7
:1017A00002A8694604F0E0FF1598C00705D1386823
:1017B000029A011D3960006802604046F0E60000B0
:1017C00002FCFFFF0000F07F0000F03F2DE9FF4F1B
:1017D00092461D4685B04FF00041DDE9124BDDE930
:1017E00014727F1E01EA4B50414940F0FF4940EA24
:1017F0000108002122F020004928049102D04E283F
:1018000028D04CE03BA0012607C88DE80700A96955
:101810000698641C88477F1E014606D41DF8060002
:1018200018B121F0200181420BD0E9690698884760
:10183000032E34D0082E32D06FF0010009B0BDE87D
:10184000F08F761C032E01D0082EE0D1601CCAF860
:101850000000DCE7A9690698641C88477F1E2AD42B
:1018600020F02000412826D1A9690698641C8847E9
:101870007F1E20D420F020004E281CD1A969069894
:10188000641C88477F1E48F4002849F48009CAF880
:10189000004001D4282806D0E969069888475FEA05
:1018A000CB7012D022E0A9690698641C88477F1E7D
:1018B00001D4002803DAE96906988847BCE729289B
:1018C000F1D1641CCAF80040E9E71BF0240F07D0EF
:1018D00028680499031D2B600068C0E9001805E022
:1018E0002868021D2A600068C0F800902046A5E71D
:1018F0000000F07F494E46494E495459000000000F
:101900007047B2F120030AD5C2F1200301FA02F1B7
:1019100020FA03F300FA02F041EA0301704700FAEB
:1019200003F14FF0000070473A2800D2303820F021
:101930002002412A01D3A2F13700884201D34FF09F
:10194000FF3070475FEA400C08BF91F0000F4FEA8C
:101950008C234FEAC12243EA51514FEA1C5018BF71
:1019600000F5F0404FEA300018BF41F000415FEA57
:101970006C5C00F02980BCF1FF3F08BF40F0804064
:101980007047130C06BF12044FF0100C4FF0000C00
:10199000130E04BF12020CF1080C130F04BF120146
:1019A0000CF1040C930F04BF92000CF1020CD30F46
:1019B00004BF52000CF1010C11464FF00002A0F1DF
:1019C0001F00A0EB0C00704711F0004F08BF7047DC
:1019D00031F000413FF4D5AF0B0C06BF09044FF0C6
:1019E000100C4FF0000C0B0E04BF09020CF1080C98
:1019F0000B0F04BF09010CF1040C8B0F04BF89000D
:101A00000CF1020CCB0F04BF49000CF1010CCCF11E
:101A10002003A0EB0C0022FA03F302FA0CF241EAD5
:101A2000030100F10100704720F07F4C80EA0300C1
:101A300023F07F47ACEB070303F57C5300F0004035
:101A400003F1FF032DE980494FEA154B09B44FEA32
:101A5000144325EA0B4E24EA03480FF2042606EB52
:101A6000132749083E785FEA320203FB0667C7F591
:101A7000000707FB06F64FEA54374FEAD64606F151
:101A8000020607FB066CCCF1005C4FEA1C472CEA0F
:101A9000074C07FB06F40CFB06F504EB15464FEA72
:101AA000961634BF00204FF000404FEAD13706FBB6
:101AB00007FC4FEA1C4C0CFB0BF7D21B03FB0CF78B
:101AC00061EB07010CFB0EF7B0EB074072EB17421E
:101AD0000CFB08F734BFA2EB0742B2EB074261EB05
:101AE00017414FEA0C444FEA910706FB07FC4FEA07
:101AF0001C4C0CFB0BF7B0EBC74072EB573203FBEF
:101B00000CF734BFA2EBC742B2EBC74261EB5731CF
:101B10000CFB0EF7B0EBC70072EB57720CFB08F72B
:101B200034BFA2EBC702B2EBC70261EB5771039F50
:101B30004FEA816141EA921104EBCC044FEAD137BC
:101B40004FEA826206FB07FC42EA90124FEA80608D
:101B50004FEA1C4C0CFB0BF7D21B03FB0CF761EBA1
:101B600007010CFB0EF7B0EB074072EB17420CFBC2
:101B700008F734BFA2EB0742B2EB074261EB174113
:101B80004FEA8C554FEA910704EB9C2406FB07FCB7
:101B90004FEA1C4C0CFB0BF7B0EBC74072EB573213
:101BA00003FB0CF734BFA2EBC742B2EBC74261EBB9
:101BB00057310CFB0EF7B0EBC70072EB57720CFB02
:101BC00008F734BFA2EBC702B2EBC70261EB577153
:101BD00015EB4C254FEA816141EA92114FEA82628E
:101BE0004FEAD13742EA901206FB07FC44F10004A9
:101BF0004FEA80604FEA1C4C0CFB0BF7D21B03FB37
:101C00000CF761EB07010CFB0EF7B0EB074072EB32
:101C100017420CFB08F734BFA2EB0742B2EB0742B6
:101C200061EB174115EB1C154FEA813141EA9241F6
:101C30004FEA823242EA90424FEA80304FEA0C7615
:101C400044F1000448EA03434EEA0B484FF0000E0B
:101C5000B2EB080C71EB030724BF624639464EEB2A
:101C60000E0E4FF0000B0018524149414BEB0B0B8D
:101C7000B2EB080C71EB03077BF1000B24BF62464B
:101C800039464EEB0E0E4FF0000B00185241494101
:101C90004BEB0B0BB2EB080C71EB03077BF1000B6A
:101CA00024BF624639464EEB0E0E51EA020718BFBA
:101CB00046F0010616EB0E7655F1000254F10001D4
:101CC00003D5BDE88901BDE80088BDE88901BDE80C
:101CD0000048B619524141EB0101A3F101037047DD
:101CE00080807F7E7D7C7B7A797877767675747359
:101CF000727171706F6E6E6D6C6C6B6A6A69686818
:101D0000676666656464636362616160605F5F5EAD
:101D10005E5D5D5C5C5B5B5A5A5959585857575623
:101D20005655555554545353525252515150505088
:101D30004F4F4F4E4E4D4D4D4C4C4C4B4B4B4A4ADA
:101D40004A4949494848484747474746464645451E
:101D50004544444444434343434242424241414157
:101D600046EA0646A3F570534FEA164646EA42563F
:101D70004FEAD22242EA415210B54FEAD121A3F1F3
:101D8000010300F02FF820F0004000F1020C00F0F9
:101D9000004701EB00501146BCF5006F40EA070018
:101DA00000D210BDBAF1000F0AD01CB503B44FF039
:101DB00004004FF004014FF000000FBCBDE81040DC
:101DC0004FF00001BBF1010FB9BF04484FF0FF31E4
:101DD0000348002140EA070010BD00BFFFFFEF7F6E
:101DE0000000F07F002B9C4630D477002BD01CB530
:101DF0004FEA370703B44FF010004FF01001BAF16B
:101E0000000F06D0BCF1000FDCBF40F0080040F02E
:101E100008014FF000000FBCBDE810400BF1010BB2
:101E2000BBF1010F08BF5FEA170722BF12F10102E1
:101E300011F101014FF0004143F1000300F00040B7
:101E400043EA00007047F9D35708D0E746EA064650
:101E500013F1400F4FEA16461FDD13F1200FDFBFCD
:101E600016430A46002120335B42BED0C3F120074F
:101E700046EA064602FA07F74FEA164646EA07061A
:101E8000C3F1200722FA03F201FA07F721FA03F15E
:101E90004FF0000342EA0702A7E746EA020646EAD5
:101EA00006464FEA164646EA0106BCBF46EA064623
:101EB000360C4FF000034FF000024FF0000194E7A2
:101EC0002DE9804C9A46934670B491E8380007C8D3
:101ED00031EA400C48BF34EA430C03D5FFF7A4FDB8
:101EE000FFF780FFF0BCBDE8008C2DE9804C9A46DE
:101EF000934670B491E8380007C831EA400C48BFF7
:101F000034EA430C03D5FFF78FFDFFF729FFF0BC40
:101F1000BDE8008C2DE9804C9A46934670B491E858
:101F2000380007C810F0804F08BF13F0804F03D16E
:101F300000F01AF8FFF756FFF0BCBDE8008C2DE961
:101F4000804C9A46934670B491E8380007C810F068
:101F5000804F08BF13F0804F03D100F005F8FFF762
:101F6000FFFEF0BCBDE8008C20F07F4780EA030054
:101F700023F07F4C07EB0C03A3F57C5300F00040EB
:101F8000A3F1FE0392F0000F00F0B38095F0000F74
:101F900000F077802DE901494FEA11404FEA1446DD
:101FA00021EA004800FB06FC24EA064708FB06F687
:101FB00007FB08F800FB07F718EB06484CEB164C3C
:101FC0004FEA124B18EB07484FEA15464CEB174007
:101FD00022EA0B4E0BFB06FC25EA06470EFB06F633
:101FE00007FB0EFE0BFB07F71EEB064E4CEB164CE9
:101FF0004FF000061EEB074E4CEB174B18EB0B088F
:1020000040F1000018EB0E0B58EB000840F1000007
:102010008F1A4FF000013CBFC943661B14BFB5EBDC
:10202000040C00213CBFC943F61B4FEA17444EEA9B
:102030008E0E27EA04454FEA1C4704FB07622CEA90
:10204000074C05FB07F70CFB05F604FB0CFC16EB35
:10205000074642EB174216EB0C4642EB1C421BEBC9
:10206000060658EB0202414146EA9E0601D5BDE84C
:102070000189B619524141EB0101A3F10103BDE809
:1020800001894FEA14454FEA114724EA054621EA3F
:10209000074C05FB07F406FB07F70CFB06F105FBF5
:1020A0000CFC11EB074144EB17444FEA124711EBCC
:1020B0000C4144EB1C4422EA074C05FB07F206FBEB
:1020C00007F70CFB06F605FB0CFC16EB074642EB8C
:1020D000174216EB0C4642EB1C456A1854F10001FE
:1020E00048BF7047B619524141EB0101A3F101030A
:1020F000704795F0000F37D04FEA11424FEA14476E
:1021000021EA024624EA074C02FB07F106FB07F727
:102110000CFB06F402FB0CFC14EB074441EB1741EB
:102120004FEA154714EB0C4441EB1C4125EA074CE0
:1021300002FB07F506FB07F70CFB06F602FB0CFC9F
:1021400016EB074645EB174516EB0C4645EB1C42D4
:10215000121951F1000148BF7047B619524141EBC5
:102160000101A3F1010370474FEA14454FEA1147FB
:1021700024EA054621EA074C05FB07F106FB07F7B1
:102180000CFB06F24FF0000605FB0CFC12EB0742BD
:1021900041EB174112EB0C4251EB1C4148BF704719
:1021A000921841EB0101A3F10103704710B5104CE7
:1021B00001221146204600F0AEFF002202212046F7
:1021C00000F0A9FF4FF4FA7000F0DEFD01220221B9
:1021D000204600F0A0FF074C01222021204600F0FD
:1021E0009AFF20460022BDE81040102100F093BF66
:1021F0000004024000080240FEE700002DE9F04123
:102200007A4C2DED088B94F82A00283405F004F957
:102210009FED771B53EC112B05F04EF99FED761BCC
:1022200053EC112B04F0F0FE04F000FEE062606A53
:1022300005F038FC94ED0C0AB0EE00AAD4ED100ABB
:1022400020EE0A0A41EC180B20EE200A10EE100ACC
:1022500005F028FC41EC100B04F027FA9FED689B79
:1022600051EC100B53EC192B05F026F953EC182BFD
:1022700004F0CAFE05F08CF82083D4ED0C0A94ED2E
:10228000090A10EE100A80EE801A84ED0E1AD4EDC1
:102290000D0A80EE801A84ED0F1A05F003FC94ED10
:1022A000110A04F1580541EC180B20EE0A0AD5ED8D
:1022B000010A20EE200A10EE100A05F0F3FB41ECB3
:1022C000100B04F0F2F953EC192B51EC100B05F044
:1022D000F3F853EC182B04F097FE05F059F886B28A
:1022E000668394ED110A94ED098AC0EE080AC4EDE4
:1022F000130A94ED120A10EE100AC0EE080AC4ED9B
:10230000140A05F0CFFB41EC190B18EE100A05F08A
:10231000C9FB41EC1A0B304605F07EF80F4647EC3E
:10232000100B9FED39BB064653EC1B2B51EC100BE9
:1023300005F0C2F853EC1A2B05F0BEF853EC192B3C
:1023400004F062FE04F072FD606505F0ABFB41EC49
:10235000190B18EE100A05F0A5FB47EC106B9FED6A
:102360002C1B41EC1A0B53EC112B51EC100B05F00C
:10237000A3F853EC1B2B05F09FF853EC1A2B05F038
:102380009BF853EC192B05F097F89FED231B53ECAA
:10239000112B05F091F804F049FD00EE100A18EE3B
:1023A000100A85ED000AD5ED010A70EE808AC5EDB0
:1023B000028A05F077FB9FED1A1B53EC112B05F0F9
:1023C0007BF804F033FD00EE100AA08900EE900ABD
:1023D000F8EE600A60EEA80A80EE801ABDEEC10A2F
:1023E00085ED030ABDEC088BBDE8F08100000020FC
:1023F0009A9999999999B93F000000000000084006
:102400000000000000002440FF8D50466FCBBA3F13
:10241000000000000000E03F00000000000002405B
:102420001F85EB51B81E194010B504462DED068BE3
:10243000B0EEC08A1A489FED1BAB808E04F0ECFF13
:1024400041EC190B18EE100A64B105F02BFB53ECAC
:10245000192B05F031F841EC100B53EC102B9FEDCC
:10246000130B0BE005F01EFB53EC192B05F024F8C1
:1024700041EC100B53EC102B9FED0E0B51EC100B9D
:1024800004F0C2FD04F0D2FC05F00CFB53EC1A2B57
:1024900004F0FEFCBDEC068BBDE8104004F048BF24
:1024A00000000020000000000000E03F00000000ED
:1024B000389C9C4100000000389C6C412DE9F0479D
:1024C000DFF8F4910D462DED028B4E46074696F847
:1024D0002900F18DD6ED152A0144FAEE040AB48DD7
:1024E00022EEA02A2044B2EE040AD6ED140A96F891
:1024F0002A2006F180048BB2B68E22EE800A514269
:1025000099F80E8056434FF0000A80B206EB46065B
:102510009FED6A8AB8F1000FD4F81CC0D4F8188077
:10252000A5EB0808C4445AD04FF03C08B6FBF8F6B7
:10253000BCF1000F01DACCF1000C66454E461CDB05
:102540001846F38547B101EE102AB0EE420AF8EEC4
:10255000411AB3EE041A05E001EE101AFBEE041A5C
:10256000B8EEC11AF8EEE00A02F058F884ED0B0A52
:10257000B07BFFF759FF308727E0B08547B100EE09
:10258000902AF8EE601AF0EE480AB0EE601A09E000
:1025900000EE101AF0EE480AB8EEC01AF0EE601A1B
:1025A000B1EE620A02F03AF8B5EEC00A84ED0B0A09
:1025B000F1EE10FA03D0B07BFFF736FF308794EDD1
:1025C0000B0ABDEEC00A86ED140AA069E169281A5B
:1025D000401800D54042B0F5FA7F59DD69E04FF070
:1025E0005A08B6FBF8F6BCF1000F01DACCF1000C8A
:1025F00066454E461CDB1846F38547B101EE102AAE
:10260000B0EE420AF8EE411AB3EE041A05E001EE0C
:10261000101AFBEE041AB8EEC11AF8EEE00A01F047
:10262000FDFF84ED0B0AB07BFFF7FEFE308727E04D
:10263000B08547B100EE902AF8EE601AF0EE480A35
:10264000B0EE601A09E001EE101AF0EE480AB0EEA2
:10265000420AF0EE601AB8EEC11A01F0DFFFB5EEE3
:10266000C00A84ED0B0AF1EE10FA03D0B07BFFF73D
:10267000DBFE308794ED0B0ABDEEC00A86ED140A2E
:10268000A069E169281A401800D54042642810DC8E
:10269000A9F82CA0A9F82EA0A9F838A084ED0B8ADF
:1026A000C9F850A003F0C6FA0120BDEC028BBDE8CA
:1026B000F0870020F9E70000000000200000000083
:1026C0007047000000222021014800F024BD0000D6
:1026D0000008024070B5194C00224FF4806120467A
:1026E00000F019FD00228021204600F014FDA51401
:1026F00000222946204600F00EFD0122D10220468C
:1027000000F009FD01229103204600F004FD0022A3
:1027100001210B4800F0FFFC00221021094800F0C5
:10272000FAFC00222946084800F0F5FC0022A11519
:10273000204600F0F0FC012070BD000000100240B7
:102740000004024000080240000002402DE9F04170
:10275000704C2DED048B94F8230020B10120BDECCA
:10276000048BBDE8F0816079617A4FF00006884300
:102770004FF001087ED0A27A9FED679B654991F8E2
:102780002900898D084487B29FED658A614D8035A7
:102790002AB3A785E06D05F085F953EC192B04F0F9
:1027A000BFFF04F043FB606494ED190AFAEE040ADB
:1027B000D5ED0C1A20EE200AB0EE481AF0EE610AB0
:1027C000384601F02BFFB5EEC00A85ED0B0AF1EE9D
:1027D00010FA69D0A07BFFF727FE208766E0A06D86
:1027E00005F060F953EC192B04F052FB04F01EFBCA
:1027F00000EE100A384684ED110AA785617CF2EEDE
:10280000048A71B1B4F8401094ED180A00EE901AE1
:1028100020EE280AF8EE601AF0EE480AB0EE601AD0
:102820001DE0092101224842D5ED110A02F0DCF831
:10283000D4ED160A30EE200A85ED150A60EE280A5E
:1028400094ED131AB4F8400080EE810A00EE900A6D
:10285000A08DF8EE601AF0EE480AB0EE601A01F0B2
:10286000DDFEB5EEC00A85ED0B0AF1EE10FA06D0DA
:10287000A07B00E017E0FFF7D7FD208701E003F021
:10288000D9F995ED140AD4ED1A0AB4EEE00AF1EE86
:1028900010FA1FDBA68584F80A8003F0D1F895EDC5
:1028A0000B0A85ED0C0A15E003F0C4F995ED0B0A4F
:1028B000B5EEC00AF1EE10FA0CD803F0BBF9A6850C
:1028C00085ED0B8A03F0BCF89FED160A84ED110A22
:1028D0006671A6726079617A08430AD1E08F03F0CD
:1028E000BFFC30B184F8098084F82580E67703F0D6
:1028F0005DF9607A617988430AD000210846FFF7C4
:10290000DDFD28B1667284F8238003F093F925E792
:10291000002024E7000000209A999999999923C0F2
:1029200000000000CDCC1CC100220121014800F0B4
:10293000F2BB00000004024070B520211B48FDF7E7
:1029400042FE1A4828214638FDF71BFE0021174B8E
:102950000846463BA3F15A02145C1CB1145C5C545B
:10296000491CC9B2401CC0B22828F5D30F48002426
:102970000FA14638FDF7E0FD0C4D0DE003F0B8FD6A
:1029800051EC100B04F052FA45F8240008A1002085
:10299000FDF7D2FD641CE4B20028EFD1BDE8704021
:1029A00002482821A038FDF70EBE000030030020A9
:1029B0002F000000002229B101291AD002291BD0C2
:1029C0004FF440720E490B6823F440730B600B68A0
:1029D00013430B600A6822F0F8020A600A680223B7
:1029E00003EBC00002430A60086840F480300860CE
:1029F00070474FF48072E5E74FF40072E2E70000A1
:102A0000103C02401348016889050FD5016821F484
:102A100000710160016841F400610160016821F406
:102A200000610160016841F40071016001684905BD
:102A30000FD5016821F480610160016841F4805183
:102A40000160016821F480510160016841F48061F6
:102A500001607047003C024008490A6822F4407255
:102A60000A600A6842F004020A600A684FF4803380
:102A700043EA002002430A6070470000103C024015
:102A8000064A136823F440731360136813601368D5
:102A900043F001031360017070470000103C0240D6
:102AA000094910B50C6824F440740C600C6844F4B7
:102AB00040740C600C6844F001040C600260BFF3C9
:102AC0006F8F436010BD0000103C0240074A13683E
:102AD00023F440731360136843F480731360136826
:102AE00043F001031360018070470000103C024076
:102AF000074A136823F440731360136843F40073A8
:102B00001360136843F00103136001607047000015
:102B1000103C024017490868C206174805D5C2692B
:102B200042F01002C26110220A600A68920605D5BE
:102B3000C26942F00802C26120220A600A68520695
:102B400005D5C26942F00402C26140220A600A68E7
:102B5000120605D5C26942F00202C26180220A60F3
:102B60000A68920705D5C26942F02002C2610220BC
:102B7000086070470C3C02405003002070B51149BA
:102B800004460020C86100F0CBFA06460E4D09E06D
:102B9000601C07D024B100F0C3FA801BA04201D909
:102BA000032070BD2868C003F2D42868C00701D094
:102BB00001202860286810F0F200F2D0FFF7AAFF89
:102BC000012070BD500300200C3C024008C8521E7A
:102BD00008C192B2FAD270472DE9F84317468846E9
:102BE0000546002400F07CF9284600F02BF8064644
:102BF00005EB870000F026F8014611480022891BEA
:102C000002600222491C8660C0E90312694600F096
:102C1000CDF848B90EE000BF58F82420002329461B
:102C2000022000F01FF918B100F00CF9BDE8F8839C
:102C3000641C2D1DBC42EFDB00F00AF90020F5E713
:102C4000EC0000200021A0F1006343F6FF729342E4
:102C50002BD3174B0344934201D2012125E0154B9E
:102C60000344934201D202211FE0134B03449342D9
:102C700001D2032119E0114A4FF6FF7302449A4230
:102C800001D2042111E00E4A83180E4A934201D268
:102C900005210AE00C4B0344934201D2062104E0D3
:102CA0000A4B1844904200D20721084670470000A2
:102CB00000C0FFF70080FFF70040FFF70000FFF7BC
:102CC0000000FEF7FFFF01000000FCF70000FAF72C
:102CD0002DE9F0410446876D00F022FA064694F88B
:102CE00035000025022806D08020606584F8345025
:102CF0000120BDE8F0812068016821F01601016023
:102D00002068416921F080014161206C08B9A06C04
:102D100020B12068016821F0080101602068016885
:102D200021F0010101600CE000F0FAF9801B052898
:102D300007D920206065032084F8350084F83450DA
:102D4000D7E720680068C007EED194F85C103F20F8
:102D50008840B860012084F8350084F834500020A1
:102D6000C7E790F83510022903D080214165012082
:102D70007047052180F835100068016821F00101D5
:102D8000016000207047000070B5044600F0C8F9EB
:102D90000546601C02D004480078044400F0C0F9E5
:102DA000401BA042FAD370BDD80000202DE9F047A7
:102DB000044622480F46017E01290AD0012180469F
:102DC00001764CF250394846FFF7D8FE020003D096
:102DD0002FE00220BDE8F0874FF0FF303860206818
:102DE000174D012801D0A6681CE0207C6168FFF720
:102DF00033FE4846FFF7C2FE0246286820F0040072
:102E0000286014E0217C3046FFF7D4FD4846FFF7E8
:102E1000B5FE0200286820F0FA00286001D03E606C
:102E200005E0761CD4E902100844B042EAD8FFF766
:102E3000E9FD002188F818101046CBE75003002068
:102E4000103C02400148C069704700005003002058
:102E50000348016841F00041016000207047000014
:102E6000103C02402DE9F0471B4E05461446307ECB
:102E70001F468946012808D0012030764CF2503890
:102E80004046FFF77BFE18B114E00220BDE8F08752
:102E90009DB1012D16D0022D19D022463B46484641
:102EA000FFF7FEFD4046FFF769FE0C490A6822F075
:102EB00001020A6000213176E8E7E1B24846FFF7F7
:102EC000DFFDEFE7A1B24846FFF700FEEAE7214643
:102ED0004846FFF70DFEE5E750030020103C024096
:102EE000074900200A68002A09DA054A054B0C3A0E
:102EF0001360054B13600968002900DA0120704750
:102F0000103C024023016745AB89EFCD2DE9F84F16
:102F1000DFF8BCA1002201250AF1040B03264FF0C3
:102F20000F090BF1040E00BF0B6805FA02F42340F1
:102F3000A34270D10F7907F00307012F01D0022FB0
:102F400016D187684FEA420806FA08FC27EA0C0700
:102F5000D1F80CC00CFA08FC4CEA070CC0F808C009
:102F60004768A7430C79C4F3001494403C43446081
:102F70000C79E443A4070AD0C4684FEA420C06FA6D
:102F80000CF7BC438F6807FA0CF72743C7600C792E
:102F900004F00304022C12D1D40800EB840CDCF8FA
:102FA00020405707FF0E09FA07F824EA0804D1F871
:102FB000108008FA07F848EA0408CCF82080046872
:102FC0004FEA420C06FA0CF7BC430F7907F00307EF
:102FD00007FA0CF7274307604C6814F4403F70D0A1
:102FE0003C4C276847F480472760246822F0030799
:102FF00004F480440094384C07EB040CDCF80848D7
:1030000097074FEA177809FA08F7BC43334FB842DD
:1030100002D1002724E054E0314FB84201D101270A
:103020001EE0304FB84201D1022719E02E4FB842BE
:1030300001D1032714E02D4FB84201D104270FE03E
:103040002B4FB84201D105270AE02A4FB84201D1DF
:10305000062705E0284FB84201D1072700E00827DE
:1030600007FA08F72743CCF80878DAF80040574603
:10307000D1F804C09C435FEACC3C00D51C433C60C3
:10308000DBF800405F46D1F804C09C435FEA8C3C0B
:1030900000D51C433C60DEF800407746D1F804C000
:1030A0009C435FEACC2C00D51C433C60084F0C3796
:1030B0003C68D1F804C09C435FEA8C2C00D51C43CB
:1030C0003C60521C102AFFF42FAFBDE8F88F0000BF
:1030D000003C014044380240003001400000024002
:1030E0000004024000080240000C024000100240B0
:1030F0000014024000180240001C02400069084011
:1031000000D001207047426921EA02030A4043EAE5
:103110000241816170470AB1816170470904FBE790
:103120000148806870470000D8000020024881688C
:103130000278114481607047D80000200B4810B518
:10314000016841F400710160016841F4806101602F
:10315000016841F480710160032000F06FF80020E5
:1031600000F006F800F024F8002010BD003C0240FA
:1031700070B50D4D04464FF47A712878B1FBF0F02C
:103180000A490968B1FBF0F000F01EFB48B9102CA9
:1031900007D200222146501E00F030F800206C605B
:1031A00070BD012070BD0000D8000020E4000020A8
:1031B0000A4808B5016841F480410160006800F4E4
:1031C000804000900548001F016841F08051016077
:1031D000006800F08050009008BD000044380240B4
:1031E000002809DB00F01F02012191404009800006
:1031F00000F1E020C0F8001170470000F0B40E4B61
:103200001B680C46C3F30223C3F10705042D00D944
:103210000425191D072901D2002300E0DB1E012629
:1032200006FA05F1491E214099409E40761E16403F
:103230003143F0BC03F0D0B80CED00E0064900F0DB
:10324000070208684FF6FF03184040EA0220034ACD
:1032500010430860704700000CED00E00000FA0524
:10326000BFF34F8F05480168054A01F4E06111433F
:103270000160BFF34F8F00BFFDE700000CED00E0E1
:103280000400FA052DE9F0470E46050065D0DFF889
:103290001481D8F80000F7B200F00700B04207D25E
:1032A00088F80070D8F8000000F00700B04254D150
:1032B00028683D4C810712D5400703D5206840F4AB
:1032C000E05020602878000703D5206840F4604073
:1032D00020602068A96820F0F0000843206028786A
:1032E000C0072DD0304968680839012812D002285B
:1032F00013D0032811D00968890700292DDA216825
:1033000021F0030101432160FFF70AFF814641F2EA
:10331000883A0EE009688903EFE709688901ECE75C
:10332000FFF7FEFEA0EB0901514502D90320BDE8DD
:10333000F0872068696800F00C00B0EB810FEFD1D6
:10334000D8F80010404601F00701B14207D90770D4
:10335000006800F00700B04201D00120E7E72878BC
:10336000400705D52068E96820F4E0500843206054
:103370002878000706D52068296920F4604040EAD3
:10338000C100206000F038F82168084AC1F3031139
:10339000515CC8400649086006480068FFF7E8FE2F
:1033A0000020C4E7003C024008380240027D0008CB
:1033B000E4000020DC00002004480549006809689A
:1033C000044AC1F38221515CC8407047E4000020E8
:1033D00008380240127D0008044805490068096861
:1033E000044AC1F34231515CC8407047E4000020F8
:1033F00008380240127D0008154810B5006810F02A
:103400000C02144813D01449042A0FD0082A0ED1F4
:103410000F4C241F2268236802F03F025B0207D58D
:103420002068C0F38810A0FB010106E0084610BD2B
:103430002168C1F38811A1FB00010023FCF72AFFDA
:103440002168C1F30141491C4900B0FBF1F010BDF6
:10345000083802400024F400001BB7002DE9F84FA3
:1034600004006ED02078DFF84C93C007A9F1040562
:103470004AD009F104000168C1F38101012908D093
:103480000068C0F3810002280AD1D9F80000400288
:1034900006D52868800337D560680028E1D033E07E
:1034A0006068B0F5803F10D0B0F5A02F286810D02C
:1034B00020F480302860286820F48020286060682C
:1034C000A8B1FFF72DFE06460DE0286840F48030D5
:1034D000F4E740F480202860F7E700BFFFF720FE04
:1034E000801B642873D828688003F7D50CE0FFF7A9
:1034F00017FE064605E000BFFFF712FE801B64289A
:10350000F0D828688003F7D42078DFF8AC828007F1
:103510004FF0000A3ED5A748001D016811F00C0FBE
:1035200008D00068C0F3810002280BD1D9F8000050
:10353000400207D42868800716D5E068012800D12A
:1035400012E033E1E068B8B10120C8F80000FFF7ED
:10355000E7FD064605E000BFFFF7E2FD801B0228FD
:10356000C0D828688007F7D52868216920F0F800BE
:1035700040EAC10028600DE0C8F800A0FFF7D0FDC8
:10358000064604E0FFF7CCFD801B02281FD8286800
:103590008007F7D42078000722D5864F87486169D5
:1035A000703771B101210160FFF7BAFD064604E0F2
:1035B000FFF7B6FD801B022809D838688007F7D5C9
:1035C0000EE0C0F800A0FFF7ABFD064605E082E084
:1035D000FFF7A6FD801B02287DD838688007F7D446
:1035E0002078400768D5DFF8CCB100270BF13C0B01
:1035F000DBF80000C0000BD4DBF8001041F0805174
:10360000CBF80010DBF80000012700F0805000909C
:103610006B4E3068C00510D4306840F48070306064
:10362000FFF77EFD009005E0FFF77AFD0099401A54
:10363000022850D83068C005F6D55E4EA0686C36BA
:1036400001280FD00528306810D020F0010030602C
:10365000306820F004003060A068B8B1FFF760FD6A
:1036600000900FE0306840F00100F4E740F0040003
:103670003060F7E7FFF754FD0099411A41F28830B6
:10368000814266D830688007F4D50EE0FFF748FD28
:10369000009007E0FFF744FD0099411A41F288309D
:1036A000814256D830688007F4D42FB1DBF800107F
:1036B00021F08051CBF80010A069C8B33D49091D25
:1036C0000968C1F3810102294AD00228504607D077
:1036D000C8F8600000E03CE0FFF722FD04463BE054
:1036E0004746C8F86000FFF71BFD064605E000BF2F
:1036F000FFF716FD801B02282BD828688001F7D41D
:10370000D4E907010843A16A2E4A490802EB0141A6
:10371000626A41EA8211084394F82C1040EA016180
:10372000C9F8001001203866FFF7FAFC044606E0ED
:103730003EE000BFFFF7F4FC001B022809D8286810
:103740008001F7D534E000BFFFF7EAFC001B022838
:1037500002D90320BDE8F88F28688001F4D427E05F
:103760000128F7D0D9F80000E26900F48001914205
:103770001CD1226A00F03F01914217D147F6C07177
:10378000626A0140B1EB821F10D1A26A4FF0FF3391
:1037900000F4403103EB5202B1EB024F06D194F832
:1037A0002C1000F07060B0EB016F01D00120D1E768
:1037B0000020CFE70438024000004742800E474215
:1037C000007000400000FFFF10B5401EB0F1807F88
:1037D00001D3012010BD4FF0E02460610F2160177C
:1037E00002F0FAFD0020A06107202061002010BD3A
:1037F0007047704770B590F83C20012A32D0012400
:1038000080F83C40022280F83D2003685A689D6899
:1038100022F070060A6832435A60134B02689A42DB
:1038200014D0B2F1804F11D0104B9A420ED0104BF1
:103830009A420BD00F4B9A4208D00F4B9A4205D0B8
:103840000E4B9A4202D00E4B9A4204D1496825F0A1
:1038500080031943916080F83D40002180F83C10BE
:10386000084670BD022070BD000001400004004009
:1038700000080040000C00400004014000400140EE
:103880000018004010B5040003D094F83D0010B1BA
:1038900007E0012010BD002084F83C00204600F025
:1038A0001FF8022084F83D00211D206802F060FA14
:1038B000012084F8460084F83E0084F83F0084F834
:1038C000400084F8410084F8420084F8430084F802
:1038D000440084F8450084F83D00002010BD00003D
:1038E00070B586B0044614216846FCF76CFE214A88
:1038F000256800231F49103A02241F48B5F1804F64
:103900001ED01E4EB54219D10D6845F002050D605E
:10391000096801F002010591116841F0010111608F
:10392000116801F00101059140210091CDE90143A9
:10393000CDE90334694600BFFFF7E8FA06B070BD71
:103940000D6845F001050D60096801F00101059160
:10395000116841F001011160116801F00101059148
:1039600022210091CDE901430121CDE903316946CE
:10397000E2E700004038024000000240000400403E
:1039800090F83D10012901D001207047022180F8F4
:103990003D100168CA6842F00102CA60006811491E
:1039A000884214D0B0F1804F11D00F4988420ED018
:1039B0000E4988420BD00E49884208D00D498842F2
:1039C00005D00D49884202D00C49884204D1816853
:1039D00001F00701062903D0016841F001010160EF
:1039E0000020704700000140000400400008004033
:1039F000000C00400004014000400140001800405D
:103A00000168CA6822F00102CA6001680A6A41F2CC
:103A100011131A4207D10A6A9B101A4203D10A688D
:103A200022F001020A60012180F83D100020704759
:103A300070B5044690F83C000025012817D00126F7
:103A400084F83C60022084F83D002068826822F0FF
:103A5000770222F47F4282600868502838D00DDC5B
:103A600020284FD005DC90B3102811D14AE0022065
:103A700070BD302846D040280AD13BE060282FD0C6
:103A800070280DD0B0F5805F03D0B0F5005F12D084
:103A9000012584F83D60002084F83C00284670BD74
:103AA000CB68D1E90121206802F0C6F9206881685D
:103AB00041F0770109E0CB68D1E90121206802F0EB
:103AC000BBF92068816841F480418160E1E719E039
:103AD000CA684968206802F0C1F95021206806E0F0
:103AE000CA684968206802F00BFA6021206802F079
:103AF000ADF9CEE7CA684968206802F0AFF9402105
:103B00002068F4E7226801461046F0E770472DE987
:103B1000F041054690F83C0000260C46012810D0E4
:103B2000012085F83C0072B1042A1CD0082A2CD050
:103B30000C2A50D00126002085F83C003046BDE814
:103B4000F0810220FBE7D4E90012E368286802F064
:103B500097F92868816921F00C01816128688169E1
:103B6000A26811430FE0D4E90012E368286802F06C
:103B7000D9F92868816921F44061816128688169E7
:103B8000A26841EA02218161D5E72868D4E9002CC6
:103B9000277B016A21F480710162C169036A21F007
:103BA000030141EA0C0121F0F00C39074FF42067C2
:103BB0004CEA116123F4206307EA02221A43C1612F
:103BC00002622868C16921F00C01C1612868C169DD
:103BD000A268114328E02868D4E90027E168036A55
:103BE00023F480530362D0F81CC0036A2CF4407C99
:103BF0004CEA07274FF6FF7C27F470470CEA0131A7
:103C000039434FF4204723F4204307EA02321A4392
:103C1000C16102622868C16921F44061C1612868FC
:103C2000C169A26841EA0221C16184E710B50400BC
:103C300003D094F83D0010B107E0012010BD002032
:103C400084F83C00204600F01EF8022084F83D0075
:103C5000211D206802F08CF8012084F8460084F8C9
:103C60003E0084F83F0084F8400084F8410084F866
:103C7000420084F8430084F8440084F8450084F846
:103C80003D00002010BD704770B504460068016912
:103C90004FF00005C943890715D4C168C943890796
:103CA00011D4E91E01610120207720688069800716
:103CB000204602D0FFF72AFF04E000F098F82046E3
:103CC00000F096F8257720680169C943490717D4A1
:103CD000C168C943490713D46FF004010161022090
:103CE00020772068806910F4407F204602D0FFF7DB
:103CF0000DFF04E000F07BF8204600F079F825770E
:103D000020680169C943090716D4C168C943090776
:103D100012D46FF008010161042020772068C06987
:103D20008007204602D0FFF7F1FE04E000F05FF8C4
:103D3000204600F05DF8257720680169C943C9066F
:103D400017D4C168C943C90613D46FF010010161CB
:103D5000082020772068C06910F4407F204602D0F8
:103D6000FFF7D4FE04E000F042F8204600F040F8EF
:103D7000257720680169C943C90708D1C168C943CB
:103D8000C90704D1891E0161204600F033F820687C
:103D90000169C943090609D4C168C943090605D4A4
:103DA0006FF0800101612046FFF722FD2068016964
:103DB000C943490609D4C168C943490605D46FF00F
:103DC00040010161204600F07DF820680169C94387
:103DD00089060BD4C168C943890607D46FF0200156
:103DE00001612046BDE87040FFF703BD70BD70471C
:103DF000704700002DE9F04100682E490026012798
:103E00002D4C884239D1E17AA1B3218F91B3628FD1
:103E1000521C92B262878A422FD3668794F825009B
:103E200004F18005C8B179022448FFF76CF984F8E1
:103E3000256019E02862207B00280CD0A96A491C63
:103E4000A962686A002800DA4042884203DC01F077
:103E5000F1FE2673AE62BDE8F0814FF48071184820
:103E6000FFF751F984F82570E07F0028286A02D016
:103E7000401CDFE701E0401EDCE7B0F1804FEAD1F3
:103E800094F82700401CC0B284F8270094F8291049
:103E9000884203D384F8217084F8276094F82600C0
:103EA000401CC0B284F826003228D4D304F8207F06
:103EB000A671D0E70004004000000020001002407E
:103EC000000802407047704770470000F8B501686D
:103ED00004460868CA684B6910F00F0F4FF00005E0
:103EE00059D003F0010602F49077374365D0C1073B
:103EF00005D0D10503D5216C41F0010121644107B2
:103F000005D5D90703D0216C41F002012164810756
:103F100005D5D90703D0216C41F0040121640107C4
:103F200007D502F02001314303D0216C41F0080194
:103F30002164216C00293AD0800604D5900602D570
:103F4000204602F040F820684069216CC0F38010E0
:103F5000090700D460B3204602F00EF820684069DB
:103F6000400621D52068143050E8001F21F04001A0
:103F700040E80012002AF5D1A06BA8B16C49016598
:103F8000A06BFEF7EEFE002811D0A06B016D01B012
:103F9000BDE8F040084783060FD593060DD52046AF
:103FA000BDE8F84002F00FB82046FFF78DFFF8BDDE
:103FB0002046FFF789FF2564F8BD266B2023012EDC
:103FC00079D1C60677D5D60675D5086848680090B9
:103FD0004869400640D5A16B086840680004000CA1
:103FE000EAD0A28D8242E7D9E085C869B0F5807F2A
:103FF0002DD020680C3050E8001F21F4807140E87B
:104000000012002AF5D12068143050E8001F21F07A
:10401000010140E80012002AF5D12068143050E870
:10402000001F21F0400140E80012002AF5D184F879
:104030003E30256320680C3050E8001F21F010014D
:1040400040E80012002AF5D1A06BFEF741FEA08DDA
:10405000E18D401A81B229E0A08DE18D401A81B234
:10406000E08D0028A8D00029A6D020680C3050E8A8
:10407000002F22F4907240E80026002EF5D120682F
:10408000143050E8002F22F0010240E80026002EF4
:10409000F5D184F83E30256320680C3050E8002FBD
:1040A00022F0100240E80023002BF5D12046FFF754
:1040B0000AFFF8BDFFE705062BD5150629D594F8AC
:1040C0003D002128F5D1A068B0F5805F01D12069BD
:1040D000B0B1206A411C2162216800784860E08C00
:1040E000401E0004000CE084E3D12068C16821F088
:1040F0008001C1602068C16841F04001C160D8E71B
:10410000206A0088C0F308004860206A801C206292
:10411000E5E74006CDD55006CBD5CA68204622F04B
:104120004002CA6084F83D3000F097F9C1E7000012
:10413000695F000870B5040004D094F83D000025C4
:1041400010B106E0012070BD84F83C50204600F01C
:1041500023F8242084F83D002068C16821F4005130
:10416000C160204601F090FF2068016921F4904170
:1041700001612068416921F02A0141612068C1681C
:1041800041F40051C1602564202084F83D0084F88A
:104190003E00002070BD00002DE9F04186B00446CD
:1041A00014216846FCF70FFA3D49DFF8F0C0236898
:1041B00000243B4A10390225032608273948DFF836
:1041C000E880634529D1136843F4801313601268B3
:1041D00002F4801205920A6842F004020A600A683A
:1041E00002F0040205920A6842F008020A600968B7
:1041F00002AB01F0080105918114CDE9001583E8B7
:10420000D0006946FEF782FE0420CDE9000502AB2E
:10421000694683E8D00040461DE0DFF890C0634562
:104220001ED1106840F480201060106800F48020D7
:104230000590086840F0080008600868029400F0E3
:10424000080005904FF44070CDE900050720CDE946
:10425000036069464046FEF759FE06B0BDE8F081AE
:10426000134A9342F9D10E4A121D136843F02003FA
:104270001360126802F0200205920A6842F00402FC
:104280000A60096802AA01F004010591C021CDE984
:10429000001582E8D0006946DDE7000000500040CC
:1042A0004038024000080240000C02400048004034
:1042B0000014014090F83E30202B0ED159B152B17C
:1042C00090F83C30012B08D0012380F83C300023CB
:1042D000036301F05FBF01207047022070470000B8
:1042E0002DE9F041064600682A49002501272A4C9D
:1042F000884212D1A17D24290DD071B1274AE07ED8
:104300001154401CE0762548012204F1160144387E
:10431000FFF7D0FF01E0E5766770214930688842F9
:104320001CD1207F2178884203D3A770257125777F
:1043300000E018B9E07D012800D12771207968B12B
:10434000164A207F2832E17D1154401C2077124903
:10435000124801221731CC38FFF7ACFF1149306801
:10436000884215D1217E242907D041B10B4A607FB4
:1043700046321154401C607701E06577E770BDE874
:10438000F04105490548012218318838FFF792BFEE
:10439000BDE8F081001401400000002090020020E0
:1043A00000500040004800402DE9F843044690F8D2
:1043B0003D001F4616460D4620284CD1C5B1BEB162
:1043C00094F83C00012846D0012084F83C004FF0CE
:1043D0000008C4F84080212084F83D00FEF7A0FECC
:1043E000A6848146E684A068B0F5805F03D004E02F
:1043F0000120BDE8F883206928B12E465FF0000552
:1044000084F83C800EE00026FAE78021204601F087
:10441000DCFEA0B9AEB116F8010B21684860E08C53
:10442000401EE084E08C4B464FF0000200970028CD
:10443000EBD14FF04001204601F0C7FE30B1032020
:10444000D7E735F8020BC0F30800E6E7202084F830
:104450003D000020CDE70220CBE77047FEE70000DB
:104460002DE9F0411C4C002604F18005A27BD5E922
:104470000621E8680127511A814208DA84F822608F
:10448000E77784F82560FEF71DF901F08FFBA86936
:10449000E969401AE968884211DCA869E969401AAB
:1044A000E968884215D184F8227004F80A6F6675AD
:1044B000E776FEF707F9BDE8F04101F077BB84F835
:1044C0002260E67784F82570FEF7FCF801F06EFBB9
:1044D000E3E7BDE8F08100000000002010B52549A9
:1044E000254800F0CFF82348244990ED000A81EDDB
:1044F000130A90ED010ABCEEC00A10EE102A81F8F2
:104500002A2090ED020ABCEEC00A10EE102ACA87DB
:1045100090ED030ABCEEC00A10EE102A81F82920A3
:1045200090ED040A01F1800281ED1A0A90ED050A6E
:1045300081ED160A90ED060A81ED170A90ED070A43
:1045400082ED010A90ED080A81ED1B0A90ED090A3F
:1045500081ED1C0A90ED0A0A82ED0D0A90ED0B0A1E
:1045600082ED0E0A90ED0C0A82ED0F0ABDE81040B4
:10457000FDF744BE000100200000040800000020F8
:1045800010B500230121124A01280CD0022819D0AD
:1045900003281BD1917782F8233051725371BDE803
:1045A0001040FFF75DBF917751719372D1775372CD
:1045B00082F8233082F82530FEF784F8BDE81040F9
:1045C00001F0F4BA917782F82330E8E710BD0000DB
:1045D0000000002010B500224FF480610448FEF76F
:1045E0009AFD0022BDE8104020210248FEF793BD4D
:1045F000001002400008024010B501229102054857
:10460000FEF789FD0022BDE8104020210248FEF798
:1046100082BD0000001002400008024010B52DEDE0
:10462000048BB0EE609A00EE900AB0EE618AF0EE74
:10463000418AF8EEE00A20EE200A10EE100A03F09C
:1046400031FA9FED0E0B53EC102B02F035FF02F008
:10465000EDFB00EE100A30EE090AB4EEC80AF1EEE6
:1046600010FA01DBB0EE480AB4EEE80AF1EE10FAF7
:1046700001D8B0EE680ABDEC048B10BDFCA9F1D2E4
:104680004D62503F30B50D460E4999B04A7D69469E
:10469000FEF79CFA00240CA16846FBF74DFF0DE0E5
:1046A00001F026FF51EC100B02F0C0FB45F824008E
:1046B00005A10020FBF740FF641CE4B20028EFD105
:1046C00019B030BD000000202F0000002DE9F04F90
:1046D00087B014216846FBF776FF7D480024016807
:1046E00041F010010160016801F0100105910168BD
:1046F00041F004010160016801F0040105910168C5
:1047000041F080010160016801F0800105910168BC
:1047100041F001010160016801F0010105910168AA
:1047200041F002010160016801F002010591016898
:1047300041F0080101600068664E00F00800059035
:1047400000224AF213313046FEF7E5FCDFF888819B
:1047500000224FF4E1614046FEF7DDFCDFF87CB15A
:1047600049F60857002239465846FEF7D4FC012284
:1047700030214046FEF7CFFC002246F26501584842
:10478000FEF7C9FC012248F202015548FEF7C3FCBE
:1047900001224FF4B9413046FEF7BDFC4FF4806969
:1047A000012249464F48FEF7B6FC4FF4284A002242
:1047B00051464C48FEF7AFFC6C20CDE90004694639
:1047C00030460294FEF7A2FB4FF69370009001254D
:1047D000CDE90154694630460394FEF797FB42F257
:1047E0000700CDE90004694640460294FEF78EFBBF
:1047F0004FF4E7600090CDE90154694640460394C8
:10480000FEF784FB01A902200326009581E85100F0
:104810000820049069465846FEF778FB4FF425704F
:10482000CDE90004694658460294FEF76FFB0097F5
:10483000CDE90154694658460394FEF767FB4EF2F2
:1048400067000090CDE90154694625480394FEF7BE
:104850005DFBB0021227CDE9000702AA4FF0040861
:1048600082E8600169461E48FEF750FB41F21820BD
:10487000CDE9000469461A480294FEF747FB11206F
:10488000CDF80090CDE90104694616480394FEF77F
:104890003DFBCDF800A0CDE90154694611480394D1
:1048A000FEF734FB45F28300CDE9000469460D486C
:1048B0000294FEF72BFBF001CDE9000702AA69463E
:1048C00082E860010648FEF721FB07B0BDE8F08FE3
:1048D0003038024000100240000802400000024050
:1048E00000040240000C024010B58AB000242448A5
:1048F00004940594069407940894099400940194F0
:1049000002944FF08041039401600A21C0E9011430
:1049100042F2D001C0E9031480218161FEF7B2FFA9
:1049200000B1FEE74FF48050049004A91448FFF74B
:104930007FF800B1FEE71248FFF778F900B1FEE713
:104940002020CDE9080408A90D48FEF753FF00B167
:10495000FEE70120CDE900400294002269460848A4
:104960000394FFF7D4F800B1FEE704226946044837
:10497000FFF7CDF8002800D0FEE70AB010BD000018
:104980003401002010B586B000241548009401942D
:104990000294039404941149059401600121C0E933
:1049A0000114A821C0E903148461FEF76BFF00B174
:1049B000FEE74FF48050009069460948FFF738F849
:1049C00000B1FEE7049404A905480594FEF712FF20
:1049D000002800D0FEE706B010BD00000004004033
:1049E0007C010020FEE770472DE9F041344C06467B
:1049F0002DED068B30EE608AA4F18000904694ED98
:104A00000D0A94ED13AAD4ED0E0A60EE088A38EE72
:104A10000A0A90F829700D4660EE200A00EE107A1E
:104A2000B8EE400A20EE800A10EE100A03F03AF8C1
:104A30009FED241B53EC112B02F03EFD41EC190BB2
:104A4000206C03F02FF853EC192B02F021FA02F03E
:104A5000EDF900EE100A78EE4A0A84ED100A94EDA2
:104A60000F1A38EE800A20EE811A00EE907AF8EEE6
:104A7000601AC1EE210A30EE200A00EE906AF8EECC
:104A8000E00AB4EEE00AF1EE10FA03D800EE106A84
:104A9000B8EEC00A00EE905AF8EEE00AB4EEE00A72
:104AA000F1EE10FA03DB00EE105AB8EEC00AB8F1CE
:104AB000000F01D1B1EE400ABDEC068BBDE8F081DC
:104AC00080000020000000000000E03F7047000070
:104AD0002DE9F04F2DED028B0126FB48FB4F84465C
:104AE00090ED000AA7F18004DCED010ABDEEC00ADA
:104AF0009CED022ABDEEE01A10EE108ABCEEC28ACE
:104B0000FCEEE01AA07B94F80890618EA37CA27F53
:104B100000259CED030AA9B04FF07E5AB8F1310F81
:104B200071D2DFE808F0702A3943717DA4B2C370F6
:104B300070FEFDFCFBFAF9F8F770F670707070709B
:104B400070F5F470F3F2F1F0EFEE1EEDECEB70EABD
:104B5000E9E819CBE7E6E50011EE100A30B1FDF700
:104B600025FB29B0BDEC028BBDE8F08FFDF7DCFE24
:104B7000E57265716572E673F3E711EE101A0129AB
:104B8000EFD110B101F02EF842E001F053F801F03E
:104B900039F82574257327E211EE100A012801D097
:104BA0002572DEE72672FDF795FDDAE711EE102A91
:104BB000012A12D05FEA090222D000EE101AB8EEE4
:104BC000400AFDF731FC208784F8255084F81F60E7
:104BD00000F0ECFFFDF776FDC3E784F824605FEAA0
:104BE00009020AD000EE101AB8EE400AFDF71CFCCC
:104BF000208784F82560E577EAE7FFF7FDFCB0E75A
:104C0000FFF7E8FCADE7D4E211EE100A012802D06C
:104C100000F0F8FFA5E71846FFF7B2FCE573A0E740
:104C20005FEA09010DD011EE101A89B200EE101AD8
:104C30006186B8EE400AFDF7F7FB2087628EA4A1DB
:104C40006DE211EE100A60B1F2EE048A20EE280A3D
:104C500001F0DEFCF0EE400A80EEA80A84ED1A0AAC
:104C6000CBE1BCEEC00A10EE100A81B2D0E111EE29
:104C7000100A012803D0A57184F8285071E7A671A5
:104C800005210C2000F096FE6BE700F0EFFE4FF4DC
:104C90007A70FEF779F800F0E9FE8FA125A8FBF7FE
:104CA00071FBC2B26276642325A9D3E111EE100A2A
:104CB000012801D0E57154E7E67152E78849894837
:104CC000FFF7E0FC86490868E064039091ED010A73
:104CD000BCEEC00A10EE100AC0B284F82A0002909E
:104CE00091ED020ABCEEC00A10EE100A82B219E081
:104CF00051E243E23FE231E223E215E2FAE1EEE182
:104D0000DCE1C9E1B9E1A9E191E188E16FE167E1A5
:104D10005AE13EE131E12DE1C9E0B9E0D2E09BE0AA
:104D200085E075E0E287019291ED030ABCEEC00ACE
:104D300010EE100AC3B284F8293000930869A06607
:104D400004904869A06505908869E0650690C86987
:104D500078608346086AE0668246486A20678D6A02
:104D60007D63CE6A8146BE63086BF86302F09AFEEB
:104D700007468846304602F095FECDE90E012846EA
:104D800002F090FE05460E46484602F08BFECDE945
:104D90000C01504602F086FECDE90A01584602F0A9
:104DA00081FE81468A46069802F07CFECDE9080124
:104DB000059802F077FECDE90601049802F072FE34
:104DC000CDE90401039802F06DFECDE9147841ECC1
:104DD000100BDDE90E01CDE91056CDE91201DDE938
:104DE0000C01CDE90E01DDE90A01CDE90A9ACDE910
:104DF0000C01009B02980293009053EC102B3AA1F7
:104E000016A8FBF7BFFAC2B26276C82316A921E141
:104E1000002A57D1C4ED130AFDF7F0F9E06C02F057
:104E200041FE41EC100B40A153EC102B0DE0002A89
:104E3000EFD1C4ED1A0AFDF7E1F9A06E02F032FEDF
:104E400041EC100B3BA153EC102B6846FBF79AFA90
:104E5000C2B26276C823FCE0002ADAD111EE900AD1
:104E6000C5B284F82A50284602F0D6FA9FED341BCA
:104E700053EC112B02F020FB9FED331B53EC112B55
:104E800002F0C2F801F0D2FF2A4631A1606546E186
:104E9000002ABED1C4ED160AFDF7B0F9A06D02F0EC
:104EA00001FE41EC100B2CA153EC102BCDE7002A96
:104EB000AFD111EE900AC0B284F82900142851D85D
:104EC000142052E02FE10000300300208000002079
:104ED0006A252E646500000072372F3165000000DE
:104EE000000100200000040870252E32662F256482
:104EF0002F25642F25642F252E31662F252E32660F
:104F00002F252E32662F252E31662F252E32662F25
:104F1000252E32662F252E33662F252E34662F251B
:104F20002E346665000000007231312F252E326666
:104F3000650000007231322F252E316665000000B9
:104F40009A9999999999B93F00000000000008408A
:104F50007231332F256465007231352F252E33666B
:104F600065000000642802D3642084F82900C2B2DE
:104F700093A1D4E0FEF774F9F3E510EE901A92488D
:104F8000514501D1012200E000221021FEF7C3F8B3
:104F9000E7E5002A8CD1BDEEC20A10EE902A87ED1B
:104FA000090ABD62524503D1E67784F8255002E034
:104FB000E57784F8256000EE101A2673B8EE400AF3
:104FC000FDF732FA208703E6002AE3D110EE900ABB
:104FD000504501D1E67400E0E574E27C7BA19EE0DF
:104FE000002AD7D100F026FE84F82450B9E5002A23
:104FF000D0D110EE900A504506D118EE100A0121CA
:1050000080B201F03FF9ACE5BDEEC00A10EE101A17
:1050100018EE100A012280B201F07EF9A1E5002A03
:10502000B8D111EE900A6BA1C2B2A274BDE0002A01
:1050300079D1C7ED010AFDF7E1F8786802F032FD99
:1050400041EC100B65A153EC102B33E0C2B2627639
:10505000642369466448FFF7A7F982E5002A62D114
:10506000C4ED1B0AFDF7CAF8E06E02F01BFD41EC2F
:10507000100B5EA153EC102B1CE0002A53D1C4EDA1
:10508000170AFDF7BBF8E06D02F00CFD41EC100BC8
:1050900059A153EC102B0DE0002A44D1C4ED1C0A99
:1050A000FDF7ACF8206F02F0FDFC41EC100B55A1B0
:1050B00053EC102B6846FBF765F9C7E79ABB11EE76
:1050C000900A4FF4FA6180B2E087884203D942F235
:1050D0001071884200D3E187E28F4DA11FE012BB1F
:1050E00004F8106FE57366752675FDF7EBFA00F0AE
:1050F0005DFD36E5BAB910EE900A504505D1A673AC
:105100001D2020704FF4005004E0A5731120207082
:105110004FF48060A086FFF7E1F9A27B3EA16846CC
:10512000FBF730F994E631E082BBC7ED0D0A10EED3
:10513000900A02F0B7FC41EC100B39A153EC102B94
:10514000B8E71ABBC7ED0E0A10EE900A02F0AAFCEF
:1051500041EC100B35A153EC102BABE7B2B9C7ED06
:105160000F0A10EE900A02F09DFC41EC100B32A1E8
:1051700053EC102B9EE7B869F861F2E432B9F5EE12
:10518000C00AF1EE10FA02D1657401E013E0667412
:10519000627C2CA109E072B910EE900A504501D151
:1051A000267500E02575227D28A16846FBF7EAF800
:1051B0004CE7002A9DD01846FFF7E2F9D1E4000041
:1051C0007231362F25646500000802406732372FA0
:1051D000256465006D256465000000007233322F80
:1051E000252E3166650000004C0200207233332FFB
:1051F000252E3266650000007233342F252E32666C
:10520000650000007233352F252E326665000000E0
:105210007233372F256465006733392F25646500A5
:105220007234312F252E3366650000007234322F20
:10523000252E3466650000007234332F252E346627
:10524000650000006734372F256465006734382F08
:10525000256465002DE9F047FF4C2DED088B94F88F
:10526000230020B10120BDEC088BBDE8F087607AF7
:1052700061794FF0010788436FF00109F2EE048A6B
:105280004FF000069FEDF58AF34D05F1800554D0EF
:1052900094F82200B0B3A27A9FEDF19B9FEDF2ABA0
:1052A000ED4991F82900898D084480B2A085804697
:1052B0004AB3206F02F0F6FB53EC192B01F0E8FD26
:1052C00001F0B4FD95ED121A01EE900AB2EE000A5B
:1052D000F0EE410A4046FFF7A1F984ED110A607C27
:1052E00000287DD0B4F8420094ED1E0A404200EE42
:1052F000900A20EE280AF0EE481AB8EEE01AD5ED32
:105300000C0ACFE000E019E0E07FE968FDF7D6F88D
:105310000028A8D0E08F00F0A3FF0028A3D084F8D5
:105320002270E677A67294ED110A85ED120A84F8D0
:105330002570FDF7C7F900F039FCD7E0E06E02F008
:10534000B1FB53EC192B02F0EBF901F06FFDD5ED39
:10535000121A01EE100ABAEE000AF0EE610A404697
:10536000FFF75CF984ED110A607CB0EE409AD8B189
:10537000E06C02F097FB41EC1B0B19EE100A02F0F7
:1053800091FB53EC1A2B01F083FD9FEDB91B53ECFD
:10539000112B02F091F853EC1B2B01F035FE01F0BC
:1053A00045FD00EE100A22E0012202214846D5ED1B
:1053B000110AB0EE490AFFF717FBD4ED110A30EEDF
:1053C000C00A10EE100A02F06DFB53EC1A2B01F02C
:1053D0005FFD01F02BFD00EE100A85ED150A00E0DF
:1053E0003BE060EE280A94ED131A80EE810AB4F8CF
:1053F0004200F0EE480A404201EE100AF0EE601A58
:10540000A08DB8EEC11AFFF709F9B5EEC00A85ED17
:105410000B0AF1EE10FA04D0A07BFDF705F8208707
:1054200001E000F007FC95ED140AD5ED020A30EE1C
:10543000600AD5ED010AB0EEC00AB4EEE00AF1EE62
:1054400010FA53DBA68595ED0B0A85ED0C0AA772C1
:1054500094ED110A85ED120A48E001220221484626
:10546000D5ED110AFFF7C0FAD4ED110A30EE200A8B
:1054700010EE100A02F016FB53EC1A2B01F008FD97
:1054800001F0D4FC00EE100AF0EE481A85ED150A82
:1054900060EE280A94ED131A80EE810A95ED0C1A3D
:1054A000F0EE410AA08DFFF7B9F8B5EEC00A85ED20
:1054B0000B0AF1EE10FA04D0A07BFCF7B5FF2087B1
:1054C00001E000F0B7FB6C49286D884206DB95EDE2
:1054D0000B0AB5EEC00AF1EE10FA07DBA68594EDD3
:1054E000110A012085ED120AFFF74AF86079617A06
:1054F000884370D0A07A9FED619B0028A08D94F81E
:105500002910084427D080B2A0858046E06D02F0C3
:10551000C9FA53EC192B02F003F901F087FC60641F
:1055200094ED190AFAEE040AD5ED0C1A20EE200AC1
:10553000B0EE481AF0EE610A4046FFF76FF8B5EE9C
:10554000C00A85ED0B0AF1EE10FA7CD0A07BFCF7C7
:105550006BFF208798E0A085A06D02F0A3FA53ECC2
:10556000192B01F095FC41EC1A0BA86C02F09AFA89
:1055700053EC1A2B02F09EF8A06D10D802F092FAAC
:1055800053EC192B01F084FC01F050FCD5ED121AFC
:1055900001EE100AB9EE080AF0EE610A0FE002F01F
:1055A00081FA53EC192B01F073FC01F03FFC95EDEF
:1055B000121A01EE900AB1EE080AF0EE410AA08D2F
:1055C000FFF72CF884ED110A607C28B194ED180ADD
:1055D00020EE280A13E03DE0012202214846D5EDE5
:1055E000110AFFF701FAD4ED160A30EE200A85ED14
:1055F000150A60EE280A94ED131A80EE810AB4F8B9
:10560000400000EE900AA08DF8EE601AF0EE480A15
:10561000B0EE601AFFF702F8B5EEC00A85ED0B0A8E
:10562000F1EE10FA03D0A07BFCF7FEFE208795ED8B
:10563000140AD4ED1A0AB4EEE00AF1EE10FA3ADBDD
:10564000A685A77200E01DE095ED0B0A85ED0C0A1A
:1056500000F0F6F92FE0000000000020000000003C
:1056600033333333333323C0333333333333234090
:105670000000000000002440CDCC4C3E9A9999993E
:10568000999923C000F0D6FA95ED0B0AB5EEC00A41
:10569000F1EE10FA0FD8A68585ED0B8A00F0D0F94F
:1056A0009FED060A84ED110A6671A67200F0C2FA37
:1056B00084F82370D6E50020D5E500009A9919C139
:1056C0002DE9F05F8B4C2DED048B94F8230020B175
:1056D0000120BDEC048BBDE8F09F864D94F82200BC
:1056E0004FF000094FF0010A803598B3A27A9FED80
:1056F000829B80486FF0080B90F82910838D90F8FA
:105700001180B0F8420019448EB247429FED7C8A66
:10571000DAB3206F02F0C6F953EC192B01F0B8FB95
:1057200001F084FB00EE100A304684ED110AA685D4
:10573000F2EE048AB8F1000F76D000EE907A94ED84
:105740001E0AF0EE481AB8EEE01A20EE280AD5ED4F
:105750000C0AA2E0FFE70120E968FCF7AFFE002891
:10576000B7D0E08F00F07CFD0028B2D084F822A0F2
:1057700084F81F9004F80A9F4D4684F81BA0FCF79C
:10578000A1FF00F013FA6584B1E0FFE7E06E02F0DC
:1057900089F953EC192B01F0C3FF01F047FB00EE30
:1057A000100A304684ED110AA685FAEE048AB8F193
:1057B000000F0CD094ED1D0A01EE107AF0EE480AAD
:1057C00020EE280AF0EE601AB8EEC11A1EE001229F
:1057D00009215846D5ED110AFFF706F9D4ED1B0A49
:1057E00030EEC00A85ED150A60EE280A94ED131A12
:1057F000B4F8420080EE810A404201EE100AF0EE59
:10580000480AA08DF0EE601AB8EEC11AFEF706FF46
:10581000B5EEC00A85ED0B0AF1EE10FA05D0A07BBB
:10582000FCF702FE208702E019E000F003FA95ED94
:10583000140AD5ED020A30EE600AD5ED010AB0EE89
:10584000C00AB4EEE00AF1EE10FA50DBA4F82C9096
:1058500084F80AA095ED0B0A85ED0C0A47E00122B9
:1058600009215846D5ED110AFFF7BEF8D4ED1C0A00
:1058700030EE200A85ED150A60EE280A94ED131A21
:10588000B4F8400080EE810A00EE900AA08DF8EE98
:10589000601AF0EE480AB0EE601AFEF7BFFEB5EEF1
:1058A000C00A85ED0B0AF1EE10FA04D0A07BFCF7DC
:1058B000BBFD208701E000F0BDF995ED0B0AB5EEC8
:1058C000C00AF1EE10FA12DBA4F82C90494685EDDF
:1058D0000B8A00F0B5F89FED0B0A84ED110AA17256
:1058E00084F8221000F0A6F984F823A0F0E6002046
:1058F000EFE60000000000209A999999999923C039
:1059000000000000CDCC1CC12DE9F041244F002443
:1059100080213846FDF7F2FB00B10124214E4021E1
:105920003046FDF7EBFB08B144F002040421304699
:10593000FDF7E4FB08B144F004041B4D02212846A6
:10594000FDF7DCFB00B101201849087008B144F0F4
:10595000080408213046FDF7D1FB08B144F01004DB
:1059600001212846FDF7CAFB08B144F020041021AC
:105970003846FDF7C3FB08B144F040040421284633
:10598000FDF7BCFB08B144F0800408210848FDF78E
:10599000B5FB08B144F480742046BDE8F0810000F6
:1059A0000000024000100240000802400D000020EC
:1059B000000402407CB501228DF8002003228DF8FE
:1059C0000120020A8DF802208DF8030000208DF8D6
:1059D00004008DF805104FF6FF7000216C464AF266
:1059E0000103625C50400822C5074FEA500000D016
:1059F0005840521EF8D1491C0629F2DB8DF80600EA
:105A0000000A0C4C8DF8070001212046FDF783FBAE
:105A1000C823082269460848FEF7C6FC0122114641
:105A20002046FDF778FB012204490348FEF742FCBB
:105A30007CBD000000100240C401002017000020BF
:105A400007489FED060A80ED100A80ED130A9FEDCE
:105A5000050A803880ED110A704700000000000040
:105A6000800000209A9919C1704700002DE9F04785
:105A7000DFF8F490AAB0D9F83C0002F013F807461A
:105A80008846D9F8380002F00DF805460E46D9F8D8
:105A9000340002F007F8A9F18004CDE90A01206F73
:105AA00002F000F8CDE90801E06E01F0FBFFCDE95E
:105AB0000601D9F8040001F0F5FFCDE90401E06D1D
:105AC00001F0F0FFCDE90201A06D01F0EBFFCDE99F
:105AD0000001A06E01F0E6FF81468A46E06C01F00D
