:020000040800F2
:10000000E80800205502000897420008F93E000861
:1000100095420008B5210008655000080000000066
:10002000000000000000000000000000454900083A
:10003000B72100080000000099420008854A000826
:100040006F0200086F0200086F0200086F020008CC
:100050006F0200086F0200086F0200086F020008BC
:100060006F0200086F0200086F0200086F020008AC
:100070006F0200086F0200086F0200086F0200089C
:100080006F0200086F0200086F0200086F0200088C
:100090006F0200086F0200086F0200086F0200087C
:1000A0006F0200086F0200086F0200086F0200086C
:1000B0006D4B0008794B00086F0200086F020008C2
:1000C0006F0200086F0200086F0200086F0200084C
:1000D0006F0200086F0200086F0200086F0200083C
:1000E0006F0200086F0200086F0200086F0200082C
:1000F0006F0200086F0200086F0200086F0200081C
:100100006F0200086F0200086F0200086F0200080B
:100110006F020008714D00086F0200086F020008AE
:100120006F0200086F0200086F0200086F020008EB
:100130006F0200086F0200086F0200086F020008DB
:100140006F0200086F0200086F0200086F020008CB
:100150006F0200086F0200086F0200085950000883
:100160006F0200086F0200086F0200086F020008AB
:100170006F0200086F0200086F0200080000000014
:100180006F0200086F02000800F002F800F052F859
:100190000AA090E8000C82448344AAF10107DA45E2
:1001A00001D100F047F8AFF2090EBAE80F0013F0E2
:1001B000010F18BFFB1A43F0010318474C650000FC
:1001C0006C650000103A24BF78C878C1FAD852078D
:1001D00024BF30C830C144BF04680C6070470000C1
:1001E0000023002400250026103A28BF78C1FBD840
:1001F000520728BF30C148BF0B607047662906F020
:10020000AC81642900F0D480002070471FB506F04F
:1002100066F900F0E5FC04000020002105F0C0FABA
:10022000401C60600020002105F0A4FAE0601FBDC2
:1002300010B510BD00F01EFE1146FFF7E7FF05F0F8
:10024000C9F901F0C1F803B4FFF7F2FF03BC01F0F4
:1002500005F900000948804709480047FEE7FEE726
:10026000FEE7FEE7FEE7FEE7FEE7FEE7FEE7FEE766
:1002700004480549054A064B70470000194B000821
:1002800089010008E8020020E8080020E8040020B6
:10029000E804002053EA020C00F069802DE9F04BDD
:1002A0004FF00006002B1FBFB3FA83F503FA05F4E5
:1002B00024FA05F65E4012BF1643B2FA82F502FA3E
:1002C00005F4C5F120051EBF22FA05FC44EA0C0422
:1002D000203556EA044C4FEA144418BF641C4FF012
:1002E00000084FF00009904271EB030C39D300294C
:1002F00019BFB1FA81F701FA07F6B0FA80F700FAF0
:1003000007F6C7F120071EBF20FA07FC46EA0C06D5
:100310002037B6FBF4FCA7EB0507103F07F01F0BD7
:10032000CBF120060CFA0BFB2CFA06F644BFB346C1
:100330000026202FA4BF5E464FF0000B5BEA060CA0
:1003400008BF4FF0010B19EB0B09ABFB027C48EB2C
:100350000608C01B06FB02CC0BFB03CC71EB0C01A7
:10036000C1E70B46024641464846BDE8F08B13B54F
:100370004FF000004FF00001AFF30080BDE81C40DB
:10038000704700000FB41CB5084B06AA7B446946B1
:100390000090059800F097FB04460020694600F0A5
:1003A000A5FB20461CBC5DF814FB00005D070000A7
:1003B0002DE9F0410646002410687529314616A53E
:1003C00010D0AFF30080002802DA404213A507E006
:1003D00031688A0701D512A502E0490704D511A5A5
:1003E000012401E0AFF3008000210A2206F1240776
:1003F00009E0B0FBF2FCB0FBF2F302FB1C00303072
:1004000078541846491C0028F3D123462A46304622
:10041000BDE8F04100F0EAB8000000002D00000047
:100420002B000000200000002DE9F0474FF0000AEB
:1004300089460446C0F820A02046E1688847002885
:1004400076D0252806D0D4E901219047206A401CA7
:100450002062F1E7E168204600258847C4F81CA027
:1004600006460027C4F818A02A2E09D0304605F009
:1004700062F838B304EB8708303EC8F8186019E01A
:1004800059F8041B204604EB87029161E168884714
:10049000012F064618D1E069002820DA25F0200552
:1004A0001DE0D8F8180000EB800006EB4000303863
:1004B000C8F818002046E1688847064605F03BF872
:1004C0000028EED1012F0AD02E2E08D12046E16857
:1004D00088477F1C0646022F45F02005C4DBA06933
:1004E000002803DA404245F00105A061E80701D089
:1004F00025F01005B6B1A6F14100192802D8203622
:1005000045F400654A463146204625604D46FFF7D2
:1005100075FE58B1012806D0ED1D25F0070000F149
:10052000080989E704E005F1040985E730468AE710
:10053000206ABDE8F0870000014A00F02FBB0000F0
:100540007800002010B5431C02E010F8011B71B1C7
:100550008107FAD14FF0013202C88C1A8C4314EA99
:10056000C211F9D0C01A0A0603D0C01E10BDC01AAD
:1005700010BD0A0401D0801E10BD0902FCD0401E2F
:1005800010BD4FF0000200B5134694469646203940
:1005900022BFA0E80C50A0E80C50B1F12001BFF43C
:1005A000F7AF090728BFA0E80C5048BF0CC05DF8A2
:1005B00004EB890028BF40F8042B08BF704748BFF0
:1005C00020F8022B11F0804F18BF00F8012B704764
:1005D00070477047704710B500F006FB006810BD0B
:1005E00010B5044600F000FB046010BD2DE9F04793
:1005F0000D4699469246044600F124080168880693
:1006000004D5E06921F01001216000E00120A8423A
:1006100001DD471B00E00027A1697A1902EB090000
:10062000081AA0612078C00602D42046AFF30080EB
:10063000002608E0D4E901211AF806009047206A54
:10064000401C761C20624E45F4DB2078C0060AD59B
:100650002046AFF3008006E0D4E901213020904726
:10066000206A401C2062381EA7F10107F4DC07E075
:10067000D4E9012118F805009047206A401C206247
:10068000281EA5F10105F3DC2046AFF30080207899
:10069000000602D50220BDE8F0870120FBE7704785
:1006A0002DE9FF4F0C461E464FF0FF378BB0D2E9C5
:1006B0000001DDF860800A908A46C1F30A5505B949
:1006C0003D46002108464FF00000BAF1000F00F44B
:1006D000400005DA00EB80004FF4400101EA5000D1
:1006E0004FEA9059B9F1010F00DDB9460A9850EA76
:1006F0004A000ED044F61050A5F2FF3545432F14A2
:10070000B8F1000F1ED07542291E1EDDC9F100028E
:100710001CE0B8F1010F4FF0000001D0302103E0E0
:10072000F24305E02154401CB042FBDB304600227E
:10073000002121540B99C1F80880C1E900200FB0B5
:10074000BDE8F08FBD1B6D1CDEE74A4600DA69424A
:1007500006A800F0FBFA06AB93E8070003AB83E8BA
:10076000070050460A9901F0CBF88DE80700A0F584
:1007700000501F3800900398002D0ADD42F21F013F
:100780004A460844002303A90390684601F076FB1B
:1007900009E0A0F500504A461F38002303A9039042
:1007A000684601F095FB8DE807000004000C03D0BB
:1007B0004FF0FF30410800E01046B8F1000F03D0C1
:1007C0000022009215461EE0751E05D400F010FAB6
:1007D000303262556D1EF9D5B3460122084302D06E
:1007E00000227F1C04E02078302801D100227F1EE7
:1007F000002A099784D01DE0112D07DA00F0F8F9DE
:10080000303262556D1C50EA0102F5D1084302D026
:100810000098C8B10EE00021681E05E0235C625C10
:1008200063542254401E491C8142F7DBAB46A81B8F
:10083000401E0990002004F80B000B98099AC0F89C
:100840000880C0E9002B7AE711264FF0000857E72F
:100850002DE9F04F88460446D21D22F0070191B0E1
:10086000D1E90001CDE90A0104F07CFC02460B98B5
:10087000C00F01D02D2007E02068810701D52B2073
:1008800002E0202101EAC000032A099001D0072AD2
:1008900005DB03464146204600F0F8F90BE12078DD
:1008A000800601D5E06900E00620B8F1650F8146B9
:1008B00006D0B8F1660F18D0B8F1670F70D131E0EB
:1008C0000020B9F1110F009001DB112301E009F1C3
:1008D00001030AAA01A90CA8FFF7E2FEDDE90C70EA
:1008E000002609F10105834647E001204B460090B0
:1008F0004FF000470AAA01A90CA8FFF7D1FEDDE9D5
:100900000DB00C995D46002610B909F101000D18D3
:10091000B9EB050003D4C0F1FF3609F10105A5EBE1
:1009200009002BE0B9F1010F01DA4FF001090020B5
:10093000B9F1110F0090484601DD112300E0034694
:100940000AAA01A90CA8FFF7ABFEDDE90C704D4621
:1009500000268346207800070AD4AB4500DA5D46BE
:1009600001A8012D04DD411911F8011C302907D01F
:100970004F4502DA17F1040F04DA012082460FE036
:100980006D1EEEE7002F02DCED1B3E4403E0781CF9
:10099000A84200DD7D1CB81B00F1010A4FF00047A2
:1009A0002078000703D4AA4501DB4FF0FF3A00216D
:1009B000B7F1004F0DF143088DF8431024D0022009
:1009C0002B23002F01DA7F422D230A21021EA0F1E2
:1009D000010000DC5FB197FBF1FC97FBF1F201FB3A
:1009E0001C7C17460CF1300C08F801CDEEE7A8F19D
:1009F000010003702188090501D5452100E065212A
:100A0000A0F1010800F8011C09980FA9A1EB080743
:100A1000FF1D00B10120411901EBEA70A1693844C2
:100A2000081A401EA0612078C00602D42046AFF309
:100A30000080099828B1D4E901219047206A401C20
:100A400020622078C00622D52046AFF300801EE049
:100A5000002E04DBB34502DD01A8805D00E03020FC
:100A6000D4E901219047206A401C2062761CAAF13B
:100A700001005FEA000A0AD100F0B2F8C06801681C
:100A8000405CD4E901219047206A401C2062281E66
:100A9000A5F10105DCDC07E0D4E9012118F8010B20
:100AA0009047206A401C2062381EA7F10107F3DC42
:100AB0002046AFF30080032011B041E601694A1CD3
:100AC00002610878704700B58FB0CDE9013100218F
:100AD000059105497944CDE9031011466846FFF7B1
:100AE000A3FC0FB000BD0000E5FFFFFF0A6802F89D
:100AF000010B0A60704700000FB4002300B589B0F5
:100B00000CA900910B99CB60214B7B440693214BA0
:100B10007B44079304236FF00042CDE901321E4A63
:100B20007A446B4608920246002005F078FD09B031
:100B30005DF814FB70B506464FF0FF3015460C46C5
:100B4000324686B00091CDE901016946002004904B
:100B500004A8FFF7D1FF02460498211825B108B177
:100B6000084600E020462860049800280DD0002A9E
:100B700002DD0098884208D03246081B694600947E
:100B8000CDE9010404A8FFF7B7FF06B070BD00006F
:100B9000FF01000017020000570100002DE9F0419D
:100BA00015460E46040002D12C6804B90BA4204659
:100BB00000F04EF90444207870B12746314638469B
:100BC00000F036F90444207810B1002004F8010B3D
:100BD00038462C60BDE8F0810027F9E700000000EE
:100BE00000487047A402002000487047840200209B
:100BF00030B5B0F10A024FEA900E71F100034EEAEF
:100C0000817EB0EB0E0061EB91014FEA101E4EEABF
:100C1000017E10EB0E0041EB11114FEA102E4EEA4F
:100C2000016E10EB0E0041EB11214FEA104E4EEA1F
:100C3000014E10EB0E0041EB1141401841F1000153
:100C40004FEAD00040EA41704FEAD10110EB800535
:100C50004FEA810444EA907444EB01046D1944EBBB
:100C60000404521BA3414FF0000348BF0A3200D5D1
:100C700030BD401C41F1000130BD10B5044600F00C
:100C80001FF90068005D00F0010010BD2DE9F04182
:100C90001F46044603260168072A01F4006004DBAE
:100CA00008B116A505E016A503E008B115A500E0FA
:100CB00015A521F010002060A069C01EA0610FB131
:100CC000401EA0612046AFF300804FB1D4E901215E
:100CD00038469047206A401C2062C01C206206E013
:100CE000206AFAE7D4E9012115F8010B9047761E36
:100CF000F8D22046AFF30080BDE8F0814E414E00AF
:100D00006E616E00494E4600696E6600426842B1EF
:100D1000016811F8013B23B1521EC0E900121846C8
:100D200070470121C160881E704742685AB1C3688C
:100D3000016843B983688B4205D0491E521CC0E943
:100D40000012002070474FF0FF3070472DE9F04748
:100D5000814616468AB0354878440DC88DE80D00A6
:100D600032487844801C03AC0DC884E80D0041F67D
:100D70009B300844372190FBF1F290FBF1F5A5F18F
:100D8000800501FB12041B3C02D56442012000E0F7
:100D90000020DFF898A080460027FA44AAF1BE0A96
:100DA0000EE0E0070AD03246684607EB4701012310
:100DB0000AEB810101F08CF88DE8070064107F1CBC
:100DC000002CEED1194F7F44AE3F19E0E80715D053
:100DD00007EB04100DF1180A90E80E008AE80E00E7
:100DE000C068F04201D1981908903246012306A943
:100DF00003A801F06DF803AB83E807006D10641CD5
:100E0000002DE3D14FF0010332466946B8F1000FDF
:100E100003A802D001F032F801E001F059F8C9E965
:100E20000001C9F808200AB0BDE8F0879459000015
:100E300030B503461D781DB10A4603E0AC4201D12E
:100E4000181A30BD12F8014B002CF7D15B1CF1E7EA
:100E500030B503461D783DB10A4612F8014B1CB16E
:100E6000AC42FAD15B1CF5E7181A30BD0048704758
:100E7000840200207546FFF7F9FFAE46050069467B
:100E8000534620F00700854618B020B5FFF7F0F96B
:100E9000BDE820404FF000064FF000074FF000087B
:100EA0004FF0000B21F00701AC46ACE8C009ACE8FC
:100EB000C009ACE8C009ACE8C0098D467047000025
:100EC00010B5FFF78DFE001D10BD00BFD548000016
:100ED0002DE9FF4F06468BB00878FF2806D0491C45
:100EE0002D2805D000244FF0000908E000200CE078
:100EF0000124F8E709EB8903491C00EB4309087852
:100F0000FF28F7D114B1C9F10000814610780025FF
:100F10002C46AA4629462D2801D02B2804D1521C44
:100F20002D2813D0002082468B461078FF280FD042
:100F30004FF0000C0A21521CA5FB017804FB018133
:100F400005FB0C11C5194BEB0104EEE70120EAE7A4
:100F5000002108464FF00000BAF1000F02D000EB6C
:100F600080004008C0F38157012F01DD4FF0FF37AB
:100F70000E9955EA040009EB01080BD04FF0020965
:100F800018F5FA7F16DA4FEACA70002F706008DD94
:100F9000012007E04FEACA70C6E900B00FB0BDE813
:100FA000F08F00203060FFF71FFEC0F8009018217E
:100FB000084616E0B8F5FA7F18DD002F02DAF74888
:100FC000784401E0F6487844D0E90010C6E9001002
:100FD00040EACA707060FFF707FEC0F80090142165
:100FE00008460FB0BDE8F04F05F0B4BA002108463E
:100FF0004FF00000B8F10001099002DAC7F10002D9
:1010000000E03A4601DAC8F1000106A8FFF79EFEAB
:1010100006AB93E8070003AB83E8070044F23E0009
:101020005BEA04010090584604D144F21E012C46AC
:101030005D460091210C0904014306D10099240466
:1010400044EA15442D041039009104F07F41014316
:1010500006D10099240244EA15642D020839009152
:1010600004F07041014306D10099240144EA15744B
:101070002D01091F009104F04041014306D1009960
:10108000A40044EA9574AD00891E009104F000416B
:10109000084304D100986D196441401E00904FF040
:1010A00001033A466846B8F1000FCDE9014503A9AE
:1010B00002DD00F022FF01E000F0F5FEBAF1000FC2
:1010C00004460D4601D084F00044002108464FF04C
:1010D0000000099940F2FF77484010F00C0F07D14B
:1010E00024F00040284303D0C4F30A50B84212D180
:1010F000FFF77AFDC0F80090C4F30A50B8420AD155
:10110000A8487844D0E90010C6E9001004F0004176
:101110000843706042E7C6E900543FE72DE9FF4FFE
:101120001F464FF0000A4FF0FF38454691B0D7E90F
:101130000146CDF83CA0FFF753FDC0680168405C54
:101140001090B96912986D1C8847396A81468847A2
:101150000028F6D1B9F1FF3F0AD0002E24F4D06464
:1011600011DDB9F12B0F08D0B9F12D0F0BD102E031
:10117000404615B013E744F48064B96912986D1CB9
:101180008847761E8146600504A901D52D2000E020
:101190002B20002E01F1010B0DF130088DF810000D
:1011A0003FDDB9F1690F08D0B9F1490F05D0B9F1A8
:1011B0006E0F02D0B9F14E0F1CD13B4601A800952D
:1011C00080E85002DDE912126FF0020005F02BFA00
:1011D000C11CCED10EE0B96912986D1C88478146BA
:1011E0001398761E44F4007405600F98401C002E7E
:1011F0000F9016DDB9F1300FEDD0B9F1780F02D0B4
:10120000B9F1580F0DD10F9801280AD13B46CDE90D
:101210000054DDE91212001F029605F002FAC11C0B
:10122000A7D1109989453ED144F0800406E0139976
:10123000681CAAF1010A44F400740860B9696D1CC5
:101240001298761E884730288146F0D02BE01099FE
:10125000894505D1200603D4761E44F0800418E0A9
:10126000484604F068F908B3761E0DF123018B455A
:1012700044F4007408D2A9F130000BF8010B2006E9
:1012800007D5AAF1010003E0200602D40AF101000B
:101290008246A00502D51399681C0860B9691298A6
:1012A0006D1C88478146002ED1DC53E0002E51DDB5
:1012B000B9F1650F02D0B9F1450F4BD1A00549D561
:1012C000B9696D1C1298761E24F440748847002E6C
:1012D00081460CDD2B2804D0B9F12D0F07D144F441
:1012E0008074B96912986D1C8847761E8146E005A6
:1012F00001D52D2100E02B2108F8011BCDF800803D
:1013000021E0761E0DF13901884544F400740CD2B9
:10131000A9F1300010F0FF0088F8000002D1009918
:10132000884509D908F1010806E0E00501D51E4805
:1013300001E042F20F708246B96912986D1C88472D
:10134000814613980560002E04DD484604F0F3F84A
:101350000028D6D1F96912988847FF2053468BF8A8
:10136000000088F8000000200A900B9004AA0CA945
:101370000AA8FFF7ADFDA00502D46FF00100F8E662
:1013800014F0240F12D0E0071CD13868DDE90A12EE
:10139000031D3B600068C0E9001213E06C570000B9
:1013A0005E57000022560000F1D8FFFF0AA96846E8
:1013B00004F0AEF8E00705D13868009A011D3960E5
:1013C000006802602846D4E610B50446AFF30080FA
:1013D0002046BDE81040FEF736BF00004FF0013C4C
:1013E00050F8042B51F8043B9A4221D1A2EB0C0394
:1013F000934313EACC1317D150F8042B51F8043B54
:101400009A4215D1A2EB0C03934313EACC130BD1F0
:1014100050F8042B51F8043B9A4209D1A2EB0C037B
:10142000934313EACC13DBD04FF00000704700BFAA
:10143000D01A01BAB1FA81F101F0180122FA01F0D3
:10144000CB40C1F12001DBB2C0B2C01A2CFA01F3CB
:10145000D11A914311EAC311E6D17047014918200E
:10146000ABBEFEE7260002002DE9FF4F1F464FF0FE
:101470003C0987B04FF00042DDE9141001F101088A
:10148000DDF858A002EA4050039000200590834602
:10149000054604460490B969461E08988847AAF193
:1014A000010A0290BAF1000F3BDD02982E2815D0F8
:1014B000102100F017FA00282EDB4FF0010B0599E0
:1014C000014317D0B9F1000F0BDB4A46C11700F0FA
:1014D000F6F905430C43A9F1040905E00120049045
:1014E0000BE008B145F0010501200590049820B9F2
:1014F000361D02E0049800B1361FB969089808F15A
:1015000001088847BBF1000FAAF1010A0290C9D077
:101510000999C1F80080C5E70298702808D05028C2
:1015200006D0F96908988847BBF1000F14D04FE046
:10153000002002900120BBF1000F049009D0B9698E
:10154000089808F101088847AAF10109B9F1000FCC
:1015500007DCF969089888476FF001000BB0BDE817
:10156000F08F2B2804D02D280CD14FF0FF300490A1
:10157000B969089808F101088847A9F10109B9F18A
:10158000000FE6DD411CE4D00A2100F0ABF9002891
:10159000DFDB029908F1010801EB810100EB41005A
:1015A0000290B969089888470A2100F09BF9099AC6
:1015B000A9F10109B9F1000FC2F8008001DD00288E
:1015C000E7DAF969089888470499029800FB0166F0
:1015D00055EA040004D004F04041090002D006E0BE
:1015E000039898E0A40044EA9574AD00B61E04F098
:1015F0000041080002D16D196441761E159810F063
:10160000240F03D04FF00B095C4803E04FF028098A
:101610006FF07D008246564507DAAAEB0601894441
:10162000B9F1410F01DD4FF0410901200021A9F17D
:10163000010200F044F9024628400B4621400843CD
:1016400001D0012100E00021501E029143F1FF3141
:1016500028402140084301D0012000E000200299E9
:10166000834651EA0B014FD0002108464FF000009D
:10167000039900F4400039B100EB80004FF44001C1
:1016800000EBD07001EA60008015012802DD4FF008
:10169000FF3000E013D0401C36D0029860B3BBF19D
:1016A000000F0CD14A460120002100F008F9284023
:1016B0002140084301D0012000E00020E0B10120DA
:1016C0004A46002100F0FBF8034640190A466141F2
:1016D0002D1A8C4111D3B9F1400F09DD159810F086
:1016E000240F02D0AAF1340603E0AAF1170600E0A5
:1016F000761C00254FF0004406E05B1E42F1FF32ED
:1017000020EA030521EA0204CAF10100B04206DA28
:101710001B49039808430190002000900EE0039AB3
:10172000C4F3D321E80A0A43164940EA44500A4365
:101730003146CDE90002684603F0F3FE159810F03B
:10174000240F0BD01598C00715D13868DDE90012B9
:10175000031D3B600068C0E900120CE002A8694666
:1017600003F0D6FE1598C00705D13868029A011D0E
:101770003960006802604046F0E6000002FCFFFFAE
:101780000000F07F0000F03F2DE9FF4F92461D461C
:1017900085B04FF00041DDE9124BDDE914727F1E88
:1017A00001EA4B50414940F0FF4940EA010800215D
:1017B00022F020004928049102D04E2828D04CE085
:1017C0003BA0012607C88DE80700A9690698641C9C
:1017D00088477F1E014606D41DF8060018B121F087
:1017E000200181420BD0E96906988847032E34D046
:1017F000082E32D06FF0010009B0BDE8F08F761CE2
:10180000032E01D0082EE0D1601CCAF80000DCE7EE
:10181000A9690698641C88477F1E2AD420F02000FE
:10182000412826D1A9690698641C88477F1E20D4C8
:1018300020F020004E281CD1A9690698641C884716
:101840007F1E48F4002849F48009CAF8004001D4FA
:10185000282806D0E969069888475FEACB7012D03D
:1018600022E0A9690698641C88477F1E01D40028DD
:1018700003DAE96906988847BCE72928F1D1641C96
:10188000CAF80040E9E71BF0240F07D02868049944
:10189000031D2B600068C0E9001805E02868021DE0
:1018A0002A600068C0F800902046A5E70000F07F9D
:1018B000494E46494E495459000000007047B2F164
:1018C00020030AD5C2F1200301FA02F120FA03F342
:1018D00000FA02F041EA0301704700FA03F14FF009
:1018E000000070473A2800D2303820F02002412A08
:1018F00001D3A2F13700884201D34FF0FF30704787
:101900005FEA400C08BF91F0000F4FEA8C234FEACA
:10191000C12243EA51514FEA1C5018BF00F5F04074
:101920004FEA300018BF41F000415FEA6C5C00F004
:101930002980BCF1FF3F08BF40F080407047130C86
:1019400006BF12044FF0100C4FF0000C130E04BF32
:1019500012020CF1080C130F04BF12010CF1040C5D
:10196000930F04BF92000CF1020CD30F04BF52007E
:101970000CF1010C11464FF00002A0F11F00A0EB8A
:101980000C00704711F0004F08BF704731F0004164
:101990003FF4D5AF0B0C06BF09044FF0100C4FF00D
:1019A000000C0B0E04BF09020CF1080C0B0F04BF56
:1019B00009010CF1040C8B0F04BF89000CF1020C1F
:1019C000CB0F04BF49000CF1010CCCF12003A0EBBC
:1019D0000C0022FA03F302FA0CF241EA030100F1CF
:1019E0000100704720F07F4C80EA030023F07F471E
:1019F000ACEB070303F57C5300F0004003F1FF0359
:101A00002DE980494FEA154B09B44FEA144325EA02
:101A10000B4E24EA03480FF2042606EB132749086D
:101A20003E785FEA320203FB0667C7F5000707FB53
:101A300006F64FEA54374FEAD64606F1020607FB90
:101A4000066CCCF1005C4FEA1C472CEA074C07FB04
:101A500006F40CFB06F504EB15464FEA961634BF68
:101A600000204FF000404FEAD13706FB07FC4FEA59
:101A70001C4C0CFB0BF7D21B03FB0CF761EB0701B3
:101A80000CFB0EF7B0EB074072EB17420CFB08F7AC
:101A900034BFA2EB0742B2EB074261EB17414FEABA
:101AA0000C444FEA910706FB07FC4FEA1C4C0CFB69
:101AB0000BF7B0EBC74072EB573203FB0CF734BFA8
:101AC000A2EBC742B2EBC74261EB57310CFB0EF7FA
:101AD000B0EBC70072EB57720CFB08F734BFA2EBF8
:101AE000C702B2EBC70261EB5771039F4FEA8161F6
:101AF00041EA921104EBCC044FEAD1374FEA8262FB
:101B000006FB07FC42EA90124FEA80604FEA1C4C49
:101B10000CFB0BF7D21B03FB0CF761EB07010CFB73
:101B20000EF7B0EB074072EB17420CFB08F734BF1F
:101B3000A2EB0742B2EB074261EB17414FEA8C552B
:101B40004FEA910704EB9C2406FB07FC4FEA1C4C70
:101B50000CFB0BF7B0EBC74072EB573203FB0CF7F3
:101B600034BFA2EBC742B2EBC74261EB57310CFB6B
:101B70000EF7B0EBC70072EB57720CFB08F734BFDF
:101B8000A2EBC702B2EBC70261EB577115EB4C2514
:101B90004FEA816141EA92114FEA82624FEAD137FE
:101BA00042EA901206FB07FC44F100044FEA806011
:101BB0004FEA1C4C0CFB0BF7D21B03FB0CF761EB41
:101BC00007010CFB0EF7B0EB074072EB17420CFB62
:101BD00008F734BFA2EB0742B2EB074261EB1741B3
:101BE00015EB1C154FEA813141EA92414FEA8232EE
:101BF00042EA90424FEA80304FEA0C7644F100040A
:101C000048EA03434EEA0B484FF0000EB2EB080CD3
:101C100071EB030724BF624639464EEB0E0E4FF0C0
:101C2000000B0018524149414BEB0B0BB2EB080C77
:101C300071EB03077BF1000B24BF624639464EEB84
:101C40000E0E4FF0000B0018524149414BEB0B0BAD
:101C5000B2EB080C71EB03077BF1000B24BF62466B
:101C600039464EEB0E0E51EA020718BF46F0010648
:101C700016EB0E7655F1000254F1000103D5BDE8D4
:101C80008901BDE80088BDE88901BDE80048B619B2
:101C9000524141EB0101A3F10103704780807F7E37
:101CA0007D7C7B7A797877767675747372717170D2
:101CB0006F6E6E6D6C6C6B6A6A6968686766666584
:101CC0006464636362616160605F5F5E5E5D5D5C12
:101CD0005C5B5B5A5A595958585757565655555583
:101CE0005454535352525251515050504F4F4F4EE3
:101CF0004E4D4D4D4C4C4C4B4B4B4A4A4A49494931
:101D00004848484747474746464645454544444472
:101D100044434343434242424241414146EA06462C
:101D2000A3F570534FEA164646EA42564FEAD222CE
:101D300042EA415210B54FEAD121A3F1010300F06C
:101D40002FF820F0004000F1020C00F0004701EBFA
:101D500000501146BCF5006F40EA070000D210BDEC
:101D6000BAF1000F0AD01CB503B44FF004004FF0D5
:101D700004014FF000000FBCBDE810404FF000011F
:101D8000BBF1010FB9BF04484FF0FF3103480021F8
:101D900040EA070010BD00BFFFFFEF7F0000F07FAB
:101DA000002B9C4630D477002BD01CB54FEA370768
:101DB00003B44FF010004FF01001BAF1000F06D03D
:101DC000BCF1000FDCBF40F0080040F008014FF00C
:101DD00000000FBCBDE810400BF1010BBBF1010F7F
:101DE00008BF5FEA170722BF12F1010211F10101DA
:101DF0004FF0004143F1000300F0004043EA0000CF
:101E00007047F9D35708D0E746EA064613F1400F6A
:101E10004FEA16461FDD13F1200FDFBF16430A46B7
:101E2000002120335B42BED0C3F1200746EA0646BC
:101E300002FA07F74FEA164646EA0706C3F12007FB
:101E400022FA03F201FA07F721FA03F14FF0000337
:101E500042EA0702A7E746EA020646EA06464FEAD2
:101E6000164646EA0106BCBF46EA0646360C4FF067
:101E700000034FF000024FF0000194E72DE9804C81
:101E80009A46934670B491E8380007C831EA400C8E
:101E900048BF34EA430C03D5FFF7A4FDFFF780FFEA
:101EA000F0BCBDE8008C2DE9804C9A46934670B496
:101EB00091E8380007C831EA400C48BF34EA430CC7
:101EC00003D5FFF78FFDFFF729FFF0BCBDE8008CBD
:101ED0002DE9804C9A46934670B491E8380007C8C3
:101EE00010F0804F08BF13F0804F03D100F01AF8B4
:101EF000FFF756FFF0BCBDE8008C2DE9804C9A46F8
:101F0000934670B491E8380007C810F0804F08BFBE
:101F100013F0804F03D100F005F8FFF7FFFEF0BC8F
:101F2000BDE8008C20F07F4780EA030023F07F4C5F
:101F300007EB0C03A3F57C5300F00040A3F1FE0374
:101F400092F0000F00F0B38095F0000F00F0778062
:101F50002DE901494FEA11404FEA144621EA0048B1
:101F600000FB06FC24EA064708FB06F607FB08F818
:101F700000FB07F718EB06484CEB164C4FEA124BE8
:101F800018EB07484FEA15464CEB174022EA0B4E78
:101F90000BFB06FC25EA06470EFB06F607FB0EFECA
:101FA0000BFB07F71EEB064E4CEB164C4FF00006F2
:101FB0001EEB074E4CEB174B18EB0B0840F10000E3
:101FC00018EB0E0B58EB000840F100008F1A4FF091
:101FD00000013CBFC943661B14BFB5EB040C0021D4
:101FE0003CBFC943F61B4FEA17444EEA8E0E27EA60
:101FF00004454FEA1C4704FB07622CEA074C05FB2B
:1020000007F70CFB05F604FB0CFC16EB074642EB4E
:10201000174216EB0C4642EB1C421BEB060658EB34
:102020000202414146EA9E0601D5BDE80189B61982
:10203000524141EB0101A3F10103BDE801894FEADF
:1020400014454FEA114724EA054621EA074C05FBEF
:1020500007F406FB07F70CFB06F105FB0CFC11EB84
:10206000074144EB17444FEA124711EB0C4144EB94
:102070001C4422EA074C05FB07F206FB07F70CFBA2
:1020800006F605FB0CFC16EB074642EB174216EB77
:102090000C4642EB1C456A1854F1000148BF7047DA
:1020A000B619524141EB0101A3F10103704795F0CC
:1020B000000F37D04FEA11424FEA144721EA024697
:1020C00024EA074C02FB07F106FB07F70CFB06F4BA
:1020D00002FB0CFC14EB074441EB17414FEA154798
:1020E00014EB0C4441EB1C4125EA074C02FB07F5BD
:1020F00006FB07F70CFB06F602FB0CFC16EB07468B
:1021000045EB174516EB0C4645EB1C42121951F1F5
:10211000000148BF7047B619524141EB0101A3F1DC
:10212000010370474FEA14454FEA114724EA054678
:1021300021EA074C05FB07F106FB07F70CFB06F24B
:102140004FF0000605FB0CFC12EB074241EB174178
:1021500012EB0C4251EB1C4148BF7047921841EB07
:102160000101A3F10103704710B5104C0122114683
:10217000204600F0C0FC00220221204600F0BBFCFB
:10218000142000F0F1FA01220221204600F0B3FCF5
:10219000074C01222021204600F0ADFC2046002201
:1021A000BDE81040102100F0A6BC00000004024071
:1021B00000080240FEE7704770B5194C00224FF44A
:1021C0008061204600F097FC00228021204600F02C
:1021D00092FCA51400222946204600F08CFC012226
:1021E000D102204600F087FC01229103204600F036
:1021F00082FC002201210B4800F07DFC002210210E
:10220000094800F078FC00222946084800F073FCD9
:102210000022A115204600F06EFC012070BD0000D8
:10222000001002400004024000080240000002408A
:1022300000220121014800F05EBC000000040240C1
:1022400070B520211B48FEF79CF91A482821483810
:10225000FEF797F90021174C0846483CA4F13C02D0
:10226000135C13B16354491CC9B2401CC0B2282886
:10227000F6D31048002410A14838FEF75DF90D4D43
:102280000EE000BF03F014F851EC100B03F09EFABF
:1022900045F8240008A10020FEF74EF9641CE4B2C2
:1022A0000028EFD1BDE87040024828218438FEF7AD
:1022B00068B90000440200202F000000002229B16C
:1022C00001291AD002291BD04FF440720E490B6825
:1022D00023F440730B600B6813430B600A6822F011
:1022E000F8020A600A68022303EBC00002430A6096
:1022F000086840F48030086070474FF48072E5E76A
:102300004FF40072E2E70000103C024013480168FD
:1023100089050FD5016821F400710160016841F45D
:1023200000610160016821F400610160016841F40D
:1023300000710160016849050FD5016821F48061D1
:102340000160016841F480510160016821F480510D
:102350000160016841F4806101607047003C024007
:1023600008490A6822F440720A600A6842F00402CE
:102370000A600A684FF4803343EA002002430A608F
:1023800070470000103C0240064A136823F4407373
:10239000136013681360136843F001031360017046
:1023A00070470000103C0240094910B50C6824F445
:1023B00040740C600C6844F440740C600C6844F089
:1023C00001040C600260BFF36F8F436010BD00001A
:1023D000103C0240074A136823F4407313601368EB
:1023E00043F480731360136843F0010313600180AA
:1023F00070470000103C0240074A136823F4407302
:102400001360136843F400731360136843F001030F
:102410001360016070470000103C024017490868D3
:10242000C206174805D5C26942F01002C2611022E7
:102430000A600A68920605D5C26942F00802C261C4
:1024400020220A600A68520605D5C26942F00402D9
:10245000C26140220A600A68120605D5C26942F0CC
:102460000202C26180220A600A68920705D5C26929
:1024700042F02002C2610220086070470C3C02401A
:102480006402002070B5114904460020C86100F0C4
:1024900037FB06460E4D09E0601C07D024B100F062
:1024A0002FFB801BA04201D9032070BD2868C00308
:1024B000F2D42868C00701D001202860286810F0F5
:1024C000F200F2D0FFF7AAFF012070BD64020020E5
:1024D0000C3C024070B5314C00252DED028B208B59
:1024E000E17D9FED2F8B084480B220832146227A24
:1024F000D1ED130A91ED0C0A8E8C6AB3B0EE001A7E
:1025000060EE810A80EE801A00EE100AB8EE400AF2
:1025100021EE000A10EE100A03F070FF53EC182BA6
:1025200003F082FC41EC180B304603F02EFC53EC18
:10253000182B03F079FE03F049F900EE100AB5EE0E
:10254000C00AF1EE10FA04D825839FED170AA57092
:102550002572BDEC028B70BD80EE801A00EE100A71
:10256000B8EE400A21EE000A10EE100A03F046FF12
:1025700053EC182B03F058FC03F028F900EE906A96
:1025800000EE100AF8EE600AB4EEE00AF1EE10FA7E
:10259000DFDB012020722583DBE700000000002044
:1025A0003BDF4F8D976E823F0000000008C8521E2F
:1025B00008C192B2FAD270472DE9F843174688460F
:1025C0000546002400F07CF9284600F02BF806466A
:1025D00005EB870000F026F8014611480022891B10
:1025E00002600222491C8660C0E90312694600F0BD
:1025F000CDF848B90EE000BF58F824200023294642
:10260000022000F01FF918B100F00CF9BDE8F883C2
:10261000641C2D1DBC42EFDB00F00AF90020F5E739
:102620007C0000200021A0F1006343F6FF7293427A
:102630002BD3174B0344934201D2012125E0154BC4
:102640000344934201D202211FE0134B03449342FF
:1026500001D2032119E0114A4FF6FF7302449A4256
:1026600001D2042111E00E4A83180E4A934201D28E
:1026700005210AE00C4B0344934201D2062104E0F9
:102680000A4B1844904200D20721084670470000C8
:1026900000C0FFF70080FFF70040FFF70000FFF7E2
:1026A0000000FEF7FFFF01000000FCF70000FAF752
:1026B0002DE9F0410446876D00F022FA064694F8B1
:1026C00035000025022806D08020606584F834504B
:1026D0000120BDE8F0812068016821F01601016049
:1026E0002068416921F080014161206C08B9A06C2B
:1026F00020B12068016821F00801016020680168AC
:1027000021F0010101600CE000F0FAF9801B0528BE
:1027100007D920206065032084F8350084F8345000
:10272000D7E720680068C007EED194F85C103F201E
:102730008840B860012084F8350084F834500020C7
:10274000C7E790F83510022903D0802141650120A8
:102750007047052180F835100068016821F00101FB
:10276000016000207047000070B5044600F0C8F911
:102770000546601C02D004480078044400F0C0F90B
:10278000401BA042FAD370BD680000202DE9F0473D
:10279000044622480F46017E01290AD001218046C5
:1027A00001764CF250394846FFF76CFE020003D028
:1027B0002FE00220BDE8F0874FF0FF30386020683E
:1027C000174D012801D0A6681CE0207C6168FFF746
:1027D000C7FD4846FFF756FE0246286820F0040071
:1027E000286014E0217C3046FFF768FD4846FFF77B
:1027F00049FE0200286820F0FA00286001D03E60FF
:1028000005E0761CD4E902100844B042EAD8FFF78C
:102810007DFD002188F818101046CBE764020020E7
:10282000103C02400148C06970470000640200206B
:102830000348016841F0004101600020704700003A
:10284000103C02402DE9F0471B4E05461446307EF1
:102850001F468946012808D0012030764CF25038B6
:102860004046FFF70FFE18B114E00220BDE8F087E4
:102870009DB1012D16D0022D19D022463B46484667
:10288000FFF792FD4046FFF7FDFD0C490A6822F074
:1028900001020A6000213176E8E7E1B24846FFF71D
:1028A00073FDEFE7A1B24846FFF794FDEAE7214642
:1028B0004846FFF7A1FDE5E764020020103C024016
:1028C000074900200A68002A09DA054A054B0C3A34
:1028D0001360054B13600968002900DA0120704776
:1028E000103C024023016745AB89EFCD2DE9F84F3D
:1028F000DFF8BCA1002201250AF1040B03264FF0EA
:102900000F090BF1040E00BF0B6805FA02F4234017
:10291000A34270D10F7907F00307012F01D0022FD6
:1029200016D187684FEA420806FA08FC27EA0C0726
:10293000D1F80CC00CFA08FC4CEA070CC0F808C02F
:102940004768A7430C79C4F3001494403C434460A7
:102950000C79E443A4070AD0C4684FEA420C06FA93
:102960000CF7BC438F6807FA0CF72743C7600C7954
:1029700004F00304022C12D1D40800EB840CDCF820
:1029800020405707FF0E09FA07F824EA0804D1F897
:10299000108008FA07F848EA0408CCF82080046898
:1029A0004FEA420C06FA0CF7BC430F7907F0030715
:1029B00007FA0CF7274307604C6814F4403F70D0C7
:1029C0003C4C276847F480472760246822F00307BF
:1029D00004F480440094384C07EB040CDCF80848FD
:1029E00097074FEA177809FA08F7BC43334FB84204
:1029F00002D1002724E054E0314FB84201D1012731
:102A00001EE0304FB84201D1022719E02E4FB842E4
:102A100001D1032714E02D4FB84201D104270FE064
:102A20002B4FB84201D105270AE02A4FB84201D105
:102A3000062705E0284FB84201D1072700E0082704
:102A400007FA08F72743CCF80878DAF80040574629
:102A5000D1F804C09C435FEACC3C00D51C433C60E9
:102A6000DBF800405F46D1F804C09C435FEA8C3C31
:102A700000D51C433C60DEF800407746D1F804C026
:102A80009C435FEACC2C00D51C433C60084F0C37BC
:102A90003C68D1F804C09C435FEA8C2C00D51C43F1
:102AA0003C60521C102AFFF42FAFBDE8F88F0000E5
:102AB000003C014044380240003001400000024028
:102AC0000004024000080240000C024000100240D6
:102AD0000014024000180240001C02400069084037
:102AE00000D001207047426921EA02030A4043EA0C
:102AF0000241816170470AB1816170470904FBE7B7
:102B00000148806870470000680000200248816822
:102B10000278114481607047680000200B4810B5AE
:102B2000016841F400710160016841F48061016055
:102B3000016841F480710160032000F06FF800200B
:102B400000F006F800F024F8002010BD003C024020
:102B500070B50D4D04464FF47A712878B1FBF0F052
:102B60000A490968B1FBF0F000F01EFB48B9102CCF
:102B700007D200222146501E00F030F800206C6081
:102B800070BD012070BD00006800002074000020AE
:102B90000A4808B5016841F480410160006800F40A
:102BA000804000900548001F016841F0805101609D
:102BB000006800F08050009008BD000044380240DA
:102BC000002809DB00F01F0201219140400980002C
:102BD00000F1E020C0F8001170470000F0B40E4B87
:102BE0001B680C46C3F30223C3F10705042D00D96B
:102BF0000425191D072901D2002300E0DB1E012650
:102C000006FA05F1491E214099409E40761E164065
:102C10003143F0BC02F0BEBA0CED00E0064900F012
:102C2000070208684FF6FF03184040EA0220034AF3
:102C300010430860704700000CED00E00000FA054A
:102C4000BFF34F8F05480168054A01F4E061114365
:102C50000160BFF34F8F00BFFDE700000CED00E007
:102C60000400FA052DE9F0470E46050065D0DFF8AF
:102C70001481D8F80000F7B200F00700B04207D284
:102C800088F80070D8F8000000F00700B04254D176
:102C900028683D4C810712D5400703D5206840F4D1
:102CA000E05020602878000703D5206840F4604099
:102CB00020602068A96820F0F00008432060287890
:102CC000C0072DD0304968680839012812D0022881
:102CD00013D0032811D00968890700292DDA21684B
:102CE00021F0030101432160FFF70AFF814641F211
:102CF000883A0EE009688903EFE709688901ECE783
:102D0000FFF7FEFEA0EB0901514502D90320BDE803
:102D1000F0872068696800F00C00B0EB810FEFD1FC
:102D2000D8F80010404601F00701B14207D90770FA
:102D3000006800F00700B04201D00120E7E72878E2
:102D4000400705D52068E96820F4E050084320607A
:102D50002878000706D52068296920F4604040EAF9
:102D6000C100206000F038F82168084AC1F303115F
:102D7000515CC8400649086006480068FFF7E8FE55
:102D80000020C4E7003C0240083802405A660008B0
:102D9000740000206C0000200448054900680968A0
:102DA000044AC1F38221515CC8407047740000207E
:102DB000083802406A660008044805490068096846
:102DC000044AC1F34231515CC8407047740000208E
:102DD000083802406A660008154810B5006810F00F
:102DE0000C02144813D01449042A0FD0082A0ED11B
:102DF0000F4C241F2268236802F03F025B0207D5B4
:102E00002068C0F38810A0FB010106E0084610BD51
:102E10002168C1F38811A1FB00010023FDF73AFAF4
:102E20002168C1F30141491C4900B0FBF1F010BD1C
:102E3000083802400024F400001BB7002DE9F84FC9
:102E400004006ED02078DFF84C93C007A9F1040588
:102E50004AD009F104000168C1F38101012908D0B9
:102E60000068C0F3810002280AD1D9F800004002AE
:102E700006D52868800337D560680028E1D033E0A4
:102E80006068B0F5803F10D0B0F5A02F286810D052
:102E900020F480302860286820F480202860606852
:102EA000A8B1FFF72DFE06460DE0286840F48030FB
:102EB000F4E740F480202860F7E700BFFFF720FE2A
:102EC000801B642873D828688003F7D50CE0FFF7CF
:102ED00017FE064605E000BFFFF712FE801B6428C0
:102EE000F0D828688003F7D42078DFF8AC82800718
:102EF0004FF0000A3ED5A748001D016811F00C0FE5
:102F000008D00068C0F3810002280BD1D9F8000076
:102F1000400207D42868800716D5E068012800D150
:102F200012E033E1E068B8B10120C8F80000FFF713
:102F3000E7FD064605E000BFFFF7E2FD801B022823
:102F4000C0D828688007F7D52868216920F0F800E4
:102F500040EAC10028600DE0C8F800A0FFF7D0FDEE
:102F6000064604E0FFF7CCFD801B02281FD8286826
:102F70008007F7D42078000722D5864F87486169FB
:102F8000703771B101210160FFF7BAFD064604E018
:102F9000FFF7B6FD801B022809D838688007F7D5EF
:102FA0000EE0C0F800A0FFF7ABFD064605E082E0AA
:102FB000FFF7A6FD801B02287DD838688007F7D46C
:102FC0002078400768D5DFF8CCB100270BF13C0B27
:102FD000DBF80000C0000BD4DBF8001041F080519A
:102FE000CBF80010DBF80000012700F080500090C3
:102FF0006B4E3068C00510D4306840F4807030608B
:10300000FFF77EFD009005E0FFF77AFD0099401A7A
:10301000022850D83068C005F6D55E4EA0686C36E0
:1030200001280FD00528306810D020F00100306052
:10303000306820F004003060A068B8B1FFF760FD90
:1030400000900FE0306840F00100F4E740F0040029
:103050003060F7E7FFF754FD0099411A41F28830DC
:10306000814266D830688007F4D50EE0FFF748FD4E
:10307000009007E0FFF744FD0099411A41F28830C3
:10308000814256D830688007F4D42FB1DBF80010A5
:1030900021F08051CBF80010A069C8B33D49091D4B
:1030A0000968C1F3810102294AD00228504607D09D
:1030B000C8F8600000E03CE0FFF722FD04463BE07A
:1030C0004746C8F86000FFF71BFD064605E000BF55
:1030D000FFF716FD801B02282BD828688001F7D443
:1030E000D4E907010843A16A2E4A490802EB0141CD
:1030F000626A41EA8211084394F82C1040EA0161A7
:10310000C9F8001001203866FFF7FAFC044606E013
:103110003EE000BFFFF7F4FC001B022809D8286836
:103120008001F7D534E000BFFFF7EAFC001B02285E
:1031300002D90320BDE8F88F28688001F4D427E085
:103140000128F7D0D9F80000E26900F4800191422B
:103150001CD1226A00F03F01914217D147F6C0719D
:10316000626A0140B1EB821F10D1A26A4FF0FF33B7
:1031700000F4403103EB5202B1EB024F06D194F858
:103180002C1000F07060B0EB016F01D00120D1E78E
:103190000020CFE70438024000004742800E47423B
:1031A000007000400000FFFF10B5401EB0F1807FAE
:1031B00001D3012010BD4FF0E02460610F216017A2
:1031C00001F0E8FF0020A06107202061002010BD71
:1031D0007047704770B590F83C20012A32D0012426
:1031E00080F83C40022280F83D2003685A689D68C0
:1031F00022F070060A6832435A60134B02689A4202
:1032000014D0B2F1804F11D0104B9A420ED0104B17
:103210009A420BD00F4B9A4208D00F4B9A4205D0DE
:103220000E4B9A4202D00E4B9A4204D1496825F0C7
:1032300080031943916080F83D40002180F83C10E4
:10324000084670BD022070BD00000140000400402F
:1032500000080040000C0040000401400040014014
:103260000018004010B5040003D094F83D0010B1E0
:1032700007E0012010BD002084F83C00204600F04B
:103280001FF8022084F83D00211D206801F07AFC1F
:10329000012084F8460084F83E0084F83F0084F85A
:1032A000400084F8410084F8420084F8430084F828
:1032B000440084F8450084F83D00002010BD000063
:1032C00070B586B0044614216846FDF75AF9254AC0
:1032D000256800232349103A02242348B5F1804F82
:1032E00025D0224EB54220D10D6845F002050D6073
:1032F000096801F002010591116841F001011160B6
:10330000116801F00101059140210091CDE90143CF
:10331000CDE903346946FFF7E9FA002211461D2082
:10332000FFF75CFC1D20FFF74BFC06B070BD0D687D
:1033300045F001050D60096801F001010591116872
:1033400041F001011160116801F001010591222194
:103350000091CDE901430121CDE903316946FFF731
:10336000C5FAE2E740380240000002400004004095
:1033700090F83D10012901D001207047022180F80A
:103380003D100168CA6842F00102CA600068114934
:10339000884214D0B0F1804F11D00F4988420ED02E
:1033A0000E4988420BD00E49884208D00D49884208
:1033B00005D00D49884202D00C49884204D1816869
:1033C00001F00701062903D0016841F00101016005
:1033D0000020704700000140000400400008004049
:1033E000000C004000040140004001400018004073
:1033F00070B5044690F83C000025012817D001263E
:1034000084F83C60022084F83D002068826822F045
:10341000770222F47F4282600868502838D00DDCA1
:1034200020284FD005DC90B3102811D14AE00220AB
:1034300070BD302846D040280AD13BE060282FD00C
:1034400070280DD0B0F5805F03D0B0F5005F12D0CA
:10345000012584F83D60002084F83C00284670BDBA
:10346000CB68D1E90121206801F0F0FB2068816878
:1034700041F0770109E0CB68D1E90121206801F032
:10348000E5FB2068816841F480418160E1E719E053
:10349000CA684968206801F0EBFB5021206806E00B
:1034A000CA684968206801F035FC6021206801F095
:1034B000D7FBCEE7CA684968206801F0D9FB4021F4
:1034C0002068F4E7226801461046F0E770472DE9CE
:1034D000F041054690F83C0000260C46012810D02B
:1034E000012085F83C0072B1042A1CD0082A2CD097
:1034F0000C2A50D00126002085F83C003046BDE85B
:10350000F0810220FBE7D4E90012E368286801F0AB
:10351000C1FB2868816921F00C01816128688169FB
:10352000A26811430FE0D4E90012E368286801F0B3
:1035300003FC2868816921F4406181612868816900
:10354000A26841EA02218161D5E72868D4E9002C0C
:10355000277B016A21F480710162C169036A21F04D
:10356000030141EA0C0121F0F00C39074FF4206708
:103570004CEA116123F4206307EA02221A43C16175
:1035800002622868C16921F00C01C1612868C16923
:10359000A268114328E02868D4E90027E168036A9B
:1035A00023F480530362D0F81CC0036A2CF4407CDF
:1035B0004CEA07274FF6FF7C27F470470CEA0131ED
:1035C00039434FF4204723F4204307EA02321A43D9
:1035D000C16102622868C16921F44061C161286843
:1035E000C169A26841EA0221C16184E710B5040003
:1035F00003D094F83D0010B107E0012010BD002079
:1036000084F83C00204600F01EF8022084F83D00BB
:10361000211D206801F0B6FA012084F8460084F8E4
:103620003E0084F83F0084F8400084F8410084F8AC
:10363000420084F8430084F8440084F8450084F88C
:103640003D00002010BD704770B504460068016958
:103650004FF00005C943890715D4C168C9438907DC
:1036600011D4E91E0161012020772068806980075C
:10367000204602D0FFF72AFF04E000F098F8204629
:1036800000F096F8257720680169C943490717D4E7
:10369000C168C943490713D46FF0040101610220D6
:1036A00020772068806910F4407F204602D0FFF721
:1036B0000DFF04E000F07BF8204600F079F8257754
:1036C00020680169C943090716D4C168C9430907BD
:1036D00012D46FF008010161042020772068C069CE
:1036E0008007204602D0FFF7F1FE04E000F05FF80B
:1036F000204600F05DF8257720680169C943C906B6
:1037000017D4C168C943C90613D46FF01001016111
:10371000082020772068C06910F4407F204602D03E
:10372000FFF7D4FE04E000F042F8204600F040F835
:10373000257720680169C943C90708D1C168C94311
:10374000C90704D1891E0161204600F033F82068C2
:103750000169C943090609D4C168C943090605D4EA
:103760006FF0800101612046FFF732FD206801699A
:10377000C943490609D4C168C943490605D46FF055
:1037800040010161204600F0F5F820680169C94355
:1037900089060BD4C168C943890607D46FF020019C
:1037A00001612046BDE87040FFF713BD70BD704752
:1037B000704700002DE9FE4300685E4900275E4C1B
:1037C0004FF0010888421CD1617AD1B1618C491C4B
:1037D00089B26184228C914213D3207D40B14FF491
:1037E00000715648FFF77FF967842775BDE8FE83AF
:1037F0004FF480715248FFF776F984F8148067849B
:10380000F4E7B0F1804FF1D1607D401CC0B260752B
:10381000E17D884225D3A078F8B1FEF75BFEB5EED6
:10382000C00A84ED140AF1EE10FA17D084F809806A
:10383000DFED440A60EE200A9FED431A81EE200A74
:1038400010EE100A02F0DAFD9FED401B53EC112B35
:1038500001F0EEFF02F03CFA208401E001F0FAF8FA
:103860006775E07948B1A07C401CC0B2A0743C28C8
:1038700003D301F0DFF8E771A7746079E0B1608BE2
:10388000401C80B26083B0F5FA7F15D301F00AF8CE
:10389000A08305461E212F48FCF773FE2A462EA161
:1038A0002C48FCF76FFDC2B22A496274C823A1F10B
:1038B000A80000F0C7FA67832079002896D0A07D81
:1038C000401CC0B2A075322890D31E212148FCF7BD
:1038D00058FE206D02F092FD94ED180A05460E4642
:1038E00010EE100A02F08AFD41EC100B606E00959C
:1038F000CDE9016053EC102B19A11648FCF742FDED
:10390000C2B214496274C823A1F1A80000F09AFA67
:10391000207B90F00100207304D084F80A80E772C5
:103920000C2003E084F80B80A772102000F074FFD5
:10393000A7755BE700040040000000200010024073
:103940000008024000000045002474490000000007
:103950000000E03F240200206F25646500000000A5
:1039600073322F252E31662F252E31662F25646563
:10397000000000007047704770470000F8B501680C
:1039800004460868CA684B6910F00F0F4FF0000535
:1039900059D003F0010602F49077374365D0C10790
:1039A00005D0D10503D5216C41F001012164410707
:1039B00005D5D90703D0216C41F0020121648107AC
:1039C00005D5D90703D0216C41F00401216401071A
:1039D00007D502F02001314303D0216C41F00801EA
:1039E0002164216C00293AD0800604D5900602D5C6
:1039F000204601F0F2F920684069216CC0F3801084
:103A0000090700D460B3204601F0C0F9206840697E
:103A1000400621D52068143050E8001F21F04001F5
:103A200040E80012002AF5D1A06BA8B16C490165ED
:103A3000A06BFEF786FE002811D0A06B016D01B0CF
:103A4000BDE8F040084783060FD593060DD5204604
:103A5000BDE8F84001F0C1B92046FFF78DFFF8BD81
:103A60002046FFF789FF2564F8BD266B2023012E31
:103A700079D1C60677D5D60675D50868486800900E
:103A80004869400640D5A16B086840680004000CF6
:103A9000EAD0A28D8242E7D9E085C869B0F5807F7F
:103AA0002DD020680C3050E8001F21F4807140E8D0
:103AB0000012002AF5D12068143050E8001F21F0D0
:103AC000010140E80012002AF5D12068143050E8C6
:103AD000001F21F0400140E80012002AF5D184F8CF
:103AE0003E30256320680C3050E8001F21F01001A3
:103AF00040E80012002AF5D1A06BFEF7D9FDA08D99
:103B0000E18D401A81B229E0A08DE18D401A81B289
:103B1000E08D0028A8D00029A6D020680C3050E8FD
:103B2000002F22F4907240E80026002EF5D1206884
:103B3000143050E8002F22F0010240E80026002E49
:103B4000F5D184F83E30256320680C3050E8002F12
:103B500022F0100240E80023002BF5D12046FFF7A9
:103B60000AFFF8BDFFE705062BD5150629D594F801
:103B70003D002128F5D1A068B0F5805F01D1206912
:103B8000B0B1206A411C2162216800784860E08C55
:103B9000401E0004000CE084E3D12068C16821F0DD
:103BA0008001C1602068C16841F04001C160D8E770
:103BB000206A0088C0F308004860206A801C2062E8
:103BC000E5E74006CDD55006CBD5CA68204622F0A1
:103BD0004002CA6084F83D3000F08DF9C1E7000072
:103BE0007D4D000870B5040004D094F83D00002518
:103BF00010B106E0012070BD84F83C50204600F072
:103C000023F8242084F83D002068C16821F4005185
:103C1000C160204601F042F92068016921F4904119
:103C200001612068416921F02A0141612068C16871
:103C300041F40051C1602564202084F83D0084F8DF
:103C40003E00002070BD0000F0B587B0044614218E
:103C50006846FCF796FC294B226800242849022577
:103C60000326082727489A4228D1254A103213688C
:103C700043F480131360126802F4801205920A68FC
:103C800042F004020A600A6802F0040205920A681F
:103C900042F008020A60096802AA01F008010591D1
:103CA0008114CDE9001582E8D0006946FEF71EFEBA
:103CB0000420CDE900056946134818E0134B9A42E9
:103CC0001AD10F4A1432136843F0200313601268AC
:103CD00002F0200205920A6842F004020A600968B4
:103CE00001F004010591C021CDE90015694602AA41
:103CF00082E8D000FEF7FAFD07B0F0BD00500040AA
:103D00003038024000080240000C0240001401401C
:103D100090F83E30202B0ED159B152B190F83C3082
:103D2000012B08D0012380F83C300023036301F00D
:103D30003BB9012070470220704700002DE9F04197
:103D4000074600683A49002501263A4C88421FD1AF
:103D5000E07BA17B884206D098B1374AE17C505481
:103D6000491CE1740DE0FEF76BFA3348334A8430A6
:103D70000168914203D190ED010A84ED160AE574C1
:103D800026702C492C4801220F314438FFF7C0FF20
:103D90002B493868884249D1274FE07C28370928C9
:103DA0002ED3A07A88B12348B9792C300170797963
:103DB000417039798170F978C17090ED000A142151
:103DC00084ED180A3846FCF7DCFBE07A70B1B7F8EE
:103DD0000300797940BA000440EA0120B979084328
:103DE0006066154814212830FCF7CBFB667011493A
:103DF0001148E570E574012210318838FFF788FF1B
:103E0000E07C10B9217C01290ED0E17819B1217C28
:103E10003954401CE074BDE8F041064906480122CF
:103E200010318838FFF774BFE670F0E7BDE8F08125
:103E30000014014000000020C001002000001041DB
:103E4000005000402DE9F843044690F83D001F461D
:103E500016460D4620284CD1C5B1BEB194F83C00A1
:103E6000012846D0012084F83C004FF00008C4F837
:103E70004080212084F83D00FEF742FEA684814662
:103E8000E684A068B0F5805F03D004E00120BDE8BF
:103E9000F883206928B12E465FF0000584F83C8045
:103EA0000EE00026FAE78021204601F098F8A0B93C
:103EB000AEB116F8010B21684860E08C401EE0842A
:103EC000E08C4B464FF0000200970028EBD14FF0FA
:103ED0004001204601F083F830B10320D7E735F8E0
:103EE000020BC0F30800E6E7202084F83D00002024
:103EF000CDE70220CBE77047FEE70000002220213B
:103F00000148FEF7F8BD0000000802400022202111
:103F10000148FEF7F0BD00000008024030B50D4634
:103F20000F498BB0098D8AB26946FEF73FFB00242A
:103F30000CA16846FCF700FB0EE000BF01F0B8F9E9
:103F400051EC100B01F042FC45F8240005A10020C3
:103F5000FCF7F2FA641CE4B20028EFD10BB030BDDC
:103F6000000000202F0000002DE9F04F87B0142141
:103F70006846FCF706FB82480024016841F0100106
:103F80000160016801F010010591016841F0040130
:103F90000160016801F004010591016841F08001B0
:103FA0000160016801F080010591016841F00101A3
:103FB0000160016801F001010591016841F0020111
:103FC0000160016801F002010591016841F00801FA
:103FD000016000686B4E00F00800059000224AF274
:103FE00013313046FEF787FDDFF89C8100224FF445
:103FF000E1614046FEF77FFD49F608570022394649
:104000006248FEF778FD012230214046FEF773FD3D
:10401000002246F265015E48FEF76DFD012248F27E
:1040200002015B48FEF767FD01224FF4B9413046BB
:10403000FEF761FD4FF4806A012251465548FEF7B4
:104040005AFD4FF4284B002259465248FEF753FDC3
:104050006C20CDE90004694630460294FEF746FC28
:104060004FF6937000900125CDE901546946304622
:104070000394FEF73BFC42F20700CDE900046946D9
:1040800040460294FEF732FC4FF4E7600090CDE921
:104090000154694640460394FEF728FC0326082095
:1040A0000095CDE903604FF00209CDE9019469461E
:1040B0003648FEF71BFC4FF42570CDE90004694635
:1040C00032480294FEF712FC0097CDE9015469468C
:1040D0002E480394FEF70AFC4EF267000090CDE9EB
:1040E000015469462A480394FEF700FCB0021227E7
:1040F000CDE9000702AA4FF0040882E86001694692
:104100002348FEF7F3FB41F21820CDE9000469468D
:104110001F480294FEF7EAFB3002CDE90009029441
:104120000720CDE9036069461A48FEF7DFFB11203E
:10413000CDF800A0CDE90104694616480394FEF7C6
:10414000D5FBCDF800B0CDE9015469461148039480
:10415000FEF7CCFB45F28300CDE9000469460D482B
:104160000294FEF7C3FBF001CDE9000702AA6946FD
:1041700082E860010648FEF7B9FB07B0BDE8F08FA2
:1041800030380240001002400008024000000240A7
:1041900000040240000C024010B58AB000242448FC
:1041A0000494059406940794089409940094019447
:1041B00002944FF08041039401600A21C0E9011488
:1041C00042F2D001C0E9031480218161FFF74AF86F
:1041D00000B1FEE74FF48050049004A91448FFF7A3
:1041E00007F900B1FEE71248FFF700FA00B1FEE759
:1041F0002020CDE9080408A90D48FEF7EBFF00B127
:10420000FEE70120CDE900400294002269460848FB
:104210000394FFF75CF900B1FEE704226946044805
:10422000FFF755F9002800D0FEE70AB010BD0000E6
:10423000A800002010B586B0002415480094019411
:104240000294039404941149059401600121C0E98A
:10425000011440F6D811C0E903148461FFF702F895
:1042600000B1FEE74FF48050009069460848FFF720
:10427000BFF800B1FEE7049404A905480594FEF7D1
:10428000A9FF002800D0FEE706B010BD00040040E2
:10429000F0000020FEE77047704700002DE9F04F66
:1042A0002DED088BA9B00025FD4890ED000ABDEE6C
:1042B000C00A10EE10CADFEDFBAAF94A0126FA483F
:1042C00092ED018A9FEDF99B3102BDEEC81AB0EE66
:1042D00000BAF84CF84B4FF07E5794ED172AA279AC
:1042E000D4ED0D8A22EE0BAA94ED0C0ABCF11B0F43
:1042F00014D2DFE80CF00E212B364C60ADB6D31390
:10430000DBFDFCFBFAF9F8F7F6F5F4F3F2F1F0EF68
:10431000EE0011EE100A30B1FDF726FF29B0BDEC1A
:10432000088BBDE8F08FFDF783FF6572A570E5711E
:10433000C4ED12AA6565F1E711EE100A0128EDD16E
:104340000AB100F087FB00F075FBE7E711EE100AF9
:1043500018B1A57100F066FBE0E7A67100F05AFB0A
:10436000DCE711EE103A012B08D022B166722675F7
:104370000022FEF7C0FBFFF7C1FDCFE722B1667256
:1043800025750122FEF7B7FBFFF7C0FDC6E711EE6A
:10439000100A012808D0A570E57100F05BFBC4EDA0
:1043A00012AA6565A574B9E7FFF7A8FD66722675C0
:1043B000A670E571B2E711EE100A22B385B200EEE5
:1043C000105AE583B8EE400ADFEDBC0A60EE200A21
:1043D0009FEDBB1A81EE200A10EE100A02F00EF8D3
:1043E0009FEDB81B53EC112B01F022FA01F070FC89
:1043F00020842A46B5A16846FBF7C4FFC2B26274A6
:10440000C8236946B4E1A649D1ED020A91ED030A39
:10441000BCEEE08A88B1F2EE048A20EE280A00F0B1
:10442000CBFFF0EE400A18EE100A80EEA80A80B228
:1044300084ED0D0A00F018FE70E7BCEEC00A10EE25
:10444000100A81B218EE100A80B200F04DFE65E746
:1044500011EE100A012802D02571A5755EE72671BC
:104460005CE7B5EEC00AF1EE10FA05D0F7EE000AEF
:1044700080EE801A84ED101AE07DD4ED0F1A94EDD1
:104480000E1AF0EE680A00F05FFA92A123A8FBF77B
:1044900079FFC2B26274642323A969E111EE100AA4
:1044A000012801D0657139E7667137E78B498C487F
:1044B000FFF734FD89490868206307904868606306
:1044C00000908868A063CD680646E5630869E065EA
:1044D0000FE090E18AE184E17EE173E16DE164E166
:1044E00059E14CE148E135E1B8E0A4E090E060E05A
:1044F00030E091ED050ABCEEC00A10EE101AC9B208
:10450000E1758B4601F07AFF07468846284601F0A0
:1045100075FFCDE90401304601F070FF81468A46FF
:10452000009801F06BFF05460E46079801F066FF04
:104530008DE8600606AD41EC100B85E8800953EC70
:10454000102B68A109A8FBF71DFFC2B26274C82333
:1045500009A90DE184ED0C8A18EE100A01F04EFF56
:104560002AEE280A41EC1B0B10EE100A01F046FF60
:1045700041EC100B00F06DFF53EC192B51EC100BBC
:1045800001F052FC53EC1B2B01F00EFA01F0D0FBB2
:10459000A084206B01F032FF41EC100B59A153ECC9
:1045A000102B11A8FBF7EEFEC2B26274C82311A94A
:1045B000DEE084ED0D8A10EE100A01F01FFF2AEEF6
:1045C000080A41EC1B0B10EE100A01F017FF41EC3A
:1045D000100B00F03EFF53EC192B51EC100B01F0C7
:1045E00023FC53EC1B2B01F0DFF901F0A1FBA084AD
:1045F000606B01F003FF41EC100B45A153EC102B55
:1046000014A8FBF7BFFEC2B26274C82314A9AFE0BE
:1046100084ED0E8A18EE100A01F0F0FE41EC100B4A
:104620003EA153EC102B17A8FBF7ACFEC2B262748C
:10463000C82317A99CE084ED0F8A18EE100A01F038
:10464000DDFE41EC100B38A153EC102B1AA8FBF740
:1046500099FEC2B26274C8231AA989E084ED178A50
:1046600010EE100A01F0CAFE28EE0B0A41EC1A0BFC
:1046700020EE280A10EE100A01F0C0FE41EC100BEB
:1046800000F0E7FE53EC192B51EC100B01F0CCFBC2
:1046900053EC1A2B01F088F901F04AFBA08449E0A1
:1046A000440200200000000000080240000000005A
:1046B00000002440000000200010024000000045DF
:1046C00000247449000000000000E03F6A252E64C9
:1046D0006500000072372F31650000009000002057
:1046E00000C1000870252E32662F252E31662F2539
:1046F0002E33662F252E33662F252E32662F256406
:10470000650000007231312F252E326665000000F1
:104710007231322F252E3166650000007231332F41
:10472000252E3366650000007231342F252E336646
:1047300065000000E06D01F061FE41EC100B30A15E
:1047400053EC102B1DA8FBF71DFEC2B26274C823E8
:104750001DA90DE0BCEEC80A2CA110EE100AC2B2D1
:10476000E27520A8FBF70EFEC2B26274C82320A92E
:104770002848FFF767FBD1E5FEF762FACEE518EEB1
:10478000101AB94201D1012200E000225FF01001AD
:10479000FEF7B1F9C2E518EE100A4FF40071B84205
:1047A00001D1012216E0002214E018EE102ABA42CC
:1047B00001D10122ECE70022EAE718EE100A4FF4DB
:1047C00080611AE018EE100AB84201D1002200E020
:1047D000012280211846DBE718EE100A4FF48051C1
:1047E0000BE018EE100A4FF4006106E018EE100A14
:1047F0004FF4804101E018EE100AB842D3D0D0E760
:104800007231352F252E3366650000007231362F48
:10481000256465007C0100207CB501218DF8001025
:1048200003228DF80120020A8DF802208DF8030082
:1048300000208DF804008DF805104FF6FF70002160
:104840006C464AF20103625C50400822C5074FEAF9
:10485000500000D05840521EF8D1491C0629F2DB06
:104860008DF80600000A0C4C8DF807000121204647
:10487000FEF741F9C823082269460848FFF7E2FA23
:10488000012211462046FEF736F901220449034869
:10489000FFF73EFA7CBD0000001002403801002006
:1048A000100000202DE9F041224F002480213846DD
:1048B000FEF714F900B101241F4E40213046FEF7E7
:1048C0000DF908B144F0020404213046FEF706F960
:1048D00008B144F00404194D02212846FEF7FEF801
:1048E00008B144F0080408213046FEF7F7F808B193
:1048F00044F0100401212846FEF7F0F808B144F016
:10490000200410213846FEF7E9F808B144F04004CD
:1049100004212846FEF7E2F808B144F0800408219B
:104920000748FEF7DBF808B144F480742046BDE880
:10493000F081000000000240001002400008024028
:1049400000040240704700002DE9F14F2DED060BE9
:1049500012EE100A2DED048B94B0B0EE618AF0EEE9
:10496000418AB0EE609AF0EE409A01F047FD83462E
:104970000F4618EE100A01F041FD81468A4618EEF6
:10498000900A01F03BFD0646884619EE100A01F038
:1049900035FD04460D4619EE900A01F02FFD41EC5D
:1049A000100B1E9853EC102BCDE907708DE8700F9B
:1049B0000FA109A8FBF7E6FC144C607409A8FBF7EB
:1049C000C1FD800701D0012500E0002509A8FBF703
:1049D000B9FD05EB900082B2A06209A90C48FDF771
:1049E000EBFD14B0BDEC048B07B0BDE8F08F000008
:1049F000252E32662F252E31662F252E33662F2544
:104A00002E33662F252E32662F25640000000020ED
:104A100000C10008012211020148FEF76CB8000035
:104A20000010024000224FF480710148FEF763B885
:104A30000010024010B5064C012220212046FEF74E
:104A40005AF820460122BDE810401021FEF753B865
:104A500000080240084910B50020487202464FF491
:104A600000710648FEF747F8BDE8104000224FF4F9
:104A700080710348FEF73FB800000020001002409C
:104A800000080240FEF742B830B593B030216846C6
:104A9000FBF777FD14210CA8FBF773FD1C480025DC
:104AA000016841F080510160006800F08050119071
:104AB0001848016841F4804101600068022400F454
:104AC0008040119001200090000401908001CDE908
:104AD00006400C2008904FF4A870CDE9090404208A
:104AE0000B906846FEF7AAF900B1FEE70CA90F206B
:104AF00081E831004FF4A0500F90109005210CA8D0
:104B0000FEF7B0F8002800D0FEE713B030BD00007B
:104B100040380240007000401048016841F47001C4
:104B200001600F48016841F0010101600C4A002159
:104B30000832116002680B4B1A400260031D0A4ADA
:104B40001A60026822F48022026005480C3001607D
:104B500002495806803908607047000088ED00E07F
:104B600000380240FFFFF6FE103000240148FEF737
:104B70006BBD0000A80000200148FEF765BD0000E5
:104B8000F0000020F0B50268254C264D264E274F38
:104B9000274B4FF0804CA04209D0604507D0A84277
:104BA00005D0B04203D0B84201D0984204D122F0DF
:104BB000700E4A6842EA0E02A0421BD0604519D02E
:104BC000A84217D0B04215D0B84213D0984211D0A5
:104BD000184DA8420ED0184DA8420BD0174DA84230
:104BE00008D0174DA84205D0164DA84202D0164D48
:104BF000A84203D122F44075CA682A434D6922F0C5
:104C000080022A4302608A68C2620A688262A04205
:104C100001D0984201D10969016301214161F0BDD0
:104C2000000001400004004000080040000C00406B
:104C300000040140004001400044014000480140A0
:104C400000180040001C00400020004010B584689F
:104C500042EA032224F47F440A432243826010BDC7
:104C6000826822F070020A4342F0070181607047B7
:104C700010B5036A046A24F001040462846924F014
:104C8000F00444EA021423F00A020A438461026237
:104C900010BD000070B5046A24F001040462846948
:104CA000056A154EB04214D0B0F1804F11D0134EAA
:104CB000B0420ED0124EB0420BD0124EB04208D0CD
:104CC000114EB04205D0114EB04202D0104EB0424B
:104CD00003D124F00304144301E044F001041A0753
:104CE00024F0F00444EA126225F00A0301F00A01FC
:104CF00019438261016270BD000001400004004060
:104D000000080040000C0040000401400040014049
:104D10000018004010B5036A23F010030362836992
:104D2000046A23F4704343EA023224F0A00343EA06
:104D300001118261016210BD30B5046A24F01004D3
:104D400004628469056A24F4407444EA022222F46D
:104D500070444FF6FF7202EA03322243A02425F08A
:104D6000A00304EA011119438261016230BD000011
:104D70000148FEF703BE00003801002010B5806B2B
:104D80000021C185C184FEF7F7FD10BD01680C311B
:104D900051E8002F22F4907241E80023002BF5D156
:104DA0000168143151E8002F22F0010241E800238C
:104DB000002BF5D1016B012909D101680C3151E8B3
:104DC000002F22F0100241E80023002BF5D1202112
:104DD00080F83E1000210163704708B590F83E103E
:104DE000222901D0022008BD82684FF480539A42E4
:104DF00001D1016921B1816A9A421BD04AB10AE00E
:104E00000268816A5268C2F308020A80816A891CBA
:104E100008E0026972B10268526802F07F020A700B
:104E2000816A491C8162C18D491E0904090CC18532
:104E300003D019E002685268F1E70168CA6822F0FD
:104E40002002CA600168CA6822F48072CA600168E0
:104E50004A6922F001024A61202180F83E10016B6C
:104E6000012903D0FEF76AFF002008BD002101637D
:104E700001680C3151E8002F22F0100241E80023B4
:104E8000002BF5D101680A68D20602D50A68496884
:104E90000091818DFEF76FFDE6E7000070B50446D6
:104EA00000680169E26821F4405111430161216900
:104EB000A068E26908436169114308432168CA6830
:104EC00049F20C639A430243CA6020684169A269AF
:104ED00021F440711143416131492068884202D078
:104EE0003049884202D1FDF767FF01E0FDF754FF2A
:104EF000E2690023192164253226B2F5004F626869
:104F000028D0A0FB0101930F9200FBF7C3F90146E3
:104F1000B0FBF5F06FF01802504301EB800006EB98
:104F20000010B0FBF5F000F0F002B1FBF5F002EB81
:104F30000012B1FBF5F06FF01803584301EB80004D
:104F400006EB0010B0FBF5F000F00F0021681044F4
:104F5000886070BDA0FB010192185B41FBF79AF9D4
:104F60000146B0FBF5F00201B1FBF5F06FF018035C
:104F7000584301EB800006EBC000B0FBF5F000F0F9
:104F8000F80002EB4002B1FBF5F0584301EB800062
:104F900006EBC000B0FBF5F000F00700D6E700001C
:104FA000001001400014014081628285C285002109
:104FB0000164222280F83E2080F83C100168CA6813
:104FC00042F48072CA6001684A6942F001024A6193
:104FD0000068C16841F02001C160002070472DE9E0
:104FE000F041984617460E460446069D27E0681C89
:104FF00025D02DB1FDF784FDA0EB0800A8421ED9F5
:1050000020680C3050E8001F21F4D07140E80012F5
:10501000002AF5D12068143050E8001F21F001016A
:1050200040E80012002AF5D1202084F83D0084F8E1
:105030003E00002084F83C000320BDE8F081206899
:10504000006836EA000004D00020B842CFD000202B
:10505000F3E70120F9E700000148FEF78FBC0000EC
:105060007C010020FEE700003EB501218DF8001014
:1050700006218DF80110010A8DF802108DF8030049
:1050800010EE100A6C464AF20103010E8DF804106E
:10509000010C8DF80510010A8DF806108DF8070037
:1050A0004FF6FF700021625C50400822C5074FEAAE
:1050B000500000D05840521EF8D1491C0829F2DB9C
:1050C0008DF80800000A8DF8090001210448FDF759
:1050D00012FDC8230A2269460248FEF7B3FE3EBD10
:1050E00000100240380100203EB501228DF800205A
:1050F00006228DF80120020A8DF802208DF80300A7
:10510000080E8DF80400080C8DF80500080A8DF8CB
:1051100006008DF807104FF6FF7000216C464AF22A
:105120000103625C50400822C5074FEA500000D0DE
:105130005840521EF8D1491C0829F2DB8DF80800AE
:10514000000A8DF8090001210448FDF7D4FCC823AA
:105150000A2269460248FEF775FE3EBD0010024075
:105160003801002003B401984100009850EAC120A2
:1051700018BF04204A0D18BF40F0010040F2FF7232
:10518000B2EB515F08BF40F00200012808BF0520C4
:1051900002B070470907090E002804DB00F1E02087
:1051A00080F80014704700F00F0000F1E02080F854
:1051B000141D70470000000030B52DED048B81B048
:1051C000B0EE408AF0EE608A6A4651EC180B00F0AF
:1051D000BBF900989FED329B7E300090002821DCC7
:1051E00053EC192B51EC180B00F036FD1AD00021AE
:1051F00040F608004FF00000044651EC180B00F098
:10520000E5FA08EE100A40F6080004EA00014FF043
:105210000000B5EEC08AF1EE10FA04BF0220FBF7E1
:10522000DFF92DE00098FF2830DB002108464FF021
:10523000000000F4400553EC192B51EC180B00F062
:10524000F1FE8CBF002401240220FBF7C9F99FED79
:10525000168A4DB1002C0CBF4FF400004FF48000B3
:10526000A84218BF9FED118A042108464FF00000A4
:10527000002C01BFB1EE480A01B0BDEC048B30BD7B
:10528000B0EE480A01B0BDEC048B30BD51EC180BF8
:1052900000F09CFA01B000EE100ABDEC048B30BDAA
:1052A00000000000000000000000807FFFFF7F7F03
:1052B00030B583B00446FBF78EF99FED090B054628
:1052C0008DED000B002221466846FBF733FC284693
:1052D000FBF786F99DED000B03B030BD0000000028
:1052E000000000000000000030B540F2FF742DED1A
:1052F000048BF0EE608A18EE901A85B0B0EE408A0A
:105300009FED2B9B05468DED008B34EA115147D064
:1053100053EC192B51EC180B00F09EFC40D02A46A0
:1053200051EC180B01F04DF941EC180B18EE900AF6
:105330008DED008B34EA10501CD053EC192B51EC3E
:10534000180B00F089FC2BD10220FBF749F900F083
:10535000CFF810EE901A18EE900A8DED020B8DED3D
:10536000008B61F31E0003909DED020B05B0BDECB8
:10537000048B30BD0220FBF733F900F0A9F810EEE2
:10538000901A18EE900A8DED020B8DED008B61F3F3
:105390001E0003909DED020B05B0BDEC048B30BDEB
:1053A00005B0B0EE480AF0EE680ABDEC048B30BDE3
:1053B000000000000000000010B52DED028BB0EEE3
:1053C000408A18EE100A01F095F801EE100A18EE66
:1053D000100AB7EE000A78EE410A10F0004F4FF0C5
:1053E0007F4010EE901A12D0B1F13F4F24BF10EE63
:1053F000901AB0EB410F12D210EE901AB1F17C5F0F
:105400001CDD10EE901AB0EB410F17D314E0B1F190
:105410003F4F07D910EE901AB0EB410F02D331EE97
:10542000401A0BE010EE901AB1F17C5F06DB10EE33
:10543000901AB0EB410F01D331EE001A18EE100AAA
:10544000BDEC028B11EE101A61F31E0000EE100A83
:1054500010BD00B52DED048BB0EE409AF0EE609AD1
:1054600083B051EC190B00F013FE41EC180B18EE51
:10547000100A18EE901A8DED008B002818BF01203D
:10548000084320F00040C0F17F6000F1E040C00F11
:1054900014D019EE101A19EE900A8DED009B002918
:1054A00018BF0121084320F00040C0F17F6000F1E7
:1054B000E040C00F04BF0120FBF792F8B0EE480AAD
:1054C00003B0F0EE680ABDEC048B00BD00000000E4
:1054D0009FED050B10B553EC102B51EC100B00F0A9
:1054E000A3FC41EC100B10BD000000000000007098
:1054F0009FED050B10B553EC102B51EC100B00F089
:1055000093FC41EC100B10BD0000000000000010E7
:1055100010B5044691ED000BFFF74EFE84ED000A36
:1055200010BD10B5044690ED000B0846FFF7DCFEF9
:1055300084ED000B10BD30380A2801D201207047DD
:10554000002070470000000010B582B01446CDE97D
:1055500000010023009A2360194B21F0004098427B
:105560002ADA024328D0B0F5801FA8BF226810DADB
:105570009FED150B53EC102B9DED000B51EC100B18
:1055800000F052FCCDE900016FF0350221F000403F
:1055900022600F4B6FF31E5103EB2050104420602C
:1055A00041F0FF5040F0005001909DED000B00BF16
:1055B00002B051EC100B10BD9DED000BF8E70000A0
:1055C0000000F07F000000000000000000005043D9
:1055D00002FCFFFF2DED048BFDF7A0FAFFF754FA54
:1055E000FEF7C2FCFEF7D8FD5A4859494FF416564B
:1055F00000240160C0E901640C25C460C0E90445D1
:105600008461C461FEF7EEFA00B1FEE751485249E9
:1056100044300160C0E90164C460C0E904458461AC
:10562000C461FEF7DFFA00B1FEE7FEF703FE0022D9
:1056300011464720FDF7D2FA4720FDF7C1FA0022B4
:1056400001213520FDF7CAFA3520FDF7B9FA00220D
:1056500002211C20FDF7C2FA1C20FDF7B1FA01223D
:10566000D1033E48FDF747FA41F28830FDF77CF858
:1056700038493B48A839FEF751FC3649394DA8391D
:1056800008682863D1ED018AC5ED0D8A91ED020A03
:1056900085ED0E0A91ED030A85ED0F0A91ED048A5E
:1056A00085ED178A85ED138A91ED050ABCEEC00AD7
:1056B00010EE101AE97500F0A1FEB0EE000A41EC00
:1056C000190B28EE000A20EE280A10EE100A00F04E
:1056D00095FE41EC100BFFF7BCFE9FED231B51EC38
:1056E000100B53EC112B00F09FFB53EC192B00F027
:1056F0005BF900F01DFBA88495ED0C0AB5EEC00A1D
:10570000F1EE10FA06D0F7EE000A80EE801A85ED71
:10571000101A03E09FED160A85ED100A0D48903827
:10572000FDF726FE0B484838FDF722FE0D490948D3
:1057300001220F314430FEF7EBFA00210120FCF783
:105740003BFD28780028FCD0FEF7A8FD2C70F8E778
:1057500000500040380100200014014000100240B9
:1057600000C10008000000200000000000002440EC
:105770000000000010B500290AD00878002807D0E2
:1057800005487844FBF72AFE002801D0002010BD10
:105790000248784410BD0000B60F0000AE0F0000B4
:1057A00010B500290AD00878002807D005487844A9
:1057B000FBF714FE002801D0002010BD02487844F9
:1057C00010BD0000A60F00009E0F000021F0004257
:1057D000A2F16052B2F5801F01F0004328BFD2F160
:1057E0007F6C0BD95FEA001C43EAC20242EB5070A7
:1057F00018BF704728BF20F001007047B2F5801F26
:10580000BCBF184670474FEA410C1CF5001F02D27E
:10581000084600F069BE70B500F0B0FB00000089DA
:10582000FFF7F6BF4FF00040A0F580007047000082
:1058300010B591EA030F48BF83F0004300F1FC84E8
:10584000841A71EB030C05D2121943EB0C03001BF5
:1058500061EB0C01DFF824E14FEA1154A4EB135C77
:105860001EEA430F18BF9EEA445F73D023EA0E037B
:10587000DCF1200E21EA045143F4801332D322FAE2
:105880000CFE10EB0E0023FA0CFE41EB0E01CCF1E6
:10589000200E03FA0EFE10EB0E0051F10001B1F5DF
:1058A000801FCCF1200E32D201EB045112FA0EF21D
:1058B000BDE8104058BF7047401C38BF5FEA420245
:1058C00018BF7047002814BF20F0010041F100010B
:1058D0004FEA410313F5001F38BF7047A1F1C041E3
:1058E00000F09ABB012A43EB0302ACF1200CDCF17F
:1058F0001F0E32BF4FF0000E23FA0CF310EB030023
:1059000041EB0451B4EB115FD0D0A1EB045101F590
:10591000801149085FEA300001EB04510ED350F1C9
:10592000000038BF12FA0EFE08D1BDE81040C9E7EA
:10593000401C38BF5FEA4202CAD1C3E7BDE810404D
:105940004FEA410313F5001F38BF7047A1F1C04172
:1059500000F062BB9EEA445F08D011EA5E0FBDE82A
:10596000104004BF01F0004100207047BDE8104026
:1059700070B500F003FB00BF64FBBE3E0000E0FF1B
:1059800002494FF0000000F0EABD00BF0000F87FC0
:10599000491058BFC1F140415B1058BFC3F14043AB
:1059A0008B42EFF3008070472DE9C04130B4DFF83F
:1059B000A0C23CEA111418BF3CEA131400F0EC80BA
:1059C00081EA03051CEA111444EAD57418BF1CEAE5
:1059D000131500F0C780A4EB05044FF0004545EA1D
:1059E000C12145EAC32341EA505143EA525304F12D
:1059F0007F74994204F500344FEAC0204FEAC22276
:105A000008BF904200F09C804FEA13650FF24016E9
:105A1000765D4FEA134506FB05F7C7F1807706FB75
:105A200007F74FEAD737A7FB03687642C8F58038F7
:105A3000A7FB06CE38BFA8F1010807FB08E64FF028
:105A4000000EA6FB028CE6FB03CEDCF1000CCEF1CF
:105A5000004E38BFAEF1010EA6FB0C584FF0000708
:105A60004FF00005E6FB0E87A1FB08C6A0FB07CEA2
:105A700016EB0E0645F10005E1FB076515F1E04E5A
:105A80007EBFA4F580345FEA46066D4116F18007BB
:105A900045F100054FEA17274FEA066647EA056712
:105AA000A6F1DE46B6F1805F4FEA15251FD93846CC
:105AB00024F0010C05EBC471BCF1FE6F01EB0C117D
:105AC00002D8F0BCBDE8008124425CBF01F5801E15
:105AD0009EEAC47F02D4F0BCBDE80081244238D4E1
