:020000040800F2
:100000008009002055020008E7460008B53F0008B7
:10001000E5460008B52100080D5E0008000000005C
:1000200000000000000000000000000081560008F1
:100030008122000800000000E9460008215800085D
:100040006F0200086F0200086F0200086F020008CC
:100050006F0200086F0200086F0200086F020008BC
:100060006F0200086F0200086F0200086F020008AC
:100070006F0200086F0200086F0200086F0200089C
:100080006F0200086F0200086F0200086F0200088C
:100090006F0200086F0200086F0200086F0200087C
:1000A0006F0200086F0200086F0200086F0200086C
:1000B00009590008155900086F0200086F0200086E
:1000C0006F0200086F0200086F0200086F0200084C
:1000D0006F0200086F0200086F0200086F0200083C
:1000E0006F0200086F0200086F0200086F0200082C
:1000F0006F0200086F0200086F0200086F0200081C
:100100006F0200086F0200086F0200086F0200080B
:100110000D5B0008195B00086F0200086F02000801
:100120006F0200086F0200086F0200086F020008EB
:100130006F0200086F0200086F0200086F020008DB
:100140006F0200086F0200086F0200086F020008CB
:100150006F0200086F0200086F020008015E0008CD
:100160006F0200086F0200086F0200086F020008AB
:100170006F0200086F0200086F0200080000000014
:100180006F0200086F02000800F002F800F052F859
:100190000AA090E8000C82448344AAF10107DA45E2
:1001A00001D100F047F8AFF2090EBAE80F0013F0E2
:1001B000010F18BFFB1A43F0010318471C7600001B
:1001C0003C760000103A24BF78C878C1FAD85207AC
:1001D00024BF30C830C144BF04680C6070470000C1
:1001E0000023002400250026103A28BF78C1FBD840
:1001F000520728BF30C148BF0B607047662907F01F
:100200001482642900F0D480002070471FB507F0E5
:10021000CEF900F0E5FC04000020002106F028FBE8
:10022000401C60600020002106F00CFBE0601FBD58
:1002300010B510BD00F01EFE1146FFF7E7FF06F0F7
:10024000C1F801F0C1F803B4FFF7F2FF03BC01F0FD
:1002500005F900000948804709480047FEE7FEE726
:10026000FEE7FEE7FEE7FEE7FEE7FEE7FEE7FEE766
:1002700004480549054A064B70470000B558000878
:1002800089010008800300208009002080050020EB
:100290008005002053EA020C00F069802DE9F04B44
:1002A0004FF00006002B1FBFB3FA83F503FA05F4E5
:1002B00024FA05F65E4012BF1643B2FA82F502FA3E
:1002C00005F4C5F120051EBF22FA05FC44EA0C0422
:1002D000203556EA044C4FEA144418BF641C4FF012
:1002E00000084FF00009904271EB030C39D300294C
:1002F00019BFB1FA81F701FA07F6B0FA80F700FAF0
:1003000007F6C7F120071EBF20FA07FC46EA0C06D5
:100310002037B6FBF4FCA7EB0507103F07F01F0BD7
:10032000CBF120060CFA0BFB2CFA06F644BFB346C1
:100330000026202FA4BF5E464FF0000B5BEA060CA0
:1003400008BF4FF0010B19EB0B09ABFB027C48EB2C
:100350000608C01B06FB02CC0BFB03CC71EB0C01A7
:10036000C1E70B46024641464846BDE8F08B13B54F
:100370004FF000004FF00001AFF30080BDE81C40DB
:10038000704700000FB41CB5084B06AA7B446946B1
:100390000090059800F097FB04460020694600F0A5
:1003A000A5FB20461CBC5DF814FB00005D070000A7
:1003B0002DE9F0410646002410687529314616A53E
:1003C00010D0AFF30080002802DA404213A507E006
:1003D00031688A0701D512A502E0490704D511A5A5
:1003E000012401E0AFF3008000210A2206F1240776
:1003F00009E0B0FBF2FCB0FBF2F302FB1C00303072
:1004000078541846491C0028F3D123462A46304622
:10041000BDE8F04100F0EAB8000000002D00000047
:100420002B000000200000002DE9F0474FF0000AEB
:1004300089460446C0F820A02046E1688847002885
:1004400076D0252806D0D4E901219047206A401CA7
:100450002062F1E7E168204600258847C4F81CA027
:1004600006460027C4F818A02A2E09D0304605F009
:100470005AFF38B304EB8708303EC8F8186019E01B
:1004800059F8041B204604EB87029161E168884714
:10049000012F064618D1E069002820DA25F0200552
:1004A0001DE0D8F8180000EB800006EB4000303863
:1004B000C8F818002046E1688847064605F033FF73
:1004C0000028EED1012F0AD02E2E08D12046E16857
:1004D00088477F1C0646022F45F02005C4DBA06933
:1004E000002803DA404245F00105A061E80701D089
:1004F00025F01005B6B1A6F14100192802D8203622
:1005000045F400654A463146204625604D46FFF7D2
:1005100075FE58B1012806D0ED1D25F0070000F149
:10052000080989E704E005F1040985E730468AE710
:10053000206ABDE8F0870000014A00F02FBB0000F0
:10054000A800002010B5431C02E010F8011B71B197
:100550008107FAD14FF0013202C88C1A8C4314EA99
:10056000C211F9D0C01A0A0603D0C01E10BDC01AAD
:1005700010BD0A0401D0801E10BD0902FCD0401E2F
:1005800010BD4FF0000200B5134694469646203940
:1005900022BFA0E80C50A0E80C50B1F12001BFF43C
:1005A000F7AF090728BFA0E80C5048BF0CC05DF8A2
:1005B00004EB890028BF40F8042B08BF704748BFF0
:1005C00020F8022B11F0804F18BF00F8012B704764
:1005D00070477047704710B500F006FB006810BD0B
:1005E00010B5044600F000FB046010BD2DE9F04793
:1005F0000D4699469246044600F124080168880693
:1006000004D5E06921F01001216000E00120A8423A
:1006100001DD471B00E00027A1697A1902EB090000
:10062000081AA0612078C00602D42046AFF30080EB
:10063000002608E0D4E901211AF806009047206A54
:10064000401C761C20624E45F4DB2078C0060AD59B
:100650002046AFF3008006E0D4E901213020904726
:10066000206A401C2062381EA7F10107F4DC07E075
:10067000D4E9012118F805009047206A401C206247
:10068000281EA5F10105F3DC2046AFF30080207899
:10069000000602D50220BDE8F0870120FBE7704785
:1006A0002DE9FF4F0C461E464FF0FF378BB0D2E9C5
:1006B0000001DDF860800A908A46C1F30A5505B949
:1006C0003D46002108464FF00000BAF1000F00F44B
:1006D000400005DA00EB80004FF4400101EA5000D1
:1006E0004FEA9059B9F1010F00DDB9460A9850EA76
:1006F0004A000ED044F61050A5F2FF3545432F14A2
:10070000B8F1000F1ED07542291E1EDDC9F100028E
:100710001CE0B8F1010F4FF0000001D0302103E0E0
:10072000F24305E02154401CB042FBDB304600227E
:10073000002121540B99C1F80880C1E900200FB0B5
:10074000BDE8F08FBD1B6D1CDEE74A4600DA69424A
:1007500006A800F0FBFA06AB93E8070003AB83E8BA
:10076000070050460A9901F0CBF88DE80700A0F584
:1007700000501F3800900398002D0ADD42F21F013F
:100780004A460844002303A90390684601F076FB1B
:1007900009E0A0F500504A461F38002303A9039042
:1007A000684601F095FB8DE807000004000C03D0BB
:1007B0004FF0FF30410800E01046B8F1000F03D0C1
:1007C0000022009215461EE0751E05D400F010FAB6
:1007D000303262556D1EF9D5B3460122084302D06E
:1007E00000227F1C04E02078302801D100227F1EE7
:1007F000002A099784D01DE0112D07DA00F0F8F9DE
:10080000303262556D1C50EA0102F5D1084302D026
:100810000098C8B10EE00021681E05E0235C625C10
:1008200063542254401E491C8142F7DBAB46A81B8F
:10083000401E0990002004F80B000B98099AC0F89C
:100840000880C0E9002B7AE711264FF0000857E72F
:100850002DE9F04F88460446D21D22F0070191B0E1
:10086000D1E90001CDE90A0105F076FB02460B98BB
:10087000C00F01D02D2007E02068810701D52B2073
:1008800002E0202101EAC000032A099001D0072AD2
:1008900005DB03464146204600F0F8F90BE12078DD
:1008A000800601D5E06900E00620B8F1650F8146B9
:1008B00006D0B8F1660F18D0B8F1670F70D131E0EB
:1008C0000020B9F1110F009001DB112301E009F1C3
:1008D00001030AAA01A90CA8FFF7E2FEDDE90C70EA
:1008E000002609F10105834647E001204B460090B0
:1008F0004FF000470AAA01A90CA8FFF7D1FEDDE9D5
:100900000DB00C995D46002610B909F101000D18D3
:10091000B9EB050003D4C0F1FF3609F10105A5EBE1
:1009200009002BE0B9F1010F01DA4FF001090020B5
:10093000B9F1110F0090484601DD112300E0034694
:100940000AAA01A90CA8FFF7ABFEDDE90C704D4621
:1009500000268346207800070AD4AB4500DA5D46BE
:1009600001A8012D04DD411911F8011C302907D01F
:100970004F4502DA17F1040F04DA012082460FE036
:100980006D1EEEE7002F02DCED1B3E4403E0781CF9
:10099000A84200DD7D1CB81B00F1010A4FF00047A2
:1009A0002078000703D4AA4501DB4FF0FF3A00216D
:1009B000B7F1004F0DF143088DF8431024D0022009
:1009C0002B23002F01DA7F422D230A21021EA0F1E2
:1009D000010000DC5FB197FBF1FC97FBF1F201FB3A
:1009E0001C7C17460CF1300C08F801CDEEE7A8F19D
:1009F000010003702188090501D5452100E065212A
:100A0000A0F1010800F8011C09980FA9A1EB080743
:100A1000FF1D00B10120411901EBEA70A1693844C2
:100A2000081A401EA0612078C00602D42046AFF309
:100A30000080099828B1D4E901219047206A401C20
:100A400020622078C00622D52046AFF300801EE049
:100A5000002E04DBB34502DD01A8805D00E03020FC
:100A6000D4E901219047206A401C2062761CAAF13B
:100A700001005FEA000A0AD100F0B2F8C06801681C
:100A8000405CD4E901219047206A401C2062281E66
:100A9000A5F10105DCDC07E0D4E9012118F8010B20
:100AA0009047206A401C2062381EA7F10107F3DC42
:100AB0002046AFF30080032011B041E601694A1CD3
:100AC00002610878704700B58FB0CDE9013100218F
:100AD000059105497944CDE9031011466846FFF7B1
:100AE000A3FC0FB000BD0000E5FFFFFF0A6802F89D
:100AF000010B0A60704700000FB4002300B589B0F5
:100B00000CA900910B99CB60214B7B440693214BA0
:100B10007B44079304236FF00042CDE901321E4A63
:100B20007A446B4608920246002006F0E0FD09B0C8
:100B30005DF814FB70B506464FF0FF3015460C46C5
:100B4000324686B00091CDE901016946002004904B
:100B500004A8FFF7D1FF02460498211825B108B177
:100B6000084600E020462860049800280DD0002A9E
:100B700002DD0098884208D03246081B694600947E
:100B8000CDE9010404A8FFF7B7FF06B070BD00006F
:100B9000FF01000017020000570100002DE9F0419D
:100BA00015460E46040002D12C6804B90BA4204659
:100BB00000F04EF90444207870B12746314638469B
:100BC00000F036F90444207810B1002004F8010B3D
:100BD00038462C60BDE8F0810027F9E700000000EE
:100BE0000048704740030020004870472003002061
:100BF00030B5B0F10A024FEA900E71F100034EEAEF
:100C0000817EB0EB0E0061EB91014FEA101E4EEABF
:100C1000017E10EB0E0041EB11114FEA102E4EEA4F
:100C2000016E10EB0E0041EB11214FEA104E4EEA1F
:100C3000014E10EB0E0041EB1141401841F1000153
:100C40004FEAD00040EA41704FEAD10110EB800535
:100C50004FEA810444EA907444EB01046D1944EBBB
:100C60000404521BA3414FF0000348BF0A3200D5D1
:100C700030BD401C41F1000130BD10B5044600F00C
:100C80001FF90068005D00F0010010BD2DE9F04182
:100C90001F46044603260168072A01F4006004DBAE
:100CA00008B116A505E016A503E008B115A500E0FA
:100CB00015A521F010002060A069C01EA0610FB131
:100CC000401EA0612046AFF300804FB1D4E901215E
:100CD00038469047206A401C2062C01C206206E013
:100CE000206AFAE7D4E9012115F8010B9047761E36
:100CF000F8D22046AFF30080BDE8F0814E414E00AF
:100D00006E616E00494E4600696E6600426842B1EF
:100D1000016811F8013B23B1521EC0E900121846C8
:100D200070470121C160881E704742685AB1C3688C
:100D3000016843B983688B4205D0491E521CC0E943
:100D40000012002070474FF0FF3070472DE9F04748
:100D5000814616468AB0354878440DC88DE80D00A6
:100D600032487844801C03AC0DC884E80D0041F67D
:100D70009B300844372190FBF1F290FBF1F5A5F18F
:100D8000800501FB12041B3C02D56442012000E0F7
:100D90000020DFF898A080460027FA44AAF1BE0A96
:100DA0000EE0E0070AD03246684607EB4701012310
:100DB0000AEB810101F08CF88DE8070064107F1CBC
:100DC000002CEED1194F7F44AE3F19E0E80715D053
:100DD00007EB04100DF1180A90E80E008AE80E00E7
:100DE000C068F04201D1981908903246012306A943
:100DF00003A801F06DF803AB83E807006D10641CD5
:100E0000002DE3D14FF0010332466946B8F1000FDF
:100E100003A802D001F032F801E001F059F8C9E965
:100E20000001C9F808200AB0BDE8F087646A000034
:100E300030B503461D781DB10A4603E0AC4201D12E
:100E4000181A30BD12F8014B002CF7D15B1CF1E7EA
:100E500030B503461D783DB10A4612F8014B1CB16E
:100E6000AC42FAD15B1CF5E7181A30BD0048704758
:100E7000200300207546FFF7F9FFAE4605006946DE
:100E8000534620F00700854618B020B5FFF7F0F96B
:100E9000BDE820404FF000064FF000074FF000087B
:100EA0004FF0000B21F00701AC46ACE8C009ACE8FC
:100EB000C009ACE8C009ACE8C0098D467047000025
:100EC00010B5FFF78DFE001D10BD00BFA559000035
:100ED0002DE9FF4F06468BB00878FF2806D0491C45
:100EE0002D2805D000244FF0000908E000200CE078
:100EF0000124F8E709EB8903491C00EB4309087852
:100F0000FF28F7D114B1C9F10000814610780025FF
:100F10002C46AA4629462D2801D02B2804D1521C44
:100F20002D2813D0002082468B461078FF280FD042
:100F30004FF0000C0A21521CA5FB017804FB018133
:100F400005FB0C11C5194BEB0104EEE70120EAE7A4
:100F5000002108464FF00000BAF1000F02D000EB6C
:100F600080004008C0F38157012F01DD4FF0FF37AB
:100F70000E9955EA040009EB01080BD04FF0020965
:100F800018F5FA7F16DA4FEACA70002F706008DD94
:100F9000012007E04FEACA70C6E900B00FB0BDE813
:100FA000F08F00203060FFF71FFEC0F8009018217E
:100FB000084616E0B8F5FA7F18DD002F02DAF74888
:100FC000784401E0F6487844D0E90010C6E9001002
:100FD00040EACA707060FFF707FEC0F80090142165
:100FE00008460FB0BDE8F04F06F01CBB00210846D4
:100FF0004FF00000B8F10001099002DAC7F10002D9
:1010000000E03A4601DAC8F1000106A8FFF79EFEAB
:1010100006AB93E8070003AB83E8070044F23E0009
:101020005BEA04010090584604D144F21E012C46AC
:101030005D460091210C0904014306D10099240466
:1010400044EA15442D041039009104F07F41014316
:1010500006D10099240244EA15642D020839009152
:1010600004F07041014306D10099240144EA15744B
:101070002D01091F009104F04041014306D1009960
:10108000A40044EA9574AD00891E009104F000416B
:10109000084304D100986D196441401E00904FF040
:1010A00001033A466846B8F1000FCDE9014503A9AE
:1010B00002DD00F022FF01E000F0F5FEBAF1000FC2
:1010C00004460D4601D084F00044002108464FF04C
:1010D0000000099940F2FF77484010F00C0F07D14B
:1010E00024F00040284303D0C4F30A50B84212D180
:1010F000FFF77AFDC0F80090C4F30A50B8420AD155
:10110000A8487844D0E90010C6E9001004F0004176
:101110000843706042E7C6E900543FE72DE9FF4FFE
:101120001F464FF0000A4FF0FF38454691B0D7E90F
:101130000146CDF83CA0FFF753FDC0680168405C54
:101140001090B96912986D1C8847396A81468847A2
:101150000028F6D1B9F1FF3F0AD0002E24F4D06464
:1011600011DDB9F12B0F08D0B9F12D0F0BD102E031
:10117000404615B013E744F48064B96912986D1CB9
:101180008847761E8146600504A901D52D2000E020
:101190002B20002E01F1010B0DF130088DF810000D
:1011A0003FDDB9F1690F08D0B9F1490F05D0B9F1A8
:1011B0006E0F02D0B9F14E0F1CD13B4601A800952D
:1011C00080E85002DDE912126FF0020006F093FA97
:1011D000C11CCED10EE0B96912986D1C88478146BA
:1011E0001398761E44F4007405600F98401C002E7E
:1011F0000F9016DDB9F1300FEDD0B9F1780F02D0B4
:10120000B9F1580F0DD10F9801280AD13B46CDE90D
:101210000054DDE91212001F029606F06AFAC11CA2
:10122000A7D1109989453ED144F0800406E0139976
:10123000681CAAF1010A44F400740860B9696D1CC5
:101240001298761E884730288146F0D02BE01099FE
:10125000894505D1200603D4761E44F0800418E0A9
:10126000484605F060F808B3761E0DF123018B4562
:1012700044F4007408D2A9F130000BF8010B2006E9
:1012800007D5AAF1010003E0200602D40AF101000B
:101290008246A00502D51399681C0860B9691298A6
:1012A0006D1C88478146002ED1DC53E0002E51DDB5
:1012B000B9F1650F02D0B9F1450F4BD1A00549D561
:1012C000B9696D1C1298761E24F440748847002E6C
:1012D00081460CDD2B2804D0B9F12D0F07D144F441
:1012E0008074B96912986D1C8847761E8146E005A6
:1012F00001D52D2100E02B2108F8011BCDF800803D
:1013000021E0761E0DF13901884544F400740CD2B9
:10131000A9F1300010F0FF0088F8000002D1009918
:10132000884509D908F1010806E0E00501D51E4805
:1013300001E042F20F708246B96912986D1C88472D
:10134000814613980560002E04DD484604F0EBFF4B
:101350000028D6D1F96912988847FF2053468BF8A8
:10136000000088F8000000200A900B9004AA0CA945
:101370000AA8FFF7ADFDA00502D46FF00100F8E662
:1013800014F0240F12D0E0071CD13868DDE90A12EE
:10139000031D3B600068C0E9001213E03C680000D8
:1013A0002E680000F2660000F1D8FFFF0AA9684627
:1013B00004F0A6FFE00705D13868009A011D3960E6
:1013C000006802602846D4E610B50446AFF30080FA
:1013D0002046BDE81040FEF736BF00004FF0013C4C
:1013E00050F8042B51F8043B9A4221D1A2EB0C0394
:1013F000934313EACC1317D150F8042B51F8043B54
:101400009A4215D1A2EB0C03934313EACC130BD1F0
:1014100050F8042B51F8043B9A4209D1A2EB0C037B
:10142000934313EACC13DBD04FF00000704700BFAA
:10143000D01A01BAB1FA81F101F0180122FA01F0D3
:10144000CB40C1F12001DBB2C0B2C01A2CFA01F3CB
:10145000D11A914311EAC311E6D17047014918200E
:10146000ABBEFEE7260002002DE9FF4F1F464FF0FE
:101470003C0987B04FF00042DDE9141001F101088A
:10148000DDF858A002EA4050039000200590834602
:10149000054604460490B969461E08988847AAF193
:1014A000010A0290BAF1000F3BDD02982E2815D0F8
:1014B000102100F017FA00282EDB4FF0010B0599E0
:1014C000014317D0B9F1000F0BDB4A46C11700F0FA
:1014D000F6F905430C43A9F1040905E00120049045
:1014E0000BE008B145F0010501200590049820B9F2
:1014F000361D02E0049800B1361FB969089808F15A
:1015000001088847BBF1000FAAF1010A0290C9D077
:101510000999C1F80080C5E70298702808D05028C2
:1015200006D0F96908988847BBF1000F14D04FE046
:10153000002002900120BBF1000F049009D0B9698E
:10154000089808F101088847AAF10109B9F1000FCC
:1015500007DCF969089888476FF001000BB0BDE817
:10156000F08F2B2804D02D280CD14FF0FF300490A1
:10157000B969089808F101088847A9F10109B9F18A
:10158000000FE6DD411CE4D00A2100F0ABF9002891
:10159000DFDB029908F1010801EB810100EB41005A
:1015A0000290B969089888470A2100F09BF9099AC6
:1015B000A9F10109B9F1000FC2F8008001DD00288E
:1015C000E7DAF969089888470499029800FB0166F0
:1015D00055EA040004D004F04041090002D006E0BE
:1015E000039898E0A40044EA9574AD00B61E04F098
:1015F0000041080002D16D196441761E159810F063
:10160000240F03D04FF00B095C4803E04FF028098A
:101610006FF07D008246564507DAAAEB0601894441
:10162000B9F1410F01DD4FF0410901200021A9F17D
:10163000010200F044F9024628400B4621400843CD
:1016400001D0012100E00021501E029143F1FF3141
:1016500028402140084301D0012000E000200299E9
:10166000834651EA0B014FD0002108464FF000009D
:10167000039900F4400039B100EB80004FF44001C1
:1016800000EBD07001EA60008015012802DD4FF008
:10169000FF3000E013D0401C36D0029860B3BBF19D
:1016A000000F0CD14A460120002100F008F9284023
:1016B0002140084301D0012000E00020E0B10120DA
:1016C0004A46002100F0FBF8034640190A466141F2
:1016D0002D1A8C4111D3B9F1400F09DD159810F086
:1016E000240F02D0AAF1340603E0AAF1170600E0A5
:1016F000761C00254FF0004406E05B1E42F1FF32ED
:1017000020EA030521EA0204CAF10100B04206DA28
:101710001B49039808430190002000900EE0039AB3
:10172000C4F3D321E80A0A43164940EA44500A4365
:101730003146CDE90002684604F0EBFD159810F043
:10174000240F0BD01598C00715D13868DDE90012B9
:10175000031D3B600068C0E900120CE002A8694666
:1017600004F0CEFD1598C00705D13868029A011D16
:101770003960006802604046F0E6000002FCFFFFAE
:101780000000F07F0000F03F2DE9FF4F92461D461C
:1017900085B04FF00041DDE9124BDDE914727F1E88
:1017A00001EA4B50414940F0FF4940EA010800215D
:1017B00022F020004928049102D04E2828D04CE085
:1017C0003BA0012607C88DE80700A9690698641C9C
:1017D00088477F1E014606D41DF8060018B121F087
:1017E000200181420BD0E96906988847032E34D046
:1017F000082E32D06FF0010009B0BDE8F08F761CE2
:10180000032E01D0082EE0D1601CCAF80000DCE7EE
:10181000A9690698641C88477F1E2AD420F02000FE
:10182000412826D1A9690698641C88477F1E20D4C8
:1018300020F020004E281CD1A9690698641C884716
:101840007F1E48F4002849F48009CAF8004001D4FA
:10185000282806D0E969069888475FEACB7012D03D
:1018600022E0A9690698641C88477F1E01D40028DD
:1018700003DAE96906988847BCE72928F1D1641C96
:10188000CAF80040E9E71BF0240F07D02868049944
:10189000031D2B600068C0E9001805E02868021DE0
:1018A0002A600068C0F800902046A5E70000F07F9D
:1018B000494E46494E495459000000007047B2F164
:1018C00020030AD5C2F1200301FA02F120FA03F342
:1018D00000FA02F041EA0301704700FA03F14FF009
:1018E000000070473A2800D2303820F02002412A08
:1018F00001D3A2F13700884201D34FF0FF30704787
:101900005FEA400C08BF91F0000F4FEA8C234FEACA
:10191000C12243EA51514FEA1C5018BF00F5F04074
:101920004FEA300018BF41F000415FEA6C5C00F004
:101930002980BCF1FF3F08BF40F080407047130C86
:1019400006BF12044FF0100C4FF0000C130E04BF32
:1019500012020CF1080C130F04BF12010CF1040C5D
:10196000930F04BF92000CF1020CD30F04BF52007E
:101970000CF1010C11464FF00002A0F11F00A0EB8A
:101980000C00704711F0004F08BF704731F0004164
:101990003FF4D5AF0B0C06BF09044FF0100C4FF00D
:1019A000000C0B0E04BF09020CF1080C0B0F04BF56
:1019B00009010CF1040C8B0F04BF89000CF1020C1F
:1019C000CB0F04BF49000CF1010CCCF12003A0EBBC
:1019D0000C0022FA03F302FA0CF241EA030100F1CF
:1019E0000100704720F07F4C80EA030023F07F471E
:1019F000ACEB070303F57C5300F0004003F1FF0359
:101A00002DE980494FEA154B09B44FEA144325EA02
:101A10000B4E24EA03480FF2042606EB132749086D
:101A20003E785FEA320203FB0667C7F5000707FB53
:101A300006F64FEA54374FEAD64606F1020607FB90
:101A4000066CCCF1005C4FEA1C472CEA074C07FB04
:101A500006F40CFB06F504EB15464FEA961634BF68
:101A600000204FF000404FEAD13706FB07FC4FEA59
:101A70001C4C0CFB0BF7D21B03FB0CF761EB0701B3
:101A80000CFB0EF7B0EB074072EB17420CFB08F7AC
:101A900034BFA2EB0742B2EB074261EB17414FEABA
:101AA0000C444FEA910706FB07FC4FEA1C4C0CFB69
:101AB0000BF7B0EBC74072EB573203FB0CF734BFA8
:101AC000A2EBC742B2EBC74261EB57310CFB0EF7FA
:101AD000B0EBC70072EB57720CFB08F734BFA2EBF8
:101AE000C702B2EBC70261EB5771039F4FEA8161F6
:101AF00041EA921104EBCC044FEAD1374FEA8262FB
:101B000006FB07FC42EA90124FEA80604FEA1C4C49
:101B10000CFB0BF7D21B03FB0CF761EB07010CFB73
:101B20000EF7B0EB074072EB17420CFB08F734BF1F
:101B3000A2EB0742B2EB074261EB17414FEA8C552B
:101B40004FEA910704EB9C2406FB07FC4FEA1C4C70
:101B50000CFB0BF7B0EBC74072EB573203FB0CF7F3
:101B600034BFA2EBC742B2EBC74261EB57310CFB6B
:101B70000EF7B0EBC70072EB57720CFB08F734BFDF
:101B8000A2EBC702B2EBC70261EB577115EB4C2514
:101B90004FEA816141EA92114FEA82624FEAD137FE
:101BA00042EA901206FB07FC44F100044FEA806011
:101BB0004FEA1C4C0CFB0BF7D21B03FB0CF761EB41
:101BC00007010CFB0EF7B0EB074072EB17420CFB62
:101BD00008F734BFA2EB0742B2EB074261EB1741B3
:101BE00015EB1C154FEA813141EA92414FEA8232EE
:101BF00042EA90424FEA80304FEA0C7644F100040A
:101C000048EA03434EEA0B484FF0000EB2EB080CD3
:101C100071EB030724BF624639464EEB0E0E4FF0C0
:101C2000000B0018524149414BEB0B0BB2EB080C77
:101C300071EB03077BF1000B24BF624639464EEB84
:101C40000E0E4FF0000B0018524149414BEB0B0BAD
:101C5000B2EB080C71EB03077BF1000B24BF62466B
:101C600039464EEB0E0E51EA020718BF46F0010648
:101C700016EB0E7655F1000254F1000103D5BDE8D4
:101C80008901BDE80088BDE88901BDE80048B619B2
:101C9000524141EB0101A3F10103704780807F7E37
:101CA0007D7C7B7A797877767675747372717170D2
:101CB0006F6E6E6D6C6C6B6A6A6968686766666584
:101CC0006464636362616160605F5F5E5E5D5D5C12
:101CD0005C5B5B5A5A595958585757565655555583
:101CE0005454535352525251515050504F4F4F4EE3
:101CF0004E4D4D4D4C4C4C4B4B4B4A4A4A49494931
:101D00004848484747474746464645454544444472
:101D100044434343434242424241414146EA06462C
:101D2000A3F570534FEA164646EA42564FEAD222CE
:101D300042EA415210B54FEAD121A3F1010300F06C
:101D40002FF820F0004000F1020C00F0004701EBFA
:101D500000501146BCF5006F40EA070000D210BDEC
:101D6000BAF1000F0AD01CB503B44FF004004FF0D5
:101D700004014FF000000FBCBDE810404FF000011F
:101D8000BBF1010FB9BF04484FF0FF3103480021F8
:101D900040EA070010BD00BFFFFFEF7F0000F07FAB
:101DA000002B9C4630D477002BD01CB54FEA370768
:101DB00003B44FF010004FF01001BAF1000F06D03D
:101DC000BCF1000FDCBF40F0080040F008014FF00C
:101DD00000000FBCBDE810400BF1010BBBF1010F7F
:101DE00008BF5FEA170722BF12F1010211F10101DA
:101DF0004FF0004143F1000300F0004043EA0000CF
:101E00007047F9D35708D0E746EA064613F1400F6A
:101E10004FEA16461FDD13F1200FDFBF16430A46B7
:101E2000002120335B42BED0C3F1200746EA0646BC
:101E300002FA07F74FEA164646EA0706C3F12007FB
:101E400022FA03F201FA07F721FA03F14FF0000337
:101E500042EA0702A7E746EA020646EA06464FEAD2
:101E6000164646EA0106BCBF46EA0646360C4FF067
:101E700000034FF000024FF0000194E72DE9804C81
:101E80009A46934670B491E8380007C831EA400C8E
:101E900048BF34EA430C03D5FFF7A4FDFFF780FFEA
:101EA000F0BCBDE8008C2DE9804C9A46934670B496
:101EB00091E8380007C831EA400C48BF34EA430CC7
:101EC00003D5FFF78FFDFFF729FFF0BCBDE8008CBD
:101ED0002DE9804C9A46934670B491E8380007C8C3
:101EE00010F0804F08BF13F0804F03D100F01AF8B4
:101EF000FFF756FFF0BCBDE8008C2DE9804C9A46F8
:101F0000934670B491E8380007C810F0804F08BFBE
:101F100013F0804F03D100F005F8FFF7FFFEF0BC8F
:101F2000BDE8008C20F07F4780EA030023F07F4C5F
:101F300007EB0C03A3F57C5300F00040A3F1FE0374
:101F400092F0000F00F0B38095F0000F00F0778062
:101F50002DE901494FEA11404FEA144621EA0048B1
:101F600000FB06FC24EA064708FB06F607FB08F818
:101F700000FB07F718EB06484CEB164C4FEA124BE8
:101F800018EB07484FEA15464CEB174022EA0B4E78
:101F90000BFB06FC25EA06470EFB06F607FB0EFECA
:101FA0000BFB07F71EEB064E4CEB164C4FF00006F2
:101FB0001EEB074E4CEB174B18EB0B0840F10000E3
:101FC00018EB0E0B58EB000840F100008F1A4FF091
:101FD00000013CBFC943661B14BFB5EB040C0021D4
:101FE0003CBFC943F61B4FEA17444EEA8E0E27EA60
:101FF00004454FEA1C4704FB07622CEA074C05FB2B
:1020000007F70CFB05F604FB0CFC16EB074642EB4E
:10201000174216EB0C4642EB1C421BEB060658EB34
:102020000202414146EA9E0601D5BDE80189B61982
:10203000524141EB0101A3F10103BDE801894FEADF
:1020400014454FEA114724EA054621EA074C05FBEF
:1020500007F406FB07F70CFB06F105FB0CFC11EB84
:10206000074144EB17444FEA124711EB0C4144EB94
:102070001C4422EA074C05FB07F206FB07F70CFBA2
:1020800006F605FB0CFC16EB074642EB174216EB77
:102090000C4642EB1C456A1854F1000148BF7047DA
:1020A000B619524141EB0101A3F10103704795F0CC
:1020B000000F37D04FEA11424FEA144721EA024697
:1020C00024EA074C02FB07F106FB07F70CFB06F4BA
:1020D00002FB0CFC14EB074441EB17414FEA154798
:1020E00014EB0C4441EB1C4125EA074C02FB07F5BD
:1020F00006FB07F70CFB06F602FB0CFC16EB07468B
:1021000045EB174516EB0C4645EB1C42121951F1F5
:10211000000148BF7047B619524141EB0101A3F1DC
:10212000010370474FEA14454FEA114724EA054678
:1021300021EA074C05FB07F106FB07F70CFB06F24B
:102140004FF0000605FB0CFC12EB074241EB174178
:1021500012EB0C4251EB1C4148BF7047921841EB07
:102160000101A3F10103704710B5104C0122114683
:10217000204600F060FD00220221204600F05BFDB9
:102180004FF4FA7000F090FB01220221204600F08B
:1021900052FD074C01222021204600F04CFD204634
:1021A0000022BDE81040102100F045BD00040240AF
:1021B00000080240FEE7000010B504462DED068B36
:1021C000B0EEC08A1A489FED1BAB008E04F045FEAE
:1021D00041EC190B18EE100A64B105F077F953ECD5
:1021E000192B04F089FE41EC100B53EC102B9FEDE2
:1021F000130B0BE005F06AF953EC192B04F07CFE8D
:1022000041EC100B53EC102B9FED0E0B51EC100B0F
:1022100004F032FC04F042FB05F058F953EC1A2BA1
:1022200004F06EFBBDEC068BBDE8104004F0B8BDB9
:1022300000000020000000000000E03F000000005F
:10224000389C9C4100000000389C6C410B4A10B542
:102250001046137C006E02F180012BB1127D49689B
:102260004A43824203DA06E00968814203DB03F055
:10227000B9FA012010BD002010BD000000000020B0
:102280007047000000222021014800F0D4BC00006B
:102290000008024070B5194C00224FF480612046BE
:1022A00000F0C9FC00228021204600F0C4FCA514E7
:1022B00000222946204600F0BEFC0122D102204621
:1022C00000F0B9FC01229103204600F0B4FC00228A
:1022D00001210B4800F0AFFC00221021094800F05A
:1022E000AAFC00222946084800F0A5FC0022A115FE
:1022F000204600F0A0FC012070BD0000001002404C
:102300000004024000080240000002402DE9F041B4
:102310004B4C804694F8220010B10120BDE8F081BA
:10232000A079E17A464D884305F180054FF000061B
:102330004FF0010757D04249227B4B8D91F828007E
:1023400091ED170A184480B2C98F6085BAB1E27C5A
:102350000B46524200EE902A0022F8EEE00A20EEF0
:10236000800A01F0CFFFB5EEC00A85ED040AF1EE58
:1023700010FA26D0207CFFF71FFFA08623E00B4633
:102380000022114601F0BEFFB5EEC00A85ED040A39
:10239000F1EE10FA04D0207CFFF70EFFA08601E0DA
:1023A00003F020FAE08FD5ED040A00EE100AB8EE33
:1023B000400AF4EEC00AF1EE10FA14DB66852773CA
:1023C00011E003F00FFA95ED040AB5EEC00AF1EE44
:1023D00010FA08D866859FED1B0A85ED040AA671E0
:1023E000267303F0FFF9A079E17A084313D1404640
:1023F00003F00EFD78B1E77294F8290000EE100AA0
:10240000207CB8EE400AFFF7D7FEA08684F825703E
:10241000E67703F0A5F9E07AA17988430ED0207C15
:1024200018B16868002803DD08E094F8230028B19B
:10243000E67284F8227003F0D5F96EE700206DE7AC
:10244000000000200000000000220121014800F0EF
:10245000F2BB00000004024070B520211B48FEF7CB
:1024600090F81A4828214838FEF78BF80021174BBE
:102470000846483BA3F15002145C1CB1145C5C5448
:10248000491CC9B2401CC0B22828F5D30F4800240B
:102490000FA14838FEF750F80C4D0DE003F000FE98
:1024A00051EC100B04F0FAF945F8240008A10020C3
:1024B000FEF742F8641CE4B20028EFD1BDE870409A
:1024C000024828219838FEF75CB80000E00200209E
:1024D0002F000000002229B101291AD002291BD0A7
:1024E0004FF440720E490B6823F440730B600B6885
:1024F00013430B600A6822F0F8020A600A6802239C
:1025000003EBC00002430A60086840F480300860B2
:1025100070474FF48072E5E74FF40072E2E7000085
:10252000103C02401348016889050FD5016821F469
:1025300000710160016841F400610160016821F4EB
:1025400000610160016841F40071016001684905A2
:102550000FD5016821F480610160016841F4805168
:102560000160016821F480510160016841F48061DB
:1025700001607047003C024008490A6822F440723A
:102580000A600A6842F004020A600A684FF4803365
:1025900043EA002002430A6070470000103C0240FA
:1025A000064A136823F440731360136813601368BA
:1025B00043F001031360017070470000103C0240BB
:1025C000094910B50C6824F440740C600C6844F49C
:1025D00040740C600C6844F001040C600260BFF3AE
:1025E0006F8F436010BD0000103C0240074A136823
:1025F00023F440731360136843F48073136013680B
:1026000043F001031360018070470000103C02405A
:10261000074A136823F440731360136843F400738C
:102620001360136843F001031360016070470000FA
:10263000103C024017490868C206174805D5C26910
:1026400042F01002C26110220A600A68920605D5A3
:10265000C26942F00802C26120220A600A6852067A
:1026600005D5C26942F00402C26140220A600A68CC
:10267000120605D5C26942F00202C26180220A60D8
:102680000A68920705D5C26942F02002C2610220A1
:10269000086070470C3C02400003002070B51149EF
:1026A00004460020C86100F0CBFA06460E4D09E052
:1026B000601C07D024B100F0C3FA801BA04201D9EE
:1026C000032070BD2868C003F2D42868C00701D079
:1026D00001202860286810F0F200F2D0FFF7AAFF6E
:1026E000012070BD000300200C3C024008C8521EAF
:1026F00008C192B2FAD270472DE9F84317468846CE
:102700000546002400F07CF9284600F02BF8064628
:1027100005EB870000F026F8014611480022891BCE
:1027200002600222491C8660C0E90312694600F07B
:10273000CDF848B90EE000BF58F824200023294600
:10274000022000F01FF918B100F00CF9BDE8F88381
:10275000641C2D1DBC42EFDB00F00AF90020F5E7F8
:10276000AC0000200021A0F1006343F6FF72934209
:102770002BD3174B0344934201D2012125E0154B83
:102780000344934201D202211FE0134B03449342BE
:1027900001D2032119E0114A4FF6FF7302449A4215
:1027A00001D2042111E00E4A83180E4A934201D24D
:1027B00005210AE00C4B0344934201D2062104E0B8
:1027C0000A4B1844904200D2072108467047000087
:1027D00000C0FFF70080FFF70040FFF70000FFF7A1
:1027E0000000FEF7FFFF01000000FCF70000FAF711
:1027F0002DE9F0410446876D00F022FA064694F870
:1028000035000025022806D08020606584F8345009
:102810000120BDE8F0812068016821F01601016007
:102820002068416921F080014161206C08B9A06CE9
:1028300020B12068016821F008010160206801686A
:1028400021F0010101600CE000F0FAF9801B05287D
:1028500007D920206065032084F8350084F83450BF
:10286000D7E720680068C007EED194F85C103F20DD
:102870008840B860012084F8350084F83450002086
:10288000C7E790F83510022903D080214165012067
:102890007047052180F835100068016821F00101BA
:1028A000016000207047000070B5044600F0C8F9D0
:1028B0000546601C02D004480078044400F0C0F9CA
:1028C000401BA042FAD370BD980000202DE9F047CC
:1028D000044622480F46017E01290AD00121804684
:1028E00001764CF250394846FFF7D8FE020003D07B
:1028F0002FE00220BDE8F0874FF0FF3038602068FD
:10290000174D012801D0A6681CE0207C6168FFF704
:1029100033FE4846FFF7C2FE0246286820F0040056
:10292000286014E0217C3046FFF7D4FD4846FFF7CD
:10293000B5FE0200286820F0FA00286001D03E6051
:1029400005E0761CD4E902100844B042EAD8FFF74B
:10295000E9FD002188F818101046CBE7000300209D
:10296000103C02400148C06970470000000300208D
:102970000348016841F000410160002070470000F9
:10298000103C02402DE9F0471B4E05461446307EB0
:102990001F468946012808D0012030764CF2503875
:1029A0004046FFF77BFE18B114E00220BDE8F08737
:1029B0009DB1012D16D0022D19D022463B46484626
:1029C000FFF7FEFD4046FFF769FE0C490A6822F05A
:1029D00001020A6000213176E8E7E1B24846FFF7DC
:1029E000DFFDEFE7A1B24846FFF700FEEAE7214628
:1029F0004846FFF70DFEE5E700030020103C0240CB
:102A0000074900200A68002A09DA054A054B0C3AF2
:102A10001360054B13600968002900DA0120704734
:102A2000103C024023016745AB89EFCD2DE9F84FFB
:102A3000DFF8BCA1002201250AF1040B03264FF0A8
:102A40000F090BF1040E00BF0B6805FA02F42340D6
:102A5000A34270D10F7907F00307012F01D0022F95
:102A600016D187684FEA420806FA08FC27EA0C07E5
:102A7000D1F80CC00CFA08FC4CEA070CC0F808C0EE
:102A80004768A7430C79C4F3001494403C43446066
:102A90000C79E443A4070AD0C4684FEA420C06FA52
:102AA0000CF7BC438F6807FA0CF72743C7600C7913
:102AB00004F00304022C12D1D40800EB840CDCF8DF
:102AC00020405707FF0E09FA07F824EA0804D1F856
:102AD000108008FA07F848EA0408CCF82080046857
:102AE0004FEA420C06FA0CF7BC430F7907F00307D4
:102AF00007FA0CF7274307604C6814F4403F70D086
:102B00003C4C276847F480472760246822F003077D
:102B100004F480440094384C07EB040CDCF80848BB
:102B200097074FEA177809FA08F7BC43334FB842C2
:102B300002D1002724E054E0314FB84201D10127EF
:102B40001EE0304FB84201D1022719E02E4FB842A3
:102B500001D1032714E02D4FB84201D104270FE023
:102B60002B4FB84201D105270AE02A4FB84201D1C4
:102B7000062705E0284FB84201D1072700E00827C3
:102B800007FA08F72743CCF80878DAF800405746E8
:102B9000D1F804C09C435FEACC3C00D51C433C60A8
:102BA000DBF800405F46D1F804C09C435FEA8C3CF0
:102BB00000D51C433C60DEF800407746D1F804C0E5
:102BC0009C435FEACC2C00D51C433C60084F0C377B
:102BD0003C68D1F804C09C435FEA8C2C00D51C43B0
:102BE0003C60521C102AFFF42FAFBDE8F88F0000A4
:102BF000003C0140443802400030014000000240E7
:102C00000004024000080240000C02400010024094
:102C10000014024000180240001C024000690840F5
:102C200000D001207047426921EA02030A4043EACA
:102C30000241816170470AB1816170470904FBE775
:102C400001488068704700009800002002488168B1
:102C50000278114481607047980000200B4810B53D
:102C6000016841F400710160016841F48061016014
:102C7000016841F480710160032000F06FF80020CA
:102C800000F006F800F024F8002010BD003C0240DF
:102C900070B50D4D04464FF47A712878B1FBF0F011
:102CA0000A490968B1FBF0F000F01EFB48B9102C8E
:102CB00007D200222146501E00F030F800206C6040
:102CC00070BD012070BD000098000020A40000200D
:102CD0000A4808B5016841F480410160006800F4C9
:102CE000804000900548001F016841F0805101605C
:102CF000006800F08050009008BD00004438024099
:102D0000002809DB00F01F020121914040098000EA
:102D100000F1E020C0F8001170470000F0B40E4B45
:102D20001B680C46C3F30223C3F10705042D00D929
:102D30000425191D072901D2002300E0DB1E01260E
:102D400006FA05F1491E214099409E40761E164024
:102D50003143F0BC03F018B90CED00E0064900F077
:102D6000070208684FF6FF03184040EA0220034AB2
:102D700010430860704700000CED00E00000FA0509
:102D8000BFF34F8F05480168054A01F4E061114324
:102D90000160BFF34F8F00BFFDE700000CED00E0C6
:102DA0000400FA052DE9F0470E46050065D0DFF86E
:102DB0001481D8F80000F7B200F00700B04207D243
:102DC00088F80070D8F8000000F00700B04254D135
:102DD00028683D4C810712D5400703D5206840F490
:102DE000E05020602878000703D5206840F4604058
:102DF00020602068A96820F0F0000843206028784F
:102E0000C0072DD0304968680839012812D002283F
:102E100013D0032811D00968890700292DDA216809
:102E200021F0030101432160FFF70AFF814641F2CF
:102E3000883A0EE009688903EFE709688901ECE741
:102E4000FFF7FEFEA0EB0901514502D90320BDE8C2
:102E5000F0872068696800F00C00B0EB810FEFD1BB
:102E6000D8F80010404601F00701B14207D90770B9
:102E7000006800F00700B04201D00120E7E72878A1
:102E8000400705D52068E96820F4E0500843206039
:102E90002878000706D52068296920F4604040EAB8
:102EA000C100206000F038F82168084AC1F303111E
:102EB000515CC8400649086006480068FFF7E8FE14
:102EC0000020C4E7003C0240083802402A7700088E
:102ED000A40000209C0000200448054900680968FF
:102EE000044AC1F38221515CC8407047A40000200D
:102EF000083802403A770008044805490068096824
:102F0000044AC1F34231515CC8407047A40000201C
:102F1000083802403A770008154810B5006810F0EC
:102F20000C02144813D01449042A0FD0082A0ED1D9
:102F30000F4C241F2268236802F03F025B0207D572
:102F40002068C0F38810A0FB010106E0084610BD10
:102F50002168C1F38811A1FB00010023FDF79AF954
:102F60002168C1F30141491C4900B0FBF1F010BDDB
:102F7000083802400024F400001BB7002DE9F84F88
:102F800004006ED02078DFF84C93C007A9F1040547
:102F90004AD009F104000168C1F38101012908D078
:102FA0000068C0F3810002280AD1D9F8000040026D
:102FB00006D52868800337D560680028E1D033E063
:102FC0006068B0F5803F10D0B0F5A02F286810D011
:102FD00020F480302860286820F480202860606811
:102FE000A8B1FFF72DFE06460DE0286840F48030BA
:102FF000F4E740F480202860F7E700BFFFF720FEE9
:10300000801B642873D828688003F7D50CE0FFF78D
:1030100017FE064605E000BFFFF712FE801B64287E
:10302000F0D828688003F7D42078DFF8AC828007D6
:103030004FF0000A3ED5A748001D016811F00C0FA3
:1030400008D00068C0F3810002280BD1D9F8000035
:10305000400207D42868800716D5E068012800D10F
:1030600012E033E1E068B8B10120C8F80000FFF7D2
:10307000E7FD064605E000BFFFF7E2FD801B0228E2
:10308000C0D828688007F7D52868216920F0F800A3
:1030900040EAC10028600DE0C8F800A0FFF7D0FDAD
:1030A000064604E0FFF7CCFD801B02281FD82868E5
:1030B0008007F7D42078000722D5864F87486169BA
:1030C000703771B101210160FFF7BAFD064604E0D7
:1030D000FFF7B6FD801B022809D838688007F7D5AE
:1030E0000EE0C0F800A0FFF7ABFD064605E082E069
:1030F000FFF7A6FD801B02287DD838688007F7D42B
:103100002078400768D5DFF8CCB100270BF13C0BE5
:10311000DBF80000C0000BD4DBF8001041F0805158
:10312000CBF80010DBF80000012700F08050009081
:103130006B4E3068C00510D4306840F48070306049
:10314000FFF77EFD009005E0FFF77AFD0099401A39
:10315000022850D83068C005F6D55E4EA0686C369F
:1031600001280FD00528306810D020F00100306011
:10317000306820F004003060A068B8B1FFF760FD4F
:1031800000900FE0306840F00100F4E740F00400E8
:103190003060F7E7FFF754FD0099411A41F288309B
:1031A000814266D830688007F4D50EE0FFF748FD0D
:1031B000009007E0FFF744FD0099411A41F2883082
:1031C000814256D830688007F4D42FB1DBF8001064
:1031D00021F08051CBF80010A069C8B33D49091D0A
:1031E0000968C1F3810102294AD00228504607D05C
:1031F000C8F8600000E03CE0FFF722FD04463BE039
:103200004746C8F86000FFF71BFD064605E000BF13
:10321000FFF716FD801B02282BD828688001F7D401
:10322000D4E907010843A16A2E4A490802EB01418B
:10323000626A41EA8211084394F82C1040EA016165
:10324000C9F8001001203866FFF7FAFC044606E0D2
:103250003EE000BFFFF7F4FC001B022809D82868F5
:103260008001F7D534E000BFFFF7EAFC001B02281D
:1032700002D90320BDE8F88F28688001F4D427E044
:103280000128F7D0D9F80000E26900F480019142EA
:103290001CD1226A00F03F01914217D147F6C0715C
:1032A000626A0140B1EB821F10D1A26A4FF0FF3376
:1032B00000F4403103EB5202B1EB024F06D194F817
:1032C0002C1000F07060B0EB016F01D00120D1E74D
:1032D0000020CFE70438024000004742800E4742FA
:1032E000007000400000FFFF10B5401EB0F1807F6D
:1032F00001D3012010BD4FF0E02460610F21601761
:1033000002F042FE0020A06107202061002010BDD5
:103310007047704770B590F83C20012A32D00124E4
:1033200080F83C40022280F83D2003685A689D687E
:1033300022F070060A6832435A60134B02689A42C0
:1033400014D0B2F1804F11D0104B9A420ED0104BD6
:103350009A420BD00F4B9A4208D00F4B9A4205D09D
:103360000E4B9A4202D00E4B9A4204D1496825F086
:1033700080031943916080F83D40002180F83C10A3
:10338000084670BD022070BD0000014000040040EE
:1033900000080040000C00400004014000400140D3
:1033A0000018004010B5040003D094F83D0010B19F
:1033B00007E0012010BD002084F83C00204600F00A
:1033C0001FF8022084F83D00211D206802F0A8FAB1
:1033D000012084F8460084F83E0084F83F0084F819
:1033E000400084F8410084F8420084F8430084F8E7
:1033F000440084F8450084F83D00002010BD000022
:1034000070B586B0044614216846FDF7BAF8254A1F
:10341000256800232349103A02242348B5F1804F40
:1034200025D0224EB54220D10D6845F002050D6031
:10343000096801F002010591116841F00101116074
:10344000116801F00101059140210091CDE901438E
:10345000CDE903346946FFF7E9FA002211461D2041
:10346000FFF75CFC1D20FFF74BFC06B070BD0D683C
:1034700045F001050D60096801F001010591116831
:1034800041F001011160116801F001010591222153
:103490000091CDE901430121CDE903316946FFF7F0
:1034A000C5FAE2E740380240000002400004004054
:1034B00090F83D10012901D001207047022180F8C9
:1034C0003D100168CA6842F00102CA6000681149F3
:1034D000884214D0B0F1804F11D00F4988420ED0ED
:1034E0000E4988420BD00E49884208D00D498842C7
:1034F00005D00D49884202D00C49884204D1816828
:1035000001F00701062903D0016841F001010160C3
:103510000020704700000140000400400008004007
:10352000000C004000040140004001400018004031
:103530000168CA6822F00102CA6001680A6A41F2A1
:1035400011131A4207D10A6A9B101A4203D10A6862
:1035500022F001020A60012180F83D10002070472E
:1035600070B5044690F83C000025012817D00126CC
:1035700084F83C60022084F83D002068826822F0D4
:10358000770222F47F4282600868502838D00DDC30
:1035900020284FD005DC90B3102811D14AE002203A
:1035A00070BD302846D040280AD13BE060282FD09B
:1035B00070280DD0B0F5805F03D0B0F5005F12D059
:1035C000012584F83D60002084F83C00284670BD49
:1035D000CB68D1E90121206802F006FA20688168F1
:1035E00041F0770109E0CB68D1E90121206802F0C0
:1035F000FBF92068816841F480418160E1E719E0CE
:10360000CA684968206802F001FA5021206806E083
:10361000CA684968206802F04BFA6021206802F00D
:10362000EDF9CEE7CA684968206802F0EFF9402159
:103630002068F4E7226801461046F0E770472DE95C
:10364000F041054690F83C0000260C46012810D0B9
:10365000012085F83C0072B1042A1CD0082A2CD025
:103660000C2A50D00126002085F83C003046BDE8E9
:10367000F0810220FBE7D4E90012E368286802F039
:10368000D7F92868816921F00C0181612868816976
:10369000A26811430FE0D4E90012E368286802F041
:1036A00019FA2868816921F440618161286881697B
:1036B000A26841EA02218161D5E72868D4E9002C9B
:1036C000277B016A21F480710162C169036A21F0DC
:1036D000030141EA0C0121F0F00C39074FF4206797
:1036E0004CEA116123F4206307EA02221A43C16104
:1036F00002622868C16921F00C01C1612868C169B2
:10370000A268114328E02868D4E90027E168036A29
:1037100023F480530362D0F81CC0036A2CF4407C6D
:103720004CEA07274FF6FF7C27F470470CEA01317B
:1037300039434FF4204723F4204307EA02321A4367
:10374000C16102622868C16921F44061C1612868D1
:10375000C169A26841EA0221C16184E710B5040091
:1037600003D094F83D0010B107E0012010BD002007
:1037700084F83C00204600F01EF8022084F83D004A
:10378000211D206802F0CCF8012084F8460084F85E
:103790003E0084F83F0084F8400084F8410084F83B
:1037A000420084F8430084F8440084F8450084F81B
:1037B0003D00002010BD704770B5044600680169E7
:1037C0004FF00005C943890715D4C168C94389076B
:1037D00011D4E91E016101202077206880698007EB
:1037E000204602D0FFF72AFF04E000F098F82046B8
:1037F00000F096F8257720680169C943490717D476
:10380000C168C943490713D46FF004010161022064
:1038100020772068806910F4407F204602D0FFF7AF
:103820000DFF04E000F07BF8204600F079F82577E2
:1038300020680169C943090716D4C168C94309074B
:1038400012D46FF008010161042020772068C0695C
:103850008007204602D0FFF7F1FE04E000F05FF899
:10386000204600F05DF8257720680169C943C90644
:1038700017D4C168C943C90613D46FF010010161A0
:10388000082020772068C06910F4407F204602D0CD
:10389000FFF7D4FE04E000F042F8204600F040F8C4
:1038A000257720680169C943C90708D1C168C943A0
:1038B000C90704D1891E0161204600F033F8206851
:1038C0000169C943090609D4C168C943090605D479
:1038D0006FF0800101612046FFF71AFD2068016941
:1038E000C943490609D4C168C943490605D46FF0E4
:1038F00040010161204600F079F820680169C94360
:1039000089060BD4C168C943890607D46FF020012A
:1039100001612046BDE87040FFF7FBBC70BD7047F9
:10392000704700002DE9F04100682C49012700266E
:103930002B4C884240D1617B89B3A18E79B3E28E52
:10394000521C92B2E2868A4236D3E68694F825006B
:1039500004F1800520B379022248FFF764F984F866
:10396000256024E0401C686008E0401E6860207C00
:1039700020B16868002801DC01F034FFA07B00283A
:103980000BD0E968491CE960A868002800DA4042C9
:10399000884202DC01F026FFA673BDE8F0810BE04F
:1039A0004FF480711048FFF73EF984F82570E07FEE
:1039B00000286868D9D0D5E7B0F1804FEDD194F8F0
:1039C0002600401CC0B284F8260094F828108842D3
:1039D000E3D304F8207FA671DFE700000004004075
:1039E00000000020001002400008024070477047AD
:1039F00070470000F8B5016804460868CA684B695A
:103A000010F00F0F4FF0000559D003F0010602F43B
:103A10009077374365D0C10705D0D10503D5216C18
:103A200041F001012164410705D5D90703D0216C7C
:103A300041F002012164810705D5D90703D0216C2B
:103A400041F004012164010707D502F02001314350
:103A500003D0216C41F008012164216C00293AD087
:103A6000800604D5900602D5204602F08AF8206828
:103A70004069216CC0F38010090700D460B3204670
:103A800002F058F820684069400621D520681430BB
:103A900050E8001F21F0400140E80012002AF5D153
:103AA000A06BA8B16C490165A06BFEF7EAFE002887
:103AB00011D0A06B016D01B0BDE8F040084783064E
:103AC0000FD593060DD52046BDE8F84002F059B851
:103AD0002046FFF78DFFF8BD2046FFF789FF2564DC
:103AE000F8BD266B2023012E79D1C60677D5D606E0
:103AF00075D50868486800904869400640D5A16BB4
:103B0000086840680004000CEAD0A28D8242E7D920
:103B1000E085C869B0F5807F2DD020680C3050E872
:103B2000001F21F4807140E80012002AF5D12068BE
:103B3000143050E8001F21F0010140E80012002A73
:103B4000F5D12068143050E8001F21F0400140E812
:103B50000012002AF5D184F83E30256320680C302D
:103B600050E8001F21F0100140E80012002AF5D1B2
:103B7000A06BFEF73DFEA08DE18D401A81B229E0D9
:103B8000A08DE18D401A81B2E08D0028A8D00029D7
:103B9000A6D020680C3050E8002F22F4907240E844
:103BA0000026002EF5D12068143050E8002F22F0B6
:103BB000010240E80026002EF5D184F83E3025634E
:103BC00020680C3050E8002F22F0100240E800235B
:103BD000002BF5D12046FFF70AFFF8BDFFE70506E9
:103BE0002BD5150629D594F83D002128F5D1A068DC
:103BF000B0F5805F01D12069B0B1206A411C21621B
:103C0000216800784860E08C401E0004000CE084CD
:103C1000E3D12068C16821F08001C1602068C168DB
:103C200041F04001C160D8E7206A0088C0F3080075
:103C30004860206A801C2062E5E74006CDD550062A
:103C4000CBD5CA68204622F04002CA6084F83D30D5
:103C500000F0AFF9C1E70000255B000870B5040073
:103C600004D094F83D00002510B106E0012070BD9D
:103C700084F83C50204600F023F8242084F83D00CE
:103C80002068C16821F40051C160204601F0DAFFCC
:103C90002068016921F4904101612068416921F0A7
:103CA0002A0141612068C16841F40051C160256466
:103CB000202084F83D0084F83E00002070BD000004
:103CC0002DE9F04186B0044614216846FCF759FC02
:103CD0004848474B226800244649103802250326ED
:103CE0000827DFF814819A4236D10A6842F400228C
:103CF0000A60096801F400210591016841F00101A1
:103D00000160016801F001010591016841F00401C1
:103D10000160006802AA00F0040005900120CDE9CE
:103D2000000582E8D00069463448FEF77FFEA8020D
:103D3000CDE9000502AA694682E8D0004046FEF7B8
:103D400075FE002211463420FEF7E8FF3420FEF70E
:103D5000D7FF06B0BDE8F081294B9A4227D10A6807
:103D600042F480120A60096801F48011059101682B
:103D700041F004010160016801F00401059101684E
:103D800041F008010160006802AA00F008000590F7
:103D90009814CDE9000582E8D00069464046FEF758
:103DA00045FE0420CDE900056946164819E016498C
:103DB0008A42CED10F49091D0A6842F020020A60EA
:103DC000096801F020010591016841F004010160DA
:103DD0000068694600F004000590C020CDE90005A8
:103DE000404602AA82E8D000FEF720FEB1E70000BC
:103DF000004C0040403802400008024000000240F1
:103E000000500040000C02400014014090F83E3089
:103E1000202B0ED159B152B190F83C30012B08D073
:103E2000012380F83C300023036301F091BF01209F
:103E300070470220704700002DE9F04106460068F7
:103E40002A49002501272A4C884212D1A17D242924
:103E50000DD071B1274AE07E1154401CE076254810
:103E6000012204F116014438FFF7D0FF01E0E576A6
:103E700067702149306888421CD1207F21788842B0
:103E800003D3A770E571257700E018B9207E0128DB
:103E900000D1E771E07968B1164A207F2832217E8F
:103EA0001154401C207712491248012218318838D9
:103EB000FFF7ACFF11493068884215D1E17D242914
:103EC00007D041B10B4A607F46321154401C6077E5
:103ED00001E06577E770BDE8F0410549054801223A
:103EE0001731CC38FFF792BFBDE8F08100140140D4
:103EF000000000204802002000500040004C00401C
:103F00002DE9F843044690F83D001F4616460D463D
:103F100020284CD1C5B1BEB194F83C00012846D050
:103F2000012084F83C004FF00008C4F840802120B4
:103F300084F83D00FEF784FEA6848146E684A068EE
:103F4000B0F5805F03D004E00120BDE8F88320696C
:103F500028B12E465FF0000584F83C800EE0002674
:103F6000FAE78021204601F00EFFA0B9AEB116F8A5
:103F7000010B21684860E08C401EE084E08C4B46D9
:103F80004FF0000200970028EBD14FF0400120468F
:103F900001F0F9FE30B10320D7E735F8020BC0F38A
:103FA0000800E6E7202084F83D000020CDE702204D
:103FB000CBE77047FEE7000070B5964996482DEDB7
:103FC000088B00F0DDF9934D944C95ED000A84EDDB
:103FD000150AD5ED010AFCEEE00A10EE900A86B251
:103FE000A687D5ED020AFCEEE00A10EE900A84F8EE
:103FF0002900D5ED030AFCEEE00A10EE900A608776
:1040000095ED048A84ED168AC8EE000AC4ED170AFD
:10401000D5ED050AFCEEE00A10EE900A84F82800BF
:1040200010EE100A103403F051FA00EE106AF0EEB0
:10403000008A41EC1A0B68EE280AB8EE400A20EE1E
:10404000800A10EE100A03F041FA41EC100B02F066
:10405000F8F89FED739B51EC100B53EC192B02F009
:104060004BFF53EC1A2B02F007FD02F0C9FEE0856E
:1040700095ED060AF7EE04AABCEEC00A10EE100A8F
:1040800080B22086E178B0FBF1F100EE101AF8EE74
:10409000400A00EE100AB8EE400A30EE800ABCEE8C
:1040A000C00A10EE100A80B200EE100AB8EE400A04
:1040B00020EE2A0ABCEEC00A10EE100A86B266860E
:1040C00094ED118A18EE100A03F000FA9FED561BCA
:1040D00053EC112B02F010FF02F0E0FB00EE900A0F
:1040E000208C00EE100A18EE100AB8EE401A00EE0E
:1040F000106AB8EE400A21EE000A80EE201ABDEEEA
:10410000C10A84ED140A95ED07AA84ED15AA8AEE7A
:10411000080A84ED160A03F0D9F941EC1B0BA08DB7
:104120006AEE280A00EE100AB8EE400A20EE800A75
:1041300010EE100A03F0CAF941EC100B02F081F8FE
:1041400053EC192B51EC100B02F0D6FE53EC1B2B49
:1041500002F092FC02F054FEA08695ED080ABCEE37
:10416000C00A10EE100A86B2E686E078B6FBF0F0E0
:1041700000EE100AF8EE400A00EE106AB8EE400AAF
:1041800030EE800ABCEEC00A10EE100A80B200EEDB
:10419000100AB8EE400A20EE2A0ABCEEC00A10EE61
:1041A000100AE08795ED098A84ED178AD5ED0A0A91
:1041B000C4ED180A94ED110A10EE100A88EE001AE8
:1041C00084ED1A1A80EE801A84ED191A03F07EF934
:1041D00000EE106A68EE280A41EC1A0BB8EE400AAD
:1041E00020EE800A10EE100A03F070F941EC100B7B
:1041F00002F027F853EC192B51EC100B02F07CFE67
:1042000053EC1A2B02F038FC02F0FAFDA087BDEC4B
:10421000088B70BDC000002000C100080000002015
:1042200000000000000024401F85EB51B81E19401B
:1042300070B500210122204C012821D0234604F131
:1042400080051B6E022824D0032833D1A27784F87E
:104250002210E272A1716868984224DA84F8211071
:10426000E27784F825101034FEF70CF8607E00EE3B
:10427000100A2078B8EE400AFDF79EFFA0840EE0F9
:10428000A27704F8062FA171627661712177E17738
:1042900003E0A27784F82210DDE7FDF7F3FFBDE825
:1042A000704001F05DBA84F8212004F80C1FE1741D
:1042B0006276F2E770BD00000000002010B5002219
:1042C0004FF480610448FEF7B6FC0022BDE81040C0
:1042D00020210248FEF7AFBC001002400008024057
:1042E00010B5012291020548FEF7A5FC0022BDE8A9
:1042F000104020210248FEF79EBC00000010024042
:104300000008024000EE900A70B5F8EEE00A1C4684
:1043100015460E4620EE200A10EE100A03F0D6F8DD
:104320009FED151B53EC112B02F0E6FD02F0B6FADF
:1043300000EE106A00EE900AB8EEC00A30EE800A75
:1043400000EE904AF8EEE00AB4EEE00AF1EE10FA60
:1043500003DB00EE104AB8EEC00A00EE905AF8EE09
:10436000E00AB4EEE00AF1EE10FA03D800EE105ABB
:10437000B8EEC00A70BD00007B14AE47E17A843FFE
:1043800030B50D460E498DB04A7D6946FEF7AEF94F
:1043900000240CA16846FCF7CFF80DE001F080FE88
:1043A00051EC100B02F07AFA45F8240005A1002028
:1043B000FCF7C2F8641CE4B20028EFD10DB030BDA8
:1043C000000000202F0000002DE9F04F87B01421DD
:1043D0006846FCF7D6F87E480024016841F01001D9
:1043E0000160016801F010010591016841F00401CC
:1043F0000160016801F004010591016841F080014C
:104400000160016801F080010591016841F001013E
:104410000160016801F001010591016841F00201AC
:104420000160016801F002010591016841F0080195
:1044300001600068674F00F00800059000224AF212
:1044400013313846FEF7F7FBDFF88C8100224FF47A
:10445000E1614046FEF7EFFBDFF880B149F6085610
:10446000002231465846FEF7E6FB01223021404645
:10447000FEF7E1FB002246F265015948FEF7DBFB3F
:10448000012248F202015648FEF7D5FB01224FF403
:10449000B9413846FEF7CFFB4FF480690122494607
:1044A0005048FEF7C8FB4FF4284A002251464D48B9
:1044B000FEF7C1FB6C20CDE9000469463846029442
:1044C000FEF7B4FA4FF6937000900125CDE9015440
:1044D000694638460394FEF7A9FA42F20700CDE98F
:1044E0000004694640460294FEF7A0FA4FF4E760E4
:1044F0000090CDE90154694640460394FEF796FAD0
:104500004FF42570CDE90004694658460294FEF741
:104510008DFA0096CDE90154694658460394FEF79A
:1045200085FA4EF267000090CDE9015469462C48A7
:104530000394FEF77BFA4FF440601227CDE90007A1
:1045400002AA03264FF0040882E860016946244865
:10455000FEF76CFA41F21820CDE9000469462048C4
:104560000294FEF763FA3002009001A9022081E86C
:1045700051000720049069461A48FEF757FA1120A7
:10458000CDF80090CDE90104694616480394FEF782
:104590004DFACDF800A0CDE90154694611480394C5
:1045A000FEF744FA45F28300CDE9000469460D4860
:1045B0000294FEF73BFAF001CDE9000702AA694632
:1045C00082E860010648FEF731FA07B0BDE8F08FD7
:1045D0003038024000100240000802400000024053
:1045E00000040240000C024010B58AB000242448A8
:1045F00004940594069407940894099400940194F3
:1046000002944FF08041039401600A21C0E9011433
:1046100042F2D001C0E9031480218161FEF7C2FE9D
:1046200000B1FEE74FF48050049004A91448FEF74F
:1046300097FF00B1FEE71248FFF790F800B1FEE7E0
:104640002020CDE9080408A90D48FEF763FE00B15B
:10465000FEE70120CDE900400294002269460848A7
:104660000394FEF7ECFF00B1FEE70422694604481C
:10467000FEF7E5FF002800D0FEE70AB010BD0000FD
:10468000EC00002010B586B0002415480094019479
:104690000294039404941149059401600121C0E936
:1046A0000114A821C0E903148461FEF77BFE00B168
:1046B000FEE74FF48050009069460948FEF750FF2E
:1046C00000B1FEE7049404A905480594FEF722FE14
:1046D000002800D0FEE706B010BD00000004004036
:1046E00034010020FEE77047704700002DE9F04FCD
:1046F0002DED088BA3B0B0EE00AADFF804E49EED28
:10470000000ABDEEC00A10EE108A9FEDFE9BF44633
:10471000DCED010ABDEEE01AFC4C9CED022AFCEE39
:10472000E01A94ED160AD4ED192AFCEEC28A60EE66
:104730000AAA60EE8ABA22EE8ABA94F80A90E18D4B
:10474000637CB4F83CB0B4F846A0A27F0126207C7C
:1047500000259CED030A94ED158A4FF07E57B8F1C1
:104760002E0F6ED2DFE808F06D27353F7178A9B7BC
:10477000C26D6DFDFCFBE2FAF9F8F7F6F5F4F3F221
:10478000F1F0EFEEED6DECEBEAE9E8E7E6E5E4E306
:104790006D6D6D6D17CA11EE100A30B1FDF7E4FCB6
:1047A00023B0BDEC088BBDE8F08FFDF74DFE6573BF
:1047B000A571E572F4E711EE101A0129F0D110B1DC
:1047C00000F0EAFFECE701F00DF800F0F5FFA5734B
:1047D000A4E211EE100A012801D0A572E0E7A6724A
:1047E000FDF758FDDCE711EE102A012A11D05FEA2F
:1047F000090227D000EE101AB8EE400AFDF7DCFCE3
:10480000A08684F82550E67700F0AAFFFDF73AFD70
:10481000C6E784F824605FEA09020FD018B994F85B
:104820002320002ABCD100EE101AB8EE400AFDF792
:10483000C3FCA08684F82560E577E5E7FFF750FD27
:10484000AEE7FDE3FFF73AFDAAE711EE100A0128F3
:104850006CD000F0B1FFA3E75FEA09010DD011EEC3
:10486000101A89B200EE101AE185B8EE400AFDF781
:10487000A3FCA086E28DA6A14BE211EE100AB0B116
:10488000B2EE048A20EE080A01F08EFCC0EE080A9F
:104890000121BCEEE00A10EE100A82B218EE900A76
:1048A00000EE102AA28780B2B8EE400A43E2BCEEC6
:1048B000C00A10EE100A81B244E211EE100A01287B
:1048C00003D0257284F827506AE7267205210C2050
:1048D00000F090FE64E700F0D5FE8FA11FA8FBF763
:1048E00051FDC2B2627664231FA9B2E211EE100A32
:1048F000012801D0657253E7667251E788498948FB
:10490000FFF73EFD86480168616590ED010A8B4620
:10491000BCEEC00A10EE101A8BB2A387019390ED83
:10492000020ABCEEC00A10EE101A1BE0E6E0FCE33F
:10493000E7E3D1E391E350E3C3E28BE217E208E25D
:10494000EFE1E7E1DAE1D2E1CCE1C6E1C0E1B5E1D6
:104950009BE17EE173E166E162E14EE115E10BE18D
:10496000A4E06EE0CAB284F829200B9290ED030A0D
:10497000BCEEC00A10EE101A89B26187009101697D
:10498000A16590ED050A8A46BCEEC00A10EE101A29
:10499000C9B284F82810039190ED060ABCEEC00A53
:1049A00010EE101A8AB2A4F840200292C169616622
:1049B00090ED080A8946BCEEC00A10EE101A89B2C2
:1049C000A4F846100891476AE766806A20671C349D
:1049D00002F07CFD05460E46384602F077FD07469C
:1049E0008846484602F072FDCDE90601504602F0C5
:1049F0006DFD81468A46584602F068FDCDE90C7887
:104A0000CDE90E5641EC100B08990A91DDE906013B
:104A1000CDE90801DDE90212CDE90621CDE9049ACC
:104A2000DDE900310B9A8DE80E0053EC102B3EA10E
:104A300010A8FBF7A7FCC2B204F8032CC82310A9E6
:104A40005BE3002A5AD1C4ED150A10EE900A02F079
:104A50003DFD00EE10BA41EC180BB8EE400A2AEE0C
:104A6000800A10EE100A02F031FD41EC100B01F04B
:104A7000E8FB53EC192B51EC100B02F03DFA53EC10
:104A8000182B01F0F9FF02F0BBF9E087606D02F02E
:104A90001DFD41EC100B30A153EC102B08A8FBF7C7
:104AA00071FCC2B26276C82308A926E3002AC9D1E4
:104AB00011EE900A85B2A58718EE100A02F006FDE5
:104AC00000EE105A41EC180BB8EE400A2AEE800AAC
:104AD00010EE100A02F0FAFC41EC100B01F0B1FBF1
:104AE00053EC192B51EC100B02F006FA53EC182B77
:104AF00001F0C2FF02F084F9E08733E0EBE200004E
:104B0000E00200200000000000002440000000201F
:104B10006A252E646500000072372F3165000000A1
:104B2000C000002000C1000870252E32662F2564C9
:104B30002F25642F25642F252E32662F25642F25DF
:104B4000642F252E32662F25642F252E32662F25C1
:104B50002E326665000000007231312F252E32663C
:104B600065000000A28FFEA103A8FBF70BFCC2B2F8
:104B70006276C82303A9C0E2002A98D111EE900AF8
:104B8000F9A1C2B284F82920E6E2002A8FD180EE92
:104B9000880AC4ED160A18EE100A84ED170A02F00E
:104BA00095FC00EE10BA41EC180BB8EE400A2BEE63
:104BB000800A10EE100A02F089FC41EC100B01F0A3
:104BC00040FB53EC192B51EC100B02F095F953EC10
:104BD000182B01F051FF02F013F9E087A06D02F0ED
:104BE00075FC41EC100BE2A153EC102B01A8FBF774
:104BF000C9FBC2B26276C8232AE1002ABDD111EEF8
:104C0000900AC0B284F82800142801D8142002E0C9
:104C1000642802D3642084F82800C2B2D7A19BE2A2
:104C2000FEF7AEF8BCE510EE901AD648B94201D1B5
:104C3000012200E000221021FDF7FDFFB0E510EE9B
:104C4000900A4FF40071B84201D101223EE00022E7
:104C50003CE0002A91D1BDEEC20ACB4A82ED020AA5
:104C6000D56010EE902ABA4203D1E67784F8255039
:104C700002E0E57784F8256000EE101AA673B8EE1E
:104C8000400AFDF799FAA086BEE510EE900A764636
:104C9000B84209D100224FF48061BC48FDF7CBFF38
:104CA000207C08B9B848456096ED010AB5EEC00A07
:104CB000F1EE10FAB6D10122910207E010EE900A4F
:104CC000B84201D1002200E001228021AF48B3E7C1
:104CD00010EE900A4FF480510DE010EE900A4FF460
:104CE000006108E010EE900A4FF4804103E010EEFE
:104CF000900A4FF48071B842A9D0A6E7002AA9D142
:104D000010EE900AB84201D1A67400E0A574A27C0E
:104D10009FA121E2002A9DD100F064FD84F8245077
:104D20003EE5002A96D110EE900AB84206D118EE60
:104D3000900A012180B201F07DF831E5BDEEC00A94
:104D400010EE101A18EE900A012280B201F0BCF8A1
:104D500026E5002AD3D111EE900A8FA1C2B2627467
:104D60006846FBF70FFBC2B262766423FAE1002AC1
:104D7000C5D111EE900A85B2A4F84050E07CB5FB95
:104D8000F0F000EE100AF8EE400A00EE105AB8EE0D
:104D9000400A30EE800ABCEEC00A10EE100A80B263
:104DA00000EE100AB8EE400ADFED7D0A20EE200A80
:104DB000BCEEC00A10EE100A86B2A4F8426018EEEB
:104DC000100A103402F082FB9FED761B53EC112B7E
:104DD00002F092F801F062FD00EE900A208C00EEE5
:104DE000100A18EE100AB8EE401A00EE106AB8EE7B
:104DF000400A21EE000A80EE201ABDEEC10A84EDC1
:104E0000140A02F063FB00EE105A41EC180BB8EEE6
:104E1000400A2BEE000A10EE100A02F057FB41EC9C
:104E2000100B01F00EFA53EC192B51EC100B02F0A1
:104E300063F853EC182B01F01FFE01F0E1FFA08690
:104E4000228E5AA101A8FBF79DFAC2B2627202E15A
:104E500001A952E1002A8BD180EE880AC4ED190A1B
:104E600018EE100A84ED1A0A183402F02FFB41ECF8
:104E7000180B208D00EE100AB8EE400A2BEE800AC7
:104E800010EE100A02F022FB41EC100B01F0D9F9F0
:104E900053EC192B51EC100B02F02EF853EC182B9D
:104EA00001F0EAFD01F0ACFFA085E06C02F00EFB22
:104EB00041EC100B3FA153EC102B01A8FBF762FA59
:104EC00088E0002AC7D111EE900A85B2A4F84650B6
:104ED00018EE100A183402F0F9FA94ED160A41ECB3
:104EE000180B60EE0A0A00EE105AB8EE400A20EEE7
:104EF000800A10EE100A02F0E9FA41EC100B01F002
:104F0000A0F953EC192B51EC100B01F0F5FF53EC09
:104F1000182B01F0B1FD01F073FF2086E06B02F069
:104F2000D5FA94ED150A41EC180BE08D60EE0A0AF3
:104F300000EE100AB8EE400A20EE800A10EE100AC9
:104F400002F0C4FA41EC100B01F07BF953EC192B81
:104F500051EC100B01F0D0FF53EC182B30E00000A7
:104F60007231322F256465007231332F256465005C
:104F70007231352F252E3366650000007231362FD1
:104F800025646500000802408000002000100240F7
:104F90007232372F256465006D25646500000000BE
:104FA0003333933F1F85EB51B81E19407233322FB4
:104FB000256465007233332F252E336665000000AB
:104FC00001F05AFD01F01CFF6086E28D69A101A885
:104FD000FBF7D8F9C2B262703DE0002A7BD1C4ED84
:104FE0001B0A18EE100A02F071FA00EE10AA41EC4A
:104FF000180BB8EE400A2BEE000A10EE100A02F071
:1050000065FA41EC100B01F01CF953EC192B51EC33
:10501000100B01F071FF53EC182B01F02DFD01F086
:10502000EFFEA4F84A0094ED1B0AD4ED150A10EE29
:10503000100A80EE201A84ED1E1A02F047FA00E0F2
:1050400092E041EC100B4DA153EC102B01A8FBF7A3
:1050500099F9C2B262766423FAE6E2BBC4ED1C0A97
:1050600018EE100A02F032FA00EE10AA41EC180B0A
:10507000B8EE400A2AEE800A10EE100A02F026FA74
:1050800041EC100B01F0DDF853EC192B51EC100B37
:1050900001F032FF53EC182B01F0EEFC01F0B0FEF2
:1050A000A4F8480094ED1C0AD4ED150A10EE100A7D
:1050B00080EE201A84ED1D1A02F008FA41EC100B64
:1050C00031A153EC102B07A8FBF75CF9C2B2627652
:1050D000642307A911E029E042BB11EE900A4FF4C6
:1050E000FA6180B26087884203D942F21071884227
:1050F00000D36187628F27A12EE02848FEF700FFCA
:1051000090E59AB994F829101F3400EE101AB8EE01
:10511000400AFDF751F8A4F815002570A6716671D4
:10512000FDF7B0F800F01CFB7CE500E01EE0EAB9FA
:1051300010EE900AB84205D12674192020704FF461
:10514000005004E025740D2020704FF4806020860C
:10515000FEF732FF227C12A16846FBF713F9C2B2B8
:105160006276C8236946C8E7002AC9D01846FFF707
:105170005FF857E57233342F256465007233352F9D
:10518000252E3366650000007233362F252E3366D8
:10519000650000007233372F25646500040200208B
:1051A0007233392F256465002DE9F041784C2DEDDF
:1051B000048B94F8220020B10120BDEC048BBDE8E3
:1051C000F081E07AA1794FF0010788434FF00006A3
:1051D0009FED709A6E4D05F1800574D094F8210012
:1051E00018B36B49227B11F8280F4B8891ED140AF4
:1051F0001844898C80B24942608552B3E27C002316
:1052000000EE902A0A46F8EE600A20EE800AFFF7C8
:1052100079F8B5EEC00A85ED040AF1EE10FA43D034
:10522000207CFCF7C9FFA08640E0FDF70FF80028BE
:10523000C3D0608F00F0ECFD0028BED084F8217050
:10524000E677267384F82570FDF71CF800F088FADD
:1052500039E000230A461946B1EE400AFFF752F83A
:10526000B5EEC00A85ED040AF1EE10FA04D0207CF8
:10527000FCF7A2FFA08601E000F0B4FAB4F84C00FD
:1052800001F0EBFD95ED040A41EC180BB0EEC00AFD
:1052900010EE100A02F01AF953EC182B01F02AFF55
:1052A00011D8668527730EE000F09CFA95ED040A8C
:1052B000B5EEC00AF1EE10FA05DB668585ED049ABD
:1052C0000120FEF7B5FFA079E17A88435DD0207B0D
:1052D00094F828100028608D084480B260851BD0A7
:1052E000E17CD4ED1E0A494200EE101AB4F84C30AD
:1052F0000022B8EEC00A194620EE200AFFF702F895
:10530000B5EEC00A85ED040AF1EE10FA2AD0207C31
:10531000FCF752FFA08627E00022B4F84C3011467B
:1053200094ED1E0AFEF7EEFFB5EEC00A85ED040A05
:10533000F1EE10FA04D0207CFCF73EFFA08601E0DD
:1053400000F050FAB4F84C00D5ED040A00EE100A53
:10535000B8EE400AF4EEC00AF1EE10FA15DB6685ED
:10536000277312E000F03EFA95ED040AB5EEC00A8C
:10537000F1EE10FA09D8668585ED049AA6712673B8
:1053800000F030FA84F8227016E7002015E70000DC
:1053900000000020000000002DE9F041454C2DEDFB
:1053A000028B94F8220020B10120BDEC028BBDE8F5
:1053B000F08194F821000026012728B33D493D4D96
:1053C000237B4A8D11F8280F803591ED100A104487
:1053D000898B80B24942608553B3E27C002300EEA2
:1053E000902A0A46F8EE600A20EE800AFEF78AFF4D
:1053F000B5EEC00A85ED040AF1EE10FA43D0207C28
:10540000FCF7DAFEA08640E0FCF720FF0028CCD0B5
:10541000608F00F0FDFC0028C7D084F82170E6778B
:1054200004F80C6F6776FCF72DFF00F099F93FE068
:1054300000230A461946B1EE400AFEF763FFB5EEB7
:10544000C00A85ED040AF1EE10FA04D0207CFCF7C6
:10545000B3FEA08601E000F0C5F9B4F8440001F005
:10546000FCFC95ED040A41EC180BB0EEC00A10EEFE
:10547000100A02F02BF853EC182B01F03BFE17D862
:105480006685277314E000F0ADF995ED040AB5EEDA
:10549000C00AF1EE10FA0BDB66859FED070A85ED79
:1054A000040A04F80C6F667500F09CF9A7757BE799
:1054B00000207AE700000020000000007CB50121F8
:1054C0008DF8001003228DF80120020A8DF80220C9
:1054D0008DF8030000208DF804008DF805104FF6BC
:1054E000FF7000216C464AF20103625C50400822C2
:1054F000C5074FEA500000D05840521EF8D1491C51
:105500000629F2DB8DF80600000A0C4C8DF8070026
:1055100001212046FDF78FFBC82308226946084871
:10552000FEF7EEFC012211462046FDF784FB012226
:1055300004490348FEF76AFC7CBD000000100240ED
:10554000C0010020180000202DE9F041244F002464
:1055500080213846FDF762FB00B10124214E402135
:105560003046FDF75BFB08B144F0020404213046ED
:10557000FDF754FB08B144F004041B4D02212846FA
:10558000FDF74CFB00B101201849087008B144F048
:10559000080408213046FDF741FB08B144F010042F
:1055A00001212846FDF73AFB08B144F02004102100
:1055B0003846FDF733FB08B144F040040421284687
:1055C000FDF72CFB08B144F0800408210848FDF7E2
:1055D00025FB08B144F480742046BDE8F08100004A
:1055E0000000024000100240000802400F000020AE
:1055F000000402407CB501228DF8002003228DF8C2
:105600000120020A8DF802208DF8030000208DF899
:1056100004008DF805104FF6FF7000216C464AF229
:105620000103625C50400822C5074FEA500000D0D9
:105630005840521EF8D1491C0629F2DB8DF80600AD
:10564000000A0C4C8DF8070001212046FDF7F3FA03
:10565000C823082269460848FEF752FC0122114679
:105660002046FDF7E8FA012204490348FEF7CEFB85
:105670007CBD000000100240C00100201800002086
:10568000704700002DE9F047284CA0B0206F1C3473
:1056900001F01CFF05460E46206D01F017FFCDE915
:1056A0000001A06C01F012FF81468A46E06B01F018
:1056B0000DFF07468846A06B01F008FFCDE90E56A6
:1056C00041EC100BDDE90001CDE90C01608DCDF856
:1056D0002090CDE909A0A08C217BCDE90610CDE971
:1056E0000478208CE28B617B8DE8070053EC102B53
:1056F0000FA110A8FAF746FE04F8030C10A81C3CF2
:10570000FAF720FF800701D0012500E0002510A84E
:10571000FAF718FF05EB9000C2B2627510A90F48A6
:10572000FCF7EAFF20B0BDE8F08700000000002091
:10573000252E32662F25642F25642F25642F252ED4
:1057400032662F25642F25642F252E32662F25647F
:105750002F252E32662F252E3266000000C100084C
:1057600010B5012211020848FDF765FA0122510225
:105770000648FDF760FA064901204873BDE810406D
:105780000448FDF795BE00000008024000100240EA
:10579000000000203401002010B5064C0122202119
:1057A0002046FDF748FA20460122BDE810401021AE
:1057B000FDF741BA0008024070B5084C0025A577F6
:1057C000A571E57200F00EF865859FED050A04F1FC
:1057D0008000A58680ED040A70BD00000000002056
:1057E000000000000A4910B5002048730948FDF781
:1057F0009FFE00224FF400710748FDF71CFABDE838
:10580000104000224FF480710448FDF714BA0000E4
:105810000000002034010020001002400008024077
:10582000FDF714BA30B593B030216846FAF7A9FEF7
:1058300014210CA8FAF7A5FE1C480025016841F0C8
:1058400080510160006800F0805011901848016894
:1058500041F4804101600068022400F4804011900E
:1058600001200090000401908001CDE906400C2049
:1058700008904FF4A870CDE9090404200B90684605
:10588000FDF77CFB00B1FEE70CA90F2081E8310099
:105890004FF4A0500F90109005210CA8FDF782FA4C
:1058A000002800D0FEE713B030BD000040380240B1
:1058B000007000401048016841F4700101600F4819
:1058C000016841F0010101600C4A002108321160B9
:1058D00002680B4B1A400260031D0A4A1A600268F4
:1058E00022F48022026005480C300160024958060B
:1058F000803908607047000088ED00E00038024001
:10590000FFFFF6FE103000240148FDF755BF0000F0
:10591000EC0000200148FDF74FBF000034010020DB
:10592000F0B50268254C264D264E274F274B4FF0E9
:10593000804CA04209D0604507D0A84205D0B042B3
:1059400003D0B84201D0984204D122F0700E4A68C8
:1059500042EA0E02A0421BD0604519D0A84217D0DF
:10596000B04215D0B84213D0984211D0184DA84279
:105970000ED0184DA8420BD0174DA84208D0174D95
:10598000A84205D0164DA84202D0164DA84203D118
:1059900022F44075CA682A434D6922F080022A43E6
:1059A00002608A68C2620A688262A04201D098429C
:1059B00001D10969016301214161F0BD000001408D
:1059C0000004004000080040000C004000040140BA
:1059D00000400140004401400048014000180040E0
:1059E000001C00400020004010B5846842EA0322F9
:1059F00024F47F440A432243826010BD826822F06F
:105A000070020A4342F007018160704710B5036AD3
:105A1000046A24F001040462846924F0F00444EA76
:105A2000021423F00A020A438461026210BD0000DE
:105A300070B5046A24F0010404628469056A154E95
:105A4000B04214D0B0F1804F11D0134EB0420ED0FE
:105A5000124EB0420BD0124EB04208D0114EB0429E
:105A600005D0114EB04202D0104EB04203D124F006
:105A70000304144301E044F001041A0724F0F00485
:105A800044EA126225F00A0301F00A011943826117
:105A9000016270BD000001400004004000080040A9
:105AA000000C00400004014000400140001800408C
:105AB00010B5036A23F0100303628369046A23F4B8
:105AC000704343EA023224F0A00343EA01118261E9
:105AD000016210BD30B5046A24F0100404628469C8
