:020000040800F2
:10000000F807002055020008FB300008B52D000855
:10001000F93000088D170008A5390008000000001D
:100020000000000000000000000000005133000844
:100030008F17000800000000FD300008D1330008D1
:100040006F0200086F0200086F0200086F020008CC
:100050006F0200086F0200086F0200086F020008BC
:100060006F0200086F0200086F0200086F020008AC
:100070006F0200086F0200086F0200086F0200089C
:100080006F0200086F0200086F0200086F0200088C
:100090006F0200086F0200086F0200086F0200087C
:1000A0006F0200086F0200086F0200086F0200086C
:1000B000B93400086F0200086F0200086F020008E0
:1000C0006F0200086F0200086F0200086F0200084C
:1000D0006F0200086F0200086F0200086F0200083C
:1000E0006F0200086F0200086F0200086F0200082C
:1000F0006F0200086F0200086F0200086F0200081C
:100100006F0200086F0200086F0200086F0200080B
:100110006F020008B13600086F0200086F02000885
:100120006F0200086F0200086F0200086F020008EB
:100130006F0200086F0200086F0200086F020008DB
:100140006F0200086F0200086F0200086F020008CB
:100150006F0200086F0200086F020008993900085A
:100160006F0200086F0200086F0200086F020008AB
:100170006F0200086F0200086F0200080000000014
:100180006F0200086F02000800F002F800F052F859
:100190000AA090E8000C82448344AAF10107DA45E2
:1001A00001D100F047F8AFF2090EBAE80F0013F0E2
:1001B000010F18BFFB1A43F0010318472C3E000043
:1001C0004C3E0000103A24BF78C878C1FAD85207D4
:1001D00024BF30C830C144BF04680C6070470000C1
:1001E0000023002400250026103A28BF78C1FBD840
:1001F000520728BF30C148BF0B607047662903F023
:100200009B86642900F0D480002070471FB503F05E
:100210005EFE00F0DFFC04000020002103F0CAFDB8
:10022000401C60600020002103F0AEFDE0601FBDB7
:1002300010B510BD00F038FE1146FFF7E7FF03F0E0
:10024000ADFC00F064FE03B4FFF7F2FF03BC00F066
:10025000A7FE00000948804709480047FEE7FEE77F
:10026000FEE7FEE7FEE7FEE7FEE7FEE7FEE7FEE766
:1002700004480549054A064B7047000065340008EC
:1002800089010008F8010020F8070020F803002089
:10029000F803002053EA020C00F069802DE9F04BCE
:1002A0004FF00006002B1FBFB3FA83F503FA05F4E5
:1002B00024FA05F65E4012BF1643B2FA82F502FA3E
:1002C00005F4C5F120051EBF22FA05FC44EA0C0422
:1002D000203556EA044C4FEA144418BF641C4FF012
:1002E00000084FF00009904271EB030C39D300294C
:1002F00019BFB1FA81F701FA07F6B0FA80F700FAF0
:1003000007F6C7F120071EBF20FA07FC46EA0C06D5
:100310002037B6FBF4FCA7EB0507103F07F01F0BD7
:10032000CBF120060CFA0BFB2CFA06F644BFB346C1
:100330000026202FA4BF5E464FF0000B5BEA060CA0
:1003400008BF4FF0010B19EB0B09ABFB027C48EB2C
:100350000608C01B06FB02CC0BFB03CC71EB0C01A7
:10036000C1E70B46024641464846BDE8F08B13B54F
:100370004FF000004FF00001AFF30080BDE81C40DB
:10038000704700000FB41CB5084B06AA7B446946B1
:100390000090059800F09FFB04460020694600F09D
:1003A000ADFB20461CBC5DF814FB00006D0700008F
:1003B0002DE9F0410646002410687529314616A53E
:1003C00010D0AFF30080002802DA404213A507E006
:1003D00031688A0701D512A502E0490704D511A5A5
:1003E000012401E0AFF3008000210A2206F1240776
:1003F00009E0B0FBF2FCB0FBF2F302FB1C00303072
:1004000078541846491C0028F3D123462A46304622
:10041000BDE8F04100F0F2B8000000002D0000003F
:100420002B000000200000002DE9F0474FF0000AEB
:1004300089460446C0F820A02046E1688847002885
:1004400076D0252806D0D4E901219047206A401CA7
:100450002062F1E7E168204600258847C4F81CA027
:1004600006460027C4F818A02A2E09D0304603F00B
:100470008EFB38B304EB8708303EC8F8186019E0EB
:1004800059F8041B204604EB87029161E168884714
:10049000012F064618D1E069002820DA25F0200552
:1004A0001DE0D8F8180000EB800006EB4000303863
:1004B000C8F818002046E1688847064603F067FB45
:1004C0000028EED1012F0AD02E2E08D12046E16857
:1004D00088477F1C0646022F45F02005C4DBA06933
:1004E000002803DA404245F00105A061E80701D089
:1004F00025F01005B6B1A6F14100192802D8203622
:1005000045F400654A463146204625604D46FFF7D2
:1005100075FE58B1012806D0ED1D25F0070000F149
:10052000080989E704E005F1040985E730468AE710
:10053000206ABDE8F08770B5064600F05BF80468F5
:10054000054630460A22002100F0DDFA2C6070BD1D
:10055000014A00F011BB0000480000204FF00002EB
:100560000429C0F0128010F0030C00F01B80CCF1C5
:10057000040CBCF1020F18BF00F8012BA8BF20F833
:10058000022BA1EB0C0100F00DB85FEAC17C24BF87
:1005900000F8012B00F8012B48BF00F8012B704731
:1005A0004FF0000200B5134694469646203922BF0C
:1005B000A0E80C50A0E80C50B1F12001BFF4F7AF57
:1005C000090728BFA0E80C5048BF0CC05DF804EB39
:1005D000890028BF40F8042B08BF704748BF20F8A7
:1005E000022B11F0804F18BF00F8012B70477047A5
:1005F0007047704700487047940100202DE9F0478C
:100600000D4699469246044600F124080168880682
:1006100004D5E06921F01001216000E00120A8422A
:1006200001DD471B00E00027A1697A1902EB0900F0
:10063000081AA0612078C00602D42046AFF30080DB
:10064000002608E0D4E901211AF806009047206A44
:10065000401C761C20624E45F4DB2078C0060AD58B
:100660002046AFF3008006E0D4E901213020904716
:10067000206A401C2062381EA7F10107F4DC07E065
:10068000D4E9012118F805009047206A401C206237
:10069000281EA5F10105F3DC2046AFF30080207889
:1006A000000602D50220BDE8F0870120FBE7704775
:1006B0002DE9FF4F0C461E464FF0FF378BB0D2E9B5
:1006C0000001DDF860800A908A46C1F30A5505B939
:1006D0003D46002108464FF00000BAF1000F00F43B
:1006E000400005DA00EB80004FF4400101EA5000C1
:1006F0004FEA9059B9F1010F00DDB9460A9850EA66
:100700004A000ED044F61050A5F2FF3545432F1491
:10071000B8F1000F1ED07542291E1EDDC9F100027E
:100720001CE0B8F1010F4FF0000001D0302103E0D0
:10073000F24305E02154401CB042FBDB304600226E
:10074000002121540B99C1F80880C1E900200FB0A5
:10075000BDE8F08FBD1B6D1CDEE74A4600DA69423A
:1007600006A800F011FB06AB93E8070003AB83E893
:10077000070050460A9900F01AFC8DE80700A0F522
:1007800000501F3800900398002D0ADD42F21F012F
:100790004A460844002303A90390684600F083FEFC
:1007A00009E0A0F500504A461F38002303A9039032
:1007B000684600F08DFE8DE807000004000C03D0B1
:1007C0004FF0FF30410800E01046B8F1000F03D0B1
:1007D0000022009215461EE0751E05D400F0FEF9B9
:1007E000303262556D1EF9D5B3460122084302D05E
:1007F00000227F1C04E02078302801D100227F1ED7
:10080000002A099784D01DE0112D07DA00F0E6F9DF
:10081000303262556D1C50EA0102F5D1084302D016
:100820000098C8B10EE00021681E05E0235C625C00
:1008300063542254401E491C8142F7DBAB46A81B7F
:10084000401E0990002004F80B000B98099AC0F88C
:100850000880C0E9002B7AE711264FF0000857E71F
:100860002DE9F04F88460446D21D22F0070191B0D1
:10087000D1E90001CDE90A0103F014F902460B9811
:10088000C00F01D02D2007E02068810701D52B2063
:1008900002E0202101EAC000032A099001D0072AC2
:1008A00005DB03464146204600F0DEF90BE12078E7
:1008B000800601D5E06900E00620B8F1650F8146A9
:1008C00006D0B8F1660F18D0B8F1670F70D131E0DB
:1008D0000020B9F1110F009001DB112301E009F1B3
:1008E00001030AAA01A90CA8FFF7E2FEDDE90C70DA
:1008F000002609F10105834647E001204B460090A0
:100900004FF000470AAA01A90CA8FFF7D1FEDDE9C4
:100910000DB00C995D46002610B909F101000D18C3
:10092000B9EB050003D4C0F1FF3609F10105A5EBD1
:1009300009002BE0B9F1010F01DA4FF001090020A5
:10094000B9F1110F0090484601DD112300E0034684
:100950000AAA01A90CA8FFF7ABFEDDE90C704D4611
:1009600000268346207800070AD4AB4500DA5D46AE
:1009700001A8012D04DD411911F8011C302907D00F
:100980004F4502DA17F1040F04DA012082460FE026
:100990006D1EEEE7002F02DCED1B3E4403E0781CE9
:1009A000A84200DD7D1CB81B00F1010A4FF0004792
:1009B0002078000703D4AA4501DB4FF0FF3A00215D
:1009C000B7F1004F0DF143088DF8431024D00220F9
:1009D0002B23002F01DA7F422D230A21021EA0F1D2
:1009E000010000DC5FB197FBF1FC97FBF1F201FB2A
:1009F0001C7C17460CF1300C08F801CDEEE7A8F18D
:100A0000010003702188090501D5452100E0652119
:100A1000A0F1010800F8011C09980FA9A1EB080733
:100A2000FF1D00B10120411901EBEA70A1693844B2
:100A3000081A401EA0612078C00602D42046AFF3F9
:100A40000080099828B1D4E901219047206A401C10
:100A500020622078C00622D52046AFF300801EE039
:100A6000002E04DBB34502DD01A8805D00E03020EC
:100A7000D4E901219047206A401C2062761CAAF12B
:100A800001005FEA000A0AD100F0A4F8C06801681A
:100A9000405CD4E901219047206A401C2062281E56
:100AA000A5F10105DCDC07E0D4E9012118F8010B10
:100AB0009047206A401C2062381EA7F10107F3DC32
:100AC0002046AFF30080032011B041E601694A1CC3
:100AD00002610878704700B58FB0CDE9013100217F
:100AE000059105497944CDE9031011466846FFF7A1
:100AF0009BFC0FB000BD0000E5FFFFFF0A6802F895
:100B0000010B0A6070472DE9F04791460F46804679
:100B10000446002614F8015B2DB100F053F800687C
:100B2000405DC007F6D12B2D02D02D2D18D0641EAC
:100B30004A463946204600F0D7F827B13968A14225
:100B400001D1C7F800804FF0020471050BD5404277
:100B5000002803DDFFF74EFD0460A007BDE8F08725
:100B600046F48066E4E70028F8DAFFF743FD046006
:100B70006FF00040F2E700002DE9F04115460E4607
:100B8000040002D12C6804B90BA4204600F07EF9C1
:100B90000444207870B127463146384600F066F9A3
:100BA0000444207810B1002004F8010B38462C6072
:100BB000BDE8F0810027F9E7000000000048704719
:100BC0009401002010B500F005F8001D10BD00BF15
:100BD000E531000000487047B401002030B5B0F1A5
:100BE0000A024FEA900E71F100034EEA817EB0EBEB
:100BF0000E0061EB91014FEA101E4EEA017E10EBF0
:100C00000E0041EB11114FEA102E4EEA016E10EB6F
:100C10000E0041EB11214FEA104E4EEA014E10EB4F
:100C20000E0041EB1141401841F100014FEAD000A4
:100C300040EA41704FEAD10110EB80054FEA810490
:100C400044EA907444EB01046D1944EB0404521B14
:100C5000A3414FF0000348BF0A3200D530BD401C0D
:100C600041F1000130BD00002DE9F0411F4604466E
:100C700003260168072A01F4006004DB08B116A509
:100C800005E016A503E008B115A500E015A521F0C3
:100C900010002060A069C01EA0610FB1401EA061BD
:100CA0002046AFF300804FB1D4E901213846904788
:100CB000206A401C2062C01C206206E0206AFAE71D
:100CC000D4E9012115F8010B9047761EF8D2204691
:100CD000AFF30080BDE8F0814E414E006E616E00C2
:100CE000494E4600696E66002DE9F05F8246154662
:100CF0008B4600270AF10104B9460078302801D05C
:100D00009DB113E014F8010B0127782803D058286F
:100D100001D045B10AE00DB1102D07D1002714F81C
:100D2000010B102502E0082500E00A250026B04648
:100D30000EE005FB080005FB06F101271FFA80F80D
:100D400001EB1046B6F5803F00D3B94614F8010B0D
:100D5000294600F0CEF80028EBDABBF1000F05D0F1
:100D60000FB1641E00E05446CBF80040B9F1000F0B
:100D700006D0FFF73FFC02210160C81EBDE8F09FCE
:100D800048EA0640FAE700002DE9F047814616469A
:100D90008AB0354878440DC88DE80D003248784453
:100DA000801C03AC0DC884E80D0041F69B3008445C
:100DB000372190FBF1F290FBF1F5A5F1800501FBE5
:100DC00012041B3C02D56442012000E00020DFF841
:100DD00098A080460027FA44AAF1BE0A0EE0E00778
:100DE0000AD03246684607EB470101230AEB81012E
:100DF00000F06EFB8DE8070064107F1C002CEED124
:100E0000194F7F44AE3F19E0E80715D007EB0410F7
:100E10000DF1180A90E80E008AE80E00C068F04252
:100E200001D1981908903246012306A903A800F0C1
:100E30004FFB03AB83E807006D10641C002DE3D16A
:100E40004FF0010332466946B8F1000F03A802D003
:100E500000F029FB01E000F03BFBC9E90001C9F803
:100E600008200AB0BDE8F0873832000030B50346EC
:100E70001D781DB10A4603E0AC4201D1181A30BDFD
:100E800012F8014B002CF7D15B1CF1E730B503469B
:100E90001D783DB10A4612F8014B1CB1AC42FAD1A3
:100EA0005B1CF5E7181A30BD7546FFF787FEAE46A6
:100EB00005006946534620F00700854618B020B566
:100EC000FFF7D6F9BDE820404FF000064FF00007CD
:100ED0004FF000084FF0000B21F00701AC46ACE8E2
:100EE000C009ACE8C009ACE8C009ACE8C0098D464F
:100EF00070473A2800D2303820F02002412A01D32E
:100F0000A2F13700884201D34FF0FF30704710B58F
:100F10000446AFF300802046BDE81040FFF793B9C8
:100F20004FF0013C50F8042B51F8043B9A4221D178
:100F3000A2EB0C03934313EACC1317D150F8042B04
:100F400051F8043B9A4215D1A2EB0C03934313EAE8
:100F5000CC130BD150F8042B51F8043B9A4209D121
:100F6000A2EB0C03934313EACC13DBD04FF0000049
:100F7000704700BFD01A01BAB1FA81F101F018012F
:100F800022FA01F0CB40C1F12001DBB2C0B2C01A9D
:100F90002CFA01F3D11A914311EAC311E6D170473B
:100FA00001491820ABBEFEE72600020070475FEA49
:100FB000400C08BF91F0000F4FEA8C234FEAC1228A
:100FC00043EA51514FEA1C5018BF00F5F0404FEA78
:100FD000300018BF41F000415FEA6C5C00F02980EE
:100FE000BCF1FF3F08BF40F080407047130C06BFC4
:100FF00012044FF0100C4FF0000C130E04BF12023D
:101000000CF1080C130F04BF12010CF1040C930F28
:1010100004BF92000CF1020CD30F04BF52000CF17C
:10102000010C11464FF00002A0F11F00A0EB0C00D4
:10103000704711F0004F08BF704731F000413FF496
:10104000D5AF0B0C06BF09044FF0100C4FF0000C8D
:101050000B0E04BF09020CF1080C0B0F04BF0901B1
:101060000CF1040C8B0F04BF89000CF1020CCB0FA8
:1010700004BF49000CF1010CCCF12003A0EB0C00E3
:1010800022FA03F302FA0CF241EA030100F1010033
:10109000704720F07F4C80EA030023F07F47ACEBE1
:1010A000070303F57C5300F0004003F1FF032DE933
:1010B00080494FEA154B09B44FEA144325EA0B4E19
:1010C00024EA03480FF2042606EB132749083E786A
:1010D0005FEA320203FB0667C7F5000707FB06F667
:1010E0004FEA54374FEAD64606F1020607FB066C74
:1010F000CCF1005C4FEA1C472CEA074C07FB06F4D6
:101100000CFB06F504EB15464FEA961634BF00209B
:101110004FF000404FEAD13706FB07FC4FEA1C4C6A
:101120000CFB0BF7D21B03FB0CF761EB07010CFB6D
:101130000EF7B0EB074072EB17420CFB08F734BF19
:10114000A2EB0742B2EB074261EB17414FEA0C44B6
:101150004FEA910706FB07FC4FEA1C4C0CFB0BF710
:10116000B0EBC74072EB573203FB0CF734BFA2EB76
:10117000C742B2EBC74261EB57310CFB0EF7B0EB45
:10118000C70072EB57720CFB08F734BFA2EBC70223
:10119000B2EBC70261EB5771039F4FEA816141EAED
:1011A000921104EBCC044FEAD1374FEA826206FB7E
:1011B00007FC42EA90124FEA80604FEA1C4C0CFB9D
:1011C0000BF7D21B03FB0CF761EB07010CFB0EF7CF
:1011D000B0EB074072EB17420CFB08F734BFA2EBF1
:1011E0000742B2EB074261EB17414FEA8C554FEAD9
:1011F000910704EB9C2406FB07FC4FEA1C4C0CFBFC
:101200000BF7B0EBC74072EB573203FB0CF734BF60
:10121000A2EBC742B2EBC74261EB57310CFB0EF7B2
:10122000B0EBC70072EB57720CFB08F734BFA2EBB0
:10123000C702B2EBC70261EB577115EB4C254FEAC1
:10124000816141EA92114FEA82624FEAD13742EA64
:10125000901206FB07FC44F100044FEA80604FEA5D
:101260001C4C0CFB0BF7D21B03FB0CF761EB0701CB
:101270000CFB0EF7B0EB074072EB17420CFB08F7C4
:1012800034BFA2EB0742B2EB074261EB174115EB0B
:101290001C154FEA813141EA92414FEA823242EA1B
:1012A00090424FEA80304FEA0C7644F1000448EA5D
:1012B00003434EEA0B484FF0000EB2EB080C71EB03
:1012C000030724BF624639464EEB0E0E4FF0000B6B
:1012D0000018524149414BEB0B0BB2EB080C71EB80
:1012E00003077BF1000B24BF624639464EEB0E0E1E
:1012F0004FF0000B0018524149414BEB0B0BB2EB86
:10130000080C71EB03077BF1000B24BF62463946E2
:101310004EEB0E0E51EA020718BF46F0010616EB1F
:101320000E7655F1000254F1000103D5BDE88901A4
:10133000BDE80088BDE88901BDE80048B619524102
:1013400041EB0101A3F10103704780807F7E7D7C2A
:101350007B7A7978777676757473727171706F6E47
:101360006E6D6C6C6B6A6A696868676666656464F2
:10137000636362616160605F5F5E5E5D5D5C5C5B7C
:101380005B5A5A59595858575756565555555454EB
:10139000535352525251515050504F4F4F4E4E4D49
:1013A0004D4D4C4C4C4B4B4B4A4A4A494949484895
:1013B00048474747474646464545454444444443D5
:1013C00043434342424242414141002B9C4630D478
:1013D00077002BD01CB54FEA370703B44FF010004D
:1013E0004FF01001BAF1000F06D0BCF1000FDCBFC6
:1013F00040F0080040F008014FF000000FBCBDE8CD
:1014000010400BF1010BBBF1010F08BF5FEA17079A
:1014100022BF12F1010211F101014FF0004143F12D
:10142000000300F0004043EA00007047F9D357087A
:10143000D0E746EA064613F1400F4FEA16461FDD95
:1014400013F1200FDFBF16430A46002120335B4211
:10145000BED0C3F1200746EA064602FA07F74FEA74
:10146000164646EA0706C3F1200722FA03F201FAFC
:1014700007F721FA03F14FF0000342EA0702A7E75A
:1014800046EA020646EA06464FEA164646EA0106DC
:10149000BCBF46EA0646360C4FF000034FF0000290
:1014A0004FF0000194E72DE9804C9A46934670B4C2
:1014B00091E8380007C831EA400C48BF34EA430CD1
:1014C00003D5FFF7E6FDFFF780FFF0BCBDE8008C19
:1014D0002DE9804C9A46934670B491E8380007C8CD
:1014E00010F0804F08BF13F0804F03D100F005F8D3
:1014F000FFF76BFFF0BCBDE8008C20F07F4780EA6F
:10150000030023F07F4C07EB0C03A3F57C5300F0A2
:101510000040A3F1FE0392F0000F00F0B38095F0BD
:10152000000F00F077802DE901494FEA11404FEAA2
:10153000144621EA004800FB06FC24EA064708FBA3
:1015400006F607FB08F800FB07F718EB06484CEB1C
:10155000164C4FEA124B18EB07484FEA15464CEB76
:10156000174022EA0B4E0BFB06FC25EA06470EFB52
:1015700006F607FB0EFE0BFB07F71EEB064E4CEBC9
:10158000164C4FF000061EEB074E4CEB174B18EBBA
:101590000B0840F1000018EB0E0B58EB000840F16F
:1015A00000008F1A4FF000013CBFC943661B14BFF7
:1015B000B5EB040C00213CBFC943F61B4FEA1744AE
:1015C0004EEA8E0E27EA04454FEA1C4704FB0762E9
:1015D0002CEA074C05FB07F70CFB05F604FB0CFC9B
:1015E00016EB074642EB174216EB0C4642EB1C4249
:1015F0001BEB060658EB0202414146EA9E0601D566
:10160000BDE80189B619524141EB0101A3F1010383
:10161000BDE801894FEA14454FEA114724EA05461F
:1016200021EA074C05FB07F406FB07F70CFB06F164
:1016300005FB0CFC11EB074144EB17444FEA124742
:1016400011EB0C4144EB1C4422EA074C05FB07F26A
:1016500006FB07F70CFB06F605FB0CFC16EB074632
:1016600042EB174216EB0C4642EB1C456A1854F14C
:10167000000148BF7047B619524141EB0101A3F187
:101680000103704795F0000F37D04FEA11424FEA3F
:10169000144721EA024624EA074C02FB07F106FB45
:1016A00007F70CFB06F402FB0CFC14EB074441EBC0
:1016B00017414FEA154714EB0C4441EB1C4125EA56
:1016C000074C02FB07F506FB07F70CFB06F602FBCF
:1016D0000CFC16EB074645EB174516EB0C4645EBA5
:1016E0001C42121951F1000148BF7047B61952410E
:1016F00041EB0101A3F1010370474FEA14454FEAA2
:10170000114724EA054621EA074C05FB07F106FBD1
:1017100007F70CFB06F24FF0000605FB0CFC12EB82
:10172000074241EB174112EB0C4251EB1C4148BF01
:101730007047921841EB0101A3F1010370470000CB
:1017400010B5104C01221146204600F00CFA002280
:101750000221204600F007FA142000F0F5F80122DB
:101760000221204600F0FFF9074C012220212046EB
:1017700000F0F9F920460122BDE81040102100F0E8
:10178000F2B900000004024000080240FEE7704782
:1017900000220121014800F0E6B9000000040240E7
:1017A00070B514211948FEF7FBFE18481421323891
:1017B000FEF7D4FE0021154C0846323CA4F132025B
:1017C000135C13B16354491CC9B2401CC0B21E283B
:1017D000F6D30E4800240EA13238FEF7B9FE0B4DA9
:1017E0000AE000BFFEF7A7FE45F8240008A100208C
:1017F000FEF7AEFE641CE4B20028F3D1BDE87040F1
:1018000002481E216438FEF7CBBE00008001002094
:101810002F00000010B51A4C2DED028B84B0208BE8
:10182000323080B22083617B002924D000EE100A80
:10183000D4ED0D0A208CB8EE400A20EE800A00EEAE
:10184000900AF8EE600AB4EEE00AF1EE10FA12DD4A
:10185000002020839FED0B8A607320710AA16846E7
:10186000FEF790FDC2B2A274C8236946074801F092
:1018700047FAB0EE480A04B0BDEC028B10BD000080
:10188000000000200000000024000000D80000201C
:101890002DE9F0410446876D00F06AF9064694F898
:1018A00035000025022806D08020606584F8345079
:1018B0000120BDE8F0812068016821F01601016077
:1018C0002068416921F080014161206C08B9A06C59
:1018D00020B12068016821F00801016020680168DA
:1018E00021F0010101600CE000F042F9801B0528A5
:1018F00007D920206065032084F8350084F834502F
:10190000D7E720680068C007EED194F85C103F204C
:101910008840B860012084F8350084F834500020F5
:10192000C7E790F83510022903D0802141650120D6
:101930007047052180F835100068016821F0010129
:10194000016000207047000070B5044600F010F9F7
:101950000546601C02D004480078044400F008F9F1
:10196000401BA042FAD370BD380000202DE9F84F8B
:10197000DFF8BCA1002201250AF1040B03264FF079
:101980000F090BF1040E00BF0B6805FA02F42340A7
:10199000A34270D10F7907F00307012F01D0022F66
:1019A00016D187684FEA420806FA08FC27EA0C07B6
:1019B000D1F80CC00CFA08FC4CEA070CC0F808C0BF
:1019C0004768A7430C79C4F3001494403C43446037
:1019D0000C79E443A4070AD0C4684FEA420C06FA23
:1019E0000CF7BC438F6807FA0CF72743C7600C79E4
:1019F00004F00304022C12D1D40800EB840CDCF8B0
:101A000020405707FF0E09FA07F824EA0804D1F826
:101A1000108008FA07F848EA0408CCF82080046827
:101A20004FEA420C06FA0CF7BC430F7907F00307A4
:101A300007FA0CF7274307604C6814F4403F70D056
:101A40003C4C276847F480472760246822F003074E
:101A500004F480440094384C07EB040CDCF808488C
:101A600097074FEA177809FA08F7BC43334FB84293
:101A700002D1002724E054E0314FB84201D10127C0
:101A80001EE0304FB84201D1022719E02E4FB84274
:101A900001D1032714E02D4FB84201D104270FE0F4
:101AA0002B4FB84201D105270AE02A4FB84201D195
:101AB000062705E0284FB84201D1072700E0082794
:101AC00007FA08F72743CCF80878DAF800405746B9
:101AD000D1F804C09C435FEACC3C00D51C433C6079
:101AE000DBF800405F46D1F804C09C435FEA8C3CC1
:101AF00000D51C433C60DEF800407746D1F804C0B6
:101B00009C435FEACC2C00D51C433C60084F0C374B
:101B10003C68D1F804C09C435FEA8C2C00D51C4380
:101B20003C60521C102AFFF42FAFBDE8F88F000074
:101B3000003C0140443802400030014000000240B7
:101B40000004024000080240000C02400010024065
:101B50000014024000180240001C024000690840C6
:101B600000D0012070470AB1816170470904FBE78A
:101B700001488068704700003800002002488168F2
:101B80000278114481607047380000200B4810B57E
:101B9000016841F400710160016841F480610160F5
:101BA000016841F480710160032000F06FF80020AB
:101BB00000F006F800F024F8002010BD003C0240C0
:101BC00070B50D4D04464FF47A712878B1FBF0F0F2
:101BD0000A490968B1FBF0F000F00CFB48B9102C81
:101BE00007D200222146501E00F030F800206C6021
:101BF00070BD012070BD00003800002044000020AE
:101C00000A4808B5016841F480410160006800F4A9
:101C1000804000900548001F016841F0805101603C
:101C2000006800F08050009008BD00004438024079
:101C3000002809DB00F01F020121914040098000CB
:101C400000F1E020C0F8001170470000F0B40E4B26
:101C50001B680C46C3F30223C3F10705042D00D90A
:101C60000425191D072901D2002300E0DB1E0126EF
:101C700006FA05F1491E214099409E40761E164005
:101C80003143F0BC01F026BF0CED00E0064900F046
:101C9000070208684FF6FF03184040EA0220034A93
:101CA00010430860704700000CED00E00000FA05EA
:101CB0002DE9F0470E46050065D0DFF81481D8F80D
:101CC0000000F7B200F00700B04207D288F80070B9
:101CD000D8F8000000F00700B04254D128683D4C0D
:101CE000810712D5400703D5206840F4E0502060FA
:101CF0002878000703D5206840F460402060206801
:101D0000A96820F0F000084320602878C0072DD093
:101D1000304968680839012812D0022813D00328F6
:101D200011D00968890700292DDA216821F0030103
:101D300001432160FFF71CFF814641F2883A0EE023
:101D400009688903EFE709688901ECE7FFF710FFED
:101D5000A0EB0901514502D90320BDE8F0872068B6
:101D6000696800F00C00B0EB810FEFD1D8F80010DB
:101D7000404601F00701B14207D90770006800F042
:101D80000700B04201D00120E7E72878400705D5D9
:101D90002068E96820F4E0500843206028780007B4
:101DA00006D52068296920F4604040EAC10020601F
:101DB00000F038F82168084AC1F30311515CC840AB
:101DC0000649086006480068FFF7FAFE0020C4E7ED
:101DD000003C0240083802403C3F0008440000201C
:101DE0003C0000200448054900680968044AC1F322
:101DF0008221515CC84070474400002008380240EE
:101E00004C3F00080448054900680968044AC1F3CA
:101E10004231515CC84070474400002008380240FD
:101E20004C3F0008154810B5006810F00C0214482B
:101E300013D01449042A0FD0082A0ED10F4C241FA6
:101E40002268236802F03F025B0207D52068C0F3D6
:101E50008810A0FB010106E0084610BD2168C1F30F
:101E60008811A1FB00010023FEF714FA2168C1F3D9
:101E70000141491C4900B0FBF1F010BD0838024097
:101E80000024F400001BB7002DE9F84F04006ED0C9
:101E90002078DFF84C93C007A9F104054AD009F176
:101EA00004000168C1F38101012908D00068C0F372
:101EB000810002280AD1D9F80000400206D528681E
:101EC000800337D560680028E1D033E06068B0F562
:101ED000803F10D0B0F5A02F286810D020F48030BB
:101EE0002860286820F4802028606068A8B1FFF787
:101EF0003FFE06460DE0286840F48030F4E740F4E9
:101F000080202860F7E700BFFFF732FE801B6428BF
:101F100073D828688003F7D50CE0FFF729FE064642
:101F200005E000BFFFF724FE801B6428F0D8286876
:101F30008003F7D42078DFF8AC8280074FF0000AE6
:101F40003ED5A748001D016811F00C0F08D00068AD
:101F5000C0F3810002280BD1D9F80000400207D459
:101F60002868800716D5E068012800D112E033E127
:101F7000E068B8B10120C8F80000FFF7F9FD064697
:101F800005E000BFFFF7F4FD801B0228C0D82868D9
:101F90008007F7D52868216920F0F80040EAC100E1
:101FA00028600DE0C8F800A0FFF7E2FD064604E057
:101FB000FFF7DEFD801B02281FD828688007F7D4B2
:101FC0002078000722D5864F87486169703771B144
:101FD00001210160FFF7CCFD064604E0FFF7C8FDD4
:101FE000801B022809D838688007F7D50EE0C0F8B2
:101FF00000A0FFF7BDFD064605E082E0FFF7B8FD53
:10200000801B02287DD838688007F7D420784007E5
:1020100068D5DFF8CCB100270BF13C0BDBF80000F2
:10202000C0000BD4DBF8001041F08051CBF8001059
:10203000DBF80000012700F0805000906B4E306804
:10204000C00510D4306840F480703060FFF790FD18
:10205000009005E0FFF78CFD0099401A022850D847
:102060003068C005F6D55E4EA0686C3601280FD0EA
:102070000528306810D020F001003060306820F072
:1020800004003060A068B8B1FFF772FD00900FE067
:10209000306840F00100F4E740F004003060F7E7FA
:1020A000FFF766FD0099411A41F28830814266D8F7
:1020B00030688007F4D50EE0FFF75AFD009007E086
:1020C000FFF756FD0099411A41F28830814256D8F7
:1020D00030688007F4D42FB1DBF8001021F0805174
:1020E000CBF80010A069C8B33D49091D0968C1F3C8
:1020F000810102294AD00228504607D0C8F8600062
:1021000000E03CE0FFF734FD04463BE04746C8F8FA
:102110006000FFF72DFD064605E000BFFFF728FD34
:10212000801B02282BD828688001F7D4D4E9070146
:102130000843A16A2E4A490802EB0141626A41EA5A
:102140008211084394F82C1040EA0161C9F800108C
:1021500001203866FFF70CFD044606E03EE000BFB4
:10216000FFF706FD001B022809D828688001F7D573
:1021700034E000BFFFF7FCFC001B022802D903205B
:10218000BDE8F88F28688001F4D427E00128F7D053
:10219000D9F80000E26900F4800191421CD1226A62
:1021A00000F03F01914217D147F6C071626A0140C9
:1021B000B1EB821F10D1A26A4FF0FF3300F440311F
:1021C00003EB5202B1EB024F06D194F82C1000F051
:1021D0007060B0EB016F01D00120D1E70020CFE7A4
:1021E0000438024000004742800E47420070004021
:1021F0000000FFFF10B5401EB0F1807F01D3012029
:1022000010BD4FF0E02460610F21601701F062FC07
:102210000020A06107202061002010BD704770479A
:1022200070B590F83C20012A32D0012480F83C405F
:10223000022280F83D2003685A689D6822F07006EB
:102240000A6832435A60134B02689A4214D0B2F1C2
:10225000804F11D0104B9A420ED0104B9A420BD0A7
:102260000F4B9A4208D00F4B9A4205D00E4B9A4220
:1022700002D00E4B9A4204D1496825F080031943DD
:10228000916080F83D40002180F83C10084670BD08
:10229000022070BD00000140000400400008004022
:1022A000000C0040000401400040014000180040C4
:1022B00010B5040003D094F83D0010B107E00120F0
:1022C00010BD002084F83C00204600F01FF80220DA
:1022D00084F83D00211D206801F0F4F8012084F805
:1022E000460084F83E0084F83F0084F8400084F8FB
:1022F000410084F8420084F8430084F8440084F8E4
:10230000450084F83D00002010BD000010B586B0E7
:10231000044614216846FEF743F92068B0F1804F67
:102320001FD111480021026842F0010202600068DA
:1023300000F0010005900C481038026842F00102DC
:102340000260006800F00100059022200090022049
:10235000CDE901010120CDE9031069460348FFF7EB
:1023600005FB06B010BD00004038024000000240EE
:1023700090F83D10012901D001207047022180F81A
:102380003D100168CA6842F00102CA600068114944
:10239000884214D0B0F1804F11D00F4988420ED03E
:1023A0000E4988420BD00E49884208D00D49884218
:1023B00005D00D49884202D00C49884204D1816879
:1023C00001F00701062903D0016841F00101016015
:1023D0000020704700000140000400400008004059
:1023E000000C004000040140004001400018004083
:1023F00070B5044690F83C000025012817D001264E
:1024000084F83C60022084F83D002068826822F055
:10241000770222F47F4282600868502838D00DDCB1
:1024200020284FD005DC90B3102811D14AE00220BB
:1024300070BD302846D040280AD13BE060282FD01C
:1024400070280DD0B0F5805F03D0B0F5005F12D0DA
:10245000012584F83D60002084F83C00284670BDCA
:10246000CB68D1E90121206801F090F820688168EB
:1024700041F0770109E0CB68D1E90121206801F042
:1024800085F82068816841F480418160E1E719E0C6
:10249000CA684968206801F08BF85021206806E07E
:1024A000CA684968206801F0D5F86021206801F009
:1024B00077F8CEE7CA684968206801F079F84021CA
:1024C0002068F4E7226801461046F0E770472DE9DE
:1024D000F041054690F83C0000260C46012810D03B
:1024E000012085F83C0072B1042A1CD0082A2CD0A7
:1024F0000C2A50D00126002085F83C003046BDE86B
:10250000F0810220FBE7D4E90012E368286801F0BB
:1025100061F82868816921F00C018161286881696E
:10252000A26811430FE0D4E90012E368286801F0C3
:10253000A3F82868816921F4406181612868816974
:10254000A26841EA02218161D5E72868D4E9002C1C
:10255000277B016A21F480710162C169036A21F05D
:10256000030141EA0C0121F0F00C39074FF4206718
:102570004CEA116123F4206307EA02221A43C16185
:1025800002622868C16921F00C01C1612868C16933
:10259000A268114328E02868D4E90027E168036AAB
:1025A00023F480530362D0F81CC0036A2CF4407CEF
:1025B0004CEA07274FF6FF7C27F470470CEA0131FD
:1025C00039434FF4204723F4204307EA02321A43E9
:1025D000C16102622868C16921F44061C161286853
:1025E000C169A26841EA0221C16184E710B5040013
:1025F00003D094F83D0010B107E0012010BD002089
:1026000084F83C00204600F01EF8022084F83D00CB
:10261000211D206800F056FF012084F8460084F850
:102620003E0084F83F0084F8400084F8410084F8BC
:10263000420084F8430084F8440084F8450084F89C
:102640003D00002010BD704770B504460068016968
:102650004FF00005C943890715D4C168C9438907EC
:1026600011D4E91E0161012020772068806980076C
:10267000204602D0FFF72AFF04E000F098F8204639
:1026800000F096F8257720680169C943490717D4F7
:10269000C168C943490713D46FF0040101610220E6
:1026A00020772068806910F4407F204602D0FFF731
:1026B0000DFF04E000F07BF8204600F079F8257764
:1026C00020680169C943090716D4C168C9430907CD
:1026D00012D46FF008010161042020772068C069DE
:1026E0008007204602D0FFF7F1FE04E000F05FF81B
:1026F000204600F05DF8257720680169C943C906C6
:1027000017D4C168C943C90613D46FF01001016121
:10271000082020772068C06910F4407F204602D04E
:10272000FFF7D4FE04E000F042F8204600F040F845
:10273000257720680169C943C90708D1C168C94321
:10274000C90704D1891E0161204600F033F82068D2
:102750000169C943090609D4C168C943090605D4FA
:102760006FF0800101612046FFF758FD2068016984
:10277000C943490609D4C168C943490605D46FF065
:1027800040010161204600F037F820680169C94323
:1027900089060BD4C168C943890607D46FF02001AC
:1027A00001612046BDE87040FFF739BD70BD70473C
:1027B0007047000070B50F4C01206071A17A0025B0
:1027C00039B1A17B491CC9B2A1730A2901D3E070B8
:1027D000A573617A01B1A070E07A002809D0E07C8D
:1027E000401CC0B2E0743C2803D300F0E1FDE57268
:1027F000E57470BD0000002070477047704700000E
:10280000F8B5016804460868CA684B6910F00F0FF4
:102810004FF0000559D003F0010602F490773743DA
:1028200065D0C10705D0D10503D5216C41F0010168
:102830002164410705D5D90703D0216C41F002017D
:102840002164810705D5D90703D0216C41F004012B
:102850002164010707D502F02001314303D0216C28
:1028600041F008012164216C00293AD0800604D58A
:10287000900602D5204600F050FF20684069216C88
:10288000C0F38010090700D460B3204600F01EFF9B
:1028900020684069400621D52068143050E8001FA8
:1028A00021F0400140E80012002AF5D1A06BA8B148
:1028B0006C490165A06BFFF734F8002811D0A06BBC
:1028C000016D01B0BDE8F040084783060FD59306BF
:1028D0000DD52046BDE8F84000F01FBF2046FFF7A9
:1028E0008DFFF8BD2046FFF789FF2564F8BD266BF4
:1028F0002023012E79D1C60677D5D60675D508686E
:10290000486800904869400640D5A16B0868406857
:102910000004000CEAD0A28D8242E7D9E085C869A4
:10292000B0F5807F2DD020680C3050E8001F21F4D6
:10293000807140E80012002AF5D12068143050E878
:10294000001F21F0010140E80012002AF5D12068A3
:10295000143050E8001F21F0400140E80012002A26
:10296000F5D184F83E30256320680C3050E8001F14
:1029700021F0100140E80012002AF5D1A06BFEF70B
:1029800087FFA08DE18D401A81B229E0A08DE18DF5
:10299000401A81B2E08D0028A8D00029A6D0206876
:1029A0000C3050E8002F22F4907240E80026002EF0
:1029B000F5D12068143050E8002F22F0010240E8E1
:1029C0000026002EF5D184F83E30256320680C30B7
:1029D00050E8002F22F0100240E80023002BF5D130
:1029E0002046FFF70AFFF8BDFFE705062BD51506C1
:1029F00029D594F83D002128F5D1A068B0F5805F75
:102A000001D12069B0B1206A411C2162216800789F
:102A10004860E08C401E0004000CE084E3D1206894
:102A2000C16821F08001C1602068C16841F04001A7
:102A3000C160D8E7206A0088C0F308004860206AB7
:102A4000801C2062E5E74006CDD55006CBD5CA688C
:102A5000204622F04002CA6084F83D3000F0A9F917
:102A6000C1E70000BD36000870B5040004D094F83A
:102A70003D00002510B106E0012070BD84F83C50F7
:102A8000204600F023F8242084F83D002068C16827
:102A900021F40051C160204600F0A0FE20680169C9
:102AA00021F4904101612068416921F02A014161CE
:102AB0002068C16841F40051C1602564202084F879
:102AC0003D0084F83E00002070BD0000F0B587B0E6
:102AD000044614216846FDF763FD294B2268002453
:102AE000284902250326082727489A4228D1254A43
:102AF0001032136843F480131360126802F48012DA
:102B000005920A6842F004020A600A6802F00402B0
:102B100005920A6842F008020A60096802AA01F0F8
:102B2000080105918114CDE9001582E8D0006946BD
:102B3000FEF71CFF0420CDE900056946134818E0A4
:102B4000134B9A421AD10F4A1432136843F02003F0
:102B50001360126802F0200205920A6842F0040233
:102B60000A60096801F004010591C021CDE9001552
:102B7000694602AA82E8D000FEF7F8FE07B0F0BD71
:102B8000005000403038024000080240000C024073
:102B90000014014090F83E30202B0ED159B152B1B3
:102BA00090F83C30012B08D0012380F83C30002302
:102BB000036300F099BE01207047022070470000B7
:102BC0002DE9F0410646006846490125464C86B08D
:102BD0004FF00008884216D1217CE079814206D06E
:102BE00051B1424A207D1154401C207504E0FEF78B
:102BF000D7FD84F8148025703B493C4801221031F0
:102C00004438FFF7C7FF3A493068884266D1374FEA
:102C1000207D1E3709284AD333497A782431384633
:102C2000032A02D0062A37D10DE082790A70427950
:102C30004A7002798A70F878C87091ED000A84EDC4
:102C40000A0A657028E0C278837802EB032292B208
:102C5000E2831646C2790A7082794A7042798A7094
:102C60003879C87091ED000A84ED0C0A94ED0C0AD5
:102C700010EE100A01F0BAF8CDE9000132461DA1AC
:102C800002A8FDF77FFBC2B21848A274C82302A9AC
:102C9000443800F035F8A5711349144884F80880C9
:102CA00084F81480012211318838FFF773FF207DEA
:102CB00010B9617C01290FD0217A19B1627C3A5494
:102CC000401C207506B00849BDE8F04107480122C4
:102CD00011318838FFF75EBF2572EFE706B0BDE817
:102CE000F081000000140140000000201C010020C1
:102CF000005000403C25642F252E31666500000001
:102D00002DE9F843044690F83D001F4616460D464F
:102D100020284CD1C5B1BEB194F83C00012846D062
:102D2000012084F83C004FF00008C4F840802120C6
:102D300084F83D00FEF71CFFA6848146E684A06867
:102D4000B0F5805F03D004E00120BDE8F88320697E
:102D500028B12E465FF0000584F83C800EE0002686
:102D6000FAE78021204600F0DAFDA0B9AEB116F8EE
:102D7000010B21684860E08C401EE084E08C4B46EB
:102D80004FF0000200970028EBD14FF040012046A1
:102D900000F0C5FD30B10320D7E735F8020BC0F3D2
:102DA0000800E6E7202084F83D000020CDE702205F
:102DB000CBE77047FEE7000010B500224FF48061BA
:102DC0000448FEF7D0FE0022BDE810402021024852
:102DD000FEF7C9BE001002400008024010B50122F3
:102DE00091020548FEF7BFFE0022BDE810402021F9
:102DF0000248FEF7B8BE0000001002400008024082
:102E00002DE9F04F87B014216846FDF7C9FB8D48C6
:102E10000024016841F010010160016801F0100117
:102E20000591016841F004010160016801F00401AD
:102E30000591016841F080010160016801F08001A5
:102E40000591016841F001010160016801F0010193
:102E50000591016841F002010160016801F0020181
:102E60000591016841F0080101600068764E00F0AC
:102E70000800059000224AF213313046FEF773FE37
:102E800000224FF4C1617148FEF76DFEDFF8C0917A
:102E900049F60858002241464846FEF764FE0122E2
:102EA00030216A48FEF75FFE002246F2650169485C
:102EB000FEF759FE012248F202016648FEF753FE72
:102EC00001224FF4B9413046FEF74DFE4FF4806ABF
:102ED000012251466048FEF746FE4FF4284B00227F
:102EE00059465D48FEF73FFE6C20CDE90004694677
:102EF00030460294FEF73AFD4FF69370009001259C
:102F0000CDE90154694630460394FEF72FFD42F2A5
:102F10000700CDE9000469464C480294FEF726FDFF
:102F20004FF4C7600090CDE90154694647480394C7
:102F3000FEF71CFD032708200095CDE9037002264B
:102F4000CDE9016469464846FEF710FD4FF425704F
:102F5000CDE90004694648460294FEF707FDCDF826
:102F60000080CDE90154694648460394FEF7FEFC13
:102F700040200090CDE90164CDE90346694648460A
:102F8000FEF7F4FC4EF267000090CDE9015469466B
:102F900030480394FEF7EAFCB8024FF01208CDE97E
:102FA000000802AA4FF0040982E8A00269462948F5
:102FB000FEF7DCFC41F21820CDE900046946254803
:102FC0000294FEF7D3FC3802CDE9000602940720F4
:102FD000CDE9037069462048FEF7C8FC1120CDF802
:102FE00000A0CDE9010469461B480394FEF7BEFC2E
:102FF000CDF800B0CDE90154694617480394FEF7B7
:10300000B5FC45F28300CDE90004694612480294FC
:10301000FEF7ACFC28020090CDE90164CDE903473E
:1030200069460A48FEF7A2FCF801CDE9000802AAA9
:10303000694682E8A0020748FEF798FC07B0BDE8A1
:10304000F08F0000303802400010024000080240BB
:103050000000024000040240000C024010B58AB09B
:103060000024244804940594069407940894099431
:103070000094019402944FF08041039401604FF456
:10308000FA71C0E9011442F2D001C0E903148021B1
:103090008161FFF70DF900B1FEE74FF48050049015
:1030A00004A91448FFF7A4F900B1FEE71148FFF79F
:1030B0009DFA00B1FEE72020CDE9080408A90D48DB
:1030C000FFF7AEF800B1FEE70120CDE90040029421
:1030D0000022694607480394FFF7F9F900B1FEE7BB
:1030E000042269460348FFF7F2F9002800D0FEE702
:1030F0000AB010BD4C000020FEE77047704700008A
:10310000F0B542480021031D076893E861000122E1
:103110003F4C89B00A2F09D2DFE807F0050D0812ED
:103120001A28494F6F7518B1FEF70AFB09B0F0BDB8
:10313000FEF72EFBFAE70128F8D100F039F9F5E7A0
:10314000012802D0FFF738FEF0E7FFF747FEEDE772
:10315000012807D021719FED2F0AE17284ED0B0A3F
:10316000A175E3E722716273E172DFE7D0B106EB8C
:103170008600400000EE100AB8EEC00A00F0BAFC6B
:10318000F2EE040A80EE201ABCEEC10A10EE100A1C
:1031900081B200EE101A2184A8B2B8EE400A00F005
:1031A00003FCC3E7B1B2A8B200F03EFCBEE70128C1
:1031B00001D06172BAE76272B8E782B2B0B200EED3
:1031C000100A6283ABB2F8EE400A00EE102AA38325
:1031D0002084B8EE400A10A180EE801A84ED0D1A0A
:1031E000009001A8FDF7CEF8C2B20848A274C82327
:1031F00001A9A838FFF784FD98E7012801D0A17242
:1032000094E7A27292E7607590E7000080010020C9
:1032100000000020000000007225642F25642F2587
:10322000646500007CB501218DF8001003228DF843
:103230000120020A8DF802208DF8030000208DF88D
:1032400004008DF805104FF6FF7000216C464AF21D
:103250000103625C50400822C5074FEA500000D0CD
:103260005840521EF8D1491C0629F2DB8DF80600A1
:10327000000A0C4C8DF8070001212046FEF773FC74
:10328000C823082269460848FFF73AFD0122114683
:103290002046FEF768FC012204490348FFF77AFC48
:1032A0007CBD0000001002409400002011000020AE
:1032B0002DE9F041224F002480213846FEF74EFCD4
:1032C00000B101241F4E40213046FEF747FC08B1F3
:1032D00044F0020404213046FEF740FC08B144F0FB
:1032E0000404194D02212846FEF738FC08B144F0C9
:1032F000080408213046FEF731FC08B144F0100400
:1033000001212846FEF72AFC08B144F020041021D0
:103310003846FEF723FC08B144F040040421284657
:10332000FEF71CFC08B144F0800408210748FEF7B2
:1033300015FC08B144F480742046BDE8F08100001B
:103340000000024000100240000802400004024059
:103350007047000070B50C46054600220121114857
:10336000FEF701FC012210210F48FEF7FCFB0F4E77
:103370004FF480710DB1012200E000223046FEF7CB
:10338000F2FB4FF480610CB1012200E000223046D4
:10339000FEF7E9FB00224FF400613046FEF7E3FB45
:1033A000012070BD000402400008024000100240ED
:1033B00010B5064C012220212046FEF7D4FB204602
:1033C0000122BDE810401021FEF7CDBB00080240ED
:1033D000FEF7D4BB30B593B030216846FDF7E0F876
:1033E00014210CA8FDF7DCF81C480025016841F009
:1033F00080510160006800F0805011901848016809
:1034000041F4804101600068022400F48040119082
:1034100001200090000401908001CDE906400C20BD
:1034200008904FF4A870CDE9090404200B90684679
:10343000FEF72AFD00B1FEE70CA90F2081E831005C
:103440004FF4A0500F90109005210CA8FEF730FC0F
:10345000002800D0FEE713B030BD00004038024025
:10346000007000401048016841F4700101600F488D
:10347000016841F0010101600C4A0021083211602D
:1034800002680B4B1A400260031D0A4A1A60026868
:1034900022F48022026005480C300160024958067F
:1034A000803908607047000088ED00E00038024075
:1034B000FFFFF6FE103000240148FFF7C5B80000FA
:1034C0004C000020F0B50268254C264D264E274FB3
:1034D000274B4FF0804CA04209D0604507D0A8424E
:1034E00005D0B04203D0B84201D0984204D122F0B6
:1034F000700E4A6842EA0E02A0421BD0604519D005
:10350000A84217D0B04215D0B84213D0984211D07B
:10351000184DA8420ED0184DA8420BD0174DA84206
:1035200008D0174DA84205D0164DA84202D0164D1E
:10353000A84203D122F44075CA682A434D6922F09B
:1035400080022A4302608A68C2620A688262A042DC
:1035500001D0984201D10969016301214161F0BDA7
:10356000000001400004004000080040000C004042
:103570000004014000400140004401400048014077
:1035800000180040001C00400020004010B5846876
:1035900042EA032224F47F440A432243826010BD9E
:1035A000826822F070020A4342F00701816070478E
:1035B00010B5036A046A24F001040462846924F0EB
:1035C000F00444EA021423F00A020A43846102620E
:1035D00010BD000070B5046A24F00104046284691F
:1035E000056A154EB04214D0B0F1804F11D0134E81
:1035F000B0420ED0124EB0420BD0124EB04208D0A4
:10360000114EB04205D0114EB04202D0104EB04221
:1036100003D124F00304144301E044F001041A0729
:1036200024F0F00444EA126225F00A0301F00A01D2
:1036300019438261016270BD000001400004004036
:1036400000080040000C0040000401400040014020
:103650000018004010B5036A23F010030362836969
:10366000046A23F4704343EA023224F0A00343EADD
:1036700001118261016210BD30B5046A24F01004AA
:1036800004628469056A24F4407444EA022222F444
:1036900070444FF6FF7202EA03322243A02425F061
:1036A000A00304EA011119438261016230BD0000E8
:1036B0000148FFF7A5B800009400002010B5806B0A
:1036C0000021C185C184FFF799F810BD01680C3154
:1036D00051E8002F22F4907241E80023002BF5D12D
:1036E0000168143151E8002F22F0010241E8002363
:1036F000002BF5D1016B012909D101680C3151E88A
:10370000002F22F0100241E80023002BF5D12021E8
:1037100080F83E1000210163704708B590F83E1014
:10372000222901D0022008BD82684FF480539A42BA
:1037300001D1016921B1816A9A421BD04AB10AE0E4
:103740000268816A5268C2F308020A80816A891C91
:1037500008E0026972B10268526802F07F020A70E2
:10376000816A491C8162C18D491E0904090CC18509
:1037700003D019E002685268F1E70168CA6822F0D4
:103780002002CA600168CA6822F48072CA600168B7
:103790004A6922F001024A61202180F83E10016B43
:1037A000012903D0FFF70CFA002008BD00210163B6
:1037B00001680C3151E8002F22F0100241E800238B
:1037C000002BF5D101680A68D20602D50A6849685B
:1037D0000091818DFFF711F8E6E7000070B504460F
:1037E00000680169E26821F44051114301612169D7
:1037F000A068E26908436169114308432168CA6807
:1038000049F20C639A430243CA6020684169A26985
:1038100021F440711143416131492068884202D04E
:103820003049884202D1FEF7EDFA01E0FEF7DAFAFC
:10383000E2690023192164253226B2F5004F62683F
:1038400028D0A0FB0101930F9200FCF723FD014655
:10385000B0FBF5F06FF01802504301EB800006EB6F
:103860000010B0FBF5F000F0F002B1FBF5F002EB58
:103870000012B1FBF5F06FF01803584301EB800024
:1038800006EB0010B0FBF5F000F00F0021681044CB
:10389000886070BDA0FB010192185B41FCF7FAFC47
:1038A0000146B0FBF5F00201B1FBF5F06FF0180333
:1038B000584301EB800006EBC000B0FBF5F000F0D0
:1038C000F80002EB4002B1FBF5F0584301EB800039
:1038D00006EBC000B0FBF5F000F00700D6E70000F3
:1038E000001001400014014081628285C2850021E0
:1038F0000164222280F83E2080F83C100168CA68EA
:1039000042F48072CA6001684A6942F001024A6169
:103910000068C16841F02001C160002070472DE9B6
:10392000F041984617460E460446069D27E0681C5F
:1039300025D02DB1FEF71CF9A0EB0800A8421ED936
:1039400020680C3050E8001F21F4D07140E80012CC
:10395000002AF5D12068143050E8001F21F0010141
:1039600040E80012002AF5D1202084F83D0084F8B8
:103970003E00002084F83C000320BDE8F081206870
:10398000006836EA000004D00020B842CFD0002002
:10399000F3E70120F9E700000148FEF731BF00001E
:1039A000D8000020FEE700003EB501218DF8001090
:1039B00006218DF80110010A8DF802108DF8030020
:1039C00010EE100A6C464AF20103010E8DF8041045
:1039D000010C8DF80510010A8DF806108DF807000E
:1039E0004FF6FF700021625C50400822C5074FEA85
:1039F000500000D05840521EF8D1491C0829F2DB73
:103A00008DF80800000A8DF8090001210448FEF72E
:103A1000AAF8C8230A2269460248FFF771F93EBD99
:103A200000100240940000203EB501228DF80020D5
:103A300006228DF80120020A8DF802208DF803007D
:103A4000080E8DF80400080C8DF80500080A8DF8A2
:103A500006008DF807104FF6FF7000216C464AF201
:103A60000103625C50400822C5074FEA500000D0B5
:103A70005840521EF8D1491C0829F2DB8DF8080085
:103A8000000A8DF8090001210448FEF76CF8C823EC
:103A90000A2269460248FFF733F93EBD0010024092
:103AA0009400002003B401984100009850EAC1201E
:103AB00018BF04204A0D18BF40F0010040F2FF7209
:103AC000B2EB515F08BF40F00200012808BF05209B
:103AD00002B070470907090E002804DB00F1E0205E
:103AE00080F80014704700F00F0000F1E02080F82B
:103AF000141D704710B52DED028BB0EE408A18EE04
:103B0000100A00F0E9F901EE100A18EE100AB7EEFB
:103B1000000A78EE410A10F0004F4FF07F4010EE9F
:103B2000901A12D0B1F13F4F24BF10EE901AB0EBB3
:103B3000410F12D210EE901AB1F17C5F1CDD10EE35
:103B4000901AB0EB410F17D314E0B1F13F4F07D9F2
:103B500010EE901AB0EB410F02D331EE401A0BE099
:103B600010EE901AB1F17C5F06DB10EE901AB0EB0C
:103B7000410F01D331EE001A18EE100ABDEC028B92
:103B800011EE101A61F31E0000EE100A10BD30385D
:103B90000A2801D201207047002070470EB5FDF7BA
:103BA000F5FFFFF717FCFFF72BF9FFF757FA674808
:103BB00065494FF4165600240160C0E901640C25E4
:103BC000C460C0E904458461C461FEF74DFF00B1E3
:103BD000FEE75E485E4944300160C0E90164C460AC
:103BE000C0E904458461C461FEF73EFF00B1FEE711
:103BF000002211464720FEF729F84720FEF718F863
:103C0000002201213520FEF721F83520FEF710F8BB
:103C1000002202211C20FEF719F81C20FEF708F8EC
:103C20000122D1034B48FDF79EFF41F28830FDF79A
:103C30008BFE46484838FEF79BFB44480122464924
:103C40004430FEF7A7FF01210846FFF783FB424FF0
:103C5000103F387810B1FFF753FA3C70787900289C
:103C6000F7D0387918B1FDF7D5FD87ED0B0AB87894
:103C700038B3F87828B3F86A00F0B8F897ED0A0A74
:103C800005460E4610EE100A00F0B0F841EC100B9D
:103C9000788C0095CDE901602C4853EC102B2FA1B6
:103CA000CE30FCF76FFB2949C2B2CE31BA74C823BB
:103CB000A1F18A00FFF724F8FFF7FAFA7884BC70C4
:103CC000FC70F878A0B1B87890B920487A8C28A117
:103CD000CE30FCF757FB1D49C2B2CE31BA74C823AF
:103CE000A1F18A00FFF70CF8FFF7E2FA7884FC7084
:103CF000F87820BBB87810B3F86A00F077F897ED41
:103D00000A0A05460E4610EE100A00F06FF841EC64
:103D1000100B0E48CDE9005653EC102B16A1CE30F7
:103D2000FCF730FB0949C2B2CE31BA74C823A1F105
:103D30008A00FEF7E5FFFFF7BBFA7884BC700C2021
:103D4000FFF770FA7C7184E7005000409400002077
:103D500000140140001002401000002073332F2592
:103D60002E31662F252E31662F2564650000000058
:103D700073312F256465000073322F252E31662F95
:103D8000252E31666500000010B500290AD008789C
:103D9000002807D005487844FDF7C2F8002801D074
:103DA000002010BD0248784410BD000072020000DF
:103DB0006A02000010B500290AD00878002807D050
:103DC00005487844FDF7ACF8002801D0002010BD6C
:103DD0000248784410BD0000620200005A02000050
:103DE0000808A0F500114FEA3101704743004FEA7F
:103DF000D30C4FEA3C0C43401FBF40070CF160510D
:103E000013F0FE4F70471CF0006F03D100200CF040
:103E1000004170470CF0004343EA507010B540EA8F
:103E2000CC0000F00EF800BF000000924FEA000145
:103E3000FFF7D6BF4FF000414FF00000A1F5002181
:103E400070470EF1020E2EF0030E5EF8044B244272
:103E500004D44FEA4102B2F17F4F11D84FEA400338
:103E6000B3F17F4F0CD80ED14FEAD07CB2F17F4F27
:103E70000CEB4C0C0CF1020C08BF4CEBD17C04E0B9
:103E80004FF0080C01E04FEAD17C0CEB4C0324FA14
:103E900003F404F00704B4F1040C06D20EEB840C16
:103EA000BDE810404CF0010C6047DFE80CF007085B
:103EB00002024FF00040A0F5800010BD084642000D
:103EC00018BFD2F1807288BF00F0004010BD4FF0E3
:103ED0004070E1EE100A70475FEA400C5FEA1C6C2C
:103EE000BCF17F0314D4D3F1170240F31C804FF0D0
:103EF000010C0CFA02FCACF101030340B3EB5C02D1
:103F000020EA030008BF10EA0C0F88BF6044704726
:103F1000B3F1FF3F28BF5FEA002C00F0004088BFEC
:103F200040F07E507047BCF1FF0FB8BF704710B52E
:103F3000FFF787FF40DBB6BEFCF792BC0000000035
:103F40000000000001020304060708090000000049
:103F50000102030402400000000000A00000000075
:103F600005400000000000C8000000000C400000F8
:103F70000000409C00000000194000000020BCBE72
:103F80000000000034400000BFC91B8E0000000488
:103F9000B5400000504BCFD06607E2CF01000000D3
:103FA0006C4100003E8251AADFEEA7340100000000
:103FB000D9420000DCB5A0E23A301F97FFFFFFFFB7
:103FC000B4450000FD25A0C8E9A3C14FFFFFFFFFD6
:103FD000FF3F00000000008000000000FF3F0000E5
:103FE00000000080000000003441000800000020B4
:103FF0004C000000C4010008804100084C00002073
:10400000AC070000E00100081C00000043000000B5
:10401000F8FFFFFF0C0000000E0000000F00000082
:104020002E0000001001000043000000F8FFFFFF19
:1040300000404040404040404040414141414140BB
:104040004040404040404040404040404040404070
:1040500040050202020202020202020202020202FF
:104060000220202020202020202020020202020204
:10407000020290909090909010101010101010105C
:104080001010101010101010101010100202020268
:1040900002028888888888880808080808080808AC
:1040A00008080808080808080808080802020202A8
:1040B00040000000000000000000000000000000C0
:1040C00000000000000000000000000000000000F0
:1040D00000000000000000000000000000000000E0
:1040E00000000000000000000000000000000000D0
:1040F00000000000000000000000000000000000C0
:1041000000000000000000000000000000000000AF
:10411000000000000000000000000000000000009F
:10412000000000000000000000000000000000008F
:10413000000000000000000000000024000000005B
:104140000000003200000000000000000000A00F8E
:10415000A00F0000000000000000000000000000B0
:10416000000000000000000000000000010000004E
:1041700010000000000000000024F4000000000017
:040000050800018965
:00000001FF
